:020000040000FA
:100000000C945D000C9485000C9485000C94850084
:100010000C9485000C9485000C9485000C9485004C
:100020000C9485000C9485000C9485000C9485003C
:100030000C9485000C9485000C9485000C9485002C
:100040000C9404060C9485000C9485000C94850097
:100050000C9485000C9485000C9485000C9485000C
:100060000C944E060C94850000000008000201006C
:100070000003040700000000000000000000000072
:10008000250028002B0000000000240027002A0083
:10009000040404040404040402020202020203032E
:1000A0000303030301020408102040800102040836
:1000B00010200102040810206D0711241FBECFEF8D
:1000C000D8E0DEBFCDBF11E0A0E0B1E0E2E4F3E1B3
:1000D00002C005900D92A433B107D9F722E0A4E342
:1000E000B1E001C01D92AE31B207E1F710E0CDE5FD
:1000F000D0E004C02197FE010E949909CC35D107B8
:10010000C9F70E9496070C949F090C94000090E098
:10011000FC01EC55FF4F249180579F4FFC018491C7
:10012000882399F090E0880F991FFC01EA57FF4F50
:10013000A591B491FC01E458FF4F859194918FB73C
:10014000F894EC91E22BEC938FBF089508950895F5
:10015000AF92BF92CF92DF92EF92FF920F931F93D5
:10016000CF93DF936C017B018B01040F151FEB0113
:100170005E01AE18BF08C017D10759F06991D601CA
:10018000ED91FC910190F081E02DC6010995892B3C
:1001900079F7C501DF91CF911F910F91FF90EF90FB
:1001A000DF90CF90BF90AF90089590E0FC01E859A8
:1001B000FF4F2491FC01EC55FF4F3491FC01E057B7
:1001C000FF4FE491EE23C9F0222339F0233001F1EF
:1001D000A8F4213019F1223029F1F0E0EE0FFF1FD1
:1001E000E458FF4FA591B4918FB7F894EC91611149
:1001F00026C030953E233C938FBF08952730A9F049
:100200002830C9F0243049F7809180008F7D03C0E9
:10021000809180008F7780938000DFCF84B58F77C7
:1002200084BDDBCF84B58F7DFBCF8091B0008F770D
:100230008093B000D2CF8091B0008F7DF9CF3E2B5C
:10024000DACF3FB7F8948091990190919A01A091EB
:100250009B01B0919C0126B5A89B05C02F3F19F0CA
:100260000196A11DB11D3FBFBA2FA92F982F882736
:10027000BC01CD01620F711D811D911D42E0660F11
:10028000771F881F991F4A95D1F7089508952091E7
:100290005501260F3327331F21323105ECF420910D
:1002A000CD01FC0190E080E0243069F082E0089507
:1002B000A09155012191AC014B5C5E4FA40FB52F6D
:1002C000B11D2C930196861798F380915501680F04
:1002D0006093550180E0089581E008951092CD016A
:1002E00081E08093CC011092A70161E082E10E943D
:1002F000D50061E083E10E94D500E9EBF0E0808168
:100300008E7F808380818D7F808388E48093B80096
:1003100085E48093BC000895CF93DF9391E09093A0
:1003200034018823B9F0C091B800D091BA0080910F
:10033000BC008A7B8093BC0060E082E10E94D50013
:1003400060E083E10E94D5000E946E01D093BA0064
:10035000C093B800DF91CF9108958F929F92AF9292
:10036000BF92CF92DF92EF92FF920F931F93CF93A2
:10037000DF93D091F601D13208F0D7C0182FC09189
:10038000F5010E9421016B017C018091CD01811159
:100390006BC082E08093CD011093CC018FEF8093EE
:1003A000CB011092CA01D093C901A5EDB1E0E9EAF1
:1003B000F1E080E0D81391C01092A8018091A801CB
:1003C000CC0FC82BC093A8018091A701813009F000
:1003D00088C01092A7010E9421016B017C018091CD
:1003E000A8018093BB008091CF019091D001A09192
:1003F000D101B091D201892B8A2B8B2BA1F00E94C5
:1004000021010091CF011091D0012091D1013091B3
:10041000D2016C197D098E099F0906171707280755
:10042000390708F442C08091BC0083FDD8CF85EC29
:100430008093BC000E9421016B017C018091CD0161
:10044000823009F450C08091CB018F3F09F46FC016
:100450008091CB01803209F46CC08091CB01803354
:1004600009F469C084E026C08091CF019091D00149
:10047000A091D101B091D201892B8A2B8B2B09F449
:1004800084CF0E9421018090CF019090D001A09054
:10049000D101B090D2016C197D098E099F09861691
:1004A0009706A806B90608F070CF8091CE010E9489
:1004B0008C0185E01092D4011092F6011092D301C4
:1004C000DF91CF911F910F91FF90EF90DF90CF9030
:1004D000BF90AF909F908F9008959D9191938F5F63
:1004E00069CF85EEA5CF8091CF019091D001A091E9
:1004F000D101B091D201892B8A2B8B2B09F49ECF8D
:100500000E9421010091CF011091D0012091D101D1
:100510003091D2016C197D098E099F0906171707C2
:100520002807390708F08ACFC0CF81E0C3CF80E029
:10053000C1CF82E0BFCF83E0BDCF0895E091A2019B
:100540008091A101E81730F4F0E0E858FE4F808177
:1005500090E008958FEF9FEF08959091A201809110
:10056000A1012FEF3FEF981748F4E92FF0E0E8588A
:10057000FE4F208130E09F5F9093A201C901089552
:100580008091A1019091A201891B990B0895CF92AE
:10059000DF92EF92FF920F931F93CF93DF937C0133
:1005A000CB018A012091D301222389F0EB016B0159
:1005B000C40ED51ECC15DD0569F06991D701ED910A
:1005C000FC910190F081E02DC7010995F3CF642FD4
:1005D0000E944701C801DF91CF911F910F91FF90B9
:1005E000EF90DF90CF900895CF93DF931F92CDB718
:1005F000DEB769832091D3012223F9F02091F6011F
:10060000203258F021E030E0FC013383228390E077
:1006100080E00F90DF91CF9108958091D401E82F71
:10062000F0E0EB52FE4F998190838F5F8093D4016D
:100630008093F60181E090E0ECCF61E0CE0101967D
:100640000E944701F7CFCF93C42FFC0180818062C5
:1006500091E09093D3018093F5011092D401109210
:10066000F60187EF91E00E94F4026C2F87EF91E092
:100670000E94F40281E0CF910C94AD0190E080E003
:100680000895CF92DF92EF92FF920F931F93CF9333
:10069000DF93EC018881806291E09093D301809395
:1006A000F5011092D4011092F60187EF91E00E94BB
:1006B000F40281E00E94AD01C8810E9421016B011A
:1006C0007C018091CD01811165C081E08093CD01D5
:1006D0008093CC019FEF9093CB011092CA011092AE
:1006E000C9018093A8018091A801C062CC0FC82BDA
:1006F000C093A8018091A701813009F082C01092B7
:10070000A7010E9421016B017C018091A8018093C7
:10071000BB008091CF019091D001A091D101B09107
:10072000D201892B8A2B8B2BA1F00E9421010091F1
:10073000CF011091D0012091D1013091D2016C19DB
:100740007D098E099F09061717072807390708F43E
:1007500042C08091BC0083FDD8CF85EC8093BC0063
:100760000E9421016B017C018091CD01813009F44F
:100770004AC08091CA01811168C08091CA01E9EA2A
:10078000F1E0A8E7B1E090E0981751F121912D93A5
:100790009F5FFACF8091CF019091D001A091D101BC
:1007A000B091D201892B8A2B8B2B09F48ACF0E941E
:1007B00021010091CF011091D0012091D101309100
:1007C000D2016C197D098E099F09061717072807A2
:1007D000390708F076CF8091CE010E948C0180E02D
:1007E0001092A2018093A10187EF91E00E94AD02D7
:1007F000DF91CF911F910F91FF90EF90DF90CF90FD
:10080000089585EEABCF8091CF019091D001A0915A
:10081000D101B091D201892B8A2B8B2B09F4A4CF63
:100820000E9421010091CF011091D0012091D101AE
:100830003091D2016C197D098E099F09061717079F
:100840002807390708F090CFC6CF81E098CF1F93D3
:10085000CF93DF93EC01162F60E00E94410341E04B
:1008600050E001C0440F1A95EAF74095482360E034
:10087000CE01DF91CF911F910C942303FC01218DB8
:100880002F3F29F0683048F44A960C942704858954
:100890008F3F19F4862F0C9487000895EF92FF92F2
:1008A0000F931F93CF93DF93EC01162F042F898DA5
:1008B0008F3FF1F0683008F053C06A9669E0CE01CE
:1008C0000E94410341E050E001C0440F1A95EAF74D
:1008D000013059F4482B69E0CE01DF91CF911F918F
:1008E0000F91FF90EF900C94230340954823F3CF92
:1008F0008D898F3F91F1288D81E090E001C0880FB4
:100900006A95EAF7413031F5822B888F60E08F8954
:100910000E94D500088DFD88EE8818E0602F661FC4
:100920006627661F8E2D0E94D500000F61E08F2D77
:100930000E94D50060E08F2D0E94D500115071F704
:1009400061E08F89DF91CF911F910F91FF90EF9020
:100950000C94D50080958223D8CF642F812FF2CFBD
:10096000DF91CF911F910F91FF90EF900895CF935A
:10097000DF93EC0140E06E810E944E0441E06E8105
:10098000CE010E944E0440E06E81CE010E944E04D2
:100990008BE891E00197F1F7DF91CF910895CF9225
:1009A000DF92EF92FF920F931F93CF93DF938C010F
:1009B000FC01818DE8012796C62ED12CF12CE12C6B
:1009C0008F3F09F45FC07801FAE1EF0EF11C69E096
:1009D000C7010E944103FE0170E060E0C1E0D0E089
:1009E00091919E01092E01C0220F0A94EAF72095E9
:1009F0008223A601062E02C0559547950A94E2F778
:100A00004170552701C0440F9A95EAF7842B6F5F18
:100A10007F4F6430710521F7F80196819E0101C076
:100A2000220F9A95EAF7D22ED094D8224D2D69E064
:100A3000C7010E942303F8018681AE0101C0440F63
:100A40008A95EAF7D42A4D2D69E0C7010E94230355
:100A5000F801868101C0CC0F8A95EAF7C0954C2F2A
:100A60004D2169E0C7010E9423038BE891E00197C3
:100A7000F1F7DF91CF911F910F91FF90EF90DF90F1
:100A8000CF9008956991C8010E943E04A6010E2CE2
:100A900002C0559547950A94E2F74170FE013197DF
:100AA0006081C8010E944E04FFEFEF1AFF0A84E044
:100AB000E816F10439F7C801DF91CF911F910F912A
:100AC000FF90EF90DF90CF900C94B704CF92DF921D
:100AD000EF92FF920F931F93CF93DF93EC01F62ECB
:100AE0006C810E944E046D816F3F21F040E0CE0189
:100AF0000E944E040F2D10E08F8584FF2CC06E01E4
:100B000087E0C80ED11CF12CE12CF60161916F0138
:100B1000CE010E943E04A8010E2C02C055954795B7
:100B20000A94E2F74170F60131976081CE010E948C
:100B30004E04FFEFEF1AFF0A88E0E816F10429F7E8
:100B4000CE01DF91CF911F910F91FF90EF90DF9039
:100B5000CF900C94B704B80184E0759567958A9599
:100B6000E1F7CE010E94CF046F2DCE01DF91CF912E
:100B70001F910F91FF90EF90DF90CF900C94CF04D6
:100B800040E0682F83E092E00C94660541E00E940B
:100B9000660581E090E0089585ED8093BC0080912A
:100BA000CF019091D001A091D101B091D2010796CF
:100BB000A11DB11D23E0B695A795979587952A9518
:100BC000D1F72091BC0024FD03C01092CD010895FF
:100BD0004091CF015091D0016091D1017091D2012B
:100BE000452B462B472B69F30097A105B10541F032
:100BF0002AE22A95F1F700C00197A109B109E1CFD6
:100C00008091CE010C948C011F920F920FB60F921F
:100C100011242F933F938F939F93AF93BF93809112
:100C2000A3019091A401A091A501B091A6013091DA
:100C3000980123E0230F2D3758F50196A11DB11D12
:100C4000209398018093A3019093A401A093A50100
:100C5000B093A6018091990190919A01A0919B0176
:100C6000B0919C010196A11DB11D809399019093B3
:100C70009A01A0939B01B0939C01BF91AF919F916A
:100C80008F913F912F910F900FBE0F901F9018954D
:100C900026E8230F0296A11DB11DD2CF1F920F92FD
:100CA0000FB60F9211242F933F934F935F936F933F
:100CB0007F938F939F93AF93BF93EF93FF93809115
:100CC000B900887F803609F44AC0F0F5883209F40B
:100CD000A7C018F5803109F49BC0B8F4882309F443
:100CE000F9C0883009F494C0FF91EF91BF91AF91A2
:100CF0009F918F917F916F915F914F913F912F9134
:100D00000F900FBE0F901F901895883109F488C07E
:100D1000803251F78093CB0114C0803409F49DC018
:100D200040F48033B9F38833F9F68093CB0185EC36
:100D3000B0C0803509F485C0883509F496C0883480
:100D400099F60E94CC05D0CF883909F48CC038F5CB
:100D5000883729F050F4883611F0803729F683E07F
:100D60008093CD011092770157C0883809F47BC079
:100D7000803919F0803809F0B7CF8091770180323F
:100D800008F071C0E091770181E08E0F80937701C8
:100D90008091BB00F0E0E95AFE4F80833DC0803B6C
:100DA00039F0E0F4803A09F479C0883A09F09CCF30
:100DB00084E08093CD011092560110925501E0918C
:100DC0009F01F091A00109958091550181110FC0FB
:100DD00081E0809355011092350109C0803C09F4EF
:100DE000A6CF883C09F4A3CF883B09F07DCFE091E2
:100DF000560181E08E0F80935601F0E0EB5CFE4FD0
:100E000080818093BB00909156018091550129C04B
:100E10008091A8018093BB0085EC8093BC0064CFD7
:100E20009091CA018091C901981758F5E091CA01C3
:100E300081E08E0F8093CA01F0E0E755FE4F80817C
:100E4000E9CFE091CA0181E08E0F8093CA018091C1
:100E5000BB00F0E0E755FE4F80839091CA0180917E
:100E6000C9019817C8F285E8D8CFE091CA0181E09E
:100E70008E0F8093CA018091BB00F0E0E755FE4FD2
:100E800080838091CC0181115CCF81E08093A701A8
:100E900084EA8093BC001092CD0126CF85EC80932C
:100EA000BC001092CD0180917701803230F4E09146
:100EB0007701F0E0E95AFE4F10826091770170E00F
:100EC000E0919D01F0919E0187E591E009951092D6
:100ED00077010ACF1092CB0134CFE7EFF1E0138214
:100EE000128288EE93E0A0E0B0E084839583A6832D
:100EF000B7838CE091E091838083E3E0F2E013829A
:100F000012828EE191E091838083118E178681E0B9
:100F100084838FEF858382E0868383E0878384E008
:100F2000808785E0818786E082870895CF93DF936D
:100F3000CDB7DEB7A1970FB6F894DEBF0FBECDBF19
:100F4000789484B5826084BD84B5816084BD85B5A4
:100F5000826085BD85B5816085BD80916E008160B0
:100F600080936E0010928100809181008260809356
:100F70008100809181008160809381008091800058
:100F80008160809380008091B10084608093B10083
:100F90008091B00081608093B00080917A0084607D
:100FA00080937A0080917A00826080937A008091A9
:100FB0007A00816080937A0080917A0080688093C3
:100FC0007A001092C10080911C028F3F09F456C133
:100FD000877080931D021092A2011092A1011092BD
:100FE000D4011092F6010E946E0186EA90E090937F
:100FF000A00180939F0187EA90E090939E018093E7
:101000009D0180911D02806291E09093D3018093B5
:10101000F50160E087EF91E00E94F4026FEF87EF47
:1010200091E00E94F40260E087EF91E00E94F402F8
:1010300060E087EF91E00E94F40260E087EF91E0CA
:101040000E94F40260E087EF91E00E94F40260E009
:1010500087EF91E00E94F40260E087EF91E00E9448
:10106000F40260E087EF91E00E94F40260E087EF15
:1010700091E00E94F40260E087EF91E00E94F402A8
:1010800081E00E94AD0167E08DE192E00E942704BB
:1010900069E08DE192E00E944103482F406869E0D9
:1010A0008DE192E00E9423030AE012E04EE0E42E7C
:1010B00042E0F42EF80161918F0183E092E00E94FA
:1010C0003E04E016F106B1F760910702683020F4A3
:1010D0008DE192E00E94270460910902683020F4BB
:1010E0008DE192E00E942704809112028860809333
:1010F000120282E080931602109217028BE39DE0A9
:101100000197F1F740E06091070283E092E00E94CE
:101110004E0440E06091090283E092E00E944E0498
:10112000609108026F3F29F040E083E092E00E9466
:101130004E048091120284FDC4C063E083E092E01B
:101140000E94CF040BE416E4C8010197F1F763E0B5
:1011500083E092E00E94CF04C8010197F1F763E0B9
:1011600083E092E00E94CF0483E592E00197F1F7DB
:1011700062E083E092E00E94CF04809112028062DC
:101180000E94C00584E0809313028CE00E94C00599
:1011900081E00E94C0058BE39FE10197F1F782E0B7
:1011A0008093140286E00E94C0054DE050E066E2A4
:1011B00071E083E092E00E94A80098EEC92E93E0CF
:1011C000D92EE12CF12C2AE0422E512C612C712CCD
:1011D00030E0A32E30E0B32E88E0E0E0F1E0DE0165
:1011E000119601900D928A95E1F780911602EFEF2A
:1011F0008111E1E0F0E0EE0FFF1F81E090E08C0F45
:101200009D1FE80FF91F808180680E94C0052FB7DD
:10121000F8946091A3017091A4018091A50190912F
:10122000A6012FBFA70196010E94770919A28E017E
:101230000F5D1F4FCA01B901A30192010E947709F6
:10124000605DF80162938F0121153105410551055B
:1012500089F7309761F001900020E9F73197AF01ED
:10126000401B510BB80183E092E00E94A800A1143A
:10127000B10409F4B1CF0E940000AECF80911802F2
:101280008F3F81F0809119020E948700809118029F
:101290000E94870080911A020E94870080E8809354
:1012A0001B0222CF809107020E94870080910802D2
:1012B0008F3F11F00E948700809109020E948700F1
:1012C00013CF80620E94C0058BE496E40197F1F78A
:1012D0008091120280620E94C00583E592E001972E
:1012E000F1F78091120280620E94C00546CFA1E210
:1012F0001A2EAA1BBB1BFD010DC0AA1FBB1FEE1F90
:10130000FF1FA217B307E407F50720F0A21BB30BDA
:10131000E40BF50B661F771F881F991F1A9469F756
:1013200060957095809590959B01AC01BD01CF01B2
:101330000895EE0FFF1F0590F491E02D0994F894A5
:10134000FFCF000040001400540000000000F40231
:10135000C7023E039D02C002AD029E0200000000D3
:10136000C605A8003E03460148656C6C6F2C2077CB
:061370006F726C642100A5
:107E0000112484B714BE81FFF0D085E080938100F7
:107E100082E08093C00088E18093C10086E0809377
:107E2000C20080E18093C4008EE0C9D0259A86E02C
:107E300020E33CEF91E0309385002093840096BBD3
:107E4000B09BFECF1D9AA8958150A9F7CC24DD24C4
:107E500088248394B5E0AB2EA1E19A2EF3E0BF2EE7
:107E6000A2D0813461F49FD0082FAFD0023811F036
:107E7000013811F484E001C083E08DD089C08234E0
:107E800011F484E103C0853419F485E0A6D080C0E4
:107E9000853579F488D0E82EFF2485D0082F10E0AE
:107EA000102F00270E291F29000F111F8ED06801E7
:107EB0006FC0863521F484E090D080E0DECF843638
:107EC00009F040C070D06FD0082F6DD080E0C81688
:107ED00080E7D80618F4F601B7BEE895C0E0D1E017
:107EE00062D089930C17E1F7F0E0CF16F0E7DF06D8
:107EF00018F0F601B7BEE89568D007B600FCFDCFD4
:107F0000A601A0E0B1E02C9130E011968C91119780
:107F100090E0982F8827822B932B1296FA010C0160
:107F200087BEE89511244E5F5F4FF1E0A038BF0790
:107F300051F7F601A7BEE89507B600FCFDCF97BE46
:107F4000E89526C08437B1F42ED02DD0F82E2BD052
:107F50003CD0F601EF2C8F010F5F1F4F84911BD097
:107F6000EA94F801C1F70894C11CD11CFA94CF0C13
:107F7000D11C0EC0853739F428D08EE10CD085E9AC
:107F80000AD08FE07ACF813511F488E018D01DD067
:107F900080E101D065CF982F8091C00085FFFCCF94
:107FA0009093C60008958091C00087FFFCCF809118
:107FB000C00084FD01C0A8958091C6000895E0E648
:107FC000F0E098E1908380830895EDDF803219F02E
:107FD00088E0F5DFFFCF84E1DECF1F93182FE3DFCA
:107FE0001150E9F7F2DF1F91089580E0E8DFEE27F6
:047FF000FF270994CA
:027FFE00040479
:00000001FF
