:100000000C9476000C949E000C949E000C949E0020
:100010000C949E000C949E000C949E000C949E00E8
:100020000C949E000C949E000C949E000C949E00D8
:100030000C949E000C949E000C949E000C949E00C8
:100040000C94D0110C949E000C949E110C94781179
:100050000C949E000C949E000C949E000C949E00A8
:100060000C941A120C949E00000020410000C8421B
:1000700000401C4620BCBE4CCA1B0E5AAEC59D7427
:10008000CDCCCC3D0AD7233C17B7D13877CC2B3217
:100090009595E6241FB14F0A0000000800020100F8
:1000A0000003040700000000000000000000000042
:1000B000250028002B0000000000240027002A0053
:1000C00004040404040404040202020202020303FE
:1000D0000303030301020408102040800102040806
:1000E00010200102040810203913181611241FBE15
:1000F000CFEFD8E0DEBFCDBF12E0A0E0B1E0EEEF81
:10010000F5E302C005900D92AA30B107D9F723E0BC
:10011000AAE0B2E001C01D92AA3AB207E1F710E0EE
:10012000C5E7D0E004C02197FE010E94F118C43752
:10013000D107C9F70E949E130C94F21A0C94000088
:1001400090E0FC01EC52FF4F249180549F4FFC0142
:100150008491882399F090E0880F991FFC01EA545C
:10016000FF4FA591B491FC01E455FF4F8591949107
:100170008FB7F894EC91E22BEC938FBF089508951C
:10018000089508950895AF92BF92CF92DF92EF92B3
:10019000FF920F931F93CF93DF936C017B018B0131
:1001A000040F151FEB015E01AE18BF08C017D10781
:1001B00059F06991D601ED91FC910190F081E02D0B
:1001C000C6010995892B79F7C501DF91CF911F9160
:1001D0000F91FF90EF90DF90CF90BF90AF90089578
:1001E000FC01538D448D252F30E0842F90E0821B3D
:1001F000930B541710F0CF96089501970895FC01C2
:10020000918D828D981761F0A28DAE0FBF2FB11D19
:100210005D968C91928D9F5F9F73928F90E0089571
:100220008FEF9FEF08952FB7F89480917F02909100
:100230008002A0918102B09182022FBF8093DD02E3
:100240009093DE02A093DF02B093E00285ED92E08E
:100250000E94FF0097FF26C02FB7F89480917F027D
:1002600090918002A0918102B09182022FBF4091B3
:10027000DD025091DE026091DF027091E002841B8A
:10028000950BA60BB70B4091D9025091DA02609101
:10029000DB027091DC0284179507A607B707B0F25E
:1002A0008FEF9FEF0895FC01918D828D981731F0AB
:1002B000828DE80FF11D858D90E008958FEF9FEFFF
:1002C0000895FC01918D228D892F90E0805C9F4FD5
:1002D000821B91098F739927089585ED92E00E9402
:1002E000610121E0892B09F420E0822F089580E04C
:1002F00090E0892B29F00E946D0181110C9400007F
:100300000895FC01A48DA80FB92FB11DA35ABF4FAA
:100310002C91848D90E001968F739927848FA68904
:10032000B7892C93A089B1898C91837080648C9358
:10033000938D848D981306C00288F389E02D808107
:100340008F7D80830895EF92FF920F931F93CF9339
:10035000DF93EC0181E0888F9B8D8C8D98131AC000
:10036000E889F989808185FF15C09FB7F894EE89E7
:10037000FF896083E889F989808183708064808344
:100380009FBF81E090E0DF91CF911F910F91FF908F
:10039000EF900895F62E0B8D10E00F5F1F4F0F7337
:1003A0001127E02E8C8D8E110CC00FB607FCFACFF2
:1003B000E889F989808185FFF5CFCE010E9481010E
:1003C000F1CFEB8DEC0FFD2FF11DE35AFF4FF082C3
:1003D0009FB7F8940B8FEA89FB8980818062CFCF29
:1003E000CF93DF93EC01888D8823B9F0AA89BB896C
:1003F000E889F9898C9185FD03C0808186FD0DC057
:100400000FB607FCF7CF8C9185FFF2CF808185FF77
:10041000EDCFCE010E948101E9CFDF91CF91089508
:1004200090E0FC01E856FF4F2491FC01EC52FF4F95
:100430003491FC01E054FF4FE491EE23C9F02223F4
:1004400039F0233001F1A8F4213019F1223029F1DB
:10045000F0E0EE0FFF1FE455FF4FA591B4918FB769
:10046000F894EC91611126C030953E233C938FBFE8
:1004700008952730A9F02830C9F0243049F7809139
:1004800080008F7D03C0809180008F7780938000F3
:10049000DFCF84B58F7784BDDBCF84B58F7DFBCF75
:1004A0008091B0008F778093B000D2CF8091B00060
:1004B0008F7DF9CF3E2BDACF3FB7F894809177024A
:1004C00090917802A0917902B0917A0226B5A89B0A
:1004D00005C02F3F19F00196A11DB11D3FBFBA2FD6
:1004E000A92F982F8827BC01CD01620F711D811D96
:1004F000911D42E0660F771F881F991F4A95D1F71B
:1005000008958F929F92AF92BF92CF92DF92EF9217
:10051000FF924B015C010E945C026B017C010E9416
:100520005C026C197D098E099F09683E7340810544
:100530009105A8F321E0821A9108A108B10888EE7C
:10054000C80E83E0D81EE11CF11C81149104A104A3
:10055000B10429F7FF90EF90DF90CF90BF90AF905C
:100560009F908F900895DC01ED91FC910190F081B6
:10057000E02D099420915302260F3327331F213297
:100580003105ECF42091CF02FC0190E080E02430B2
:1005900069F082E00895A09153022191AC014D5C75
:1005A0005D4FA40FB52FB11D2C930196861798F3BC
:1005B00080915302680F6093530280E0089581E0B8
:1005C00008951092CF0281E08093AE021092A902AA
:1005D00061E082E10E94100261E083E10E9410026A
:1005E000E9EBF0E080818E7F808380818D7F808346
:1005F00088E48093B80085E48093BC000895CF938D
:10060000DF9391E0909332028823B9F0C091B80053
:10061000D091BA008091BC008A7B8093BC0060E0DE
:1006200082E10E94100260E083E10E9410020E94B9
:10063000E102D093BA00C093B800DF91CF91089542
:10064000CF92DF92EF92FF920F931F93CF93DF939E
:10065000D82FC62F613208F098C00E945C026B014F
:100660007C018091CF0281116BC081E08093CF0229
:100670008093AE029FEF9093AD021092AC029C0F5C
:100680009093AB028093AA028091AA02DD0FD82B2F
:10069000D093AA028091A902813009F078C010920B
:1006A000A9020E945C026B017C018091AA028093E6
:1006B000BB008091D1029091D202A091D302B0915F
:1006C000D402892B8A2B8B2BA1F00E945C02009113
:1006D000D1021091D2022091D3023091D4026C1930
:1006E0007D098E099F09061717072807390708F49F
:1006F00048C08091BC0083FDD8CF85EC8093BC00BE
:100700000E945C026B017C018091CF02813009F470
:1007100040C08091AC028C1710F4C091AC02E9E8A3
:10072000F2E0AFEAB2E080E08C1355C08C2FDF918D
:10073000CF911F910F91FF90EF90DF90CF90089590
:100740008091D1029091D202A091D302B091D402B3
:10075000892B8A2B8B2B09F484CF0E945C02009199
:10076000D1021091D2022091D3023091D4026C199F
:100770007D098E099F09061717072807390708F012
:1007800070CF8091D0020E94FF02C0E0CFCF85EEF3
:10079000B5CF8091D1029091D202A091D302B091B5
:1007A000D402892B8A2B8B2B09F4AECF0E945C02DA
:1007B0000091D1021091D2022091D3023091D40243
:1007C0006C197D098E099F09061717072807390735
:1007D00008F09ACFD6CF91919D938F5FA5CF0895C2
:1007E000E091840280918302E81730F4F0E0E15553
:1007F000FD4F808190E008958FEF9FEF08959091D5
:100800008402809183022FEF3FEF981748F4E92F7D
:10081000F0E0E155FD4F208130E09F5F909384022E
:10082000C90108958091830290918402891B990BDC
:100830000895CF92DF92EF92FF920F931F93CF9381
:10084000DF937C01CB018A0120918802222389F069
:10085000EB016B01C40ED51ECC15DD0569F0699165
:10086000D701ED91FC910190F081E02DC701099530
:10087000F3CF642F0E94BA02C801DF91CF911F917C
:100880000F91FF90EF90DF90CF900895CF93DF937B
:100890001F92CDB7DEB76983209188022223F9F039
:1008A00020918502203258F021E030E0FC013383B2
:1008B000228390E080E00F90DF91CF9108958091A6
:1008C0008602E82FF0E0EE5EFD4F998190838F5F06
:1008D000809386028093850281E090E0ECCF61E016
:1008E000CE0101960E94BA02F7CFCF92DF92EF922B
:1008F000FF920F931F93CF93DF93D091850281E0F6
:10090000D13208F09CC0C09187020E945C026B014A
:100910007C018091CF0281116CC082E08093CF0274
:1009200081E08093AE028FEF8093AD021092AC0213
:10093000D093AB02A2E1B2E0E9E8F2E080E0D813A4
:100940008DC01092AA028091AA02CC0FC82BC0932E
:10095000AA028091A902813009F084C01092A902F4
:100960000E945C026B017C018091AA028093BB0013
:100970008091D1029091D202A091D302B091D40281
:10098000892B8A2B8B2BA1F00E945C020091D10253
:100990001091D2022091D3023091D4026C197D09BA
:1009A0008E099F09061717072807390708F442C060
:1009B0008091BC0083FDD8CF85EC8093BC000E9461
:1009C0005C026B017C018091CF02823009F44CC043
:1009D0008091AD028F3F09F469C08091AD028032F1
:1009E00009F466C08091AD02803309F463C084E0ED
:1009F00026C08091D1029091D202A091D302B091F1
:100A0000D402892B8A2B8B2B09F483CF0E945C02A2
:100A10000091D1021091D2022091D3023091D402E0
:100A20006C197D098E099F090617170728073907D2
:100A300008F06FCF8091D0020E94FF0285E01092F3
:100A400086021092850210928802DF91CF911F9149
:100A50000F91FF90EF90DF90CF9008959D9191932B
:100A60008F5F6DCF85EEA9CF8091D1029091D20298
:100A7000A091D302B091D402892B8A2B8B2B09F43D
:100A8000A2CF0E945C020091D1021091D20220916B
:100A9000D3023091D4026C197D098E099F09061783
:100AA00017072807390708F08ECFC4CF80E0C7CFDB
:100AB00082E0C5CF83E0C3CF1F93CF93DF93162F80
:100AC000CFE9D3E0A981BA81988121E020938802FF
:100AD000909387021092860210928502ED91FC910C
:100AE00011970190F081E02D682FCD010995898142
:100AF0009A81DC01ED91FC910190F081E02D612F54
:100B0000099589819A81DF91CF911F910C94750489
:100B1000CF93C42FFC018081806291E09093880282
:100B200080938702109286021092850282E793E0FA
:100B30000E9446046C2F82E793E00E94460482E7FD
:100B400093E0CF910C94750490E080E00895803399
:100B50009CF08A3324F08F3524F08B3724F481E025
:100B6000089581344CF08B35D4F393ED980F81E0E8
:100B70009230B0F380E008958B32B9F7F0CFFC01EA
:100B80008685811114C0A185B285838594852FEF58
:100B90003FEFA817B90730F4CD01019692878187FE
:100BA0002C9130E037FD20E0258781E08687858520
:100BB00008951F93CF93DF93EC01162F0E94BF057A
:100BC000811306C01E8681E0DF91CF911F910895A9
:100BD00080E0FACFCF93DF93EC01CE010E94BF05F6
:100BE0008B303CF489304CF4882349F081E08887CD
:100BF00010C08D3011F08032C9F71E86EECF888587
:100C000081110AC081E090E0CF5ADF4F9983888339
:100C100080E0DF91CF91089582E090E0F5CFFC0174
:100C200024813581A9014F5F5F4F868197814817E5
:100C3000590748F48281938155834483FC01E20F74
:100C4000F31F608308950190F081E02D81E080879B
:100C500008959F92AF92BF92CF92DF92EF92FF9250
:100C60000F931F93CF93DF9300D000D01F92CDB787
:100C7000DEB78C010E94BF05D82ED8011E961C92AB
:100C8000F12CE12C60EFC62EC8010E94BF05F801CF
:100C90001686D81609F4BDC0811119C0F801EF5AA3
:100CA000FF4F82E090E09183808380E00F900F906F
:100CB0000F900F900F90DF91CF911F910F91FF90A8
:100CC000EF90DF90CF90BF90AF909F9008958C35BC
:100CD00009F09DC0C8010E94BF058823F9F2EAE42B
:100CE000F1E0853709F087C0D8011E961C9254E0C8
:100CF000952EB12CA12CC8010E94BF05882371F24A
:100D000081344CF48053803148F0F801EF5AFF4FA2
:100D100083E090E0C8CF8F7D8753F5CF44E0AA0CE5
:100D2000BB1C4A95E1F7A82AF80116869A949110FF
:100D3000E2CFC501985D8115944020F4750123E050
:100D4000F222A2CFC5019C5D81159440A8F4B3E0C6
:100D5000BB22B701762F6627770F770F6A297B2989
:100D600090E080E00196603871058105910540F4BE
:100D7000C8010E940F0688CFB50190E080E0F3CF54
:100D80001982262F2F7320682A8326E0969587954F
:100D9000779567952A95D1F76032710580F4606C7C
:100DA0006B835E01E4E0AE0EB11CD5016E915D0176
:100DB000662309F469CFC8010E940F06F6CF262FDB
:100DC0002F7320682B8386E0769567958A95E1F7E7
:100DD0006031710538F4606E6C835E01F5E0AF0E32
:100DE000B11CE3CF60686C83CD825E0126E0A20E69
:100DF000B11CDBCF32969081992309F486CF8913F9
:100E0000F9CF8181882309F480CFF8011686682FF5
:100E1000AFCF0190F081E02D8085882331F0F8017B
:100E2000EF5AFF4F84E090E03ECF81E03FCF4F92FA
:100E30005F926F927F928F929F92AF92BF92CF926A
:100E4000DF92EF92FF920F931F93CF93DF93EC010A
:100E50008B0188818B32C9F18D32C1F52196FF2437
:100E6000F394888190ED980F9A3018F08E3209F043
:100E70004DC160E070E0CB01FE012191A0ED8A2E12
:100E8000820E39E0381520F16A3949E97407840780
:100E900049E1940738F5AAE0B0E09B01AC010E945B
:100EA0006417912CB12CA12C24013501409450944D
:100EB00060947094461657066806790698F0680D97
:100EC000791D8A1D9B1DEF01D7CF2196F12CC9CF2B
:100ED000211108C0FF20F1F161307105810550E852
:100EE0009507A0F0E12CEAE08E2E912CA12CB12CDC
:100EF00061157105F0E88F079105C0F1A501940116
:100F00000E94A617CA01B901E394F2CFF801248127
:100F100020782A6024839B01AC0188279927DC0173
:100F2000821B930BA40BB50B80839183A283B383A5
:100F30008F2DDF91CF911F910F91FF90EF90DF9058
:100F4000CF90BF90AF909F908F907F906F905F9069
:100F50004F900895F80124812078286024836083CD
:100F6000718382839383FF24F394E2CFFE0129915E
:100F700030ED320F3A3010F4E394F8CF2E32F1F422
:100F8000EF012196FE012196208150EDD52ED20E43
:100F900029E02D1598F06C3C3CEC73073CE083078E
:100FA000910580F7AAE0B0E09B01AC010E946417B4
:100FB0006D0D711D811D911DEA94E4CF20812F7D5F
:100FC000D0E0C0E0253409F05DC021812D32D9F593
:100FD0003296CC24C394DF01D0E0C0E02E2D0E2C3D
:100FE000000C330B4AE0B42EFD01DD9040ED4D0DB9
:100FF0004A3008F042C0BC9EA001BD9E500D112495
:10100000CD2DDD0CDD0BE097C40FD51FAE01420FD7
:10101000531F4732510544F3F8018481CC20D1F0AD
:1010200040E050E060E070E8F11003C040E050E0C4
:10103000BA0180788C60F801848340835183628395
:101040007383FC2C75CF2B3219F03196C12CC3CF92
:101050003296FCCF40E050E060E87FEFF11004C032
:1010600040E050E060E87FE780788C60F80184839E
:10107000408351836283738376CFCC2019F0D1955E
:10108000C195D1092081211141C0CE0DD11DE7FCB0
:10109000DA950E9426161C161D0604F5E12CC0FFE9
:1010A0000CC024E0E29EF0011124E859FF4F259185
:1010B0003591459154910E948716D595C795E39433
:1010C000209769F7F1109058F801248120782C605E
:1010D0002483608371838283938345CFD195C195A7
:1010E000D109E12C209771F3C0FF0CC044E0E49ECD
:1010F000F0011124E058FF4F25913591459154910D
:101100000E948716D595C795E394ECCFF12C10CFAC
:10111000CF92DF92EF92FF92CF93DF9300D000D077
:101120001F92CDB7DEB7FC01892B39F084818F7710
:101130008630B9F028F4843088F590E080E013C060
:101140008A30E9F08C30B9F18830B9F7808191812B
:10115000A281B381811520E89207A105B10568F746
:1011600002C0808190E00F900F900F900F900F9031
:10117000DF91CF91FF90EF90DF90CF900895808125
:101180009181A281B381AC01BD0150586F4F7F4F57
:10119000411551056140710580F6E5CF808191814F
:1011A0001D82BE016F5F7F4F0E941707CE0101961F
:1011B0000E948808D8CFC080D180E280F38020E0F0
:1011C00030E040E057ECC701B6010E94EC1887FD03
:1011D000B4CF20E03EEF4FEF56E4C701B6010E94C6
:1011E000211618160CF4A9CFC701B6010E94B61833
:1011F000CB01B9CFCF93DF93DC01EB01EC81FD8113
:101200008A819B810896E817F90740F481E0888776
:10121000F0E0E0E0CF01DF91CF9108953897FD83B2
:10122000EC833097B9F31296CD91DC911397209708
:1012300091F0CF018C1B9D0B23E0959587952A9506
:10124000E1F78D831396FC93EE9312971582148227
:1012500017821682DFCF1196FC93EE93F3CFEF92B5
:10126000FF920F931F93CF93DF937C01DC011296C3
:101270002D913C911397ED91FC91AB01420F531FBF
:10128000EF01C60FD71FC217D307A0F488818111C1
:101290000BC0E901CF014C175D0751F00991DC014A
:1012A0001D91CD010117B9F381918111FDCFE8CFD7
:1012B000309751F4620F731FCB010196F7019383AE
:1012C0008283DB011C92F901CF01DF91CF911F9145
:1012D0000F91FF90EF900895CF93DF93EC018881F9
:1012E000806291E090938802809387021092860238
:1012F0001092850282E793E00E94460482E793E021
:101300000E947504888161E080620E94200310922F
:1013100084028093830282E793E00E94FF03DF91BF
:10132000CF9108951F93CF93DF93EC01162F60E0C8
:101330000E946C0941E050E001C0440F1A95EAF7A1
:101340004095482360E0CE01DF91CF911F910C942E
:101350008805FC01218D2F3F29F0683048F44A961A
:101360000C94920985898F3F19F4862F0C94A00064
:101370000895CF93DF93CFE9D3E0A981BA81988113
:1013800021E02093880290938702109286021092A7
:101390008502ED91FC9111970190F081E02D682F6D
:1013A000CD01099589819A810E94750461E0888147
:1013B0000E942003109284028093830289819A8183
:1013C000DC01ED91FC910284F385E02D0995DF911C
:1013D000CF9108958F929F92AF92BF92CF92DF925A
:1013E000EF92FF92CF936B017C0120E030E040E868
:1013F0005FE30E94211687FD7AC020E030EC4AE5C9
:1014000055E4C701B6010E94EC1818163CF4C12C33
:1014100030ECD32E3AE5E32E35E4F32E6091A203AF
:101420007091A3038091A4039091A5030E942616B6
:101430004B015C0120E030E040E855E4C701B60113
:101440000E9487169B01AC01C501B4010E9444189B
:1014500020E030E040E05FE30E94D81720E030E079
:1014600040E85FE30E94D7176B017C0120E030E089
:1014700040E450E40E94211687FD40C020E030E0A7
:101480004FE753E4C701B6010E94EC18181634F474
:10149000C12CD12C9FE7E92E93E4F92E80E00E9425
:1014A000B909C82F682F6F76606180E00E945C05E3
:1014B000C701B6010E94BD188EEF0E945C056C2F1B
:1014C00080E00E945C0565E070E080E090E00E94B2
:1014D00081026C2F606A80E0CF91FF90EF90DF90E7
:1014E000CF90BF90AF909F908F900C945C05C12CD3
:1014F000D12C20E8E22E2FE3F22E90CFC12CD12C5C
:1015000080E4E82EFE2CCACF8F929F92AF92BF92BA
:10151000CF92DF92EF92FF920F931F93CF93DF93BF
:101520008C019B01770F440B550B21583F4F4F4FB8
:101530005F4FA0E2B3E00E9464172EEF30E040E07E
:1015400050E00E944517245B3B4F4F4F5F4FB9015E
:1015500090E080E00E9426166B017C018EEF0E94D5
:10156000B909682F70E06F5F7F4F90E080E00E94C4
:10157000261620E034E244E759E40E9487164B0126
:101580005C01CFE9D3E06B817C818D819E810E94DB
:1015900026169B01AC01C501B4010E9444189B01B1
:1015A000AC01C701B6010E9444180E94BD187B011E
:1015B00089819A81288131E03093880220938702C3
:1015C0001092860210928502B801660F771F660F8F
:1015D000771F6A5F7F4FDC01ED91FC910190F081F4
:1015E000E02D099570E060E089819A810E94B30244
:1015F00070E060E089819A810E94B302B70189811D
:101600009A810E94B3026F2D70E089819A810E94B5
:10161000B30289819A81DF91CF911F910F91FF9041
:10162000EF90DF90CF90BF90AF909F908F900C94F1
:101630007504CF93DF93D0E0C0E070E060E0CE01AE
:101640000E94840A2196C630D105B9F7DF91CF9167
:101650000895EF92FF920F931F93CF93DF93EC01C6
:10166000162F042F898D8F3FF1F0683008F053C09A
:101670006A9669E0CE010E946C0941E050E001C029
:10168000440F1A95EAF7013059F4482B69E0CE016E
:10169000DF91CF911F910F91FF90EF900C948805EF
:1016A00040954823F3CF8D898F3F91F1288D81E0BC
:1016B00090E001C0880F6A95EAF7413031F5822B3E
:1016C000888F60E08F890E941002088DFD88EE8867
:1016D00018E0602F661F6627661F8E2D0E9410027D
:1016E000000F61E08F2D0E94100260E08F2D0E949C
:1016F0001002115071F761E08F89DF91CF911F9136
:101700000F91FF90EF900C94100280958223D8CF18
:10171000642F812FF2CFDF91CF911F910F91FF9016
:10172000EF900895CF93DF93EC0140E06E810E942B
:10173000290B41E06E81CE010E94290B40E06E81B1
:10174000CE010E94290B8BE891E00197F1F7DF9120
:10175000CF910895CF92DF92EF92FF920F931F9354
:10176000CF93DF938C01FC01818DE8012796C62E73
:10177000D12CF12CE12C8F3F09F45FC07801FAE104
:10178000EF0EF11C69E0C7010E946C09FE0170E0D8
:1017900060E0C1E0D0E091919E01092E01C0220FCE
:1017A0000A94EAF720958223A601062E02C05595D9
:1017B00047950A94E2F74170552701C0440F9A9566
:1017C000EAF7842B6F5F7F4F6430710521F7F801D2
:1017D00096819E0101C0220F9A95EAF7D22ED094ED
:1017E000D8224D2D69E0C7010E948805F801868145
:1017F000AE0101C0440F8A95EAF7D42A4D2D69E065
:10180000C7010E948805F801868101C0CC0F8A9526
:10181000EAF7C0954C2F4D2169E0C7010E94880569
:101820008BE891E00197F1F7DF91CF911F910F9134
:10183000FF90EF90DF90CF9008956991C8010E94CA
:10184000A909A6010E2C02C0559547950A94E2F706
:101850004170FE0131976081C8010E94290BFFEFA2
:10186000EF1AFF0A84E0E816F10439F7C801DF91A6
:10187000CF911F910F91FF90EF90DF90CF900C943C
:10188000920BCF92DF92EF92FF920F931F93CF9321
:10189000DF93EC01F62E6C810E94290B6D816F3F66
:1018A00021F040E0CE010E94290B0F2D10E08F8522
:1018B00084FF2CC06E0187E0C80ED11CF12CE12CF6
:1018C000F60161916F01CE010E94A909A8010E2CB9
:1018D00002C0559547950A94E2F74170F601319799
:1018E0006081CE010E94290BFFEFEF1AFF0A88E00A
:1018F000E816F10429F7CE01DF91CF911F910F91E6
:10190000FF90EF90DF90CF900C94920BB80184E0A1
:10191000759567958A95E1F7CE010E94AA0B6F2D08
:10192000CE01DF91CF911F910F91FF90EF90DF904B
:10193000CF900C94AA0B40E0682F84E893E00C94BD
:10194000410C81E00E949B0C8BE39FE10197F1F732
:101950000895CF93DF93CDB7DEB728970FB6F894ED
:10196000DEBF0FBECDBF98E0E6E0F1E0DE011196EC
:1019700001900D929A95E1F790919703961708F4CC
:101980006FEF70E0660F771F21E030E02C0F3D1FF6
:10199000620F731FFB019081890F806828960FB634
:1019A000F894DEBF0FBECDBFDF91CF910C949B0C9E
:1019B00041E00E94410C81E090E00895FB0101901C
:1019C0000020E9F73197AF01461B570BDC01ED9181
:1019D000FC910280F381E02D09948F929F92AF9247
:1019E000BF92EF92FF920F931F93CF93DF93CDB7E8
:1019F000DEB7A1970FB6F894DEBF0FBECDBF7C0156
:101A0000FA01CB0119A2223008F42AE08E010F5D01
:101A10001F4F822E912CB12CA12CBF01A501940146
:101A20000E94A617F901CA016A300CF5605DD80161
:101A30006E938D01232B242B252B79F790E080E0EA
:101A4000109721F0BD01C7010E94DE0CA1960FB6D0
:101A5000F894DEBF0FBECDBFDF91CF911F910F91E4
:101A6000FF90EF90BF90AF909F908F900895695C2A
:101A7000DECFCF92DF92EF92FF920F931F93CF931F
:101A8000DF93EC016A017B01E881F9810190F0812B
:101A9000E02D6DE209958C0144275527BA014C19B8
:101AA0005D096E097F092AE0CE010E94ED0C800FCE
:101AB000911FDF91CF911F910F91FF90EF90DF90D9
:101AC000CF900895AB01770F660B770B2AE00C944B
:101AD000ED0C0F931F93CF93DF93EC0188819981D5
:101AE000009759F02A813B812617370730F081E0B3
:101AF000DF91CF911F910F9108958B016F5F7F4F01
:101B00000E941C1A009759F0998388831B830A83CB
:101B10002C813D81232B59F7FC011082E8CF80E016
:101B2000E7CF0F931F93CF93DF93EC018B010E94BC
:101B3000690D28813981811112C02115310519F0F3
:101B4000C9010E949319198218821D821C821B826E
:101B50001A82CE01DF91CF911F910F9108951D83BD
:101B60000C836AE571E0C9010E94EB1AF2CF85EDA2
:101B70008093BC008091D1029091D202A091D302B7
:101B8000B091D4020796A11DB11D23E0B695A7958B
:101B9000979587952A95D1F72091BC0024FD03C025
:101BA0001092CF0208954091D1025091D2026091DB
:101BB000D3027091D402452B462B472B69F3009733
:101BC000A105B10541F02AE22A95F1F700C001977D
:101BD000A109B109E1CF8091D0020C94FF020F93CB
:101BE0001F93CF93DF9361157105B9F08B01FC0151
:101BF000C081D181209799F06E817F81C8010E94B8
:101C0000E21A892B61F08D81882339F0F8E08F0288
:101C1000C0011124C80FD91FEDCFD0E0C0E0CE0124
:101C2000DF91CF911F910F9108959F92AF92BF9234
:101C3000CF92DF92EF92FF920F931F93CF93DF9398
:101C4000EC018B01E42E0E94EA05D82E81110EC012
:101C5000F12C8F2DDF91CF911F910F91FF90EF907D
:101C6000DF90CF90BF90AF909F900895CE010E94DB
:101C7000BF05873209F42CC114F5823209F428C15A
:101C8000CE010E94BF05E82E5E01F1E1AF0EB11C4E
:101C9000F12C9A2CCB2C8E2D0E94A705882309F4B9
:101CA00043C18FE3F81609F43FC11E86F394F50192
:101CB000E1925F01CE010E94BF05E82EECCF8B358B
:101CC00009F44AC08B37E1F6F8018481807880629C
:101CD00084831182108213821282EE2009F447C09D
:101CE0001E86CE010E94EA05882309F4B1CF6DE774
:101CF000CE010E94D905F82E81114FC0CC24C39487
:101D0000EA94E881F981828193819B838A8384812B
:101D1000958122813381821B930B9F838E831D8249
:101D20001C82892B09F4C086CE010E94BF05873230
:101D300009F460C0823209F45DC0CE010E94BF0583
:101D4000D82E0E94A7058111AEC0CF5ADF4F83E085
:101D500090E0998388837DCFF801848180788064C6
:101D600084831182108213821282E11007C0CF5A3D
:101D7000DF4F85E090E0998388836ACF1E86CE018D
:101D80000E94EA05882309F463CF6DE5CE010E9425
:101D9000D905F82EEA94882311F0FD2C5ACF6F85CF
:101DA0007889C8010E94FA08009729F4CF5ADF4FBA
:101DB00084E090E0CECF4E2DBC01CE010E94150EE6
:101DC000882309F445CFCE010E94EA05882309F44F
:101DD0003FCF6DE5CE010E94D9058111DECF6CE2C7
:101DE000CE010E94D9058111DACFCF5ADF4F83E0AF
:101DF00090E0C1CFCE010E942906882309F429CFA3
:101E0000CE010E94EA05882309F423CF6AE3CE01BC
:101E10000E94D905882309F498CFEA81FB818C813F
:101E20009D81E80FF91F1082AC80BD806A817B81A3
:101E3000C8010E94EF0DBC01892BA9F4B50188816E
:101E400099810E942F095C016F857889C8010E94E1
:101E5000FA08FC01892B09F4A9CF84818068848366
:101E6000B782A682BF014E2DCE010E94150E882397
:101E700009F4EFCECE010E94EA05882309F4E9CEE9
:101E80006DE7CE010E94D905811120C06CE2CE0120
:101E90000E94D905882309F458CFCE010E94EA0593
:101EA00081112FCFD6CE1E866D2DCE010E940F063A
:101EB000CE010E94BF05D82E0E94A7058111F3CF45
:101EC000E881F9818085811171CF9ACFF82EC1CE3A
:101ED000E881F981828193819B838A8384819581C2
:101EE00022813381821B930B9F838E831D821C82F0
:101EF000892B11F481E08087CE010E942906F82EFB
:101F0000882309F4A5CECC80DD80B6018881998133
:101F10000E942F09F8012481207825602483918371
:101F20008083D382C28295CEFE01EF0DF11D118A0E
:101F30008989843781F4F80184818078866084837C
:101F400081E08083F4E0FF1609F427CFCF5ADF4FFA
:101F500082E090E010CF863641F4F80184818078E9
:101F6000866084831082F5E0EECF8E3621F484E023
:101F7000F812ECCF12CFB801892D9C2D0E941707C3
:101F8000882309F432CF09CFFC01248125FD0C946C
:101F9000EF0D90E080E00895CF92DF92EF92FF92F4
:101FA0000F931F93CF93DF93CDB7DEB7C157D140C7
:101FB0000FB6F894DEBF0FBECDBF85ED92E00E9454
:101FC00061018E010F5F1F4F181619060CF05EC1DC
:101FD0001A8219821C821B821E821D8270E060E0C0
:101FE000C8010E94910D0E94130197FD26C08A30FE
:101FF000910519F1C15FDE4F8883CF50D140C05F9A
:10200000DE4F1882C051D140ED80FE808FEFE81A7C
:10201000F80AB701C8010E94690D882321F32981BC
:102020003A818D819E81BE01615F7E4F820F931F39
:102030000E94EB1AFE82ED82D6CF80917E039091B2
:102040007F03009709F4C3C069817A816115710526
:1020500009F4BBC040918003509181032D813E81E2
:102060004217530708F4B1C00E94EB1A8D819E817C
:1020700090938303809382031E821D8289819A81BB
:10208000009711F00E949319CE010F969A838983CD
:102090009C838B83EFE0F1E0EC0FFD1FFE83ED836B
:1020A000F887EF8319861E8620917E0330917F0387
:1020B0008091820390918303820F931FC659DE4F54
:1020C00019830883CA56D14048E0E55AFF4FDE0124
:1020D000AE59BE4F01900D924A95E1F748E0FE01DE
:1020E000EE59FE4FDE01A15FBE4F01900D924A9561
:1020F000E1F7C95EDE4F1882C751D140C85EDE4F9E
:1021000039832883C851D140C65EDE4F99838883C6
:10211000CA51D140C35EDE4F1882CD51D140C25E5C
:10212000DE4F19830883CE51D140C05ADE4F198249
:102130001882C056D1404AE0BE01665F7F4FCE0193
:10214000815F9E4F0E94150EC05ADE4FE880F980D5
:10215000C056D140E114F10471F4C45EDE4F8881B1
:10216000CC51D140882309F45BC08E8583FF58C0D1
:1021700093E0E92EF12C6BE571E085ED92E00E9491
:10218000DE0CF701EE0FFF1FE25FFE4F60817181F1
:102190006115710521F085ED92E00E94DE0C63E689
:1021A00071E085ED92E00E94DE0CCF58DE4F0FB655
:1021B000F894DEBF0FBECDBFDF91CF911F910F917D
:1021C000FF90EF90DF90CF9008950E94931989813E
:1021D0009A8190937F0380937E038B819C8190935F
:1021E0008103809380038D819E81909383038093EC
:1021F00082031A8219821C821B823ECF9081913405
:1022000024F030838F5F31965DC0903CDCF72083F3
:10221000F9CF6AE070E080E090E00E948102C5CFD3
:1022200066E671E0CE010A960E94C40F0E948808FB
:10223000909311028093100260E072E0CE010A9642
:102240000E94C40F0E94880890930F0280930E0290
:1022500068E671E0CE010A960E94C40F0E948808C9
:1022600090930D0280930C026AE671E0CE010A960B
:102270000E94C40F0E94880890930B0280930A0268
:1022800070E060E08EE793E00E94910D20910A02D9
:1022900090910C023091100280910E029D839E83DA
:1022A000982F930F920F492F41954983422F430F47
:1022B000481B4A83831B821B8B839C8380E0F8012D
:1022C00020EC30E4863009F099CFF12C6801F6E07B
:1022D000FF1609F49ECFC601801B910BF601619198
:1022E0006F01062E000C770B0E94840AF394EFCF47
:1022F0001F920F920FB60F9211242F933F934F937B
:102300005F936F937F938F939F93AF93BF93EF935D
:10231000FF9385ED92E00E948101FF91EF91BF91C3
:10232000AF919F918F917F916F915F914F913F916D
:102330002F910F900FBE0F901F9018951F920F9224
:102340000FB60F9211242F938F939F93EF93FF93C8
:10235000E091E502F091E6028081E091EB02F091DC
:10236000EC0282FD1BC090818091EE028F5F8F7323
:102370002091EF02821741F0E091EE02F0E0EB5283
:10238000FD4F958F8093EE02FF91EF919F918F917A
:102390002F910F900FBE0F901F9018958081F4CF52
:1023A0001F920F920FB60F9211242F933F938F938A
:1023B0009F93AF93BF9380917F0290918002A091F1
:1023C0008102B09182023091760223E0230F2D37F3
:1023D00058F50196A11DB11D2093760280937F02CE
:1023E00090938002A0938102B09382028091770241
:1023F00090917802A0917902B0917A020196A11D84
:10240000B11D8093770290937802A0937902B093E4
:102410007A02BF91AF919F918F913F912F910F9031
:102420000FBE0F901F90189526E8230F0296A11D4E
:10243000B11DD2CF1F920F920FB60F9211242F937E
:102440003F934F935F936F937F938F939F93AF933C
:10245000BF93EF93FF938091B900887F803609F492
:102460004AC0F0F5883209F4A7C018F5803109F4A4
:102470009BC0B8F4882309F4F9C0883009F494C0EB
:10248000FF91EF91BF91AF919F918F917F916F914C
:102490005F914F913F912F910F900FBE0F901F9022
:1024A0001895883109F488C0803251F78093AD02C5
:1024B00014C0803409F49DC040F48033B9F38833EC
:1024C000F9F68093AD0285ECB0C0803509F485C083
:1024D000883509F496C0883499F60E94B70DD0CF9C
:1024E000883909F48CC038F5883729F050F48836DB
:1024F00011F0803729F683E08093CF0210927502A5
:1025000057C0883809F47BC0803919F0803809F049
:10251000B7CF80917502803208F071C0E0917502EA
:1025200081E08E0F809375028091BB00F0E0EB5A42
:10253000FD4F80833DC0803B39F0E0F4803A09F4E0
:1025400079C0883A09F09CCF84E08093CF02109242
:10255000540210925302E0917B02F0917C020995A3
:102560008091530281110FC081E080935302109239
:10257000330209C0803C09F4A6CF883C09F4A3CFFC
:10258000883B09F07DCFE091540281E08E0F80936B
:102590005402F0E0ED5CFD4F80818093BB00909190
:1025A00054028091530229C08091AA028093BB00FB
:1025B00085EC8093BC0064CF9091AC028091AB021B
:1025C000981758F5E091AC0281E08E0F8093AC0231
:1025D000F0E0E757FD4F8081E9CFE091AC0281E068
:1025E0008E0F8093AC028091BB00F0E0E757FD4F67
:1025F00080839091AC028091AB029817C8F285E875
:10260000D8CFE091AC0281E08E0F8093AC02809134
:10261000BB00F0E0E757FD4F80838091AE0281114F
:102620005CCF81E08093A90284EA8093BC00109281
:10263000CF0226CF85EC8093BC001092CF02809110
:102640007502803230F4E0917502F0E0EB5AFD4FF4
:1026500010826091750270E0E0917D02F0917E023F
:1026600085E592E00995109275020ACF1092AD02AD
:1026700034CFE5EDF2E01382128288EE93E0A0E021
:10268000B0E084839583A683B7832EE131E0318364
:10269000208325EC30E03587248724EC30E0378731
:1026A000268720EC30E0318B208B21EC30E0338B1F
:1026B000228B22EC30E0358B248B26EC30E0378BFC
:1026C000268B118E128E138E148EE2E7F3E01382A6
:1026D000128284839583A683B78380E391E09183FC
:1026E0008083AFE9B3E080E48C931296FC93EE9381
:1026F0001197E4E8F3E01382128282E491E091837F
:102700008083118E178681E084838FEF858382E03A
:10271000868383E0878384E0808785E0818786E005
:102720008287EEE7F3E01182108213821282158213
:10273000148270E060E0CF010C94910D789484B520
:10274000826084BD84B5816084BD85B5826085BDAD
:1027500085B5816085BD80916E00816080936E003B
:10276000109281008091810082608093810080912D
:1027700081008160809381008091800081608093DE
:1027800080008091B10084608093B1008091B0009E
:1027900081608093B00080917A00846080937A0099
:1027A00080917A00826080937A0080917A008160C3
:1027B00080937A0080917A00806880937A001092EA
:1027C000C100E091E502F091E60282E08083E091B1
:1027D000E102F091E2021082E091E302F091E40262
:1027E00080E180831092ED02E091E902F091EA022B
:1027F00086E08083E091E702F091E80280818061C9
:102800008083E091E702F091E80280818860808314
:10281000E091E702F091E802808180688083E09196
:10282000E702F091E80280818F7D8083109284021C
:102830001092830210928602109285020E94E10299
:102840000FEB10E010937C0200937B02C0ECD0E011
:10285000D0937E02C0937D0260E880E00E945C0518
:102860006AE070E080E090E00E94810260E070E049
:102870008AE794E40E94EA0980E498E7ADE7B1E0D2
:102880008093A2039093A303A093A403B093A50302
:1028900080919D038F3F09F492C1877080939E03BE
:1028A0001092840210928302109286021092850286
:1028B0000E94E10210937C0200937B02D0937E027F
:1028C000C0937D0280919E03806291E09093880284
:1028D0008093870260E082E793E00E9446046FEFF6
:1028E00082E793E00E94460460E082E793E00E9462
:1028F000460460E082E793E00E94460460E082E7DD
:1029000093E00E94460460E082E793E00E94460460
:1029100060E082E793E00E94460460E082E793E093
:102920000E94460460E082E793E00E94460460E073
:1029300082E793E00E94460460E082E793E00E9411
:10294000460482E793E00E94750467E08EE993E015
:102950000E94920969E08EE993E00E946C09482F79
:10296000406869E08EE993E00E948805CBE8D3E0F7
:102970000FE813E0699184E893E00E94A9090C171D
:102980001D07C1F760918803683020F48EE993E059
:102990000E94920960918A03683020F48EE993E0E6
:1029A0000E9492098091930388608093930382E050
:1029B00080939703109298038BE39DE00197F1F7C2
:1029C00040E06091880384E893E00E94290B40E096
:1029D00060918A0384E893E00E94290B6091890347
:1029E0006F3F29F040E084E893E00E94290B80913A
:1029F000930384FD07C163E084E893E00E94AA0B7F
:102A0000CBE4D6E4CE010197F1F763E084E893E0EC
:102A10000E94AA0B2197F1F763E084E893E00E94FB
:102A2000AA0B83E592E00197F1F762E084E893E076
:102A30000E94AA0B8091930380620E949B0C84E009
:102A4000809394038CE00E949B0C0E94A10C82E076
:102A50008093950386E00E949B0C80EC9CEFABE991
:102A6000B1E08093A2039093A303A093A403B09337
:102A7000A50360E070E088E492E40E94EA090E9405
:102A8000190B6EE671E084E893E00E94DE0C61E0D1
:102A900080E00E94A90C6DE771E084E893E00E9459
:102AA000DE0C68EE73E080E090E00E9481020E94FC
:102AB000A10CC3E0D0E06BE871E085ED92E00E94EC
:102AC000DE0CBE0185ED92E00E94620D68E971E0C6
:102AD00085ED92E00E94DE0C63E671E085ED92E008
:102AE0000E94DE0C60E081E00E94A90C6BE871E0BE
:102AF00084E893E00E94DE0CBE0184E893E00E942B
:102B0000620D61E081E00E94A90C64EA71E084E852
:102B100093E00E94DE0C68EE73E080E090E00E949B
:102B20008102219741F60E94A10CC12CD12C760183
:102B30006EEA71E084E893E00E94DE0C2AE0B701BF
:102B4000A60184E893E00E94ED0C64E170E0C60108
:102B50000E94840A68EE73E080E090E00E948102A7
:102B60000E94A10C70E060E0C6010E94840A8FEF11
:102B7000C81AD80AE80AF80A86E0C816D104E1049F
:102B8000F104B1F66DEB71E084E893E00E94DE0C95
:102B900068EE73E080E090E00E9481020E94A10C48
:102BA0000E94190BC0E0D0E00E94CC0F2097E1F307
:102BB0000E946D018823C1F30E940000F5CF80912F
:102BC00099038F3F81F080919A030E94A000809129
:102BD00099030E94A00080919B030E94A00080E8BE
:102BE00080939C03DFCE809188030E94A000809197
:102BF00089038F3F11F00E94A00080918A030E94F8
:102C0000A000D0CE80620E949B0C8BE496E40197DA
:102C1000F1F78091930380620E949B0C83E592E020
:102C20000197F1F78091930380620E949B0C02CF81
:102C300080917E0390917F03009711F00C9493197B
:102C400008950E94631608F481E00895E89409C08D
:102C500097FB3EF490958095709561957F4F8F4FCF
:102C60009F4F9923A9F0F92F96E9BB279395F695E5
:102C7000879577956795B795F111F8CFFAF4BB0F63
:102C800011F460FF1BC06F5F7F4F8F4F9F4F16C0C7
:102C9000882311F096E911C0772321F09EE8872F51
:102CA000762F05C0662371F096E8862F70E060E00D
:102CB0002AF09A95660F771F881FDAF7880F969586
:102CC000879597F90895990F0008550FAA0BE0E82A
:102CD000FEEF16161706E807F907C0F012161306DE
:102CE000E407F50798F0621B730B840B950B39F41E
:102CF0000A2661F0232B242B252B21F408950A2684
:102D000009F4A140A6958FEF811D811D08950E94B1
:102D10009A160C940B170E94FD1638F00E940417A7
:102D200020F0952311F00C94F4160C94FA1611244B
:102D30000C943F170E941C1770F3959FC1F3950FD9
:102D400050E0551F629FF001729FBB27F00DB11D2F
:102D5000639FAA27F00DB11DAA1F649F6627B00DBF
:102D6000A11D661F829F2227B00DA11D621F739FA8
:102D7000B00DA11D621F839FA00D611D221F749FB6
:102D80003327A00D611D231F849F600D211D822FFD
:102D9000762F6A2F11249F5750409AF0F1F0882324
:102DA0004AF0EE0FFF1FBB1F661F771F881F915051
:102DB0005040A9F79E3F510580F00C94F4160C94F6
:102DC0003F175F3FE4F3983ED4F386957795679578
:102DD000B795F795E7959F5FC1F7FE2B880F911D7B
:102DE0009695879597F9089597F99F6780E870E021
:102DF00060E008959FEF80EC089500240A94161671
:102E0000170618060906089500240A9412161306D8
:102E1000140605060895092E0394000C11F4882366
:102E200052F0BB0F40F4BF2B11F460FF04C06F5F82
:102E30007F4F8F4F9F4F089557FD9058440F551F58
:102E400059F05F3F71F04795880F97FB991F61F02C
:102E50009F3F79F087950895121613061406551FA3
:102E6000F2CF4695F1DF08C0161617061806991F0F
:102E7000F1CF86957105610508940895E894BB2704
:102E800066277727CB0197F90895052E97FB1EF447
:102E900000940E945C1757FD07D00E94A61707FCFC
:102EA00003D04EF40C945C175095409530952195C5
:102EB0003F4F4F4F5F4F0895909580957095619566
:102EC0007F4F8F4F9F4F08950E94C817A59F900D69
:102ED000B49F900DA49F800D911D112408952F92F1
:102EE0003F924F925F926F927F928F929F92AF929A
:102EF000BF92CF92DF92EF92FF920F931F93CF93E7
:102F0000DF93CDB7DEB7CA1BDB0B0FB6F894DEBF7D
:102F10000FBECDBF09942A88398848885F846E84A3
:102F20007D848C849B84AA84B984C884DF80EE80ED
:102F3000FD800C811B81AA81B981CE0FD11D0FB6F6
:102F4000F894DEBF0FBECDBFED010895A1E21A2EA9
:102F5000AA1BBB1BFD010DC0AA1FBB1FEE1FFF1F3D
:102F6000A217B307E407F50720F0A21BB30BE40B8D
:102F7000F50B661F771F881F991F1A9469F76095D4
:102F80007095809590959B01AC01BD01CF0108958E
:102F9000A29FB001B39FC001A39F700D811D11249A
:102FA000911DB29F700D811D1124911D08955058DF
:102FB000BB27AA270E94EF170C940B170E94FD163F
:102FC00038F00E94041720F039F49F3F19F426F4DA
:102FD0000C94FA160EF4E095E7FB0C94F416E92F26
:102FE0000E941C1758F3BA176207730784079507E6
:102FF00020F079F4A6F50C943E170EF4E0950B2E14
:10300000BA2FA02D0B01B90190010C01CA01A0013A
:103010001124FF27591B99F0593F50F4503E68F195
:103020001A16F040A22F232F342F4427585FF3CFD6
:10303000469537952795A795F0405395C9F77EF4A7
:103040001F16BA0B620B730B840BBAF09150A1F0F0
:10305000FF0FBB1F661F771F881FC2F70EC0BA0F76
:10306000621F731F841F48F4879577956795B795FE
:10307000F7959E3F08F0B0CF9395880F08F09927F9
:10308000EE0F9795879508950E9458180C940B178A
:103090000E94041758F00E94FD1640F029F45F3F8B
:1030A00029F00C94F41651110C943F170C94FA1655
:1030B0000E941C1768F39923B1F3552391F3951BD4
:1030C000550BBB27AA2762177307840738F09F5F49
:1030D0005F4F220F331F441FAA1FA9F335D00E2EB6
:1030E0003AF0E0E832D091505040E695001CCAF723
:1030F0002BD0FE2F29D0660F771F881FBB1F2617E6
:1031000037074807AB07B0E809F0BB0B802DBF01BC
:10311000FF2793585F4F3AF09E3F510578F00C948B
:10312000F4160C943F175F3FE4F3983ED4F3869572
:1031300077956795B795F7959F5FC9F7880F911DAC
:103140009695879597F90895E1E0660F771F881F98
:10315000BB1F621773078407BA0720F0621B730B4B
:10316000840BBA0BEE1F88F7E09508950E94BD18F6
:103170006894B1110C943F1708950E94241788F0A9
:103180009F5798F0B92F9927B751B0F0E1F0660F2B
:10319000771F881F991F1AF0BA95C9F714C0B1306C
:1031A00091F00E943E17B1E008950C943E17672FEE
:1031B000782F8827B85F39F0B93FCCF3869577959B
:1031C0006795B395D9F73EF4909580957095619584
:1031D0007F4F8F4F9F4F08950E94631608F48FEF23
:1031E0000895EE0FFF1F0590F491E02D09940F93C1
:1031F0001F93CF93DF938230910510F482E090E02B
:10320000E091A803F091A90330E020E0B0E0A0E055
:10321000309799F42115310509F44AC0281B390B60
:1032200024303105D8F58A819B816115710589F1BA
:10323000FB0193838283FE0111C040815181028191
:10324000138148175907E0F04817590799F4109768
:1032500061F012960C93129713961C933296CF013D
:10326000DF91CF911F910F9108950093A8031093C0
:10327000A903F4CF2115310551F04217530738F057
:10328000A901DB019A01BD01DF01F801C1CFEF0106
:10329000F9CF9093A9038093A803CDCFFE01E20F4D
:1032A000F31F819391932250310939832883D7CF1B
:1032B0002091A6033091A703232B41F42091020112
:1032C000309103013093A7032093A60320910001BE
:1032D000309101012115310541F42DB73EB74091E0
:1032E000040150910501241B350BE091A603F091D8
:1032F000A703E217F307A0F42E1B3F0B281739078B
:1033000078F0AC014E5F5F4F2417350748F04E0F41
:103310005F1F5093A7034093A603819391939FCF80
:10332000F0E0E0E09CCFCF93DF930097E9F0FC0161
:10333000329713821282A091A803B091A903ED01E4
:1033400030E020E01097A1F420813181820F931F9B
:103350002091A6033091A7032817390709F061C00F
:10336000F093A703E093A603DF91CF910895EA01BC
:10337000CE17DF07E8F54A815B819E0141155105B3
:10338000B1F7E901FB83EA8349915991C40FD51F35
:10339000EC17FD0761F4808191810296840F951FDF
:1033A000E90199838883828193819B838A83F0E0FA
:1033B000E0E012968D919C9113970097B9F52D91AD
:1033C0003C911197CD010296820F931F2091A60385
:1033D0003091A7032817390739F6309751F5109225
:1033E000A9031092A803B093A703A093A603BCCF90
:1033F000D383C28340815181840F951FC817D90799
:1034000061F44E5F5F4F88819981480F591F518346
:1034100040838A819B81938382832115310509F042
:10342000B0CFF093A903E093A8039ECFFD01DC0188
:10343000C0CF13821282D7CFB0E0A0E0E2E2FAE17F
:103440000C9471178C01009751F4CB010E94F7186E
:103450008C01C801CDB7DEB7E0E10C948D17FC01FB
:10346000E60FF71F9C0122503109E217F30708F419
:103470009DC0D901CD91DC911197C617D70798F05F
:10348000C530D10530F3CE0104978617970708F3AE
:10349000C61BD70B2297C193D1936D937C93CF0119
:1034A0000E949319D6CF5B01AC1ABD0A4C018C0E59
:1034B0009D1EA091A803B091A903512C412CF12C81
:1034C000E12C109731F58091A6039091A703881500
:1034D000990509F05CC04616570608F058C080915F
:1034E000000190910101009741F48DB79EB7409182
:1034F000040150910501841B950BE817F90708F0AA
:1035000055C0F093A703E093A603F901718360838C
:10351000A0CF8D919C91119712966C901297139653
:103520007C901397A815B90559F56C0142E0C40EBB
:10353000D11CCA14DB0420F1AC014A195B09DA0181
:103540001296159780F06282738251834083D9016D
:103550006D937C93E114F10471F0D7011396FC9301
:10356000EE93129776CF22968C0F9D1FF9019183CF
:103570008083F301EFCFF093A903E093A80369CF11
:103580004816590608F42C017D01D3019ACFCB01CE
:103590000E94F7187C01009749F0AE01B8010E9423
:1035A000D91AC8010E949319870153CF10E000E097
:1035B00050CFFB01DC0102C001900D924150504000
:1035C000D8F70895FB01DC018D910190801901105D
:1035D000D9F3990B0895FB01DC0101900D920020B5
:1035E000E1F7089510E0C5E7D0E004C0FE010E94B5
:0E35F000F1182196C637D107C9F7F894FFCF1E
:1035FE000000AA0380000000400014005400CE0119
:10360E00D101DC01EC01F901020200000000A3016E
:10361E00C300F000F0016101FF0053010000000043
:10362E0046041904A405EF031204FF03F00300007F
:10363E000000D80CC300A405C1002F2F22225C5C11
:10364E006208660C6E0A720D7409004572726F7212
:10365E003A20000D0A0078007A0079617700532E27
:10366E00542E452E562E452020524F56005665722A
:10367E0073696F6E20302E312E3100537461727467
:10368E00696E6720696E2000207365636F6E642813
:10369E00732921007365636F6E6428732900546566
:1036AE007374696E67204D6F746F7220005374616E
:1036BE007274696E67206D6F746F727321004F6B39
:1036CE0000456D707479496E70757400496E636F44
:1036DE006D706C657465496E70757400496E7661B7
:1036EE006C6964496E707574004E6F4D656D6F72C6
:0A36FE007900546F6F446565700099
:00000001FF
