:100000000C945E000C9486000C9486000C94860080
:100010000C9486000C9486000C9486000C94860048
:100020000C9486000C9486000C9486000C94860038
:100030000C9486000C9486000C9486000C94860028
:100040000C94C3020C9486000C9491020C946B02E5
:100050000C9486000C9486000C9486000C94860008
:100060000C9486000C9486000000000024002700F9
:100070002A0000000000250028002B0004040404CE
:100080000404040402020202020203030303030342
:10009000010204081020408001020408102001021F
:1000A00004081020000000080002010000030407FB
:1000B00000000000000000000D031A0511241FBEFF
:1000C000CFEFD8E0DEBFCDBF21E0AAE1B1E001C0B3
:1000D0001D92AA3CB207E1F711E0A0E0B1E0EEEB1F
:1000E000FEE002C005900D92AA31B107D9F710E0E9
:1000F000CDE5D0E004C02197FE010E945A05CC3521
:10010000D107C9F70E9483030C9452070C94000096
:10011000ECEAF0E02491E8E9F0E09491E4E8F0E022
:10012000E491EE23C9F0222339F0233001F1A8F441
:10013000213019F1223029F1F0E0EE0FFF1FEE58C7
:10014000FF4FA591B4912FB7F894EC91811126C07F
:1001500090959E239C932FBF08952730A9F02830B7
:10016000C9F0243049F7209180002F7D03C02091F1
:1001700080002F7720938000DFCF24B52F7724BD18
:10018000DBCF24B52F7DFBCF2091B0002F772093BC
:10019000B000D2CF2091B0002F7DF9CF9E2BDACFC7
:1001A0000895AF92BF92CF92DF92EF92FF920F939A
:1001B0001F93CF93DF936C017B018B01040F151FFD
:1001C000EB015E01AE18BF08C017D10759F0699165
:1001D000D601ED91FC910190F081E02DC6010995C9
:1001E000892B79F7C501DF91CF911F910F91FF9076
:1001F000EF90DF90CF90BF90AF900895FC01538DAA
:10020000448D252F30E0842F90E0821B930B5417F0
:1002100010F0CF96089501970895FC01918D828D7D
:10022000981761F0A28DAE0FBF2FB11D5D968C9116
:10023000928D9F5F9F73928F90E008958FEF9FEF55
:1002400008952FB7F89480911F0190912001A091FB
:100250002101B09122012FBF80932B0190932C019B
:10026000A0932D01B0932E0183E291E00E940D0135
:1002700097FF26C02FB7F89480911F01909120011D
:10028000A0912101B09122012FBF40912B015091EB
:100290002C0160912D0170912E01841B950BA60BF2
:1002A000B70B40912701509128016091290170916D
:1002B0002A0184179507A607B707B0F28FEF9FEFC3
:1002C0000895FC01918D828D981731F0828DE80F91
:1002D000F11D858D90E008958FEF9FEF0895FC014B
:1002E000918D228D892F90E0805C9F4F821B910918
:1002F0008F739927089583E291E00E946F0121E0B6
:10030000892B09F420E0822F089580E090E0892B6A
:1003100029F00E947B0181110C9400000895FC01DA
:10032000A48DA80FB92FB11DA35ABF4F2C91848D56
:1003300090E001968F739927848FA689B7892C93B3
:10034000A089B1898C91837080648C93938D848D06
:10035000981306C00288F389E02D80818F7D808309
:100360000895EF92FF920F931F93CF93DF93EC01C9
:1003700081E0888F9B8D8C8D98131AC0E889F9894C
:10038000808185FF15C09FB7F894EE89FF8960834F
:10039000E889F98980818370806480839FBF81E0D0
:1003A00090E0DF91CF911F910F91FF90EF90089512
:1003B000F62E0B8D10E00F5F1F4F0F731127E02EED
:1003C0008C8D8E110CC00FB607FCFACFE889F98925
:1003D000808185FFF5CFCE010E948F01F1CFEB8D9B
:1003E000EC0FFD2FF11DE35AFF4FF0829FB7F894F9
:1003F0000B8FEA89FB8980818062CFCFCF93DF9317
:10040000EC01888D8823B9F0AA89BB89E889F9892C
:100410008C9185FD03C0808186FD0DC00FB607FC61
:10042000F7CF8C9185FFF2CF808185FFEDCFCE0194
:100430000E948F01E9CFDF91CF9108953FB7F894E3
:1004400080911B0190911C01A0911D01B0911E0192
:1004500026B5A89B05C02F3F19F00196A11DB11D1F
:100460003FBFBA2FA92F982F8827BC01CD01620F5B
:10047000711D811D911D42E0660F771F881F991F16
:100480004A95D1F708950F931F93CF93DF93EC0113
:1004900088819981009759F02A813B812617370777
:1004A00030F081E0DF91CF911F910F9108958B0182
:1004B0006F5F7F4F0E948506009759F0998388836C
:1004C0001B830A832C813D81232B59F7FC01108269
:1004D000E8CF80E0E7CF1F920F920FB60F92112462
:1004E0002F933F934F935F936F937F938F939F933C
:1004F000AF93BF93EF93FF9383E291E00E948F014C
:10050000FF91EF91BF91AF919F918F917F916F91EB
:100510005F914F913F912F910F900FBE0F901F90C1
:1005200018951F920F920FB60F9211242F938F934D
:100530009F93EF93FF93E0913301F0913401808119
:10054000E0913901F0913A0182FD1BC090818091C8
:100550003C018F5F8F7320913D01821741F0E09144
:100560003C01F0E0ED5DFE4F958F80933C01FF91E3
:10057000EF919F918F912F910F900FBE0F901F9031
:1005800018958081F4CF1F920F920FB60F9211240D
:100590002F933F938F939F93AF93BF9380911F01AE
:1005A00090912001A0912101B091220130911A0176
:1005B00023E0230F2D3758F50196A11DB11D20937F
:1005C0001A0180931F0190932001A0932101B09301
:1005D000220180911B0190911C01A0911D01B091FD
:1005E0001E010196A11DB11D80931B0190931C015A
:1005F000A0931D01B0931E01BF91AF919F918F9168
:100600003F912F910F900FBE0F901F90189526E8E5
:10061000230F0296A11DB11DD2CF10922601109278
:10062000250188EE93E0A0E0B0E08093270190934D
:100630002801A0932901B0932A018AE091E09093C8
:1006400024018093230185EC90E090933001809306
:100650002F0184EC90E0909332018093310180EC83
:1006600090E0909334018093330181EC90E090937B
:1006700036018093350182EC90E0909338018093AD
:10068000370186EC90E090933A0180933901109203
:100690003C0110923D0110923E0110923F011092D8
:1006A000C1011092C0011092C3011092C2011092B8
:1006B000C5011092C40170E060E080EC91E00E94FE
:1006C00043022091C0013091C101811113C0211555
:1006D000310519F0C9010E94FC051092C101109268
:1006E000C0011092C5011092C4011092C301109272
:1006F000C20108951092C5011092C40168E171E031
:10070000C9010C944B07CF93DF93CDB7DEB7289781
:100710000FB6F894DEBF0FBECDBF789484B582606B
:1007200084BD84B5816084BD85B5826085BD85B595
:10073000816085BD80916E00816080936E00109213
:10074000810080918100826080938100809181008E
:10075000816080938100809180008160809380001F
:100760008091B10084608093B1008091B00081607D
:100770008093B00080917A00846080937A008091A9
:100780007A00826080937A0080917A008160809301
:100790007A0080917A00806880937A001092C1007C
:1007A000E0913301F091340182E08083E0912F01E8
:1007B000F09130011082E0913101F09132018FEC23
:1007C000808310923B01E0913701F091380186E07F
:1007D0008083E0913501F0913601808180618083D2
:1007E000E0913501F0913601808188608083E0914D
:1007F0003501F0913601808180688083E091350178
:10080000F091360180818F7D8083E8E9F0E02491CA
:10081000E4E8F0E08491882399F090E0880F991F34
:10082000FC01E859FF4FA591B491FC01EE58FF4F30
:10083000859194918FB7F894EC91E22BEC938FBF54
:1008400080E00E94880090E0E92E90E0F92E83E29B
:1008500091E00E946F01181619060CF0BCC01A82B4
:1008600019821C821B821E821D8270E060E0CE0114
:1008700001960E94430229813A8181112EC02115DF
:10088000310519F0C9010E94FC051A8219821E82E5
:100890001D821C821B820E94210197FD26C08A3086
:1008A000910519F18F8318860D811E810F5F1F4FEF
:1008B000B801CE0101960E944302882361F3298189
:1008C0003A818D819E81BE01695F7F4F820F931FA8
:1008D0000E944B071E830D83DECF1E821D8268E1BE
:1008E00071E0C9010E944B07D6CF8091C001909161
:1008F000C101009709F47DC069817A816115710594
:1009000009F475C04091C2015091C3012D813E810F
:100910004217530708F46BC00E944B078D819E81DC
:100920009093C5018093C4011E821D8289819A81A2
:10093000009711F00E94FC058091C0019091C101C7
:10094000892B59F181E00E9488000E941E022B0130
:100950003C0184EF882E99249394A12CB12C0E9401
:100960001E026419750986099709683E734081055E
:100970009105A8F321E0821A9108A108B10888EE38
:10098000480E83E0581E611C711C81149104A1045F
:10099000B10429F780E00E94880070E060E080ECFC
:1009A00091E00E9443022091C0013091C101811168
:1009B00037C02115310519F0C9010E94FC051092BC
:1009C000C1011092C0011092C5011092C401109291
:1009D000C3011092C201E114F10409F438CF0E945E
:1009E0007B01882309F433CF0E94000030CF0E949E
:1009F000FC0589819A819093C1018093C0018B810C
:100A00009C819093C3018093C2018D819E819093BC
:100A1000C5018093C4011A8219821C821B8284CF73
:100A20001092C5011092C40168E171E0C9010E94F1
:100A30004B07D1CF8091C0019091C101009711F077
:100A40000C94FC0508952F923F924F925F926F9203
:100A50007F928F929F92AF92BF92CF92DF92EF924E
:100A6000FF920F931F93CF93DF93CDB7DEB7CA1BCF
:100A7000DB0B0FB6F894DEBF0FBECDBF09942A88FA
:100A8000398848885F846E847D848C849B84AA84A2
:100A9000B984C884DF80EE80FD800C811B81AA812F
:100AA000B981CE0FD11D0FB6F894DEBF0FBECDBFFA
:100AB000ED010895EE0FFF1F0590F491E02D0994CC
:100AC0000F931F93CF93DF938230910510F482E050
:100AD00090E0E091C801F091C90130E020E0B0E081
:100AE000A0E0309799F42115310509F44AC0281B7C
:100AF000390B24303105D8F58A819B816115710548
:100B000089F1FB0193838283FE0111C040815181F1
:100B10000281138148175907E0F04817590799F4E3
:100B2000109761F012960C93129713961C933296BD
:100B3000CF01DF91CF911F910F9108950093C801CC
:100B40001093C901F4CF2115310551F04217530715
:100B500038F0A901DB019A01BD01DF01F801C1CF25
:100B6000EF01F9CF9093C9018093C801CDCFFE0169
:100B7000E20FF31F81939193225031093983288327
:100B8000D7CF2091C6013091C701232B41F420918A
:100B90000201309103013093C7012093C6012091D7
:100BA0000001309101012115310541F42DB73EB707
:100BB0004091040150910501241B350BE091C601C1
:100BC000F091C701E217F307A0F42E1B3F0B281783
:100BD000390778F0AC014E5F5F4F2417350748F0B6
:100BE0004E0F5F1F5093C7014093C60181939193AD
:100BF0009FCFF0E0E0E09CCFCF93DF930097E9F048
:100C0000FC01329713821282A091C801B091C901F0
:100C1000ED0130E020E01097A1F420813181820FB6
:100C2000931F2091C6013091C7012817390709F099
:100C300061C0F093C701E093C601DF91CF910895A1
:100C4000EA01CE17DF07E8F54A815B819E01411575
:100C50005105B1F7E901FB83EA8349915991C40F2A
:100C6000D51FEC17FD0761F4808191810296840FF6
:100C7000951FE90199838883828193819B838A836D
:100C8000F0E0E0E012968D919C9113970097B9F5F2
:100C90002D913C911197CD010296820F931F2091C7
:100CA000C6013091C7012817390739F6309751F539
:100CB0001092C9011092C801B093C701A093C60158
:100CC000BCCFD383C28340815181840F951FC81745
:100CD000D90761F44E5F5F4F88819981480F591F92
:100CE000518340838A819B819383828321153105BF
:100CF00009F0B0CFF093C901E093C8019ECFFD0188
:100D0000DC01C0CF13821282D7CFB0E0A0E0EBE8C5
:100D1000F6E00C9425058C01009751F4CB010E945C
:100D200060058C01C801CDB7DEB7E0E10C94410548
:100D3000FC01E60FF71F9C0122503109E217F3076F
:100D400008F49DC0D901CD91DC911197C617D70742
:100D500098F0C530D10530F3CE0104978617970778
:100D600008F3C61BD70B2297C193D1936D937C9345
:100D7000CF010E94FC05D6CF5B01AC1ABD0A4C0125
:100D80008C0E9D1EA091C801B091C901512C412C1F
:100D9000F12CE12C109731F58091C6019091C7019B
:100DA0008815990509F05CC04616570608F058C02A
:100DB0008091000190910101009741F48DB79EB799
:100DC0004091040150910501841B950BE817F90728
:100DD00008F055C0F093C701E093C601F901718393
:100DE0006083A0CF8D919C91119712966C90129771
:100DF00013967C901397A815B90559F56C0142E03C
:100E0000C40ED11CCA14DB0420F1AC014A195B09E1
:100E1000DA011296159780F06282738251834083C3
:100E2000D9016D937C93E114F10471F0D70113960D
:100E3000FC93EE93129776CF22968C0F9D1FF901AB
:100E400091838083F301EFCFF093C901E093C80150
:100E500069CF4816590608F42C017D01D3019ACFB9
:100E6000CB010E9460057C01009749F0AE01B801FA
:100E70000E944207C8010E94FC05870153CF10E081
:100E800000E050CFFB01DC0102C001900D92415007
:100E90005040D8F70895FB01DC0101900D9200202D
:100EA000E1F7089510E0CDE5D0E004C0FE010E9416
:0E0EB0005A052196CE35D107C9F7F894FFCF29
:100EBE000000CA01800000000000B101D100FE0058
:0A0ECE00FE016F010D01610100003B
:00000001FF
