:020000040000FA
:100000000C945E000C9486000C9486000C94860080
:100010000C9486000C9486000C9486000C94860048
:100020000C9486000C9486000C9486000C94860038
:100030000C9486000C9486000C9486000C94860028
:100040000C94C3020C9486000C9491020C946B02E5
:100050000C9486000C9486000C9486000C94860008
:100060000C9486000C9486000000000024002700F9
:100070002A0000000000250028002B0004040404CE
:100080000404040402020202020203030303030342
:10009000010204081020408001020408102001021F
:1000A00004081020000000080002010000030407FB
:1000B00000000000000000000D03390511241FBEE0
:1000C000CFEFD8E0DEBFCDBF21E0A2E2B1E001C0BA
:1000D0001D92A23DB207E1F711E0A0E0B1E0E4E734
:1000E000FFE002C005900D92A232B107D9F710E0EF
:1000F000CDE5D0E004C02197FE010E94B505CC35C6
:10010000D107C9F70E9483030C94AD070C9400003B
:10011000ECEAF0E02491E8E9F0E09491E4E8F0E022
:10012000E491EE23C9F0222339F0233001F1A8F441
:10013000213019F1223029F1F0E0EE0FFF1FEE58C7
:10014000FF4FA591B4912FB7F894EC91811126C07F
:1001500090959E239C932FBF08952730A9F02830B7
:10016000C9F0243049F7209180002F7D03C02091F1
:1001700080002F7720938000DFCF24B52F7724BD18
:10018000DBCF24B52F7DFBCF2091B0002F772093BC
:10019000B000D2CF2091B0002F7DF9CF9E2BDACFC7
:1001A0000895AF92BF92CF92DF92EF92FF920F939A
:1001B0001F93CF93DF936C017B018B01040F151FFD
:1001C000EB015E01AE18BF08C017D10759F0699165
:1001D000D601ED91FC910190F081E02DC6010995C9
:1001E000892B79F7C501DF91CF911F910F91FF9076
:1001F000EF90DF90CF90BF90AF900895FC01538DAA
:10020000448D252F30E0842F90E0821B930B5417F0
:1002100010F0CF96089501970895FC01918D828D7D
:10022000981761F0A28DAE0FBF2FB11D5D968C9116
:10023000928D9F5F9F73928F90E008958FEF9FEF55
:1002400008952FB7F8948091270190912801A091EB
:100250002901B0912A012FBF80933301909334017B
:10026000A0933501B09336018BE291E00E940D011D
:1002700097FF26C02FB7F89480912701909128010D
:10028000A0912901B0912A012FBF409133015091D3
:1002900034016091350170913601841B950BA60BDA
:1002A000B70B40912F015091300160913101709155
:1002B000320184179507A607B707B0F28FEF9FEFBB
:1002C0000895FC01918D828D981731F0828DE80F91
:1002D000F11D858D90E008958FEF9FEF0895FC014B
:1002E000918D228D892F90E0805C9F4F821B910918
:1002F0008F73992708958BE291E00E946F0121E0AE
:10030000892B09F420E0822F089580E090E0892B6A
:1003100029F00E947B0181110C9400000895FC01DA
:10032000A48DA80FB92FB11DA35ABF4F2C91848D56
:1003300090E001968F739927848FA689B7892C93B3
:10034000A089B1898C91837080648C93938D848D06
:10035000981306C00288F389E02D80818F7D808309
:100360000895EF92FF920F931F93CF93DF93EC01C9
:1003700081E0888F9B8D8C8D98131AC0E889F9894C
:10038000808185FF15C09FB7F894EE89FF8960834F
:10039000E889F98980818370806480839FBF81E0D0
:1003A00090E0DF91CF911F910F91FF90EF90089512
:1003B000F62E0B8D10E00F5F1F4F0F731127E02EED
:1003C0008C8D8E110CC00FB607FCFACFE889F98925
:1003D000808185FFF5CFCE010E948F01F1CFEB8D9B
:1003E000EC0FFD2FF11DE35AFF4FF0829FB7F894F9
:1003F0000B8FEA89FB8980818062CFCFCF93DF9317
:10040000EC01888D8823B9F0AA89BB89E889F9892C
:100410008C9185FD03C0808186FD0DC00FB607FC61
:10042000F7CF8C9185FFF2CF808185FFEDCFCE0194
:100430000E948F01E9CFDF91CF9108953FB7F894E3
:100440008091230190912401A0912501B091260172
:1004500026B5A89B05C02F3F19F00196A11DB11D1F
:100460003FBFBA2FA92F982F8827BC01CD01620F5B
:10047000711D811D911D42E0660F771F881F991F16
:100480004A95D1F708950F931F93CF93DF93EC0113
:1004900088819981009759F02A813B812617370777
:1004A00030F081E0DF91CF911F910F9108958B0182
:1004B0006F5F7F4F0E94E006009759F09983888311
:1004C0001B830A832C813D81232B59F7FC01108269
:1004D000E8CF80E0E7CF1F920F920FB60F92112462
:1004E0002F933F934F935F936F937F938F939F933C
:1004F000AF93BF93EF93FF938BE291E00E948F0144
:10050000FF91EF91BF91AF919F918F917F916F91EB
:100510005F914F913F912F910F900FBE0F901F90C1
:1005200018951F920F920FB60F9211242F938F934D
:100530009F93EF93FF93E0913B01F0913C01808109
:10054000E0914101F091420182FD1BC090818091B8
:1005500044018F5F8F7320914501821741F0E09134
:100560004401F0E0E55DFE4F958F80934401FF91DB
:10057000EF919F918F912F910F900FBE0F901F9031
:1005800018958081F4CF1F920F920FB60F9211240D
:100590002F933F938F939F93AF93BF9380912701A6
:1005A00090912801A0912901B0912A013091220156
:1005B00023E0230F2D3758F50196A11DB11D20937F
:1005C00022018093270190932801A0932901B093E1
:1005D0002A018091230190912401A0912501B091DD
:1005E00026010196A11DB11D809323019093240142
:1005F000A0932501B0932601BF91AF919F918F9158
:100600003F912F910F900FBE0F901F90189526E8E5
:10061000230F0296A11DB11DD2CF10922E01109270
:100620002D0188EE93E0A0E0B0E080932F0190933D
:100630003001A0933101B09332018AE091E09093B0
:100640002C0180932B0185EC90E0909338018093EE
:10065000370184EC90E090933A018093390180EC6B
:1006600090E090933C0180933B0181EC90E090936B
:100670003E0180933D0182EC90E090934001809395
:100680003F0186EC90E090934201809341011092EB
:1006900044011092450110924601109247011092B8
:1006A000C9011092C8011092CB011092CA01109298
:1006B000CD011092CC0170E060E088EC91E00E94E6
:1006C00043022091C8013091C901811113C0211545
:1006D000310519F0C9010E9457061092C901109204
:1006E000C8011092CD011092CC011092CB01109252
:1006F000CA0108951092CD011092CC0160E271E020
:10070000C9010C94A607CF93DF93CDB7DEB7289726
:100710000FB6F894DEBF0FBECDBF789484B582606B
:1007200084BD84B5816084BD85B5826085BD85B595
:10073000816085BD80916E00816080936E00109213
:10074000810080918100826080938100809181008E
:10075000816080938100809180008160809380001F
:100760008091B10084608093B1008091B00081607D
:100770008093B00080917A00846080937A008091A9
:100780007A00826080937A0080917A008160809301
:100790007A0080917A00806880937A001092C1007C
:1007A000E0913B01F0913C0182E08083E0913701D0
:1007B000F09138011082E0913901F0913A018FEC0B
:1007C000808310924301E0913F01F091400186E067
:1007D0008083E0913D01F0913E01808180618083C2
:1007E000E0913D01F0913E01808188608083E0913D
:1007F0003D01F0913E01808180688083E0913D0160
:10080000F0913E0180818F7D8083E8E9F0E02491C2
:10081000E4E8F0E08491882399F090E0880F991F34
:10082000FC01E859FF4FA591B491FC01EE58FF4F30
:10083000859194918FB7F894EC91E22BEC938FBF54
:1008400080E00E94880000E010E08BE291E00E94CE
:100850006F01181619060CF0C4C01A8219821C8286
:100860001B821E821D8270E060E0CE0101960E9414
:10087000430229813A8181112FC02115310519F0D8
:10088000C9010E9457061A8219821E821D821C828B
:100890001B820E94210197FD27C08A30910521F11A
:1008A0008F831886ED80FE802FEFE21AF20AB701DF
:1008B000CE0101960E944302882359F329813A818F
:1008C0008D819E81BE01695F7F4F820F931F0E94C1
:1008D000A607FE82ED82DDCF1E821D8260E271E0FE
:1008E000C9010E94A607D5CF8091C8019091C90186
:1008F000009709F484C069817A816115710509F452
:100900007CC04091CA015091CB012D813E8142179C
:10091000530708F472C00E94A6078D819E819093B0
:10092000CD018093CC011E821D8289819A8100971E
:1009300011F00E9457068091C8019091C90100975B
:1009400009F474C00E9442056115710509F072C076
:1009500081E00E9488000E941E026B017C0184EFEE
:10096000882E99249394A12CB12C0E941E026C19FC
:100970007D098E099F09683E734081059105A8F3A2
:1009800081E0881A9108A108B10828EEC20E23E080
:10099000D21EE11CF11C81149104A104B10429F7B9
:1009A00080E00E94880070E060E088EC91E00E94A6
:1009B00043022091C8013091C901811150C0211515
:1009C000310519F0C9010E9457061092C901109211
:1009D000C8011092CD011092CC011092CB0110925F
:1009E000CA010115110509F430CF0E947B0188234B
:1009F00009F42BCF0E94000028CF0E94570689815E
:100A00009A819093C9018093C8018B819C819093B6
:100A1000CB018093CA018D819E819093CD018093FB
:100A2000CC011A8219821C821B827DCF60E070E0AB
:100A3000CB018ACF6130710509F0B5CF45E050E0B8
:100A400068E171E08BE291E00E94D10042E050E069
:100A50006EE171E08BE291E00E94D100A4CF109290
:100A6000CD011092CC0160E271E0C9010E94A6079D
:100A7000B8CF8091C8019091C901009711F00C94F2
:100A8000570608951F93FC0199278827BC01E89415
:100A900011911032E9F3193010F01E30C8F31B32F7
:100AA00051F01D3249F4689406C00E946905610F37
:100AB000711D811D911D119110531A30B0F33EF438
:100AC00090958095709561957F4F8F4F9F4F1F91A7
:100AD0000895592F482F372F262F660F771F881F0D
:100AE000991F660F771F881F991F620F731F841F3E
:100AF000951F660F771F881F991F08952F923F92A9
:100B00004F925F926F927F928F929F92AF92BF921D
:100B1000CF92DF92EF92FF920F931F93CF93DF93C9
:100B2000CDB7DEB7CA1BDB0B0FB6F894DEBF0FBE26
:100B3000CDBF09942A88398848885F846E847D8473
:100B40008C849B84AA84B984C884DF80EE80FD8075
:100B50000C811B81AA81B981CE0FD11D0FB6F894EB
:100B6000DEBF0FBECDBFED010895EE0FFF1F059054
:100B7000F491E02D09940F931F93CF93DF9382306C
:100B8000910510F482E090E0E091D001F091D10164
:100B900030E020E0B0E0A0E0309799F42115310575
:100BA00009F44AC0281B390B24303105D8F58A8155
:100BB0009B816115710589F1FB0193838283FE019D
:100BC00011C0408151810281138148175907E0F01B
:100BD0004817590799F4109761F012960C931297E1
:100BE00013961C933296CF01DF91CF911F910F91F5
:100BF00008950093D0011093D101F4CF2115310550
:100C000051F04217530738F0A901DB019A01BD01E9
:100C1000DF01F801C1CFEF01F9CF9093D1018093AB
:100C2000D001CDCFFE01E20FF31F819391932250AB
:100C3000310939832883D7CF2091CE013091CF015C
:100C4000232B41F420910201309103013093CF0115
:100C50002093CE0120910001309101012115310531
:100C600041F42DB73EB74091040150910501241B7A
:100C7000350BE091CE01F091CF01E217F307A0F41C
:100C80002E1B3F0B2817390778F0AC014E5F5F4FE2
:100C90002417350748F04E0F5F1F5093CF01409344
:100CA000CE01819391939FCFF0E0E0E09CCFCF9372
:100CB000DF930097E9F0FC01329713821282A09132
:100CC000D001B091D101ED0130E020E01097A1F406
:100CD00020813181820F931F2091CE013091CF016D
:100CE0002817390709F061C0F093CF01E093CE01D6
:100CF000DF91CF910895EA01CE17DF07E8F54A8129
:100D00005B819E0141155105B1F7E901FB83EA833F
:100D100049915991C40FD51FEC17FD0761F48081EB
:100D200091810296840F951FE901998388838281BE
:100D300093819B838A83F0E0E0E012968D919C91F1
:100D400013970097B9F52D913C911197CD0102961B
:100D5000820F931F2091CE013091CF0128173907C0
:100D600039F6309751F51092D1011092D001B0931D
:100D7000CF01A093CE01BCCFD383C28340815181E8
:100D8000840F951FC817D90761F44E5F5F4F8881A4
:100D90009981480F591F518340838A819B81938396
:100DA00082832115310509F0B0CFF093D101E09392
:100DB000D0019ECFFD01DC01C0CF13821282D7CFBC
:100DC000B0E0A0E0E6EEF6E00C9480058C01009720
:100DD00051F4CB010E94BB058C01C801CDB7DEB731
:100DE000E0E10C949C05FC01E60FF71F9C012250EA
:100DF0003109E217F30708F49DC0D901CD91DC91C8
:100E00001197C617D70798F0C530D10530F3CE013A
:100E100004978617970708F3C61BD70B2297C19331
:100E2000D1936D937C93CF010E945706D6CF5B017F
:100E3000AC1ABD0A4C018C0E9D1EA091D001B09140
:100E4000D101512C412CF12CE12C109731F58091DE
:100E5000CE019091CF018815990509F05CC0461626
:100E6000570608F058C08091000190910101009749
:100E700041F48DB79EB74091040150910501841B48
:100E8000950BE817F90708F055C0F093CF01E093F0
:100E9000CE01F90171836083A0CF8D919C91119750
:100EA00012966C90129713967C901397A815B9051B
:100EB00059F56C0142E0C40ED11CCA14DB0420F1C8
:100EC000AC014A195B09DA011296159780F062822B
:100ED000738251834083D9016D937C93E114F104B3
:100EE00071F0D7011396FC93EE93129776CF22966A
:100EF0008C0F9D1FF90191838083F301EFCFF09355
:100F0000D101E093D00169CF4816590608F42C01AD
:100F10007D01D3019ACFCB010E94BB057C010097D4
:100F200049F0AE01B8010E949D07C8010E94570612
:100F3000870153CF10E000E050CFFB01DC0102C07D
:100F400001900D9241505040D8F70895FB01DC010B
:100F500001900D920020E1F7089510E0CDE5D0E07A
:100F600004C0FE010E94B5052196CE35D107C9F710
:100F7000F894FFCF0000D201800000000000B10112
:100F8000D100FE00FE016F010D0161014563686F34
:060F900021000D0A000023
:107E0000112484B714BE81FFF0D085E080938100F7
:107E100082E08093C00088E18093C10086E0809377
:107E2000C20080E18093C4008EE0C9D0259A86E02C
:107E300020E33CEF91E0309385002093840096BBD3
:107E4000B09BFECF1D9AA8958150A9F7CC24DD24C4
:107E500088248394B5E0AB2EA1E19A2EF3E0BF2EE7
:107E6000A2D0813461F49FD0082FAFD0023811F036
:107E7000013811F484E001C083E08DD089C08234E0
:107E800011F484E103C0853419F485E0A6D080C0E4
:107E9000853579F488D0E82EFF2485D0082F10E0AE
:107EA000102F00270E291F29000F111F8ED06801E7
:107EB0006FC0863521F484E090D080E0DECF843638
:107EC00009F040C070D06FD0082F6DD080E0C81688
:107ED00080E7D80618F4F601B7BEE895C0E0D1E017
:107EE00062D089930C17E1F7F0E0CF16F0E7DF06D8
:107EF00018F0F601B7BEE89568D007B600FCFDCFD4
:107F0000A601A0E0B1E02C9130E011968C91119780
:107F100090E0982F8827822B932B1296FA010C0160
:107F200087BEE89511244E5F5F4FF1E0A038BF0790
:107F300051F7F601A7BEE89507B600FCFDCF97BE46
:107F4000E89526C08437B1F42ED02DD0F82E2BD052
:107F50003CD0F601EF2C8F010F5F1F4F84911BD097
:107F6000EA94F801C1F70894C11CD11CFA94CF0C13
:107F7000D11C0EC0853739F428D08EE10CD085E9AC
:107F80000AD08FE07ACF813511F488E018D01DD067
:107F900080E101D065CF982F8091C00085FFFCCF94
:107FA0009093C60008958091C00087FFFCCF809118
:107FB000C00084FD01C0A8958091C6000895E0E648
:107FC000F0E098E1908380830895EDDF803219F02E
:107FD00088E0F5DFFFCF84E1DECF1F93182FE3DFCA
:107FE0001150E9F7F2DF1F91089580E0E8DFEE27F6
:047FF000FF270994CA
:027FFE00040479
:00000001FF
