:020000040000FA
:100000000C9486000C94AE000C94AE000C94AE00E0
:100010000C94AE000C94AE000C94AE000C94AE00A8
:100020000C94AE000C94AE000C94AE000C94AE0098
:100030000C94AE000C94AE000C94AE000C94AE0088
:100040000C9421060C94AE000C94EF050C94C90599
:100050000C94AE000C94AE000C94AE000C94AE0068
:100060000C94AE000C94AE00CDCCCC3D0AD7233C12
:1000700017B7D13877CC2B329595E6241FB14F0AAC
:100080000000803FCDCCCC3D6F12833A95BFD63374
:100090007D1D9026B3CE010C000020410000C84217
:1000A00000401C4620BCBE4CCA1B0E5AAEC59D74F7
:1000B00000000000250028002B00000000002400A4
:1000C00027002A0000000000230026002900040465
:1000D00004040404040402020202020203030303F0
:1000E00003030102040810204080010204081020CC
:1000F00001020408102000000008000201000003B3
:10010000040700000000000000000C0811241FBEBE
:10011000CFEFD8E0DEBFCDBF11E0A0E0B1E0EAE86C
:10012000F4E102C005900D92A035B107D9F722E0A5
:10013000A0E5B1E001C01D92A73FB207E1F710E0D2
:10014000C6E8D0E004C02197FE010E94340AC538F9
:10015000D107C9F70E946B060C94430A0C94000067
:10016000AF92BF92CF92DF92EF92FF920F931F93C5
:10017000CF93DF936C017B018B01040F151FEB0103
:100180005E01AE18BF08C017D10759F06991D601BA
:10019000ED91FC910190F081E02DC6010995892B2C
:1001A00079F7C501DF91CF911F910F91FF90EF90EB
:1001B000DF90CF90BF90AF900895FC01538D448D98
:1001C000252F30E0842F90E0821B930B541710F002
:1001D000CF96089501970895FC01918D828D98170F
:1001E00061F0A28DAE0FBF2FB11D5D968C91928DE7
:1001F0009F5F9F73928F90E008958FEF9FEF089518
:10020000FC01918D828D981731F0828DE80FF11DE0
:10021000858D90E008958FEF9FEF0895FC01918DFB
:10022000228D892F90E0805C9F4F821B91098F73F4
:100230009927089589E591E00E940E0121E0892B1C
:1002400009F420E0822F089580E090E0892B29F0C6
:100250000E941A0181110C9400000895FC01A48DE4
:10026000A80FB92FB11DA35ABF4F2C91848D90E0D8
:1002700001968F739927848FA689B7892C93A089BB
:10028000B1898C91837080648C93938D848D981345
:1002900006C00288F389E02D80818F7D80830895D8
:1002A000EF92FF920F931F93CF93DF93EC0181E0C6
:1002B000888F9B8D8C8D98131AC0E889F98980816D
:1002C00085FF15C09FB7F894EE89FF896083E889A0
:1002D000F98980818370806480839FBF81E090E092
:1002E000DF91CF911F910F91FF90EF900895F62E1F
:1002F0000B8D10E00F5F1F4F0F731127E02E8C8DB9
:100300008E110CC00FB607FCFACFE889F9898081FD
:1003100085FFF5CFCE010E942E01F1CFEB8DEC0FC2
:10032000FD2FF11DE35AFF4FF0829FB7F8940B8F1A
:10033000EA89FB8980818062CFCFCF93DF93EC0184
:10034000888D8823B9F0AA89BB89E889F9898C91BD
:1003500085FD03C0808186FD0DC00FB607FCF7CF79
:100360008C9185FFF2CF808185FFEDCFCE010E9479
:100370002E01E9CFDF91CF9108953FB7F894809196
:10038000550190915601A0915701B091580126B5A1
:10039000A89B05C02F3F19F00196A11DB11D3FBFBD
:1003A000BA2FA92F982F8827BC01CD01620F711D8C
:1003B000811D911D42E0660F771F881F991F4A9586
:1003C000D1F70895FC01A281B3818081918130E051
:1003D00020E0A817B90738F4CD01019693838283F2
:1003E0006C9321E030E084819581820F931F958387
:1003F00084830895CF93DF93FC0182819381EB0185
:10040000460F571FA281B38120813181A217B30704
:1004100058F4C417D50741F02991BD016F5F7F4F94
:10042000738362832C93EECFA81BB90B84819581D3
:10043000A80FB91FB583A483DF91CF9108958F9240
:100440009F92AF92BF92CF92DF92EF92FF920F9363
:100450001F93CF93DF93CDB7DEB766970FB6F894AF
:10046000DEBF0FBECDBF6C018E01095E1F4F78014C
:100470008AE0882E912CA12CB12CCB01BA01A501C8
:1004800094010E94120A942F852F605DF8016293F7
:100490008F01A901692F782F41155105610571055B
:1004A00061F7A7014E1B5F0BBF01C6010E94FA0155
:1004B00066960FB6F894DEBF0FBECDBFDF91CF9129
:1004C0001F910F91FF90EF90DF90CF90BF90AF9072
:1004D0009F908F900895EF92FF920F931F93CF9369
:1004E000DF93EC017B0162E20E94E2018701F801E7
:1004F00061918F01662391F0E2E1F1E0F280FF204B
:1005000049F0329681816813F9CF6CE5CE010E94E3
:10051000E2016F2DCE010E94E201E9CF62E2CE013D
:10052000DF91CF911F910F91FF90EF900C94E2011A
:10053000FC012581222339F0F8E02F0290011124DB
:10054000820F931F089590E080E00895FB010190D1
:100550000020E9F73197AF01461B570B0C94FA01C5
:100560002F923F924F925F926F927F928F929F92C3
:10057000AF92BF92CF92DF92EF92FF920F931F93B1
:10058000CF93DF93CDB7DEB76C970FB6F894DEBF8D
:100590000FBECDBF8C011B01DC0114968C9114970A
:1005A0008F77863009F474C278F48230B0F08430EA
:1005B00008F04CC212964D915C9113976D917C910D
:1005C000C1010E94FA0126C28C3069F160F48830C2
:1005D00009F459C28A3009F43FC263E271E0C101F3
:1005E0000E94A602E5C1803209F4ECC18034A9F76B
:1005F0006BE5C1010E94E201F80100811181011542
:10060000110509F4DAC1B101C8010E94B002C801A4
:100610000E9498028C01892B09F4CFC16CE2C101C0
:100620000E94E201ECCFF801C080D180E280F3802B
:10063000A7019601C701B6010E94A6088111CDCF7E
:1006400020E030E0A901C701B6010E94A608882376
:1006500079F0A7019601C701B6010E943A089B01F3
:10066000AC01C701B6010E94A608882309F4B5CFE2
:1006700020E030E0A901C701B6010E94A60887FF6B
:1006800008C06DE2C1010E94E201F7FAF094F7F8A8
:10069000F09420E836E948E15BE4C701B6010E9426
:1006A0008C0987FD81C074E1A72EB12C00E210E017
:1006B000188E1F8AF501E856FF4F25913591459117
:1006C0005491C701B6010E948C0987FD13C0F50142
:1006D000E859FF4F2591359145915491C701B601D5
:1006E0000E9491096B017C012F89388D200F311FE9
:1006F000388F2F8B1595079534E0A31AB1088CEF2E
:10070000A8168FEFB806B1F655245A9420E030E0D1
:10071000A901C701B6010E948C0918160CF04BC044
:100720002CEA35EC47E257E3C701B6010E94A60860
:1007300018160CF440C0A52DB4E0AB02C001112482
:10074000912C812CFC01E058FF4F3F019C01285661
:100750003F4F59013FEF531671F1F301E80DF91DB9
:100760006591759185919491A70196010E948C09DC
:1007700018169CF4F501E80DF91D25913591459168
:100780005491C701B6010E9491096B017C018F89C8
:10079000988D801B910B988F8F8B159507955A9488
:1007A00094E0891A9108D6CF00E210E055E0552E6A
:1007B000188E1F8AABCFC701B6010E94AB084B0150
:1007C0005C012B013C0106E080E492E4AFE0B0E084
:1007D000898F9A8FAB8FBC8F102F01509AE04916EA
:1007E000510461047104C8F0698D7A8D8B8D9C8DE4
:1007F0002AE030E040E050E00E94120A298F3A8F50
:100800004B8F5C8FC301B2012AE030E040E050E042
:100810000E94120A29013A01DFCFC501B4010E94EA
:10082000DA089B01AC01C701B6010E9439086B01CF
:100830007C01698D7A8D8B8D9C8D0E94DA089B01DD
:10084000AC01C701B6010E9491092B013C010E9435
:10085000AB086B017C010E94DA089B01AC01C3016B
:10086000B2010E9439089B01AC010E943A080E9423
:10087000AB08C60ED71EE81EF91E898D9A8DAB8D6A
:10088000BC8DC816D906EA06FB06D8F09FEF891A78
:10089000990AA90AB90AAF89B88DAB2B39F1BAE028
:1008A0008B169104A104B10408F1EF89F88D3196FB
:1008B000F88FEF8BC12CD12C7601812C912C540117
:1008C00083942AE0422E512C612C712CC701B60171
:1008D000A30192010E94120A672B682B692B51F425
:1008E000111644F469017A011150F0CFC12CD12CBA
:1008F0007601E7CFB501A401C1010E941F021123B7
:1009000071F14E01F1E18F0E911C012F54019AE01B
:10091000492E512C612C712C015068F0C701B60191
:10092000A30192010E94120A605DD4016E934D01F1
:1009300069017A01F1CF812F90E0BC01609570953B
:10094000F501E81BF90B31978EE280834427552788
:10095000461B570B6A0D7B1DC1010E94FA01EF89EE
:10096000F88DEF2B29F165E6C1010E94E2010F89A4
:10097000188D17FF07C06DE2C1010E94E2011195B9
:1009800001951109FE0177969F018AE0E82EF12C6E
:10099000C801B7010E94FE09805D82938B01672B1D
:1009A000B9F7A9014E1B5F0BBF01C1010E94FA01FB
:1009B000D10114968D919C9130C06DE5C1010E94CA
:1009C000E201F6CF6BE7C1010E94E201F80100816C
:1009D000118101151105D1F0D80116966D917C9108
:1009E000C1010E946B026AE3C1010E94E201B101F0
:1009F000C8010E94B002C8010E9498028C01892B94
:100A000029F06CE2C1010E94E201E3CF6DE7C10170
:100A10000E94E201F101848195816C960FB6F894F1
:100A2000DEBF0FBECDBFDF91CF911F910F91FF9021
:100A3000EF90DF90CF90BF90AF909F908F907F907E
:100A40006F905F904F903F902F9008956D917C91A3
:100A5000C1010E946B02DECFCD90DD90ED90FC9045
:100A6000B701A601F7FE0BC06DE2C1010E94E201D1
:100A700044275527BA014C195D096E097F09C10148
:100A80000E941F02C7CF4D915D916D917C91F7CF70
:100A90008C9168E271E0811102C06DE271E0C101E8
:100AA0000E94A602B7CFCF92DF92EF92FF920F93F0
:100AB0001F93CF93DF93FC018481982F9F7739F4A4
:100AC00080788062848311821082138212828481F2
:100AD00085FD0CC0D0E0C0E0CE01DF91CF911F9129
:100AE0000F91FF90EF90DF90CF9008956115710501
:100AF00089F37A016B018F01C081D1812097C1F107
:100B00006E817F816C157D0539F36115710529F0C2
:100B1000C6010E943A0A892BF9F2CE010E9498027E
:100B2000EC01ECCFE9012897F701D583C483209726
:100B300089F2D8011296ED91FC911397309791F0BC
:100B4000CE018E1B9F0B23E0959587952A95E1F7A3
:100B500085831396DC93CE9312971D821C82DF82CD
:100B6000CE82BACFF801D183C083D383C283F5CFBD
:100B7000D70114962D913C91159712968D919C91C9
:100B800008962817390770F681E0D70118968C93DC
:100B9000A3CF1F920F920FB60F9211242F933F9362
:100BA0004F935F936F937F938F939F93AF93BF9375
:100BB000EF93FF9389E591E00E942E01FF91EF9161
:100BC000BF91AF919F918F917F916F915F914F9165
:100BD0003F912F910F900FBE0F901F9018951F926D
:100BE0000F920FB60F9211242F938F939F93EF9331
:100BF000FF93E0916901F0916A018081E0916F01BA
:100C0000F091700182FD1BC09081809172018F5F15
:100C10008F7320917301821741F0E0917201F0E02F
:100C2000E75AFE4F958F80937201FF91EF919F914C
:100C30008F912F910F900FBE0F901F90189580816C
:100C4000F4CF1F920F920FB60F9211242F933F9360
:100C50008F939F93AF93BF938091510190915201D5
:100C6000A0915301B09154013091500123E0230F22
:100C70002D3758F50196A11DB11D20935001809389
:100C8000510190935201A0935301B093540180916C
:100C9000550190915601A0915701B09158010196CC
:100CA000A11DB11D8093550190935601A09357014A
:100CB000B0935801BF91AF919F918F913F912F9128
:100CC0000F900FBE0F901F90189526E8230F0296E5
:100CD000A11DB11DD2CFCF93DF93CDB7DEB7C459DD
:100CE000D1090FB6F894DEBF0FBECDBF789484B59E
:100CF000826084BD84B5816084BD85B5826085BD18
:100D000085B5816085BD80916E00816080936E00A5
:100D10001092810080918100826080938100809197
:100D20008100816080938100809180008160809348
:100D300080008091B10084608093B1008091B00008
:100D400081608093B00080917A00846080937A0003
:100D500080917A00826080937A0080917A0081602D
:100D600080937A0080917A00806880937A00109254
:100D7000C100E8EEF0E02491E4EDF0E084918823F6
:100D8000C9F090E0880F991FFC01E654FF4FA59130
:100D9000B491FC01E055FF4F459154913FB7F89451
:100DA0009C91822F809598239C93FA0190818923AE
:100DB00080833FBFE0916901F0916A0182E0808306
:100DC000E0916501F09166011082E0916701F09178
:100DD000680180E1808310927101E0916D01F091D2
:100DE0006E0186E08083E0916B01F0916C0180815F
:100DF00080618083E0916B01F0916C01808188605B
:100E00008083E0916B01F0916C0180818068808328
:100E1000E0916B01F0916C0180818F7D80837E0178
:100E2000FFE0EF0EF11C8E0101571F4F26EFC22E7F
:100E300021E0D22E30E0232E30E0332EFA82E982F8
:100E4000FC82EB821E830D8318870F8319861E8612
:100E5000ECEFF0E09491E8EEF0E08491E4EDF0E066
:100E60002491222309F4D6C0992359F0933009F430
:100E7000BAC008F0ADC0913009F4BBC0923009F49B
:100E8000BCC0E22FF0E0EE0FFF1FEC53FF4FA59127
:100E9000B4919C91892391E009F490E0892F8170AD
:100EA0008093F602F1E4F0937C0080917A008064F4
:100EB00080937A0080917A0086FDFCCFA090780024
:100EC000B0907900AE014F5F5F4F63E371E0CE01F8
:100ED0000A960E945305FC01892B61F09481907859
:100EE0009A609483C501BB0CAA0BBB0B80839183D2
:100EF000A283B383AE014F5F5F4F61E471E0CE0127
:100F00000A960E945305FC01892B39F08091F60264
:100F10009481907896609483808386EF92E0F801C4
:100F200091838083D382C28215821482B801CE015C
:100F30000A960E94B0028F3F910509F020F48A5072
:100F40009E4FFC011082F60101900020E9F7AF01ED
:100F5000475F514066EF71E089E591E00E94B00083
:100F600042E050E06DE471E089E591E00E94B0005C
:100F70000E94BD012B013C0184E6882E912CA12CFE
:100F8000B12C0E94BD016419750986099709683E54
:100F9000734081059105A8F3F1E08F1A9108A1082B
:100FA000B10828EE420E23E0521E611C711C811410
:100FB0009104A104B10429F72114310409F43ECFAE
:100FC0000E941A01882309F439CF0E94000036CF0D
:100FD0009730B1F09830D1F0943009F052CF909121
:100FE00080009F7D03C0909180009F779093800048
:100FF00048CF94B59F7794BD44CF94B59F7DFBCFE8
:101000009091B0009F779093B0003BCF9091B0004B
:101010009F7DF9CF80E043CFE9E5F1E013821282B2
:1010200088EE93E0A0E0B0E084839583A683B78345
:1010300084E091E09183808385EC90E095878487BC
:1010400084EC90E09787868780EC90E0918B808B92
:1010500081EC90E0938B828B82EC90E0958B848B7B
:1010600086EC90E0978B868B118E128E138E148EE9
:1010700008955058BB27AA270E9451080C94520982
:101080000E94440938F00E944B0920F039F49F3F38
:1010900019F426F40C9441090EF4E095E7FB0C9446
:1010A0003B09E92F0E94630958F3BA1762077307D7
:1010B0008407950720F079F4A6F50C9485090EF4C1
:1010C000E0950B2EBA2FA02D0B01B90190010C0158
:1010D000CA01A0011124FF27591B99F0593F50F470
:1010E000503E68F11A16F040A22F232F342F4427C8
:1010F000585FF3CF469537952795A795F0405395C0
:10110000C9F77EF41F16BA0B620B730B840BBAF08F
:101110009150A1F0FF0FBB1F661F771F881FC2F7FA
:101120000EC0BA0F621F731F841F48F4879577950E
:101130006795B795F7959E3F08F0B0CF9395880FC8
:1011400008F09927EE0F9795879508950E94170943
:1011500008F481E008950E946B0988F09F5798F089
:10116000B92F9927B751B0F0E1F0660F771F881FAC
:10117000991F1AF0BA95C9F714C0B13091F00E94C6
:101180008509B1E008950C948509672F782F882789
:10119000B85F39F0B93FCCF3869577956795B395ED
:1011A000D9F73EF490958095709561957F4F8F4F5C
:1011B0009F4F0895E89409C097FB3EF49095809561
:1011C000709561957F4F8F4F9F4F9923A9F0F92F0D
:1011D00096E9BB279395F695879577956795B7958B
:1011E000F111F8CFFAF4BB0F11F460FF1BC06F5F71
:1011F0007F4F8F4F9F4F16C0882311F096E911C083
:10120000772321F09EE8872F762F05C0662371F0A3
:1012100096E8862F70E060E02AF09A95660F771FB7
:10122000881FDAF7880F9695879597F90895990F93
:101230000008550FAA0BE0E8FEEF16161706E807A0
:10124000F907C0F012161306E407F50798F0621BC1
:10125000730B840B950B39F40A2661F0232B242B96
:10126000252B21F408950A2609F4A140A6958FEFB5
:10127000811D811D089597F99F6780E870E060E007
:1012800008959FEF80EC089500240A94161617061F
:1012900018060906089500240A9412161306140667
:1012A00005060895092E0394000C11F4882352F0CA
:1012B000BB0F40F4BF2B11F460FF04C06F5F7F4F82
:1012C0008F4F9F4F089557FD9058440F551F59F069
:1012D0005F3F71F04795880F97FB991F61F09F3F23
:1012E00079F087950895121613061406551FF2CF4C
:1012F0004695F1DF08C0161617061806991FF1CF9C
:1013000086957105610508940895E894BB276627C2
:101310007727CB0197F908950E94170908F48FEFFA
:1013200008950E94A4090C9452090E94440938F0BF
:101330000E944B0920F0952311F00C943B090C946A
:10134000410911240C9486090E94630970F3959F4A
:10135000C1F3950F50E0551F629FF001729FBB27AC
:10136000F00DB11D639FAA27F00DB11DAA1F649F48
:101370006627B00DA11D661F829F2227B00DA11DFB
:10138000621F739FB00DA11D621F839FA00D611D81
:10139000221F749F3327A00D611D231F849F600DA2
:1013A000211D822F762F6A2F11249F5750409AF0CB
:1013B000F1F088234AF0EE0FFF1FBB1F661F771F57
:1013C000881F91505040A9F79E3F510580F00C9422
:1013D0003B090C9486095F3FE4F3983ED4F386956D
:1013E00077956795B795F795E7959F5FC1F7FE2BC2
:1013F000880F911D9695879597F90895AA1BBB1B99
:1014000051E107C0AA1FBB1FA617B70710F0A61B04
:10141000B70B881F991F5A95A9F780959095BC0125
:10142000CD010895A1E21A2EAA1BBB1BFD010DC020
:10143000AA1FBB1FEE1FFF1FA217B307E407F50784
:1014400020F0A21BB30BE40BF50B661F771F881F60
:10145000991F1A9469F760957095809590959B01F6
:10146000AC01BD01CF010895EE0FFF1F0590F4916F
:10147000E02D0994FB01DC018D9101908019011090
:10148000D9F3990B0895F894FFCF000000005001A4
:10149000B000DD009D010E01EC0000012F2F222283
:1014A0005C5C6208660C6E0A720D7409006E756CE5
:1014B0006C00747275650066616C736500706F74A2
:1014C000656E74696F6D65746572006C65616B5FE4
:0A14D00073656E736F72000D0A0061
:107E0000112484B714BE81FFF0D085E080938100F7
:107E100082E08093C00088E18093C10086E0809377
:107E2000C20080E18093C4008EE0C9D0259A86E02C
:107E300020E33CEF91E0309385002093840096BBD3
:107E4000B09BFECF1D9AA8958150A9F7CC24DD24C4
:107E500088248394B5E0AB2EA1E19A2EF3E0BF2EE7
:107E6000A2D0813461F49FD0082FAFD0023811F036
:107E7000013811F484E001C083E08DD089C08234E0
:107E800011F484E103C0853419F485E0A6D080C0E4
:107E9000853579F488D0E82EFF2485D0082F10E0AE
:107EA000102F00270E291F29000F111F8ED06801E7
:107EB0006FC0863521F484E090D080E0DECF843638
:107EC00009F040C070D06FD0082F6DD080E0C81688
:107ED00080E7D80618F4F601B7BEE895C0E0D1E017
:107EE00062D089930C17E1F7F0E0CF16F0E7DF06D8
:107EF00018F0F601B7BEE89568D007B600FCFDCFD4
:107F0000A601A0E0B1E02C9130E011968C91119780
:107F100090E0982F8827822B932B1296FA010C0160
:107F200087BEE89511244E5F5F4FF1E0A038BF0790
:107F300051F7F601A7BEE89507B600FCFDCF97BE46
:107F4000E89526C08437B1F42ED02DD0F82E2BD052
:107F50003CD0F601EF2C8F010F5F1F4F84911BD097
:107F6000EA94F801C1F70894C11CD11CFA94CF0C13
:107F7000D11C0EC0853739F428D08EE10CD085E9AC
:107F80000AD08FE07ACF813511F488E018D01DD067
:107F900080E101D065CF982F8091C00085FFFCCF94
:107FA0009093C60008958091C00087FFFCCF809118
:107FB000C00084FD01C0A8958091C6000895E0E648
:107FC000F0E098E1908380830895EDDF803219F02E
:107FD00088E0F5DFFFCF84E1DECF1F93182FE3DFCA
:107FE0001150E9F7F2DF1F91089580E0E8DFEE27F6
:047FF000FF270994CA
:027FFE00040479
:00000001FF
