:020000040000FA
:100000000C944D000C9475000C9475000C947500C4
:100010000C9475000C9475000C9475000C9475008C
:100020000C9475000C9475000C9475000C9475007C
:100030000C9475000C9475000C9475000C9475006C
:100040000C941C080C9475000C948C080C94660895
:100050000C9475000C9475000C9475000C9475004C
:100060000C9475000C947500000020410000C842FB
:1000700000401C4620BCBE4CCA1B0E5AAEC59D7427
:10008000CDCCCC3D0AD7233C17B7D13877CC2B3217
:100090009595E6241FB14F0A3B0A11241FBECFEFEE
:1000A000D8E0DEBFCDBF11E0A0E0B1E0EEEFF8E1B7
:1000B00002C005900D92A83CB107D9F722E0A8EC48
:1000C000B1E001C01D92AE36B207E1F710E0CDE419
:1000D000D0E004C02197FE010E945F0CCC34D10710
:1000E000C9F70E94BE080C947D0C0C940000089582
:1000F000AF92BF92CF92DF92EF92FF920F931F9336
:10010000CF93DF936C017B018B01040F151FEB0173
:100110005E01AE18BF08C017D10759F06991D6012A
:10012000ED91FC910190F081E02DC6010995892B9C
:1001300079F7C501DF91CF911F910F91FF90EF905B
:10014000DF90CF90BF90AF900895FC01538D448D08
:10015000252F30E0842F90E0821B930B541710F072
:10016000CF96089501970895FC01918D828D98177F
:1001700061F0A28DAE0FBF2FB11D5D968C91928D57
:100180009F5F9F73928F90E008958FEF9FEF089588
:10019000FC01918D828D981731F0828DE80FF11D51
:1001A000858D90E008958FEF9FEF0895FC01918D6C
:1001B000228D892F90E0805C9F4F821B91098F7365
:1001C0009927089581ED91E00E94D60021E0892BC6
:1001D00009F420E0822F089580E090E0892B29F037
:1001E0000E94E20081110C9400000895FC01A48D8E
:1001F000A80FB92FB11DA35ABF4F2C91848D90E049
:1002000001968F739927848FA689B7892C93A0892B
:10021000B1898C91837080648C93938D848D9813B5
:1002200006C00288F389E02D80818F7D8083089548
:10023000EF92FF920F931F93CF93DF93EC0181E036
:10024000888F9B8D8C8D98131AC0E889F9898081DD
:1002500085FF15C09FB7F894EE89FF896083E88910
:10026000F98980818370806480839FBF81E090E002
:10027000DF91CF911F910F91FF90EF900895F62E8F
:100280000B8D10E00F5F1F4F0F731127E02E8C8D29
:100290008E110CC00FB607FCFACFE889F98980816E
:1002A00085FFF5CFCE010E94F600F1CFEB8DEC0F6C
:1002B000FD2FF11DE35AFF4FF0829FB7F8940B8F8B
:1002C000EA89FB8980818062CFCFCF93DF93EC01F5
:1002D000888D8823B9F0AA89BB89E889F9898C912E
:1002E00085FD03C0808186FD0DC00FB607FCF7CFEA
:1002F0008C9185FFF2CF808185FFEDCFCE010E94EA
:10030000F600E9CFDF91CF91089580339CF08A33D6
:1003100024F08F3524F08B3724F481E00895813464
:100320004CF08B35D4F393ED980F81E09230B0F31D
:1003300080E008958B32B9F7F0CFFC0184858111FC
:100340000AC0A185B285CD010196928781878C91E3
:10035000838781E08487838508951F93CF93DF93FC
:10036000EC01162F0E949D01811306C01C8681E0BE
:10037000DF91CF911F91089580E0FACFCF93DF9363
:10038000EC01CE010E949D018B303CF489304CF48D
:10039000882349F081E0888710C08D3011F08032C9
:1003A000C9F71C86EECF888581110AC081E090E0F4
:1003B000C15BDF4F9983888380E0DF91CF910895FF
:1003C00082E090E0F5CFFC01828193810097C1F03B
:1003D00024813581468157812417350740F01382E7
:1003E00012820190F081E02D81E080870895A901BB
:1003F0004F5F5F4F55834483820F931FFC016083DF
:1004000008959F92AF92BF92CF92DF92EF92FF92A8
:100410000F931F93CF93DF9300D000D01F92CDB7DF
:10042000DEB78C010E949D01D82EF8011486F12CB4
:10043000E12C60EFC62EC8010E949D01F8011486D0
:10044000D81609F4BCC0811119C0F801E15BFF4F57
:1004500082E090E09183808380E00F900F900F9076
:100460000F900F90DF91CF911F910F91FF90EF9020
:10047000DF90CF90BF90AF909F9008958C3509F09A
:100480009CC0C8010E949D018823F9F2EEE1F1E0D1
:10049000853709F086C0F801148654E0952EB12CFA
:1004A000A12CC8010E949D01882379F281344CF46B
:1004B0008053803148F0F801E15BFF4F83E090E02A
:1004C000C9CF8F7D8753F5CF44E0AA0CBB1C4A955A
:1004D000E1F7A82AF80114869A949110E2CFC50199
:1004E000985D8115944020F4750123E0F222A3CF9A
:1004F000C5019C5D81159440A8F4F3E0BF22B701CB
:10050000762F6627770F770F6A297B2990E080E0A6
:100510000196603871058105910540F4C8010E947B
:10052000E30189CFB50190E080E0F3CF1982262F57
:100530002F7320682A8326E096958795779567958F
:100540002A95D1F76032710580F4606C6B835E018F
:1005500024E0A20EB11CF50162915F01662309F44B
:100560006ACFC8010E94E301F6CF262F2F732068BF
:100570002B8386E0769567958A95E1F76031710562
:1005800038F4606E6C835E0185E0A80EB11CE3CF89
:1005900060686C83CD825E01E6E0AE0EB11CDBCFFD
:1005A00032969081992309F486CF8913F9CF8181FE
:1005B000882309F480CFF8011486682FAFCF60E05C
:1005C000C8010E94E301F80182819381892B29F4FB
:1005D000E15BFF4F84E090E03DCF81E03ECF4F9262
:1005E0005F926F927F928F929F92AF92BF92CF92C3
:1005F000DF92EF92FF920F931F93CF93DF93EC0163
:100600008B0188818B32C9F18D32C1F52196FF248F
:10061000F394888190ED980F9A3018F08E3209F09B
:100620004DC160E070E0CB01FE012191A0ED8A2E6A
:10063000820E39E0381520F16A3949E974078407D8
:1006400049E1940738F5AAE0B0E09B01AC010E94B3
:10065000540C912CB12CA12C2401350140945094C0
:1006600060947094461657066806790698F0680DEF
:10067000791D8A1D9B1DEF01D7CF2196F12CC9CF83
:10068000211108C0FF20F1F161307105810550E8AA
:100690009507A0F0E12CEAE08E2E912CA12CB12C34
:1006A00061157105F0E88F079105C0F1A50194016E
:1006B0000E94320CCA01B901E394F2CFF8012481FF
:1006C00020782A6024839B01AC0188279927DC01CC
:1006D000821B930BA40BB50B80839183A283B383FE
:1006E0008F2DDF91CF911F910F91FF90EF90DF90B1
:1006F000CF90BF90AF909F908F907F906F905F90C2
:100700004F900895F8012481207828602483608325
:10071000718382839383FF24F394E2CFFE012991B6
:1007200030ED320F3A3010F4E394F8CF2E32F1F47A
:10073000EF012196FE012196208150EDD52ED20E9B
:1007400029E02D1598F06C3C3CEC73073CE08307E6
:10075000910580F7AAE0B0E09B01AC010E94540C27
:100760006D0D711D811D911DEA94E4CF20812F7DB7
:10077000D0E0C0E0253409F05DC021812D32D9F5EB
:100780003296CC24C394DF01D0E0C0E02E2D0E2C95
:10079000000C330B4AE0B42EFD01DD9040ED4D0D11
:1007A0004A3008F042C0BC9EA001BD9E500D1124ED
:1007B000CD2DDD0CDD0BE097C40FD51FAE01420F30
:1007C000531F4732510544F3F8018481CC20D1F006
:1007D00040E050E060E070E8F11003C040E050E01D
:1007E000BA0180788C60F8018483408351836283EE
:1007F0007383FC2C75CF2B3219F03196C12CC3CFEB
:100800003296FCCF40E050E060E87FEFF11004C08A
:1008100040E050E060E87FE780788C60F8018483F6
:10082000408351836283738376CFCC2019F0D195B6
:10083000C195D1092081211141C0CE0DD11DE7FC08
:10084000DA950E94090B1C161D0604F5E12CC0FF69
:100850000CC024E0E29EF0011124E859FF4F2591DD
:100860003591459154910E94C00BD595C795E3945D
:10087000209769F7F1109058F801248120782C60B6
:100880002483608371838283938345CFD195C195FF
:10089000D109E12C209771F3C0FF0CC044E0E49E25
:1008A000F0011124E058FF4F259135914591549165
:1008B0000E94C00BD595C795E394ECCFF12C10CFD7
:1008C000CF93DF9300D000D01F92CDB7DEB7FC01ED
:1008D00094819F77963091F030F4943020F560E069
:1008E00070E0CB0111C09A30B9F09C3049F19830DA
:1008F000B1F7608171818281938104C0608170E071
:1009000090E080E00E94090B0F900F900F900F90E5
:100910000F90DF91CF9108956081718182819381E1
:100920000E940B0BF1CF808191811D82BE016F5F10
:100930007F4F0E94EF02CE0101960E946004E4CF37
:100940006081718182819381DFCFCF93DF93DC015E
:10095000EB01EC81FD818A819B810896E817F907FC
:1009600040F481E08887F0E0E0E0CF01DF91CF91B3
:1009700008953897FD83EC833097B9F31296CD91A3
:10098000DC911397209791F0CF018C1B9D0B23E0F6
:10099000959587952A95E1F78D831396FC93EE93B1
:1009A00012971582148217821682DFCF1196FC935C
:1009B000EE93F3CFDC0114962C91149726FF13C00D
:1009C000ED91FC91309779F0672B59F08581882360
:1009D00051F0B8E08B02C0011124E80FF91F3097E5
:1009E00011F0CF01089580E090E00895FC0101909E
:1009F0000020E9F73197AF01481B590BBC0181ED8D
:100A000091E00C9478008F929F92AF92BF920F93D7
:100A10001F93CF93DF93CDB7DEB7A1970FB6F894AE
:100A2000DEBF0FBECDBF19A2423008F44AE08E01EE
:100A30000F5D1F4F842E912CB12CA12CA501940188
:100A40000E94320CE62FB901CA01EA30F4F4E05DED
:100A5000D801EE938D01232B242B252B79F790E0E1
:100A600080E0109719F0CD010E94F604A1960FB610
:100A7000F894DEBF0FBECDBFDF91CF911F910F91D4
:100A8000BF90AF909F908F900895E95CE1CFCF9396
:100A9000DF93D0E0C0E0009719F00E94F604EC016B
:100AA0008FE291E00E94F6048C0F9D1FDF91CF91A1
:100AB00008954F925F926F927F928F929F92AF9222
:100AC000BF92CF92DF92EF92FF926B017C01AC015B
:100AD0009B010E942D0C8823C1F082E391E00E94CB
:100AE000F6047C018FE291E00E94F6048E0D9F1DBA
:100AF000FF90EF90DF90CF90BF90AF909F908F903E
:100B00007F906F905F904F90089546015701E89451
:100B1000B7F82FEF3FEF4FE75FE7C501B4010E9441
:100B20002D0C81110DC02FEF3FEF4FE75FE7C5019F
:100B3000B4010E94D50A18161CF486E391E0CFCFC9
:100B40002FEF3FEF4FE75FE4C701B6010E94BB0BF9
:100B500018161CF48AE391E0C2CF2FEF3FEF4FE766
:100B60005FECC701B6010E94D50A87FDF3CF20E0F4
:100B700030E0A901C701B6010E94D50AB12CA12C11
:100B800087FF0AC06DE281ED91E00E9418015C01CF
:100B9000F7FAF094F7F8F0942AE037ED43EA5BE3D4
:100BA000C701B6010E94690A2B013C010E94DA0AC2
:100BB0006B017C010E94090B9B01AC01C301B201D6
:100BC0000E94680A2B013C014AE0C701B6010E945D
:100BD00003057C01EA0CFB1C6EE281ED91E00E94B2
:100BE0001801E80EF91E20E030E040E251E4C301B4
:100BF000B2010E94C00B2B013C010E94DA0A4B019A
:100C0000B12CA12C4AE0C501B4010E940305E80EF5
:100C1000F91EC501B4010E94090B9B01AC01C3017F
:100C2000B2010E94680A20E030E040E251E40E94F4
:100C3000C00B0E94DA0A90E080E04AE00E940305BF
:100C4000E80EF91E4FCFCF92DF92EF92FF920F93F3
:100C50001F93CF93DF936C01FC01E080F180F701DB
:100C600002811381C081D181C017D10778F40115A9
:100C7000110541F0209731F0BE01C8010E94740CAB
:100C8000892B69F089918111FDCFEECFF601848126
:100C90009581800F911FF70193838283E801CE0134
:100CA000DF91CF911F910F91FF90EF90DF90CF9048
:100CB00008950F931F93CF93DF938B01EC0120973F
:100CC000E1F06E817F8160177107B9F001151105A0
:100CD00041F06115710529F0C8010E94740C892B3F
:100CE00061F08D81882339F028E08202C00111244F
:100CF000C80FD91FE4CFD0E0C0E0CE01DF91CF9183
:100D00001F910F9108959F92AF92BF92CF92DF9261
:100D1000EF92FF920F931F93CF93DF93EC018B0120
:100D2000E42E0E94BE01F82E81110EC0F12C8F2DF1
:100D3000DF91CF911F910F91FF90EF90DF90CF90B7
:100D4000BF90AF909F900895CE010E949D01873281
:100D500009F415C114F5823209F411C1CE010E94C3
:100D60009D01B82E6E01FFE0CF0ED11CE12C9C2C12
:100D7000AD2C8B2D0E948501882309F422C18FE3BD
:100D8000E81609F41EC11C86E394F601B1926F01C6
:100D9000CE010E949D01B82EECCF8B3509F455C0D1
:100DA0008B37E1F6F8018481807880628483118238
:100DB000108213821282EE2009F452C01C86CE01EA
:100DC0000E94BE01882309F4B1CF6DE7CE010E94D5
:100DD000AD018111ACCFEA94E881F98182819381E0
:100DE0009B838A838481958122813381821B930B2B
:100DF0009F838E831D821C82CE010E949D018732BB
:100E000009F46EC0823209F46BC0CE010E949D01CC
:100E1000D82E0E948501882309F45DC01C866D2DA3
:100E2000CE010E94E301CE010E949D01D82E0E94B6
:100E300085018111F3CF60E0CE010E94E3018A8138
:100E40009B81892B09F052C027C0F80184818078EA
:100E5000806484831182108213821282E11007C0A1
:100E6000C15BDF4F85E090E0998388835FCF1C866C
:100E7000CE010E94BE01882309F458CF6DE5CE0152
:100E80000E94AD01811153CFEA946D857E85C80122
:100E90000E94A504009729F4C15BDF4F84E090E035
:100EA000E3CF4E2DBC01CE010E948306882309F4B6
:100EB0003DCFCE010E94BE01882309F437CF6DE5F6
:100EC000CE010E94AD01811132CF6CE2CE010E94B1
:100ED000AD018111DACFC15BDF4F83E090E0C4CF79
:100EE000CE010E940102882309F420CFCE010E9486
:100EF000BE01882309F41ACF6AE3CE010E94AD0136
:100F0000882349F36A817B81F801808191810E9465
:100F10005906BC01892B99F4CE010E9423066C016D
:100F20006D857E85C8010E94A504FC01892B09F40A
:100F3000B3CF848180688483D782C682BF014E2D5F
:100F4000CE010E948306882309F4F0CECE010E94D0
:100F5000BE01882309F4EACE6DE7CE010E94AD01FF
:100F60008111E5CE6CE2CE010E94AD01882309F427
:100F7000B2CFCE010E94BE0181112ECFD7CEE88123
:100F8000F981828193819B838A83848195812281E7
:100F90003381821B930B9F838E831D821C82CE0123
:100FA0000E940102F82E882309F4C0CECE010E94CF
:100FB0002306F8012481207825602483918380838F
:100FC000B6CEFE01EE0DF11D17868F85843781F4B4
:100FD000F801848180788660848381E08083F4E0F6
:100FE000EF1609F4A4CEC15BDF4F82E090E03CCF66
:100FF000863641F4F801848180788660848310828B
:10100000F5E0EECF8E3621F484E0E812ECCF8FCEFF
:10101000B801892D9A2D0E94EF02882309F45BCF35
:1010200086CEFC01248125FF04C0808191810C942F
:10103000590690E080E008951F920F920FB60F922C
:1010400011242F933F938F939F93AF93BF938091DE
:10105000CD019091CE01A091CF01B091D0013091FE
:10106000CC0123E0230F2D3758F50196A11DB11DAA
:101070002093CC018093CD019093CE01A093CF011A
:10108000B093D0018091C8019091C901A091CA018B
:10109000B091CB010196A11DB11D8093C801909321
:1010A000C901A093CA01B093CB01BF91AF919F91A9
:1010B0008F913F912F910F900FBE0F901F90189519
:1010C00026E8230F0296A11DB11DD2CF1F920F92C9
:1010D0000FB60F9211242F933F934F935F936F930B
:1010E0007F938F939F93AF93BF93EF93FF9381ED84
:1010F00091E00E94F600FF91EF91BF91AF919F9117
:101100008F917F916F915F914F913F912F910F90B0
:101110000FBE0F901F9018951F920F920FB60F924F
:1011200011242F938F939F93EF93FF93E091E1010D
:10113000F091E2018081E091E701F091E80182FD08
:101140001BC090818091EA018F5F8F732091EB012A
:10115000821741F0E091EA01F0E0EF52FE4F958FE7
:101160008093EA01FF91EF919F918F912F910F90C2
:101170000FBE0F901F9018958081F4CFCF93DF930F
:10118000CDB7DEB7CF5AD1090FB6F894DEBF0FBE88
:10119000CDBF789484B5826084BD84B5816084BD00
:1011A00085B5826085BD85B5816085BD80916E0005
:1011B000816080936E001092810080918100826036
:1011C0008093810080918100816080938100809173
:1011D00080008160809380008091B1008460809362
:1011E000B1008091B00081608093B00080917A005E
:1011F000846080937A0080917A00826080937A0084
:1012000080917A00816080937A0080917A00806872
:1012100080937A001092C100E091E101F091E20127
:1012200082E08083E091DD01F091DE011082E091A7
:10123000DF01F091E0018FEC80831092E901E091F1
:10124000E501F091E60186E08083E091E301F09111
:10125000E401808180618083E091E301F091E40109
:10126000808188608083E091E301F091E4018081D6
:1012700080688083E091E301F091E40180818F7DBB
:10128000808382E590E08C0F9D1F0E9664969FAF41
:101290008EAF649766969FAF8EAF6697CE018056ED
:1012A0009F4F68969FAF8EAF68976A969FAF8EAF3D
:1012B0006A976B961FAE6B97A0961FAEA09722E51C
:1012C00030E02C0F3D1FC855DF4F39832883C85AA3
:1012D000D04028E0FE01E855FF4FDC0101900D925F
:1012E0002A95E1F728E0FC01DE01119601900D92AC
:1012F0002A95E1F719868EE391E09B878A871D8600
:1013000082E590E08C0F9D1F9F878E8762961FAEAF
:101310001EAE6297BC01675F7F4F4AE0815591091D
:101320000E94830662960EAD1FAD629701151105EE
:1013300059F48C85882309F48EC0A0968FADA097B0
:1013400083FF89C003E010E08FE691E00E94F6047D
:10135000000F111FF801EE5EFE4F808191810E9407
:10136000470500E010E001151105E9F30E94E200D5
:101370008823C9F30E940000F6CF94819F77945090
:10138000923008F075C00081118167E771E082E555
:1013900090E08C0F9D1F09960E941108009709F09C
:1013A00042C0812C912C540167E771E082E590E006
:1013B0008C0F9D1F09960E941108009709F03FC0ED
:1013C000C12CD12C7601C8010E944705C501B4018A
:1013D0000E945905C701B6010E94590581ED91E0AF
:1013E0000E946501E091E301F091E40180818F7E2C
:1013F0008083E091E301F091E4018081877F808325
:10140000E091E301F091E40180818F778083E091A6
:10141000E301F091E40180818F7D80838091EB0175
:101420008093EA019ECF70E060E00E94DA040097AA
:1014300009F4B7CF0E9460044B015C01B5CF61E0B5
:1014400070E00E94DA04009709F4BACF0E946004A9
:101450006B017C01B8CF63E871E082E590E08C0F0E
:101460009D1F09960E941108FC01892B09F085CF68
:1014700010E000E08ACFE1EDF1E01382128288EE05
:1014800093E0A0E0B0E084839583A683B78384E0F3
:1014900091E09183808385EC90E09587848784EC4C
:1014A00090E09787868780EC90E0918B808B81EC31
:1014B00090E0938B828B82EC90E0958B848B86EC12
:1014C00090E0978B868B118E128E138E148E08955A
:1014D0005058BB27AA270E94800A0C94810B0E94B7
:1014E000730B38F00E947A0B20F039F49F3F19F407
:1014F00026F40C94700B0EF4E095E7FB0C946A0B49
:10150000E92F0E94920B58F3BA17620773078407FA
:10151000950720F079F4A6F50C94B40B0EF4E09541
:101520000B2EBA2FA02D0B01B90190010C01CA019D
:10153000A0011124FF27591B99F0593F50F4503E48
:1015400068F11A16F040A22F232F342F4427585F3A
:10155000F3CF469537952795A795F0405395C9F752
:101560007EF41F16BA0B620B730B840BBAF091500A
:10157000A1F0FF0FBB1F661F771F881FC2F70EC0A9
:10158000BA0F621F731F841F48F48795779567957C
:10159000B795F7959E3F08F0B0CF9395880F08F068
:1015A0009927EE0F9795879508950E94460B08F4AA
:1015B00081E008950E949A0B88F09F5798F0B92F08
:1015C0009927B751B0F0E1F0660F771F881F991F78
:1015D0001AF0BA95C9F714C0B13091F00E94B40B5B
:1015E000B1E008950C94B40B672F782F8827B85F6B
:1015F00039F0B93FCCF3869577956795B395D9F7D0
:101600003EF490958095709561957F4F8F4F9F4FD9
:101610000895E89409C097FB3EF4909580957095E5
:1016200061957F4F8F4F9F4F9923A9F0F92F96E92E
:10163000BB279395F695879577956795B795F111A3
:10164000F8CFFAF4BB0F11F460FF1BC06F5F7F4F40
:101650008F4F9F4F16C0882311F096E911C0772352
:1016600021F09EE8872F762F05C0662371F096E85B
:10167000862F70E060E02AF09A95660F771F881F2A
:10168000DAF7880F9695879597F90895990F0008CE
:10169000550FAA0BE0E8FEEF16161706E807F90744
:1016A000C0F012161306E407F50798F0621B730BDF
:1016B000840B950B39F40A2661F0232B242B252B60
:1016C00021F408950A2609F4A140A6958FEF811D03
:1016D000811D089597F99F6780E870E060E00895A4
:1016E0009FEF80EC089500240A941616170618063A
:1016F0000906089500240A94121613061406050616
:101700000895092E0394000C11F4882352F0BB0FA6
:1017100040F4BF2B11F460FF04C06F5F7F4F8F4F09
:101720009F4F089557FD9058440F551F59F05F3F44
:1017300071F04795880F97FB991F61F09F3F79F0F3
:1017400087950895121613061406551FF2CF469575
:10175000F1DF08C0161617061806991FF1CF8695F7
:101760007105610508940895E894BB2766277727DB
:10177000CB0197F908950E94460B08F48FEF089566
:101780000E94D30B0C94810B0E94730B38F00E94C3
:101790007A0B20F0952311F00C946A0B0C94700BCB
:1017A00011240C94B50B0E94920B70F3959FC1F31A
:1017B000950F50E0551F629FF001729FBB27F00DFF
:1017C000B11D639FAA27F00DB11DAA1F649F662754
:1017D000B00DA11D661F829F2227B00DA11D621FA3
:1017E000739FB00DA11D621F839FA00D611D221F5D
:1017F000749F3327A00D611D231F849F600D211D41
:10180000822F762F6A2F11249F5750409AF0F1F0C3
:1018100088234AF0EE0FFF1FBB1F661F771F881F2C
:1018200091505040A9F79E3F510580F00C946A0BEF
:101830000C94B50B5F3FE4F3983ED4F3869577950F
:101840006795B795F795E7959F5FC1F7FE2B880FD2
:10185000911D9695879597F908950E94460B880BE0
:10186000990B0895A1E21A2EAA1BBB1BFD010DC006
:10187000AA1FBB1FEE1FFF1FA217B307E407F50740
:1018800020F0A21BB30BE40BF50B661F771F881F1C
:10189000991F1A9469F760957095809590959B01B2
:1018A000AC01BD01CF0108950E94650CA59F900D6C
:1018B000B49F900DA49F800D911D11240895EE0FEB
:1018C000FF1F0590F491E02D0994A29FB001B39FF2
:1018D000C001A39F700D811D1124911DB29F700D39
:1018E000811D1124911D0895FB01DC018D91019052
:1018F00080190110D9F3990B0895F894FFCF0000D7
:10190000000018017800A5006501D600B400C800E9
:101910008B018E019901A901B601BF012F2F22224F
:101920005C5C6208660C6E0A720D7409000D0A0098
:101930006E616E00696E66006F7666007B22636F73
:101940006D6D616E64223A20226563686F222C20DF
:1019500022636F6F7264696E61746573223A205BF3
:10196000302E39392C20302E34325D7D0045727294
:101970006F723A2000636F6F7264696E6174657391
:1019800000636F6D6D616E64004F6B00456D707428
:1019900079496E70757400496E636F6D706C657413
:1019A00065496E70757400496E76616C6964496E44
:1019B000707574004E6F4D656D6F727900546F6F66
:0619C000446565700000A3
:107E0000112484B714BE81FFF0D085E080938100F7
:107E100082E08093C00088E18093C10086E0809377
:107E2000C20080E18093C4008EE0C9D0259A86E02C
:107E300020E33CEF91E0309385002093840096BBD3
:107E4000B09BFECF1D9AA8958150A9F7CC24DD24C4
:107E500088248394B5E0AB2EA1E19A2EF3E0BF2EE7
:107E6000A2D0813461F49FD0082FAFD0023811F036
:107E7000013811F484E001C083E08DD089C08234E0
:107E800011F484E103C0853419F485E0A6D080C0E4
:107E9000853579F488D0E82EFF2485D0082F10E0AE
:107EA000102F00270E291F29000F111F8ED06801E7
:107EB0006FC0863521F484E090D080E0DECF843638
:107EC00009F040C070D06FD0082F6DD080E0C81688
:107ED00080E7D80618F4F601B7BEE895C0E0D1E017
:107EE00062D089930C17E1F7F0E0CF16F0E7DF06D8
:107EF00018F0F601B7BEE89568D007B600FCFDCFD4
:107F0000A601A0E0B1E02C9130E011968C91119780
:107F100090E0982F8827822B932B1296FA010C0160
:107F200087BEE89511244E5F5F4FF1E0A038BF0790
:107F300051F7F601A7BEE89507B600FCFDCF97BE46
:107F4000E89526C08437B1F42ED02DD0F82E2BD052
:107F50003CD0F601EF2C8F010F5F1F4F84911BD097
:107F6000EA94F801C1F70894C11CD11CFA94CF0C13
:107F7000D11C0EC0853739F428D08EE10CD085E9AC
:107F80000AD08FE07ACF813511F488E018D01DD067
:107F900080E101D065CF982F8091C00085FFFCCF94
:107FA0009093C60008958091C00087FFFCCF809118
:107FB000C00084FD01C0A8958091C6000895E0E648
:107FC000F0E098E1908380830895EDDF803219F02E
:107FD00088E0F5DFFFCF84E1DECF1F93182FE3DFCA
:107FE0001150E9F7F2DF1F91089580E0E8DFEE27F6
:047FF000FF270994CA
:027FFE00040479
:00000001FF
