:020000040000FA
:100000000C9458000C9480000C9480000C94800098
:100010000C9480000C9480000C9480000C94800060
:100020000C9480000C9480000C9480000C94800050
:100030000C9480000C9480000C9480000C94800040
:100040000C94B3080C9480000C9481080C945B0809
:100050000C9480000C9480000C9480000C94800020
:100060000C94FD080C94800000000000250028007E
:100070002B00040404040404040402020202020229
:10008000030303030303010204081020408001025C
:1000900004081020010204081020000000080002DB
:1000A00001000003040700000000000000001C0A1B
:1000B00011241FBECFEFD8E0DEBFCDBF11E0A0E01E
:1000C000B1E0E0EFFFE102C005900D92AE39B1075B
:1000D000D9F723E0AEE9B1E001C01D92A931B20722
:1000E000E1F710E0C8E5D0E004C02197FE010E94CE
:1000F000BC0EC735D107C9F70E94800A0C94F60FD1
:100100000C94000008950895AF92BF92CF92DF92B1
:10011000EF92FF920F931F93CF93DF936C017B01BC
:100120008B01040F151FEB015E01AE18BF08C0174D
:10013000D10759F06991D601ED91FC910190F081C0
:10014000E02DC6010995892B79F7C501DF91CF9183
:100150001F910F91FF90EF90DF90CF90BF90AF90E5
:100160000895FC01538D448D252F30E0842F90E0BD
:10017000821B930B541710F0CF96089501970895A2
:10018000FC01918D828D981761F0A28DAE0FBF2F6B
:10019000B11D5D968C91928D9F5F9F73928F90E0C1
:1001A00008958FEF9FEF0895FC01918D828D981730
:1001B00031F0828DE80FF11D858D90E008958FEF6D
:1001C0009FEF0895FC01918D228D892F90E0805C36
:1001D0009F4F821B91098F739927089581E692E0C2
:1001E0000E94E20021E0892B09F420E0822F08958B
:1001F00080E090E0892B29F00E94EE0081110C94A0
:1002000000000895FC01A48DA80FB92FB11DA35AB9
:10021000BF4F2C91848D90E001968F739927848F26
:10022000A689B7892C93A089B1898C918370806449
:100230008C93938D848D981306C00288F389E02DEA
:1002400080818F7D80830895EF92FF920F931F939B
:10025000CF93DF93EC0181E0888F9B8D8C8D981379
:100260001AC0E889F989808185FF15C09FB7F89485
:10027000EE89FF896083E889F989808183708064D1
:1002800080839FBF81E090E0DF91CF911F910F911C
:10029000FF90EF900895F62E0B8D10E00F5F1F4F2B
:1002A0000F731127E02E8C8D8E110CC00FB607FC3A
:1002B000FACFE889F989808185FFF5CFCE010E94C8
:1002C0000201F1CFEB8DEC0FFD2FF11DE35AFF4F33
:1002D000F0829FB7F8940B8FEA89FB898081806256
:1002E000CFCFCF93DF93EC01888D8823B9F0AA8913
:1002F000BB89E889F9898C9185FD03C0808186FDE1
:100300000DC00FB607FCF7CF8C9185FFF2CF80812F
:1003100085FFEDCFCE010E940201E9CFDF91CF91A1
:10032000089590E0FC01E656FF4F2491FC01EA5746
:10033000FF4F3491FC01EE58FF4FE491EE23C9F0DA
:10034000222339F0233001F1A8F4213019F12230B1
:1003500029F1F0E0EE0FFF1FE859FF4FA591B4918E
:100360008FB7F894EC91611126C030953E233C93F1
:100370008FBF08952730A9F02830C9F0243049F7FD
:10038000809180008F7D03C0809180008F77809363
:100390008000DFCF84B58F7784BDDBCF84B58F7DC0
:1003A000FBCF8091B0008F778093B000D2CF809147
:1003B000B0008F7DF9CF3E2BDACF3FB7F894809114
:1003C000E7019091E801A091E901B091EA0126B519
:1003D000A89B05C02F3F19F00196A11DB11D3FBF7D
:1003E000BA2FA92F982F8827BC01CD01620F711D4C
:1003F000811D911D42E0660F771F881F991F4A9546
:10040000D1F708958F929F92AF92BF92CF92DF92D1
:10041000EF92FF924B015C010E94DD016B017C01B8
:100420000E94DD016C197D098E099F09683E7340A9
:1004300081059105A8F321E0821A9108A108B1086D
:1004400088EEC80E83E0D81EE11CF11C81149104D3
:10045000A104B10429F7FF90EF90DF90CF90BF90F7
:10046000AF909F908F900895089508952091BF01B7
:10047000260F3327331F21323105ECF42091370248
:10048000FC0190E080E0243069F082E00895A091C2
:10049000BF012191AC0141565E4FA40FB52FB11D94
:1004A0002C930196861798F38091BF01680F609393
:1004B000BF0180E0089581E008951092370281E045
:1004C000809336021092110261E082E10E94910154
:1004D00061E083E10E949101E9EBF0E080818E7F91
:1004E000808380818D7F808388E48093B80085E459
:1004F0008093BC000895CF93DF9391E090939E0189
:100500008823B9F0C091B800D091BA008091BC00A6
:100510008A7B8093BC0060E082E10E94910160E0F0
:1005200083E10E9491010E945D02D093BA00C093C2
:10053000B800DF91CF9108958F929F92AF92BF92B2
:10054000CF92DF92EF92FF920F931F93CF93DF939F
:10055000D0916002D13208F0D7C0182FC0915F024D
:100560000E94DD016B017C018091370281116BC01B
:1005700082E080933702109336028FEF809335022A
:1005800010923402D0933302AFE3B2E0E3E1F2E041
:1005900080E0D81391C01092120280911202CC0F09
:1005A000C82BC093120280911102813009F088C0DB
:1005B000109211020E94DD016B017C0180911202F8
:1005C0008093BB008091390290913A02A0913B0246
:1005D000B0913C02892B8A2B8B2BA1F00E94DD016C
:1005E0000091390210913A0220913B0230913C0275
:1005F0006C197D098E099F09061717072807390707
:1006000008F442C08091BC0083FDD8CF85EC809374
:10061000BC000E94DD016B017C01809137028230B9
:1006200009F450C0809135028F3F09F46FC080916A
:100630003502803209F46CC080913502803309F4B0
:1006400069C084E026C08091390290913A02A0915D
:100650003B02B0913C02892B8A2B8B2B09F484CF6F
:100660000E94DD018090390290903A02A0903B02F6
:10067000B0903C026C197D098E099F098616970679
:10068000A806B90608F070CF809138020E947B025C
:1006900085E010923E021092600210923D02DF91BE
:1006A000CF911F910F91FF90EF90DF90CF90BF906F
:1006B000AF909F908F9008959D9191938F5F69CF98
:1006C00085EEA5CF8091390290913A02A0913B022C
:1006D000B0913C02892B8A2B8B2B09F49ECF0E9470
:1006E000DD010091390210913A0220913B023091D4
:1006F0003C026C197D098E099F0906171707280708
:10070000390708F08ACFC0CF81E0C3CF80E0C1CFE6
:1007100082E0BFCF83E0BDCF1F93CF93DF93EA0189
:10072000122FDC0111968D919C91DC01ED91FC91D1
:100730000280F381E02D0995C817D90729F4812F8C
:100740000E949C0291E0811190E0892FDF91CF916E
:100750001F910895CF93DF93EC018B818823A1F043
:10076000888191E090933D0280935F0210923E0257
:100770001092600281E00E949C0291E0811190E061
:10078000892FDF91CF9108951092F0011092EF011F
:1007900010923E02109260020E945D0282E890E098
:1007A0009093EC018093EB0183E890E09093EE014D
:1007B0008093ED0181E08B83CE010E94AA03982FE4
:1007C0008111CECFDDCF0895E091F0018091EF014E
:1007D000E81730F4F0E0EF50FE4F808190E008958C
:1007E0008FEF9FEF08959091F0018091EF012FEF2F
:1007F0003FEF981748F4E92FF0E0EF50FE4F2081CB
:1008000030E09F5F9093F001C90108958091EF015E
:100810009091F001891B990B0895CF92DF92EF928E
:10082000FF920F931F93CF93DF937C01CB018A013B
:1008300020913D02222389F0EB016B01C40ED51EED
:10084000CC15DD0569F06991D701ED91FC9101901E
:10085000F081E02DC7010995F3CF642F0E94360285
:10086000C801DF91CF911F910F91FF90EF90DF9022
:10087000CF900895CF93DF931F92CDB7DEB76983F2
:1008800020913D022223F9F020916002203258F09D
:1008900021E030E0FC013383228390E080E00F9080
:1008A000DF91CF91089580913E02E82FF0E0E15C66
:1008B000FD4F998190838F5F80933E028093600209
:1008C00081E090E0ECCF61E0CE0101960E9436021B
:1008D000F7CF90E080E00895FC0101900020E9F757
:1008E0003197AF01481B590BBC0181E692E00C9493
:1008F00084008F929F92AF92BF920F931F93CF93DA
:10090000DF93CDB7DEB7A1970FB6F894DEBF0FBE69
:10091000CDBF19A2423008F44AE08E010F5D1F4F8F
:10092000842E912CB12CA12CA50194010E949A0E29
:10093000E62FB901CA01EA30F4F4E05DD801EE9384
:100940008D01232B242B252B79F790E080E0109745
:1009500019F0CD010E946C04A1960FB6F894DEBF89
:100960000FBECDBFDF91CF911F910F91BF90AF9080
:100970009F908F900895E95CE1CFCF93DF9300D0F3
:10098000CDB7DEB789836A8380910D0390910E0302
:10099000FC012481358122303105B8F0208131E01D
:1009A00030933D0220935F0210923E02109260024B
:1009B00021E042E050E0BE016F5F7F4F0E948C0358
:1009C0000F900F90DF91CF91089580E0F9CFEAE08A
:1009D000F3E081879287682F8DE390E00E94BD0449
:1009E0006EE170E080E090E00C9402022F923F9262
:1009F0004F925F926F927F928F929F92AF92BF922F
:100A0000CF92DF92EF92FF920F931F93CF93DF93DA
:100A1000DC011496ED91FC911597EF2B09F412C1AE
:100A200069012A01EC01888191E090933D02809355
:100A30005F0210923E021092600220E041E050E01E
:100A4000CD010E948C03782E882309F4FBC0F12C81
:100A5000E12C33243394EC14FD0408F0F4C08C81B1
:100A60009D8186010E191F098017910708F48C01DA
:100A700028800E94DD014B015C01809137028111C9
:100A800073C0602EB0E2B01710F480E2682E30928E
:100A9000370221E0C601801B910BE816F90608F425
:100AA00020E020933602EFEFE093350210923402FB
:100AB0008FEF860D809333023092120280911202E2
:100AC000220C282A2092120280911102813009F012
:100AD00090C0109211020E94DD014B015C018091D7
:100AE00012028093BB008091390290913A02A0914A
:100AF0003B02B0913C02892B8A2B8B2BA1F00E94E8
:100B0000DD012091390230913A0240913B0250912F
:100B10003C02681979098A099B0926173707480793
:100B2000590708F442C08091BC0083FDD8CFF5EC92
:100B3000F093BC000E94DD014B015C018091370203
:100B4000813009F45AC080913402861510F4609007
:100B50003402A3E1B2E0E1EFF1E080E0861551F16B
:100B60009D9191938F5FFACF8091390290913A02D3
:100B7000A0913B02B0913C02892B8A2B8B2B09F46C
:100B80007CCF0E94DD012091390230913A024091E0
:100B90003B0250913C02681979098A099B09261782
:100BA00037074807590708F068CF809138020E943C
:100BB0007B02612C1092F0016092EF016016110629
:100BC00009F040C042018E0C9F1C5401C5018819D8
:100BD00099098017910798F589819A81DC01ED9137
:100BE000FC910284F385E02D0995F50181935F0165
:100BF000EDCF85EE8093BC009DCF8091390290911E
:100C00003A02A0913B02B0913C02892B8A2B8B2B9C
:100C100009F494CF0E94DD012091390230913A020B
:100C200040913B0250913C02681979098A099B095D
:100C3000261737074807590708F080CFB6CFE00ED0
:100C4000F11E09CF712C872DDF91CF911F910F914C
:100C5000FF90EF90DF90CF90BF90AF909F908F90DC
:100C60007F906F905F904F903F902F900895CF931B
:100C7000DF931F92CDB7DEB7198221E030E0AE01DD
:100C80004F5F5F4FBA0180910D0390910E030E9458
:100C9000F60489810F90DF91CF9108954F925F9272
:100CA0006F927F928F929F92AF92BF92CF92DF927C
:100CB000EF92FF920F931F93CF936B017C01742EE1
:100CC000AC019B010E94950E882399F088E391E086
:100CD000CF911F910F91FF90EF90DF90CF90BF9039
:100CE000AF909F908F907F906F905F904F900C94FB
:100CF0006C0446015701E894B7F82FEF3FEF4FE738
:100D00005FE7C501B4010E94950E81110DC02FEF60
:100D10003FEF4FE75FE7C501B4010E94CB0C181607
:100D20001CF48CE391E0D4CF2FEF3FEF4FE75FE46B
:100D3000C701B6010E94230E18161CF480E491E04E
:100D4000C7CF2FEF3FEF4FE75FECC701B6010E941F
:100D5000CB0C87FDF3CF20E030E0A901C701B6013D
:100D60000E94CB0C10E000E087FF0AC06DE281E634
:100D700092E00E9424018C01F7FAF094F7F8F094C5
:100D8000C0E060E070E080E09FE37C1641F020E08E
:100D900030E040E251E40E94D00CCF5FF6CFA701D3
:100DA00096010E945F0C2B013C010E94420D4B01F9
:100DB0005C014AE00E9479047C01E00EF11ECC2324
:100DC000C1F1C501B4010E94710D9B01AC01C301C9
:100DD000B2010E945E0C4B015C016EE281E692E082
:100DE0000E942401E80EF91EC15018F120E030E005
:100DF00040E251E4C501B4010E94280E2B013C01E0
:100E00000E94420D4B01B12CA12C4AE0C501B40156
:100E10000E947904E80EF91EC501B4010E94710D0B
:100E20009B01AC01C301B2010E945E0C4B015C014D
:100E3000DBCFC701CF911F910F91FF90EF90DF9013
:100E4000CF90BF90AF909F908F907F906F905F906A
:100E50004F9008958F929F92AF92BF92CF92DF9260
:100E6000EF92FF920F931F93CF93DF93CDB7DEB72F
:100E700063970FB6F894DEBF0FBECDBF8B01FB01A9
:100E8000349620E2DF011D922A95E9F744E250E012
:100E900060E070E0F8014083518362837383DC017A
:100EA00015964D915D916D917C9118974483558372
:100EB0006683778343E050E060E070E040875187CD
:100EC000628773872FB7F8944091E3015091E40152
:100ED0006091E5017091E6012FBF408B518B628BD1
:100EE000738B2CE0FE013196DF011D922A95E9F704
:100EF000AE01435F5F4F26E0FA0111922A95E9F7B0
:100F00002AE12B8B26E030E0BE016D5E7F4FDC01D5
:100F100013968D919C910E94F6046D857E85072E17
:100F2000000C880B990B0E94730D20E030E040E824
:100F30005DE30E94280E4B015C016F857889072EC6
:100F4000000C880B990B0E94730D20E030E040E804
:100F50005DE30E94280E6B017C0169897A89072E66
:100F6000000C880B990B0E94730D20E030E040E8E4
:100F70005DE30E94280EF801848A958AA68AB78AC2
:100F8000C08ED18EE28EF38E648F758F868F978F91
:100F900081E063960FB6F894DEBF0FBECDBFDF9140
:100FA000CF911F910F91FF90EF90DF90CF90BF9066
:100FB000AF909F908F9008950C945E0F0F931F93A6
:100FC000CF93DF938C01EB0188E2FB0111928A95AC
:100FD000E9F74BE050E064E471E0CE010E94E70FD6
:100FE0001B8681E090E0A0E0B0E08C879D87AE8713
:100FF000BF87F80185819681A781B085888B998B01
:10100000AA8BBB8B83E090E0A0E0B0E08C8B9D8B43
:10101000AE8BBF8B1CA21DA21EA21FA2188E198E02
:101020001A8E1B8E1C8E1D8E1E8E1F8E8AE097EDD3
:10103000A3E2BCE388A399A3AAA3BBA3DF91CF91AA
:101040001F910F91089585ED8093BC008091390226
:1010500090913A02A0913B02B0913C020796A11DEB
:10106000B11D23E0B695A795979587952A95D1F759
:101070002091BC0024FD03C01092370208954091D6
:10108000390250913A0260913B0270913C02452B2B
:10109000462B472B69F30097A105B10541F025E3E5
:1010A0002A95F1F700000197A109B109E1CF8091DC
:1010B00038020C947B021F920F920FB60F921124EC
:1010C0002F933F934F935F936F937F938F939F9350
:1010D000AF93BF93EF93FF9381E692E00E940201EA
:1010E000FF91EF91BF91AF919F918F917F916F9100
:1010F0005F914F913F912F910F900FBE0F901F90D6
:1011000018951F920F920FB60F9211242F938F9361
:101110009F93EF93FF93E0917102F09172028081AF
:10112000E0917702F091780282FD1BC0908180915E
:101130007A028F5F8F7320917B02821741F0E091DA
:101140007A02F0E0EF59FD4F958F80937A02FF917C
:10115000EF919F918F912F910F900FBE0F901F9045
:1011600018958081F4CF1F920F920FB60F92112421
:101170002F933F938F939F93AF93BF938091E301FE
:101180009091E401A091E501B091E6013091E20176
:1011900023E0230F2D3758F50196A11DB11D209393
:1011A000E2018093E3019093E401A093E501B09301
:1011B000E6018091E7019091E801A091E901B091E9
:1011C000EA010196A11DB11D8093E7019093E8010A
:1011D000A093E901B093EA01BF91AF919F918F91E4
:1011E0003F912F910F900FBE0F901F90189526E8FA
:1011F000230F0296A11DB11DD2CF1F920F920FB6E1
:101200000F9211242F933F934F935F936F937F938C
:101210008F939F93AF93BF93EF93FF938091B90008
:10122000887F803609F44AC0F0F5883209F4A7C0F7
:1012300018F5803109F49BC0B8F4882309F4F9C08B
:10124000883009F494C0FF91EF91BF91AF919F91C5
:101250008F917F916F915F914F913F912F910F905F
:101260000FBE0F901F901895883109F488C0803206
:1012700051F78093350214C0803409F49DC040F4C6
:101280008033B9F38833F9F68093350285ECB0C02A
:10129000803509F485C0883509F496C0883499F6FC
:1012A0000E942308D0CF883909F48CC038F58837DC
:1012B00029F050F4883611F0803729F683E08093C6
:1012C00037021092E10157C0883809F47BC0803999
:1012D00019F0803809F0B7CF8091E101803208F031
:1012E00071C0E091E10181E08E0F8093E101809176
:1012F000BB00F0E0EF53FE4F80833DC0803B39F0F0
:10130000E0F4803A09F479C0883A09F09CCF84E08F
:10131000809337021092C0011092BF01E091EB015F
:10132000F091EC0109958091BF0181110FC081E01E
:101330008093BF0110929F0109C0803C09F4A6CFA1
:10134000883C09F4A3CF883B09F07DCFE091C00130
:1013500081E08E0F8093C001F0E0E156FE4F808166
:101360008093BB009091C0018091BF0129C0809102
:1013700012028093BB0085EC8093BC0064CF9091F7
:10138000340280913302981758F5E091340281E0DD
:101390008E0F80933402F0E0ED5EFD4F8081E9CF47
:1013A000E091340281E08E0F809334028091BB0083
:1013B000F0E0ED5EFD4F8083909134028091330226
:1013C0009817C8F285E8D8CFE091340281E08E0FFB
:1013D000809334028091BB00F0E0ED5EFD4F80838E
:1013E0008091360281115CCF81E08093110284EA02
:1013F0008093BC001092370226CF85EC8093BC000E
:10140000109237028091E101803230F4E091E101E5
:10141000F0E0EF53FE4F10826091E10170E0E09147
:10142000ED01F091EE0181EC91E009951092E1015E
:101430000ACF1092350234CF0F931F93CF93DF93CF
:10144000E1E6F2E01382128288EE93E0A0E0B0E0E1
:1014500084839583A683B7832AE031E03183208398
:1014600025EC30E03587248724EC30E03787268769
:1014700020EC30E0318B208B21EC30E0338B228B61
:1014800022EC30E0358B248B26EC30E0378B268B3A
:10149000118E128E138E148ECEEFD2E01B821A8222
:1014A0008C839D83AE83BF838CE191E09983888395
:1014B0000AE013E08EE291E0D8018D939C9387E3DC
:1014C00090E0A0E0B0E0F80185839683A783B08721
:1014D00086E090E00E94C20EFC0188E28083D28305
:1014E000C183138280E290E095838483D8011496AF
:1014F000FC93EE931397DF91CF911F910F91089575
:10150000CF93DF93CDB7DEB7E7970FB6F894DEBF82
:101510000FBECDBF789484B5826084BD84B58160F0
:1015200084BD85B5826085BD85B5816085BD8091AE
:101530006E00816080936E00109281008091810026
:10154000826080938100809181008160809381001E
:10155000809180008160809380008091B1008460E0
:101560008093B1008091B00081608093B000809141
:101570007A00846080937A0080917A008260809300
:101580007A0080917A00816080937A0080917A005D
:10159000806880937A001092C100E0917102F0910E
:1015A000720282E08083E0916D02F0916E021082FF
:1015B000E0916F02F09170028FEC808310927902BB
:1015C000E0917502F091760286E08083E0917302EB
:1015D000F0917402808180618083E0917302F091C8
:1015E0007402808188608083E0917302F0917402BC
:1015F000808180688083E0917302F0917402808121
:101600008F7D80838BE491E00E946C0484E691E0FE
:101610000E946C0400910D0310910E031092F001D2
:101620001092EF0110923E02109260020E945D0241
:1016300082E890E09093EC018093EB0183E890E0E6
:101640009093EE018093ED0181E0F8018383C8015E
:101650000E94AA03882331F10E943706803AC1F420
:1016600090E080E00E94E70460E28FE390E00E9457
:10167000BD046EE170E080E090E00E9402020E94F2
:101680003706803AA1F06AE070E080E090E0F5CFA4
:1016900068EE73E080E090E00E9402020E9437064C
:1016A000803AF1F287E691E00E946C0458C062E350
:1016B00070E080E090E00E94020260E08EE390E043
:1016C0000E94BD046AE070E080E090E00E940202A7
:1016D00060E087E090E00E94BD0460E08FE390E06E
:1016E0000E94BD046AE070E080E090E00E94020287
:1016F0008CE090E00E94E70464E170E080E090E01C
:101700000E94020268EE73E080E090E00E94020214
:10171000009113031091140390E080E00E94E7040D
:1017200069E170E080E090E00E94020260E087E002
:1017300090E00E94BD0460E88FE390E00E94BD0449
:101740006AE070E080E090E00E940202C8010E941E
:10175000E70464E170E080E090E00E9402025E0134
:10176000F5E2AF0EB11C8CE0982E6E0181E3C80E3D
:10177000D11C96E0892E28E2522E30E0632E30E014
:10178000732EBE016F5F7F4F8AE093E00E942A07AD
:10179000F501892D11928A95E9F7F601882D1192AC
:1017A0008A95E9F75FAA26E030E0A601BE01695CF0
:1017B0007F4F80910D0390910E030E94F604EBA8D9
:1017C000FCA80DA91EA969A97AA9072E000C880BEF
:1017D000990B0E94730D20E030E048EC52E40E9427
:1017E000D00C6DA37EA38FA398A7B701FF0C880B25
:1017F000990B0E94730D20E030E048EC52E40E9407
:10180000D00C69A77AA78BA79CA7B801110F880BEA
:10181000990B0E94730D20E030E048EC52E40E94E6
:10182000D00C6DA77EA78FA798AB84E891E00E94AB
:101830006C046DA17EA18FA198A542E00E944E0686
:1018400088E891E00E946C0483E991E00E946C04B6
:1018500069A57AA58BA59CA542E00E944E0688E862
:1018600091E00E946C0487E991E00E946C042DECE9
:101870003CEC4CE45EE36DA57EA58FA598A90E9483
:101880005E0C42E00E944E0688E891E00E946C04E3
:101890008BE991E00E946C0462E370E080E090E0EC
:1018A0000E9402026114710409F46BCF0E94EE00E1
:1018B000882309F466CF0E94000063CF5058BB27ED
:1018C000AA270E94760C0C94E90D0E94DB0D38F0DB
:1018D0000E94E20D20F039F49F3F19F426F40C9495
:1018E000D80D0EF4E095E7FB0C94D20DE92F0E9481
:1018F000FA0D58F3BA17620773078407950720F0AB
:1019000079F4A6F50C941C0E0EF4E0950B2EBA2F6C
:10191000A02D0B01B90190010C01CA01A0011124F5
:10192000FF27591B99F0593F50F4503E68F11A16A1
:10193000F040A22F232F342F4427585FF3CF469532
:1019400037952795A795F0405395C9F77EF41F1654
:10195000BA0B620B730B840BBAF09150A1F0FF0F1E
:10196000BB1F661F771F881FC2F70EC0BA0F621F0A
:10197000731F841F48F4879577956795B795F795FA
:101980009E3F08F0B0CF9395880F08F09927EE0F8F
:101990009795879508950E94AE0D08F481E008950B
:1019A0000E94E40C0C94E90D0E94E20D58F00E9494
:1019B000DB0D40F029F45F3F29F00C94D20D51115A
:1019C0000C941D0E0C94D80D0E94FA0D68F3992307
:1019D000B1F3552391F3951B550BBB27AA2762172B
:1019E0007307840738F09F5F5F4F220F331F441F38
:1019F000AA1FA9F335D00E2E3AF0E0E832D091506C
:101A00005040E695001CCAF72BD0FE2F29D0660F58
:101A1000771F881FBB1F261737074807AB07B0E89B
:101A200009F0BB0B802DBF01FF2793585F4F3AF0A1
:101A30009E3F510578F00C94D20D0C941D0E5F3F23
:101A4000E4F3983ED4F3869577956795B795F79527
:101A50009F5FC9F7880F911D9695879597F908950F
:101A6000E1E0660F771F881FBB1F621773078407AB
:101A7000BA0720F0621B730B840BBA0BEE1F88F7BA
:101A8000E09508950E94020E88F09F5798F0B92FB4
:101A90009927B751B0F0E1F0660F771F881F991FA3
:101AA0001AF0BA95C9F714C0B13091F00E941C0E1B
:101AB000B1E008950C941C0E672F782F8827B85F2B
:101AC00039F0B93FCCF3869577956795B395D9F7FB
:101AD0003EF490958095709561957F4F8F4F9F4F05
:101AE0000895E89409C097FB3EF490958095709511
:101AF00061957F4F8F4F9F4F9923A9F0F92F96E95A
:101B0000BB279395F695879577956795B795F111CE
:101B1000F8CFFAF4BB0F11F460FF1BC06F5F7F4F6B
:101B20008F4F9F4F16C0882311F096E911C077237D
:101B300021F09EE8872F762F05C0662371F096E886
:101B4000862F70E060E02AF09A95660F771F881F55
:101B5000DAF7880F9695879597F90895990F0008F9
:101B6000550FAA0BE0E8FEEF16161706E807F9076F
:101B7000C0F012161306E407F50798F0621B730B0A
:101B8000840B950B39F40A2661F0232B242B252B8B
:101B900021F408950A2609F4A140A6958FEF811D2E
:101BA000811D089597F99F6780E870E060E00895CF
:101BB0009FEF80EC089500240A9416161706180665
:101BC0000906089500240A94121613061406050641
:101BD0000895092E0394000C11F4882352F0BB0FD2
:101BE00040F4BF2B11F460FF04C06F5F7F4F8F4F35
:101BF0009F4F089557FD9058440F551F59F05F3F70
:101C000071F04795880F97FB991F61F09F3F79F01E
:101C100087950895121613061406551FF2CF4695A0
:101C2000F1DF08C0161617061806991FF1CF869522
:101C30007105610508940895E894BB276627772706
:101C4000CB0197F908950E94AE0D08F48FEF089527
:101C50000E943B0E0C94E90D0E94DB0D38F00E94AF
:101C6000E20D20F0952311F00C94D20D0C94D80DB8
:101C700011240C941D0E0E94FA0D70F3959FC1F370
:101C8000950F50E0551F629FF001729FBB27F00D2A
:101C9000B11D639FAA27F00DB11DAA1F649F66277F
:101CA000B00DA11D661F829F2227B00DA11D621FCE
:101CB000739FB00DA11D621F839FA00D611D221F88
:101CC000749F3327A00D611D231F849F600D211D6C
:101CD000822F762F6A2F11249F5750409AF0F1F0EF
:101CE00088234AF0EE0FFF1FBB1F661F771F881F58
:101CF00091505040A9F79E3F510580F00C94D20DB1
:101D00000C941D0E5F3FE4F3983ED4F386957795CF
:101D10006795B795F795E7959F5FC1F7FE2B880FFD
:101D2000911D9695879597F908950E94AE0D880BA1
:101D3000990B0895A1E21A2EAA1BBB1BFD010DC031
:101D4000AA1FBB1FEE1FFF1FA217B307E407F5076B
:101D500020F0A21BB30BE40BF50B661F771F881F47
:101D6000991F1A9469F760957095809590959B01DD
:101D7000AC01BD01CF010895EE0FFF1F0590F49156
:101D8000E02D09940F931F93CF93DF938230910539
:101D900010F482E090E0E0911703F091180330E036
:101DA00020E0B0E0A0E0309799F42115310509F466
:101DB0004AC0281B390B24303105D8F58A819B8114
:101DC0006115710589F1FB0193838283FE0111C0C6
:101DD000408151810281138148175907E0F048176B
:101DE000590799F4109761F012960C931297139675
:101DF0001C933296CF01DF91CF911F910F910895DF
:101E00000093170310931803F4CF2115310551F0F7
:101E10004217530738F0A901DB019A01BD01DF0128
:101E2000F801C1CFEF01F9CF909318038093170306
:101E3000CDCFFE01E20FF31F819391932250310920
:101E400039832883D7CF2091150330911603232B94
:101E500041F4209102013091030130931603209345
:101E6000150320910001309101012115310541F444
:101E70002DB73EB74091040150910501241B350B4D
:101E8000E0911503F0911603E217F307A0F42E1B5F
:101E90003F0B2817390778F0AC014E5F5F4F2417CE
:101EA000350748F04E0F5F1F5093160340931503FC
:101EB000819391939FCFF0E0E0E09CCFCF93DF93AD
:101EC0000097E9F0FC01329713821282A091170368
:101ED000B0911803ED0130E020E01097A1F42081CB
:101EE0003181820F931F209115033091160328171B
:101EF000390709F061C0F0931603E0931503DF91F1
:101F0000CF910895EA01CE17DF07E8F54A815B819A
:101F10009E0141155105B1F7E901FB83EA8349911F
:101F20005991C40FD51FEC17FD0761F48081918191
:101F30000296840F951FE90199838883828193819A
:101F40009B838A83F0E0E0E012968D919C91139739
:101F50000097B9F52D913C911197CD010296820F12
:101F6000931F20911503309116032817390739F66E
:101F7000309751F51092180310921703B09316037F
:101F8000A0931503BCCFD383C28340815181840FBA
:101F9000951FC817D90761F44E5F5F4F88819981FB
:101FA000480F591F518340838A819B819383828389
:101FB0002115310509F0B0CFF0931803E093170312
:101FC0009ECFFD01DC01C0CF13821282D7CFFB016F
:101FD000DC014150504048F001900D920020C9F7BB
:101FE00001C01D9241505040E0F70895F894FFCF92
:101FF0000000190380000000000024018400B100EB
:102000007101E200C000D400000000003A040D0499
:102010006904E3030604F303E40300000000340250
:10202000DC0735022A07DE076E616E00696E660006
:102030006F766600424E4F303535004F7269656EDF
:10204000746174696F6E2053656E736F722054658E
:1020500073740A000D0A004572726F723A204E6F57
:1020600020424E4F30353520646574656374656475
:102070002E2E2E00583A2000206D2F735E32202025
:0E208000202000593A20005A3A20000D00009E
:107E0000112484B714BE81FFF0D085E080938100F7
:107E100082E08093C00088E18093C10086E0809377
:107E2000C20080E18093C4008EE0C9D0259A86E02C
:107E300020E33CEF91E0309385002093840096BBD3
:107E4000B09BFECF1D9AA8958150A9F7CC24DD24C4
:107E500088248394B5E0AB2EA1E19A2EF3E0BF2EE7
:107E6000A2D0813461F49FD0082FAFD0023811F036
:107E7000013811F484E001C083E08DD089C08234E0
:107E800011F484E103C0853419F485E0A6D080C0E4
:107E9000853579F488D0E82EFF2485D0082F10E0AE
:107EA000102F00270E291F29000F111F8ED06801E7
:107EB0006FC0863521F484E090D080E0DECF843638
:107EC00009F040C070D06FD0082F6DD080E0C81688
:107ED00080E7D80618F4F601B7BEE895C0E0D1E017
:107EE00062D089930C17E1F7F0E0CF16F0E7DF06D8
:107EF00018F0F601B7BEE89568D007B600FCFDCFD4
:107F0000A601A0E0B1E02C9130E011968C91119780
:107F100090E0982F8827822B932B1296FA010C0160
:107F200087BEE89511244E5F5F4FF1E0A038BF0790
:107F300051F7F601A7BEE89507B600FCFDCF97BE46
:107F4000E89526C08437B1F42ED02DD0F82E2BD052
:107F50003CD0F601EF2C8F010F5F1F4F84911BD097
:107F6000EA94F801C1F70894C11CD11CFA94CF0C13
:107F7000D11C0EC0853739F428D08EE10CD085E9AC
:107F80000AD08FE07ACF813511F488E018D01DD067
:107F900080E101D065CF982F8091C00085FFFCCF94
:107FA0009093C60008958091C00087FFFCCF809118
:107FB000C00084FD01C0A8958091C6000895E0E648
:107FC000F0E098E1908380830895EDDF803219F02E
:107FD00088E0F5DFFFCF84E1DECF1F93182FE3DFCA
:107FE0001150E9F7F2DF1F91089580E0E8DFEE27F6
:047FF000FF270994CA
:027FFE00040479
:00000001FF
