:020000040000FA
:100000000C9476000C949E000C949E000C949E0020
:100010000C949E000C949E000C949E000C949E00E8
:100020000C949E000C949E000C949E000C949E00D8
:100030000C949E000C949E000C949E000C949E00C8
:100040000C9417080C949E000C9487080C9461087B
:100050000C949E000C949E000C949E000C949E00A8
:100060000C949E000C949E00000020410000C842A9
:1000700000401C4620BCBE4CCA1B0E5AAEC59D7427
:10008000CDCCCC3D0AD7233C17B7D13877CC2B3217
:100090009595E6241FB14F0A0000000800020100F8
:1000A0000003040700000000000000000000000042
:1000B000250028002B0000000000240027002A0053
:1000C00004040404040404040202020202020303FE
:1000D0000303030301020408102040800102040806
:1000E0001020010204081020B908D50A11241FBEEF
:1000F000CFEFD8E0DEBFCDBF22E0ACE9B1E001C078
:100100001D92AC34B207E1F711E0A0E0B1E0EEE6F9
:10011000FDE102C005900D92AC39B107D9F710E0AE
:10012000C5E7D0E004C02197FE010E94A90CC437A6
:10013000D107C9F70E94F2080C94AA0E0C94000093
:1001400090E0FC01EC52FF4F249180549F4FFC0142
:100150008491882399F090E0880F991FFC01EA545C
:10016000FF4FA591B491FC01E455FF4F8591949107
:100170008FB7F894EC91E22BEC938FBF0895E0EAEF
:10018000F0E02491ECEDF0E09491E8ECF0E0E49103
:10019000EE23C9F0222339F0233001F1A8F42130F5
:1001A00019F1223029F1F0E0EE0FFF1FE455FF4F67
:1001B000A591B4912FB7F894EC91811126C0909538
:1001C0009E239C932FBF08952730A9F02830C9F0B3
:1001D000243049F7209180002F7D03C020918000BA
:1001E0002F7720938000DFCF24B52F7724BDDBCF7E
:1001F00024B52F7DFBCF2091B0002F772093B00046
:10020000D2CF2091B0002F7DF9CF9E2BDACF089569
:100210000895AF92BF92CF92DF92EF92FF920F9329
:100220001F93CF93DF936C017B018B01040F151F8C
:10023000EB015E01AE18BF08C017D10759F06991F4
:10024000D601ED91FC910190F081E02DC601099558
:10025000892B79F7C501DF91CF911F910F91FF9005
:10026000EF90DF90CF90BF90AF900895FC01538D39
:10027000448D252F30E0842F90E0821B930B541780
:1002800010F0CF96089501970895FC01918D828D0D
:10029000981761F0A28DAE0FBF2FB11D5D968C91A6
:1002A000928D9F5F9F73928F90E008958FEF9FEFE5
:1002B00008952FB7F8948091A1019091A201A09187
:1002C000A301B091A4012FBF8093AD019093AE0123
:1002D000A093AF01B093B00185EA91E00E9445017F
:1002E00097FF26C02FB7F8948091A1019091A201A9
:1002F000A091A301B091A4012FBF4091AD015091F5
:10030000AE016091AF017091B001841B950BA60BFB
:10031000B70B4091A9015091AA016091AB01709176
:10032000AC0184179507A607B707B0F28FEF9FEFD0
:100330000895FC01918D828D981731F0828DE80F20
:10034000F11D858D90E008958FEF9FEF0895FC01DA
:10035000918D228D892F90E0805C9F4F821B9109A7
:100360008F739927089585EA91E00E94A70121E003
:10037000892B09F420E0822F089580E090E0892BFA
:1003800029F00E94B30181110C9400000895FC0132
:10039000A48DA80FB92FB11DA35ABF4F2C91848DE6
:1003A00090E001968F739927848FA689B7892C9343
:1003B000A089B1898C91837080648C93938D848D96
:1003C000981306C00288F389E02D80818F7D808399
:1003D0000895EF92FF920F931F93CF93DF93EC0159
:1003E00081E0888F9B8D8C8D98131AC0E889F989DC
:1003F000808185FF15C09FB7F894EE89FF896083DF
:10040000E889F98980818370806480839FBF81E05F
:1004100090E0DF91CF911F910F91FF90EF900895A1
:10042000F62E0B8D10E00F5F1F4F0F731127E02E7C
:100430008C8D8E110CC00FB607FCFACFE889F989B4
:10044000808185FFF5CFCE010E94C701F1CFEB8DF2
:10045000EC0FFD2FF11DE35AFF4FF0829FB7F89488
:100460000B8FEA89FB8980818062CFCFCF93DF93A6
:10047000EC01888D8823B9F0AA89BB89E889F989BC
:100480008C9185FD03C0808186FD0DC00FB607FCF1
:10049000F7CF8C9185FFF2CF808185FFEDCFCE0124
:1004A0000E94C701E9CFDF91CF91089580339CF07E
:1004B0008A3324F08F3524F08B3724F481E00895BB
:1004C00081344CF08B35D4F393ED980F81E092306A
:1004D000B0F380E008958B32B9F7F0CFFC01868548
:1004E000811114C0A185B285838594852FEF3FEFDC
:1004F000A817B90730F4CD010196928781872C9116
:1005000030E037FD20E0258781E0868785850895E6
:100510001F93CF93DF93EC01162F0E946E0281137D
:1005200006C01E8681E0DF91CF911F91089580E083
:10053000FACFCF93DF93EC01CE010E946E028B3095
:100540003CF489304CF4882349F081E0888710C05E
:100550008D3011F08032C9F71E86EECF888581116B
:100560000AC081E090E0CF5ADF4F9983888380E012
:10057000DF91CF91089582E090E0F5CFFC01828178
:1005800093810097C1F024813581468157812417DA
:10059000350740F0138212820190F081E02D81E056
:1005A00080870895A9014F5F5F4F55834483820F71
:1005B000931FFC01608308959F92AF92BF92CF92E8
:1005C000DF92EF92FF920F931F93CF93DF9300D0B0
:1005D00000D01F92CDB7DEB78C010E946E02D82EDC
:1005E000F8011686F12CE12C60EFC62EC8010E949E
:1005F0006E02F8011686D81609F4BCC0811119C024
:10060000F801EF5AFF4F82E090E09183808380E011
:100610000F900F900F900F900F90DF91CF911F913F
:100620000F91FF90EF90DF90CF90BF90AF909F9091
:1006300008958C3509F09CC0C8010E946E02882381
:10064000F9F2E4E2F1E0853709F086C0F801168698
:1006500054E0952EB12CA12CC8010E946E02882373
:1006600079F281344CF48053803148F0F801EF5A2C
:10067000FF4F83E090E0C9CF8F7D8753F5CF44E0F3
:10068000AA0CBB1C4A95E1F7A82AF80116869A9491
:100690009110E2CFC501985D8115944020F4750159
:1006A00023E0F222A3CFC5019C5D81159440A8F4FC
:1006B000F3E0BF22B701762F6627770F770F6A29FD
:1006C0007B2990E080E001966038710581059105F5
:1006D00040F4C8010E94BE0289CFB50190E080E0DD
:1006E000F3CF1982262F2F7320682A8326E0969550
:1006F0008795779567952A95D1F76032710580F4D3
:10070000606C6B835E0124E0A20EB11CF501629166
:100710005F01662309F46ACFC8010E94BE02F6CFCA
:10072000262F2F7320682B8386E0769567958A9510
:10073000E1F76031710538F4606E6C835E0185E02D
:10074000A80EB11CE3CF60686C83CD825E01E6E049
:10075000AE0EB11CDBCF32969081992309F486CF7F
:100760008913F9CF8181882309F480CFF801168697
:10077000682FAFCF60E0C8010E94BE02F8018281FD
:100780009381892B29F4EF5AFF4F84E090E03DCF0D
:1007900081E03ECF4F925F926F927F928F929F92B5
:1007A000AF92BF92CF92DF92EF92FF920F931F937F
:1007B000CF93DF93EC018B0188818B32C9F18D32AD
:1007C000C1F52196FF24F394888190ED980F9A301B
:1007D00018F08E3209F04DC160E070E0CB01FE01EF
:1007E0002191A0ED8A2E820E39E0381520F16A3968
:1007F00049E97407840749E1940738F5AAE0B0E0B5
:100800009B01AC010E94020C912CB12CA12C240163
:1008100035014094509460947094461657066806CB
:10082000790698F0680D791D8A1D9B1DEF01D7CFC1
:100830002196F12CC9CF211108C0FF20F1F16130C0
:100840007105810550E89507A0F0E12CEAE08E2EB5
:10085000912CA12CB12C61157105F0E88F07910541
:10086000C0F1A50194010E94870CCA01B901E3946B
:10087000F2CFF801248120782A6024839B01AC0107
:1008800088279927DC01821B930BA40BB50B80836F
:100890009183A283B3838F2DDF91CF911F910F910D
:1008A000FF90EF90DF90CF90BF90AF909F908F9090
:1008B0007F906F905F904F900895F8012481207889
:1008C000286024836083718382839383FF24F3945D
:1008D000E2CFFE01299130ED320F3A3010F4E3946B
:1008E000F8CF2E32F1F4EF012196FE0121962081FE
:1008F00050EDD52ED20E29E02D1598F06C3C3CEC35
:1009000073073CE08307910580F7AAE0B0E09B0104
:10091000AC010E94020C6D0D711D811D911DEA94A8
:10092000E4CF20812F7DD0E0C0E0253409F05DC008
:1009300021812D32D9F53296CC24C394DF01D0E049
:10094000C0E02E2D0E2C000C330B4AE0B42EFD011E
:10095000DD9040ED4D0D4A3008F042C0BC9EA00134
:10096000BD9E500D1124CD2DDD0CDD0BE097C40F85
:10097000D51FAE01420F531F4732510544F3F80112
:100980008481CC20D1F040E050E060E070E8F110CC
:1009900003C040E050E0BA0180788C60F8018483A5
:1009A0004083518362837383FC2C75CF2B3219F003
:1009B0003196C12CC3CF3296FCCF40E050E060E8C6
:1009C0007FEFF11004C040E050E060E87FE78078FE
:1009D0008C60F8018483408351836283738376CF74
:1009E000CC2019F0D195C195D1092081211141C0A8
:1009F000CE0DD11DE7FCDA950E94E30A1C161D06F8
:100A000004F5E12CC0FF0CC024E0E29EF0011124AB
:100A1000E859FF4F25913591459154910E94440B1F
:100A2000D595C795E394209769F7F1109058F80190
:100A3000248120782C602483608371838283938354
:100A400045CFD195C195D109E12C209771F3C0FF15
:100A50000CC044E0E49EF0011124E058FF4F2591C2
:100A60003591459154910E94440BD595C795E394D7
:100A7000ECCFF12C10CFCF92DF92EF92FF92CF9379
:100A8000DF9300D000D01F92CDB7DEB7FC01848188
:100A90008F778630B1F020F4843000F580E012C00A
:100AA0008A3021F08C3039F18830C1F78081918112
:100AB000A281B3818F3F9105A105B10519F010F016
:100AC000EDCF80810F900F900F900F900F90DF91DE
:100AD000CF91FF90EF90DF90CF900895808191812A
:100AE0001D82BE016F5F7F4F0E94CA03CE01019637
:100AF0000E943B05E7CFC080D180E280F38020E0F8
:100B000030E0A901C701B6010E94820C87FDC6CF63
:100B100020E030E04FE753E4C701B6010E94DE0A4F
:100B200018160CF4BBCFC701B6010E94530C862FD8
:100B3000C9CFCF93DF93DC01EB01EC81FD818A818A
:100B40009B810896E817F90740F481E08887F0E078
:100B5000E0E0CF01DF91CF9108953897FD83EC83DA
:100B60003097B9F31296CD91DC911397209791F0BD
:100B7000CF018C1B9D0B23E0959587952A95E1F776
:100B80008D831396FC93EE9312971582148217822D
:100B90001682DFCF1196FC93EE93F3CFFC01019008
:100BA0000020E9F73197AF01481B590BBC0185EADA
:100BB00091E00C940901CF92DF92EF92FF920F9394
:100BC0001F93CF93DF936C01FC01E080F180F7016C
:100BD00002811381C081D181C017D10778F401153A
:100BE000110541F0209731F0BE01C8010E949A0E14
:100BF000892B69F089918111FDCFEECFF6018481B7
:100C00009581800F911FF70193838283E801CE01C4
:100C1000DF91CF911F910F91FF90EF90DF90CF90D8
:100C200008950F931F93CF93DF938B01EC012097CF
:100C3000E1F06E817F8160177107B9F00115110530
:100C400041F06115710529F0C8010E949A0E892BA7
:100C500061F08D81882339F028E08202C0011124DF
:100C6000C80FD91FE4CFD0E0C0E0CE01DF91CF9113
:100C70001F910F9108959F92AF92BF92CF92DF92F2
:100C8000EF92FF920F931F93CF93DF93EC018B01B1
:100C9000E42E0E949902F82E81110EC0F12C8F2DA6
:100CA000DF91CF911F910F91FF90EF90DF90CF9048
:100CB000BF90AF909F900895CE010E946E02873240
:100CC00009F415C114F5823209F411C1CE010E9454
:100CD0006E02B82E6E01F1E1CF0ED11CE12C9C2CDE
:100CE000AD2C8B2D0E945602882309F422C18FE37C
:100CF000E81609F41EC11E86E394F601B1926F0155
:100D0000CE010E946E02B82EECCF8B3509F455C08F
:100D10008B37E1F6F80184818078806284831182C8
:100D2000108213821282EE2009F452C01E86CE0178
:100D30000E949902882309F4B1CF6DE7CE010E9489
:100D400088028111ACCFEA94E881F9818281938194
:100D50009B838A838481958122813381821B930BBB
:100D60009F838E831D821C82CE010E946E02873279
:100D700009F46EC0823209F46BC0CE010E946E028B
:100D8000D82E0E945602882309F45DC01E866D2D60
:100D9000CE010E94BE02CE010E946E02D82E0E9499
:100DA00056028111F3CF60E0CE010E94BE028A811B
:100DB0009B81892B09F052C027C0F801848180787B
:100DC000806484831182108213821282E11007C032
:100DD000CF5ADF4F85E090E0998388835FCF1E86EE
:100DE000CE010E949902882309F458CF6DE5CE0107
:100DF0000E948802811153CFEA946F857889C801D7
:100E00000E949905009729F4CF5ADF4F84E090E0C3
:100E1000E3CF4E2DBC01CE010E943B06882309F48E
:100E20003DCFCE010E949902882309F437CF6DE5AA
:100E3000CE010E948802811132CF6CE2CE010E9465
:100E400088028111DACFCF5ADF4F83E090E0C4CF20
:100E5000CE010E94DC02882309F420CFCE010E943B
:100E60009902882309F41ACF6AE3CE010E9488020E
:100E7000882349F36A817B81F801808191810E94F6
:100E80001106BC01892B99F4CE010E94DB056C018F
:100E90006F857889C8010E949905FC01892B09F4A6
:100EA000B3CF848180688483D782C682BF014E2DF0
:100EB000CE010E943B06882309F4F0CECE010E94A9
:100EC0009902882309F4EACE6DE7CE010E948802D8
:100ED0008111E5CE6CE2CE010E948802882309F4DC
:100EE000B2CFCE010E94990281112ECFD7CEE881D8
:100EF000F981828193819B838A8384819581228178
:100F00003381821B930B9F838E831D821C82CE01B3
:100F10000E94DC02F82E882309F4C0CECE010E9484
:100F2000DB05F80124812078256024839183808368
:100F3000B6CEFE01EE0DF11D118A8989843781F448
:100F4000F801848180788660848381E08083F4E086
:100F5000EF1609F4A4CECF5ADF4F82E090E03CCFE9
:100F6000863641F4F801848180788660848310821B
:100F7000F5E0EECF8E3621F484E0E812ECCF8FCE90
:100F8000B801892D9A2D0E94CA03882309F45BCFEA
:100F900086CE0F931F93CF93DF93EC0188819981C5
:100FA000009759F02A813B812617370730F081E0FE
:100FB000DF91CF911F910F9108958B016F5F7F4F4C
:100FC0000E94D40D009759F0998388831B830A836C
:100FD0002C813D81232B59F7FC011082E8CF80E062
:100FE000E7CF0F931F93CF93DF93EC018B010E9408
:100FF000C90728813981811112C02115310519F0E5
:10100000C9010E944B0D198218821D821C821B820D
:101010001A82CE01DF91CF911F910F9108951D8308
:101020000C8364E371E0C9010E94A30EF2CF1F920A
:101030000F920FB60F9211242F933F938F939F938C
:10104000AF93BF938091A1019091A201A091A301C0
:10105000B091A4013091A00123E0230F2D3758F562
:101060000196A11DB11D2093A0018093A101909331
:10107000A201A093A301B093A40180919C0190913F
:101080009D01A0919E01B0919F010196A11DB11DEE
:1010900080939C0190939D01A0939E01B0939F012A
:1010A000BF91AF919F918F913F912F910F900FBE64
:1010B0000F901F90189526E8230F0296A11DB11DD1
:1010C000D2CF1F920F920FB60F9211242F933F93FE
:1010D0004F935F936F937F938F939F93AF93BF9340
:1010E000EF93FF9385EA91E00E94C701FF91EF9192
:1010F000BF91AF919F918F917F916F915F914F9130
:101100003F912F910F900FBE0F901F9018951F9237
:101110000F920FB60F9211242F938F939F93EF93FB
:10112000FF93E091B501F091B6018081E091BB01A0
:10113000F091BC0182FD1BC090818091BE018F5F48
:101140008F732091BF01821741F0E091BE01F0E062
:10115000EB55FE4F958F8093BE01FF91EF919F91CC
:101160008F912F910F900FBE0F901F901895808137
:10117000F4CFE5EAF1E01382128288EE93E0A0E07A
:10118000B0E084839583A683B78386E191E0918361
:10119000808385EC90E09587848784EC90E0978746
:1011A000868780EC90E0918B808B81EC90E0938B34
:1011B000828B82EC90E0958B848B86EC90E0978B11
:1011C000868B118E128E138E148EE2E4F2E0118261
:1011D0001082138212821582148270E060E0CF01C7
:1011E0000C94F107CF93DF93CDB7DEB7C15BD10984
:1011F0000FB6F894DEBF0FBECDBF789484B5826081
:1012000084BD84B5816084BD85B5826085BD85B5AA
:10121000816085BD80916E00816080936E00109228
:1012200081008091810082608093810080918100A3
:101230008160809381008091800081608093800034
:101240008091B10084608093B1008091B000816092
:101250008093B00080917A00846080937A008091BE
:101260007A00826080937A0080917A008160809316
:101270007A0080917A00806880937A001092C10091
:10128000E091B501F091B60182E08083E091B10177
:10129000F091B2011082E091B301F091B4018FECB2
:1012A00080831092BD01E091B901F091BA0186E00E
:1012B0008083E091B701F091B801808180618083E3
:1012C000E091B701F091B801808188608083E0915E
:1012D000B701F091B801808180688083E091B70107
:1012E000F091B80180818F7D808388E00E94A0000A
:1012F00089E00E94A00034E5C32ED12CCC0EDD1E67
:101300004EE0C40ED11C7E0152EAE50EF11C24E52C
:10131000822E912C8C0E9D1E89E0880E911C90E0EF
:10132000A92E90E0B92E85EA91E00E94A701181637
:1013300019060CF0CEC01A8219821C821B821E82F2
:101340001D8270E060E0CE0101960E94F1070E94CC
:10135000590197FD22C08A309105F9F065968FAF4B
:10136000659766961FAE66970D811E810F5F1F4FB2
:10137000B801CE0101960E94C907882341F3298153
:101380003A818D819E81BE016C5A7F4F820F931FDF
:101390000E94A30E1E830D83DACF809142029091AA
:1013A0004302009709F4A3C069817A816115710530
:1013B00009F49BC040914402509145022D813E8129
:1013C0004217530708F491C00E94A30E8D819E819D
:1013D00090934702809346021E821D8289819A81E2
:1013E000009711F00E944B0D6696DFAECEAE669769
:1013F0006896DFAECEAE68976A96FFAEEEAE6A979D
:101400006C96FFAEEEAE6C976D961FAE6D97A29682
:101410001FAEA29720914202309143028091460272
:1014200090914702820F931F44E550E04C0F5D1FDF
:10143000C655DF4F59834883CA5AD04048E0FE0161
:10144000E655FF4FD70101900D924A95E1F748E02C
:10145000F701DE01119601900D924A95E1F7198688
:101460003B872A879D878C871F8684E590E08C0FB9
:101470009D1F998B888B64961FAE1EAE64974AE0C1
:10148000B401835591090E943B0664960EAD1FADD1
:1014900064970115110559F48E85882309F47DC0E0
:1014A000A2968FADA29783FF78C003E010E085E39A
:1014B00091E00E94CE05000F111FF801EA5FFE4F78
:1014C00080819181009709F065C083E591E00E94D9
:1014D000CE05A114B10409F426CF0E94B3018823DC
:1014E00009F41DCF0E94000012CF0E944B0D89818C
:1014F0009A8190934302809342028B819C819093C6
:101500004502809344028D819E819093470280938F
:1015100046021A8219821C821B825ECF6DE371E043
:101520006F968EAD9FAD6F970E941106FC01892BBF
:1015300071F194819F779450923048F50081118128
:1015400065E471E06F968EAD9FAD6F970E941106B6
:10155000009711F00E943B056AE471E0C8010E9407
:101560009A0E892B19F481E00E94BF0066E571E0B4
:10157000C8010E949A0E892B19F480E00E94BF00D6
:1015800070E060E082E492E00E94F107A2CF10E0F8
:1015900000E0D6CF0E94CE0598CFA2968FADA2973D
:1015A00085FDBCCF10E000E0D7CF80914202909142
:1015B0004302009711F00C944B0D08950E94200BEC
:1015C00008F481E00895E89409C097FB3EF49095F3
:1015D0008095709561957F4F8F4F9F4F9923A9F00C
:1015E000F92F96E9BB279395F6958795779567959B
:1015F000B795F111F8CFFAF4BB0F11F460FF1BC0DF
:101600006F5F7F4F8F4F9F4F16C0882311F096E971
:1016100011C0772321F09EE8872F762F05C066231F
:1016200071F096E8862F70E060E02AF09A95660FD8
:10163000771F881FDAF7880F9695879597F9089591
:10164000990F0008550FAA0BE0E8FEEF16161706D3
:10165000E807F907C0F012161306E407F50798F03B
:10166000621B730B840B950B39F40A2661F0232B54
:10167000242B252B21F408950A2609F4A140A695D0
:101680008FEF811D811D08950E94570B0C94C80B8C
:101690000E94BA0B38F00E94C10B20F0952311F084
:1016A0000C94B10B0C94B70B11240C94FC0B0E94FE
:1016B000D90B70F3959FC1F3950F50E0551F629FB2
:1016C000F001729FBB27F00DB11D639FAA27F00D9B
:1016D000B11DAA1F649F6627B00DA11D661F829FC2
:1016E0002227B00DA11D621F739FB00DA11D621FA7
:1016F000839FA00D611D221F749F3327A00D611DC4
:10170000231F849F600D211D822F762F6A2F1124A5
:101710009F5750409AF0F1F088234AF0EE0FFF1FD8
:10172000BB1F661F771F881F91505040A9F79E3F2F
:10173000510580F00C94B10B0C94FC0B5F3FE4F36B
:10174000983ED4F3869577956795B795F795E79585
:101750009F5FC1F7FE2B880F911D9695879597F98E
:10176000089597F99F6780E870E060E008959FEF23
:1017700080EC089500240A94161617061806090628
:10178000089500240A9412161306140605060895F7
:10179000092E0394000C11F4882352F0BB0F40F47F
:1017A000BF2B11F460FF04C06F5F7F4F8F4F9F4FBF
:1017B000089557FD9058440F551F59F05F3F71F041
:1017C0004795880F97FB991F61F09F3F79F08795A8
:1017D0000895121613061406551FF2CF4695F1DF31
:1017E00008C0161617061806991FF1CF86957105C1
:1017F000610508940895E894BB2766277727CB01F5
:1018000097F908950E94440CA59F900DB49F900DE8
:10181000A49F800D911D112408952F923F924F9205
:101820005F926F927F928F929F92AF92BF92CF9270
:10183000DF92EF92FF920F931F93CF93DF93CDB779
:10184000DEB7CA1BDB0B0FB6F894DEBF0FBECDBFF1
:1018500009942A88398848885F846E847D848C84C2
:101860009B84AA84B984C884DF80EE80FD800C81CB
:101870001B81AA81B981CE0FD11D0FB6F894DEBFAE
:101880000FBECDBFED010895A29FB001B39FC0016F
:10189000A39F700D811D1124911DB29F700D811D9C
:1018A0001124911D08950E94E10B88F09F5798F034
:1018B000B92F9927B751B0F0E1F0660F771F881F55
:1018C000991F1AF0BA95C9F714C0B13091F00E946F
:1018D000FB0BB1E008950C94FB0B672F782F882742
:1018E000B85F39F0B93FCCF3869577956795B39596
:1018F000D9F73EF490958095709561957F4F8F4F05
:101900009F4F08950E94200B08F48FEF0895A1E2E5
:101910001A2EAA1BBB1BFD010DC0AA1FBB1FEE1F69
:10192000FF1FA217B307E407F50720F0A21BB30BB4
:10193000E40BF50B661F771F881F991F1A9469F730
:1019400060957095809590959B01AC01BD01CF018C
:101950000895EE0FFF1F0590F491E02D09940F9369
:101960001F93CF93DF938230910510F482E090E0D3
:10197000E0914A02F0914B0230E020E0B0E0A0E0BC
:10198000309799F42115310509F44AC0281B390B09
:1019900024303105D8F58A819B816115710589F163
:1019A000FB0193838283FE0111C04081518102813A
:1019B000138148175907E0F04817590799F4109711
:1019C00061F012960C93129713961C933296CF01E6
:1019D000DF91CF911F910F91089500934A021093C8
:1019E0004B02F4CF2115310551F04217530738F05F
:1019F000A901DB019A01BD01DF01F801C1CFEF01AF
:101A0000F9CF90934B0280934A02CDCFFE01E20FB3
:101A1000F31F819391932250310939832883D7CFC3
:101A20002091480230914902232B41F42091020178
:101A30003091030130934902209348022091000124
:101A4000309101012115310541F42DB73EB7409188
:101A5000040150910501241B350BE0914802F091DF
:101A60004902E217F307A0F42E1B3F0B2817390792
:101A700078F0AC014E5F5F4F2417350748F04E0FEA
:101A80005F1F5093490240934802819391939FCFE7
:101A9000F0E0E0E09CCFCF93DF930097E9F0FC010A
:101AA000329713821282A0914A02B0914B02ED014B
:101AB00030E020E01097A1F420813181820F931F44
:101AC00020914802309149022817390709F061C076
:101AD000F0934902E0934802DF91CF910895EA0123
:101AE000CE17DF07E8F54A815B819E01411551055C
:101AF000B1F7E901FB83EA8349915991C40FD51FDE
:101B0000EC17FD0761F4808191810296840F951F87
:101B1000E90199838883828193819B838A83F0E0A2
:101B2000E0E012968D919C9113970097B9F52D9155
:101B30003C911197CD010296820F931F209148028C
:101B4000309149022817390739F6309751F510922C
:101B50004B0210924A02B0934902A0934802BCCFB4
:101B6000D383C28340815181840F951FC817D90741
:101B700061F44E5F5F4F88819981480F591F5183EF
:101B800040838A819B81938382832115310509F0EB
:101B9000B0CFF0934B02E0934A029ECFFD01DC01EF
:101BA000C0CF13821282D7CFB0E0A0E0EAEDFDE013
:101BB0000C940F0C8C01009751F4CB010E94AF0CD8
:101BC0008C01C801CDB7DEB7E0E10C942B0CFC0111
:101BD000E60FF71F9C0122503109E217F30708F4C2
:101BE0009DC0D901CD91DC911197C617D70798F008
:101BF000C530D10530F3CE0104978617970708F357
:101C0000C61BD70B2297C193D1936D937C93CF01C1
:101C10000E944B0DD6CF5B01AC1ABD0A4C018C0E55
:101C20009D1EA0914A02B0914B02512C412CF12CE7
:101C3000E12C109731F58091480290914902881566
:101C4000990509F05CC04616570608F058C0809107
:101C5000000190910101009741F48DB79EB740912A
:101C6000040150910501841B950BE817F90708F052
:101C700055C0F0934902E0934802F90171836083F3
:101C8000A0CF8D919C91119712966C9012971396FC
:101C90007C901397A815B90559F56C0142E0C40E64
:101CA000D11CCA14DB0420F1AC014A195B09DA012A
:101CB0001296159780F06282738251834083D90116
:101CC0006D937C93E114F10471F0D7011396FC93AA
:101CD000EE93129776CF22968C0F9D1FF901918378
:101CE0008083F301EFCFF0934B02E0934A0269CF78
:101CF0004816590608F42C017D01D3019ACFCB0177
:101D00000E94AF0C7C01009749F0AE01B8010E941F
:101D1000910EC8010E944B0D870153CF10E000E0E7
:101D200050CFFB01DC0102C001900D9241505040A8
:101D3000D8F70895FB01DC018D9101908019011005
:101D4000D9F3990B0895FB01DC0101900D9200205D
:101D5000E1F7089510E0C5E7D0E004C0FE010E945D
:101D6000A90C2196C637D107C9F7F894FFCF000018
:101D70004C028000600163016E017E018B019401C1
:101D800000000000E901090136013602A701450102
:101D900099012F2F22225C5C6208660C6E0A720D7C
:101DA0007409004572726F723A2000636F6D6D6145
:101DB0006E64006461746100666C6173685F6F6E6D
:101DC000000D0A00666C6173685F6F6666004F6B9A
:101DD00000456D707479496E70757400496E636F5B
:101DE0006D706C657465496E70757400496E7661CE
:101DF0006C6964496E707574004E6F4D656D6F72DD
:0A1E00007900546F6F4465657000AF
:107E0000112484B714BE81FFF0D085E080938100F7
:107E100082E08093C00088E18093C10086E0809377
:107E2000C20080E18093C4008EE0C9D0259A86E02C
:107E300020E33CEF91E0309385002093840096BBD3
:107E4000B09BFECF1D9AA8958150A9F7CC24DD24C4
:107E500088248394B5E0AB2EA1E19A2EF3E0BF2EE7
:107E6000A2D0813461F49FD0082FAFD0023811F036
:107E7000013811F484E001C083E08DD089C08234E0
:107E800011F484E103C0853419F485E0A6D080C0E4
:107E9000853579F488D0E82EFF2485D0082F10E0AE
:107EA000102F00270E291F29000F111F8ED06801E7
:107EB0006FC0863521F484E090D080E0DECF843638
:107EC00009F040C070D06FD0082F6DD080E0C81688
:107ED00080E7D80618F4F601B7BEE895C0E0D1E017
:107EE00062D089930C17E1F7F0E0CF16F0E7DF06D8
:107EF00018F0F601B7BEE89568D007B600FCFDCFD4
:107F0000A601A0E0B1E02C9130E011968C91119780
:107F100090E0982F8827822B932B1296FA010C0160
:107F200087BEE89511244E5F5F4FF1E0A038BF0790
:107F300051F7F601A7BEE89507B600FCFDCF97BE46
:107F4000E89526C08437B1F42ED02DD0F82E2BD052
:107F50003CD0F601EF2C8F010F5F1F4F84911BD097
:107F6000EA94F801C1F70894C11CD11CFA94CF0C13
:107F7000D11C0EC0853739F428D08EE10CD085E9AC
:107F80000AD08FE07ACF813511F488E018D01DD067
:107F900080E101D065CF982F8091C00085FFFCCF94
:107FA0009093C60008958091C00087FFFCCF809118
:107FB000C00084FD01C0A8958091C6000895E0E648
:107FC000F0E098E1908380830895EDDF803219F02E
:107FD00088E0F5DFFFCF84E1DECF1F93182FE3DFCA
:107FE0001150E9F7F2DF1F91089580E0E8DFEE27F6
:047FF000FF270994CA
:027FFE00040479
:00000001FF
