:100000000C9476000C949E000C949E000C949E0020
:100010000C949E000C949E000C949E000C949E00E8
:100020000C949E000C949E000C949E000C949E00D8
:100030000C949E000C949E000C949E000C949E00C8
:100040000C94CA080C949E000C9498080C947208A6
:100050000C949E000C949E000C949E000C949E00A8
:100060000C949E000C949E00000020410000C842A9
:1000700000401C4620BCBE4CCA1B0E5AAEC59D7427
:10008000CDCCCC3D0AD7233C17B7D13877CC2B3217
:100090009595E6241FB14F0A0000000800020100F8
:1000A0000003040700000000000000000000000042
:1000B000250028002B0000000000240027002A0053
:1000C00004040404040404040202020202020303FE
:1000D0000303030301020408102040800102040806
:1000E00010200102040810201409310B11241FBE36
:1000F000CFEFD8E0DEBFCDBF22E0A0E9B1E001C084
:100100001D92A034B207E1F711E0A0E0B1E0E6E211
:10011000FEE102C005900D92A039B107D9F710E0B9
:10012000C5E7D0E004C02197FE010E94050DC43749
:10013000D107C9F70E944D090C94060F0C940000DA
:1001400090E0FC01EC52FF4F249180549F4FFC0142
:100150008491882399F090E0880F991FFC01EA545C
:10016000FF4FA591B491FC01E455FF4F8591949107
:100170008FB7F894EC91E22BEC938FBF089508951C
:100180000895AF92BF92CF92DF92EF92FF920F93BA
:100190001F93CF93DF936C017B018B01040F151F1D
:1001A000EB015E01AE18BF08C017D10759F0699185
:1001B000D601ED91FC910190F081E02DC6010995E9
:1001C000892B79F7C501DF91CF911F910F91FF9096
:1001D000EF90DF90CF90BF90AF900895FC01538DCA
:1001E000448D252F30E0842F90E0821B930B541711
:1001F00010F0CF96089501970895FC01918D828D9E
:10020000981761F0A28DAE0FBF2FB11D5D968C9136
:10021000928D9F5F9F73928F90E008958FEF9FEF75
:1002200008952FB7F8948091950190919601A0912F
:100230009701B09198012FBF8093A1019093A201E3
:10024000A093A301B093A40189E991E00E94FD006D
:1002500097FF26C02FB7F894809195019091960151
:10026000A0919701B09198012FBF4091A1015091A9
:10027000A2016091A3017091A401841B950BA60BB0
:10028000B70B40919D0150919E0160919F0170912B
:10029000A00184179507A607B707B0F28FEF9FEF6D
:1002A0000895FC01918D828D981731F0828DE80FB1
:1002B000F11D858D90E008958FEF9FEF0895FC016B
:1002C000918D228D892F90E0805C9F4F821B910938
:1002D0008F739927089589E991E00E945F0121E0D9
:1002E000892B09F420E0822F089580E090E0892B8B
:1002F00029F00E946B0181110C9400000895FC010B
:10030000A48DA80FB92FB11DA35ABF4F2C91848D76
:1003100090E001968F739927848FA689B7892C93D3
:10032000A089B1898C91837080648C93938D848D26
:10033000981306C00288F389E02D80818F7D808329
:100340000895EF92FF920F931F93CF93DF93EC01E9
:1003500081E0888F9B8D8C8D98131AC0E889F9896C
:10036000808185FF15C09FB7F894EE89FF8960836F
:10037000E889F98980818370806480839FBF81E0F0
:1003800090E0DF91CF911F910F91FF90EF90089532
:10039000F62E0B8D10E00F5F1F4F0F731127E02E0D
:1003A0008C8D8E110CC00FB607FCFACFE889F98945
:1003B000808185FFF5CFCE010E947F01F1CFEB8DCB
:1003C000EC0FFD2FF11DE35AFF4FF0829FB7F89419
:1003D0000B8FEA89FB8980818062CFCFCF93DF9337
:1003E000EC01888D8823B9F0AA89BB89E889F9894D
:1003F0008C9185FD03C0808186FD0DC00FB607FC82
:10040000F7CF8C9185FFF2CF808185FFEDCFCE01B4
:100410000E947F01E9CFDF91CF91089590E0FC0128
:10042000E856FF4F2491FC01EC52FF4F3491FC0140
:10043000E054FF4FE491EE23C9F0222339F023303A
:1004400001F1A8F4213019F1223029F1F0E0EE0F8A
:10045000FF1FE455FF4FA591B4918FB7F894EC912D
:10046000611126C030953E233C938FBF08952730FD
:10047000A9F02830C9F0243049F7809180008F7DA1
:1004800003C0809180008F7780938000DFCF84B598
:100490008F7784BDDBCF84B58F7DFBCF8091B0009B
:1004A0008F778093B000D2CF8091B0008F7DF9CF4D
:1004B0003E2BDACF3FB7F894809191019091920151
:1004C000A0919301B091940126B5A89B05C02F3F40
:1004D00019F00196A11DB11D3FBFBA2FA92F982F6A
:1004E0008827BC01CD01620F711D811D911D42E065
:1004F000660F771F881F991F4A95D1F708958F922D
:100500009F92AF92BF92CF92DF92EF92FF924B01F8
:100510005C010E945A026B017C010E945A026C1914
:100520007D098E099F09683E734081059105A8F3F6
:1005300021E0821A9108A108B10888EEC80E83E074
:10054000D81EE11CF11C81149104A104B10429F707
:10055000FF90EF90DF90CF90BF90AF909F908F90E3
:10056000089580339CF08A3324F08F3524F08B3744
:1005700024F481E0089581344CF08B35D4F393ED6D
:10058000980F81E09230B0F380E008958B32B9F794
:10059000F0CFFC018685811114C0A185B2858385C9
:1005A00094852FEF3FEFA817B90730F4CD010196DE
:1005B000928781872C9130E037FD20E0258781E00C
:1005C0008687858508951F93CF93DF93EC01162FBF
:1005D0000E94C902811306C01E8681E0DF91CF917F
:1005E0001F91089580E0FACFCF93DF93EC01CE0105
:1005F0000E94C9028B303CF489304CF4882349F0C6
:1006000081E0888710C08D3011F08032C9F71E86D6
:10061000EECF888581110AC081E090E0CF5ADF4F8C
:100620009983888380E0DF91CF91089582E090E004
:10063000F5CFFC01828193810097C1F0248135813F
:10064000468157812417350740F0138212820190AA
:10065000F081E02D81E080870895A9014F5F5F4F11
:1006600055834483820F931FFC01608308959F92FA
:10067000AF92BF92CF92DF92EF92FF920F931F93B0
:10068000CF93DF9300D000D01F92CDB7DEB78C019F
:100690000E94C902D82EF8011686F12CE12C60EFD9
:1006A000C62EC8010E94C902F8011686D81609F4A0
:1006B000BCC0811119C0F801EF5AFF4F82E090E0F1
:1006C0009183808380E00F900F900F900F900F9098
:1006D000DF91CF911F910F91FF90EF90DF90CF901E
:1006E000BF90AF909F9008958C3509F09CC0C801D1
:1006F0000E94C9028823F9F2E4E2F1E0853709F0AB
:1007000086C0F801168654E0952EB12CA12CC801A4
:100710000E94C902882379F281344CF480538031DD
:1007200048F0F801EF5AFF4F83E090E0C9CF8F7D8A
:100730008753F5CF44E0AA0CBB1C4A95E1F7A82AE1
:10074000F80116869A949110E2CFC501985D811543
:10075000944020F4750123E0F222A3CFC5019C5DF3
:1007600081159440A8F4F3E0BF22B701762F6627E5
:10077000770F770F6A297B2990E080E00196603837
:1007800071058105910540F4C8010E94190389CFC4
:10079000B50190E080E0F3CF1982262F2F732068F7
:1007A0002A8326E096958795779567952A95D1F7C0
:1007B0006032710580F4606C6B835E0124E0A20EF0
:1007C000B11CF50162915F01662309F46ACFC8018B
:1007D0000E941903F6CF262F2F7320682B8386E003
:1007E000769567958A95E1F76031710538F4606E0A
:1007F0006C835E0185E0A80EB11CE3CF60686C835A
:10080000CD825E01E6E0AE0EB11CDBCF3296908168
:10081000992309F486CF8913F9CF8181882309F4BC
:1008200080CFF8011686682FAFCF60E0C8010E9424
:100830001903F80182819381892B29F4EF5AFF4F24
:1008400084E090E03DCF81E03ECF4F925F926F9287
:100850007F928F929F92AF92BF92CF92DF92EF9250
:10086000FF920F931F93CF93DF93EC018B0188814D
:100870008B32C9F18D32C1F52196FF24F394888122
:1008800090ED980F9A3018F08E3209F04DC160E06B
:1008900070E0CB01FE012191A0ED8A2E820E39E09D
:1008A000381520F16A3949E97407840749E194074A
:1008B00038F5AAE0B0E09B01AC010E945E0C912CDF
:1008C000B12CA12C24013501409450946094709473
:1008D000461657066806790698F0680D791D8A1D38
:1008E0009B1DEF01D7CF2196F12CC9CF211108C054
:1008F000FF20F1F161307105810550E89507A0F006
:10090000E12CEAE08E2E912CA12CB12C6115710501
:10091000F0E88F079105C0F1A50194010E94E30C56
:10092000CA01B901E394F2CFF801248120782A604A
:1009300024839B01AC0188279927DC01821B930B40
:10094000A40BB50B80839183A283B3838F2DDF919A
:10095000CF911F910F91FF90EF90DF90CF90BF90BC
:10096000AF909F908F907F906F905F904F90089581
:10097000F801248120782860248360837183828336
:100980009383FF24F394E2CFFE01299130ED320FDF
:100990003A3010F4E394F8CF2E32F1F4EF012196BF
:1009A000FE012196208150EDD52ED20E29E02D1585
:1009B00098F06C3C3CEC73073CE08307910580F7B2
:1009C000AAE0B0E09B01AC010E945E0C6D0D711DB0
:1009D000811D911DEA94E4CF20812F7DD0E0C0E0FD
:1009E000253409F05DC021812D32D9F53296CC2411
:1009F000C394DF01D0E0C0E02E2D0E2C000C330B91
:100A00004AE0B42EFD01DD9040ED4D0D4A3008F076
:100A100042C0BC9EA001BD9E500D1124CD2DDD0C09
:100A2000DD0BE097C40FD51FAE01420F531F4732B5
:100A3000510544F3F8018481CC20D1F040E050E02E
:100A400060E070E8F11003C040E050E0BA01807847
:100A50008C60F80184834083518362837383FC2C10
:100A600075CF2B3219F03196C12CC3CF3296FCCF03
:100A700040E050E060E87FEFF11004C040E050E05B
:100A800060E87FE780788C60F8018483408351833D
:100A90006283738376CFCC2019F0D195C195D109AB
:100AA0002081211141C0CE0DD11DE7FCDA950E94B5
:100AB0003F0B1C161D0604F5E12CC0FF0CC024E002
:100AC000E29EF0011124E859FF4F2591359145919F
:100AD00054910E94A00BD595C795E394209769F790
:100AE000F1109058F801248120782C6024836083D1
:100AF00071838283938345CFD195C195D109E12C30
:100B0000209771F3C0FF0CC044E0E49EF001112473
:100B1000E058FF4F25913591459154910E94A00BCB
:100B2000D595C795E394ECCFF12C10CFCF92DF92FF
:100B3000EF92FF92CF93DF9300D000D01F92CDB7FA
:100B4000DEB7FC0184818F778630B1F020F48430E9
:100B500000F580E012C08A3021F08C3039F1883005
:100B6000C1F780819181A281B3818F3F9105A10559
:100B7000B10519F010F0EDCF80810F900F900F901C
:100B80000F900F90DF91CF91FF90EF90DF90CF907B
:100B90000895808191811D82BE016F5F7F4F0E9409
:100BA0002504CE0101960E949605E7CFC080D18032
:100BB000E280F38020E030E0A901C701B6010E9485
:100BC000DE0C87FDC6CF20E030E04FE753E4C701DD
:100BD000B6010E943A0B18160CF4BBCFC701B60140
:100BE0000E94AF0C862FC9CFCF93DF93DC01EB01BE
:100BF000EC81FD818A819B810896E817F90740F412
:100C000081E08887F0E0E0E0CF01DF91CF910895A7
:100C10003897FD83EC833097B9F31296CD91DC9130
:100C20001397209791F0CF018C1B9D0B23E0959596
:100C300087952A95E1F78D831396FC93EE9312978F
:100C40001582148217821682DFCF1196FC93EE93E1
:100C5000F3CFFC0101900020E9F73197AF01481B69
:100C6000590BBC0189E991E00C94C1000F931F93CB
:100C7000CF93DF93EC0188819981009759F02A8105
:100C80003B812617370730F081E0DF91CF911F912C
:100C90000F9108958B016F5F7F4F0E94300E009778
:100CA00059F0998388831B830A832C813D81232BF0
:100CB00059F7FC011082E8CF80E0E7CF0F931F9334
:100CC000CF93DF93EC018B010E9436062881398196
:100CD000811112C02115310519F0C9010E94A70D1B
:100CE000198218821D821C821B821A82CE01DF911A
:100CF000CF911F910F9108951D830C8364E371E0E0
:100D0000C9010E94FF0EF2CFCF92DF92EF92FF92C5
:100D10000F931F93CF93DF936C01FC01E080F18070
:100D2000F70102811381C081D181C017D10778F406
:100D30000115110541F0209731F0BE01C8010E9454
:100D4000F60E892B69F089918111FDCFEECFF60166
:100D500084819581800F911FF70193838283E8013D
:100D6000CE01DF91CF911F910F91FF90EF90DF9017
:100D7000CF9008950F931F93CF93DF938B01EC01D6
:100D80002097E1F06E817F8160177107B9F001153E
:100D9000110541F06115710529F0C8010E94F60E98
:100DA000892B61F08D81882339F028E08202C0010F
:100DB0001124C80FD91FE4CFD0E0C0E0CE01DF91ED
:100DC000CF911F910F9108959F92AF92BF92CF92B2
:100DD000DF92EF92FF920F931F93CF93DF93EC017B
:100DE0008B01E42E0E94F402F82E81110EC0F12C2A
:100DF0008F2DDF91CF911F910F91FF90EF90DF909A
:100E0000CF90BF90AF909F900895CE010E94C902ED
:100E1000873209F415C114F5823209F411C1CE01EB
:100E20000E94C902B82E6E01F1E1CF0ED11CE12C57
:100E30009C2CAD2C8B2D0E94B102882309F422C179
:100E40008FE3E81609F41EC11E86E394F601B19201
:100E50006F01CE010E94C902B82EECCF8B3509F488
:100E600055C08B37E1F6F8018481807880628483F5
:100E70001182108213821282EE2009F452C01E8663
:100E8000CE010E94F402882309F4B1CF6DE7CE01B0
:100E90000E94E3028111ACCFEA94E881F98182815A
:100EA00093819B838A838481958122813381821BF4
:100EB000930B9F838E831D821C82CE010E94C902E8
:100EC000873209F46EC0823209F46BC0CE010E94F1
:100ED000C902D82E0E94B102882309F45DC01E8683
:100EE0006D2DCE010E941903CE010E94C902D82E99
:100EF0000E94B1028111F3CF60E0CE010E9419037C
:100F00008A819B81892B09F052C027C0F801848116
:100F10008078806484831182108213821282E110AF
:100F200007C0CF5ADF4F85E090E0998388835FCF79
:100F30001E86CE010E94F402882309F458CF6DE585
:100F4000CE010E94E302811153CFEA946F85788924
:100F5000C8010E94F405009729F4CF5ADF4F84E0BE
:100F600090E0E3CF4E2DBC01CE010E94E406882321
:100F700009F43DCFCE010E94F402882309F437CF53
:100F80006DE5CE010E94E302811132CF6CE2CE0109
:100F90000E94E3028111DACFCF5ADF4F83E090E065
:100FA000C4CFCE010E943703882309F420CFCE019D
:100FB0000E94F402882309F41ACF6AE3CE010E944A
:100FC000E302882349F36A817B81F8018081918162
:100FD0000E94BA06BC01892B99F4CE010E948406B6
:100FE0006C016F857889C8010E94F405FC01892B8A
:100FF00009F4B3CF848180688483D782C682BF011D
:101000004E2DCE010E94E406882309F4F0CECE01D5
:101010000E94F402882309F4EACE6DE7CE010E9413
:10102000E3028111E5CE6CE2CE010E94E302882347
:1010300009F4B2CFCE010E94F40281112ECFD7CE97
:10104000E881F981828193819B838A838481958160
:1010500022813381821B930B9F838E831D821C828E
:10106000CE010E943703F82E882309F4C0CECE01AA
:101070000E948406F80124812078256024839183CE
:101080008083B6CEFE01EE0DF11D118A8989843769
:1010900081F4F801848180788660848381E0808394
:1010A000F4E0EF1609F4A4CECF5ADF4F82E090E0CF
:1010B0003CCF863641F4F801848180788660848351
:1010C0001082F5E0EECF8E3621F484E0E812ECCF0A
:1010D0008FCEB801892D9A2D0E942504882309F40A
:1010E0005BCF86CE1F920F920FB60F9211242F93D3
:1010F0003F934F935F936F937F938F939F93AF93A0
:10110000BF93EF93FF9389E991E00E947F01FF91E4
:10111000EF91BF91AF919F918F917F916F915F916F
:101120004F913F912F910F900FBE0F901F901895E8
:101130001F920F920FB60F9211242F938F939F93AC
:10114000EF93FF93E091A901F091AA018081E091D2
:10115000AF01F091B00182FD1BC090818091B2017E
:101160008F5F8F732091B301821741F0E091B2013C
:10117000F0E0E756FE4F958F8093B201FF91EF911B
:101180009F918F912F910F900FBE0F901F901895E8
:101190008081F4CF1F920F920FB60F9211242F93DC
:1011A0003F938F939F93AF93BF93809195019091BD
:1011B0009601A0919701B09198013091900123E0A0
:1011C000230F2D3758F50196A11DB11D20939001D5
:1011D0008093950190939601A0939701B093980105
:1011E0008091910190919201A0919301B09194010D
:1011F0000196A11DB11D8093910190939201A0933E
:101200009301B0939401BF91AF919F918F913F91C2
:101210002F910F900FBE0F901F90189526E8230F67
:101220000296A11DB11DD2CFE9E9F1E0138212822D
:1012300088EE93E0A0E0B0E084839583A683B78333
:1012400086E191E09183808385EC90E095878487A7
:1012500084EC90E09787868780EC90E0918B808B80
:1012600081EC90E0938B828B82EC90E0958B848B69
:1012700086EC90E0978B868B118E128E138E148ED7
:10128000E6E3F2E011821082138212821582148248
:1012900070E060E0CF010C945E06CF93DF93CDB792
:1012A000DEB7C15BD1090FB6F894DEBF0FBECDBF6C
:1012B000789484B5826084BD84B5816084BD85B531
:1012C000826085BD85B5816085BD80916E0081603D
:1012D00080936E00109281008091810082608093E3
:1012E00081008091810081608093810080918000E5
:1012F0008160809380008091B10084608093B10010
:101300008091B00081608093B00080917A00846009
:1013100080937A0080917A00826080937A00809135
:101320007A00816080937A0080917A00806880934F
:101330007A001092C100E091A901F091AA0182E027
:101340008083E091A501F091A6011082E091A701B0
:10135000F091A8018FEC80831092B101E091AD0172
:10136000F091AE0186E08083E091AB01F091AC0199
:10137000808180618083E091AB01F091AC0180813C
:1013800088608083E091AB01F091AC01808180683E
:101390008083E091AB01F091AC0180818F7D8083EF
:1013A00088E00E94A00089E00E94A00034E5C32EDE
:1013B000D12CCC0EDD1E4EE0C40ED11C7E0152EAB3
:1013C000E50EF11C24E5822E912C8C0E9D1E89E0E9
:1013D000880E911C90E0A92E90E0B92E89E991E049
:1013E0000E945F01181619060CF0CDC01A821982EE
:1013F0001C821B821E821D8270E060E0CE0101967D
:101400000E945E060E94110197FD22C08A3091055C
:10141000F9F065968FAF659766961FAE66970D815A
:101420001E810F5F1F4FB801CE0101960E94360644
:10143000882341F329813A818D819E81BE016C5AB6
:101440007F4F820F931F0E94FF0E1E830D83DACF02
:101450008091360290913702009709F4A2C0698109
:101460007A816115710509F49AC040913802509152
:1014700039022D813E814217530708F490C00E9423
:10148000FF0E8D819E8190933B0280933A021E82D3
:101490001D8289819A81009711F00E94A70D66969E
:1014A000DFAECEAE66976896DFAECEAE68976A9630
:1014B000FFAEEEAE6A976C96FFAEEEAE6C976D9691
:1014C0001FAE6D97A2961FAEA29720913602309163
:1014D000370280913A0290913B02820F931F44E5BC
:1014E00050E04C0F5D1FC655DF4F59834883CA5AE1
:1014F000D04048E0FE01E655FF4FD70101900D9224
:101500004A95E1F748E0F701DE01119601900D924E
:101510004A95E1F719863B872A879D878C871F8626
:1015200084E590E08C0F9D1F998B888B64961FAE8D
:101530001EAE64974AE0B401835591090E94E40607
:1015400064960EAD1FAD64970115110559F48E8593
:10155000882309F443C0A2968FADA29783FF3EC0B3
:1015600003E010E085E391E00E942906000F111FBF
:10157000F801EA5FFE4F80819181009761F580E577
:1015800091E00E942906A114B10409F427CF0E941A
:101590006B01882309F41ECF0E94000013CF0E9424
:1015A000A70D89819A8190933702809336028B81AF
:1015B0009C8190933902809338028D819E81909313
:1015C0003B0280933A021A8219821C821B825FCFEF
:1015D00010E000E01AC00E942906D1CFA2968FAD7C
:1015E000A29785FF31C06DE371E06F968EAD9FAD20
:1015F0006F970E94BA06FC01892B51F394819F7763
:101600009450923028F70081118165E471E06F9663
:101610008EAD9FAD6F970E94BA06712C009719F09E
:101620000E949605782E0A54114071F461E0872DCE
:101630000E940E026AEF70E080E090E00E947F025C
:1016400060E0872D0E940E0270E060E086E392E089
:101650000E945E0664E670E080E090E00E947F02F7
:1016600092CF8091360290913702009711F00C943E
:10167000A70D08950E947C0B08F481E00895E8947A
:1016800009C097FB3EF490958095709561957F4FCA
:101690008F4F9F4F9923A9F0F92F96E9BB27939578
:1016A000F695879577956795B795F111F8CFFAF488
:1016B000BB0F11F460FF1BC06F5F7F4F8F4F9F4FB9
:1016C00016C0882311F096E911C0772321F09EE817
:1016D000872F762F05C0662371F096E8862F70E07D
:1016E00060E02AF09A95660F771F881FDAF7880F57
:1016F0009695879597F90895990F0008550FAA0BAD
:10170000E0E8FEEF16161706E807F907C0F0121614
:101710001306E407F50798F0621B730B840B950B17
:1017200039F40A2661F0232B242B252B21F408956C
:101730000A2609F4A140A6958FEF811D811D089509
:101740000E94B30B0C94240C0E94160C38F00E94DB
:101750001D0C20F0952311F00C940D0C0C94130C1F
:1017600011240C94580C0E94350C70F3959FC1F312
:10177000950F50E0551F629FF001729FBB27F00D3F
:10178000B11D639FAA27F00DB11DAA1F649F662794
:10179000B00DA11D661F829F2227B00DA11D621FE3
:1017A000739FB00DA11D621F839FA00D611D221F9D
:1017B000749F3327A00D611D231F849F600D211D81
:1017C000822F762F6A2F11249F5750409AF0F1F004
:1017D00088234AF0EE0FFF1FBB1F661F771F881F6D
:1017E00091505040A9F79E3F510580F00C940D0C8C
:1017F0000C94580C5F3FE4F3983ED4F386957795AC
:101800006795B795F795E7959F5FC1F7FE2B880F12
:10181000911D9695879597F9089597F99F6780E8A8
:1018200070E060E008959FEF80EC089500240A9432
:101830001616170618060906089500240A941216AB
:101840001306140605060895092E0394000C11F4DE
:10185000882352F0BB0F40F4BF2B11F460FF04C08B
:101860006F5F7F4F8F4F9F4F089557FD9058440FE4
:10187000551F59F05F3F71F04795880F97FB991FEF
:1018800061F09F3F79F087950895121613061406AC
:10189000551FF2CF4695F1DF08C016161706180639
:1018A000991FF1CF86957105610508940895E89414
:1018B000BB2766277727CB0197F908950E94A00CD4
:1018C000A59F900DB49F900DA49F800D911D112494
:1018D00008952F923F924F925F926F927F928F92D4
:1018E0009F92AF92BF92CF92DF92EF92FF920F93AF
:1018F0001F93CF93DF93CDB7DEB7CA1BDB0B0FB6B9
:10190000F894DEBF0FBECDBF09942A883988488875
:101910005F846E847D848C849B84AA84B984C8840B
:10192000DF80EE80FD800C811B81AA81B981CE0F02
:10193000D11D0FB6F894DEBF0FBECDBFED010895E7
:10194000A29FB001B39FC001A39F700D811D112400
:10195000911DB29F700D811D1124911D08950E944B
:101960003D0C88F09F5798F0B92F9927B751B0F0E8
:10197000E1F0660F771F881F991F1AF0BA95C9F713
:1019800014C0B13091F00E94570CB1E008950C944E
:10199000570C672F782F8827B85F39F0B93FCCF301
:1019A000869577956795B395D9F73EF49095809590
:1019B000709561957F4F8F4F9F4F08950E947C0BCC
:1019C00008F48FEF0895A1E21A2EAA1BBB1BFD019C
:1019D0000DC0AA1FBB1FEE1FFF1FA217B307E4070E
:1019E000F50720F0A21BB30BE40BF50B661F771F66
:1019F000881F991F1A9469F7609570958095909546
:101A00009B01AC01BD01CF010895EE0FFF1F0590B2
:101A1000F491E02D09940F931F93CF93DF938230BD
:101A2000910510F482E090E0E0913E02F0913F02D7
:101A300030E020E0B0E0A0E0309799F421153105C6
:101A400009F44AC0281B390B24303105D8F58A81A6
:101A50009B816115710589F1FB0193838283FE01EE
:101A600011C0408151810281138148175907E0F06C
:101A70004817590799F4109761F012960C93129732
:101A800013961C933296CF01DF91CF911F910F9146
:101A9000089500933E0210933F02F4CF21153105C3
:101AA00051F04217530738F0A901DB019A01BD013B
:101AB000DF01F801C1CFEF01F9CF90933F0280938E
:101AC0003E02CDCFFE01E20FF31F8193919322508E
:101AD000310939832883D7CF20913C0230913D02D0
:101AE000232B41F4209102013091030130933D02F8
:101AF00020933C0220910001309101012115310514
:101B000041F42DB73EB74091040150910501241BCB
:101B1000350BE0913C02F0913D02E217F307A0F48F
:101B20002E1B3F0B2817390778F0AC014E5F5F4F33
:101B30002417350748F04E0F5F1F50933D02409326
:101B40003C02819391939FCFF0E0E0E09CCFCF9354
:101B5000DF930097E9F0FC01329713821282A09183
:101B60003E02B0913F02ED0130E020E01097A1F479
:101B700020813181820F931F20913C0230913D02E0
:101B80002817390709F061C0F0933D02E0933C0249
:101B9000DF91CF910895EA01CE17DF07E8F54A817A
:101BA0005B819E0141155105B1F7E901FB83EA8391
:101BB00049915991C40FD51FEC17FD0761F480813D
:101BC00091810296840F951FE90199838883828110
:101BD00093819B838A83F0E0E0E012968D919C9143
:101BE00013970097B9F52D913C911197CD0102966D
:101BF000820F931F20913C0230913D022817390734
:101C000039F6309751F510923F0210923E02B09390
:101C10003D02A0933C02BCCFD383C283408151815B
:101C2000840F951FC817D90761F44E5F5F4F8881F5
:101C30009981480F591F518340838A819B819383E7
:101C400082832115310509F0B0CFF0933F02E09374
:101C50003E029ECFFD01DC01C0CF13821282D7CF9E
:101C6000B0E0A0E0E6E3FEE00C946B0C8C01009782
:101C700051F4CB010E940B0D8C01C801CDB7DEB72A
:101C8000E0E10C94870CFC01E60FF71F9C01225049
:101C90003109E217F30708F49DC0D901CD91DC9119
:101CA0001197C617D70798F0C530D10530F3CE018C
:101CB00004978617970708F3C61BD70B2297C19383
:101CC000D1936D937C93CF010E94A70DD6CF5B017A
:101CD000AC1ABD0A4C018C0E9D1EA0913E02B09123
:101CE0003F02512C412CF12CE12C109731F58091C1
:101CF0003C0290913D028815990509F05CC046169A
:101D0000570608F058C0809100019091010100979A
:101D100041F48DB79EB74091040150910501841B99
:101D2000950BE817F90708F055C0F0933D02E093D2
:101D30003C02F90171836083A0CF8D919C91119732
:101D400012966C90129713967C901397A815B9056C
:101D500059F56C0142E0C40ED11CCA14DB0420F119
:101D6000AC014A195B09DA011296159780F062827C
:101D7000738251834083D9016D937C93E114F10404
:101D800071F0D7011396FC93EE93129776CF2296BB
:101D90008C0F9D1FF90191838083F301EFCFF093A6
:101DA0003F02E0933E0269CF4816590608F42C0121
:101DB0007D01D3019ACFCB010E940B0D7C010097CE
:101DC00049F0AE01B8010E94ED0EC8010E94A70DB6
:101DD000870153CF10E000E050CFFB01DC0102C0CF
:101DE00001900D9241505040D8F70895FB01DC015D
:101DF0008D91019080190110D9F3990B0895FB0181
:101E0000DC0101900D920020E1F7089510E0C5E794
:101E1000D0E004C0FE010E94050D2196C637D1070F
:061E2000C9F7F894FFCFA2
:101E260000004002800053015601610171017E01EC
:101E3600870100000000A101C100EE00EE015F0174
:101E4600FD0051012F2F22225C5C6208660C6E0A8F
:101E5600720D7409004572726F723A2000636F6DDD
:101E66006D616E64006461746100666C6173680024
:101E76000D0A004F6B00456D707479496E7075746C
:101E860000496E636F6D706C657465496E7075742C
:101E960000496E76616C6964496E707574004E6FA8
:101EA6004D656D6F727900546F6F44656570000003
:00000001FF
