:020000040000FA
:100000000C944E000C9476000C9476000C947600C0
:100010000C9476000C9476000C9476000C94760088
:100020000C9476000C9476000C9476000C94760078
:100030000C9476000C9476000C9476000C94760068
:100040000C94E2080C9476000C94B0080C948A0886
:100050000C9476000C9476000C9476000C94760048
:100060000C9476000C947600000020410000C842F9
:1000700000401C4620BCBE4CCA1B0E5AAEC59D7427
:10008000CDCCCC3D0AD7233C17B7D13877CC2B3217
:100090009595E6241FB14F0A2C09F10911241FBEC2
:1000A000CFEFD8E0DEBFCDBF22E0ACE7B1E001C0CA
:1000B0001D92AC32B207E1F711E0A0E0B1E0ECEE46
:1000C000FAE102C005900D92AC37B107D9F710E004
:1000D000CDE4D0E004C02197FE010E94680BCC342F
:1000E000D107C9F70E9465090C94690D0C940000B2
:1000F00008950895AF92BF92CF92DF92EF92FF9250
:100100000F931F93CF93DF936C017B018B01040F3F
:10011000151FEB015E01AE18BF08C017D10759F0DB
:100120006991D601ED91FC910190F081E02DC6011D
:100130000995892B79F7C501DF91CF911F910F9117
:10014000FF90EF90DF90CF90BF90AF900895FC01AB
:10015000538D448D252F30E0842F90E0821B930B2C
:10016000541710F0CF96089501970895FC01918DD2
:10017000828D981761F0A28DAE0FBF2FB11D5D96D5
:100180008C91928D9F5F9F73928F90E008958FEF77
:100190009FEF08952FB7F89480918101909182018B
:1001A000A0918301B09184012FBF80938D01909322
:1001B0008E01A0938F01B093900185E891E00E9499
:1001C000B60097FF26C02FB7F894809181019091D7
:1001D0008201A0918301B09184012FBF40918D01D4
:1001E00050918E0160918F0170919001841B950B4D
:1001F000A60BB70B4091890150918A0160918B0148
:1002000070918C0184179507A607B707B0F28FEF9E
:100210009FEF0895FC01918D828D981731F0828DAA
:10022000E80FF11D858D90E008958FEF9FEF089501
:10023000FC01918D228D892F90E0805C9F4F821B65
:1002400091098F739927089585E891E00E9418011C
:1002500021E0892B09F420E0822F089580E090E0CE
:10026000892B29F00E94240181110C94000008952B
:10027000FC01A48DA80FB92FB11DA35ABF4F2C911B
:10028000848D90E001968F739927848FA689B78912
:100290002C93A089B1898C91837080648C93938D09
:1002A000848D981306C00288F389E02D80818F7DAC
:1002B00080830895EF92FF920F931F93CF93DF9364
:1002C000EC0181E0888F9B8D8C8D98131AC0E88992
:1002D000F989808185FF15C09FB7F894EE89FF8961
:1002E0006083E889F98980818370806480839FBFFF
:1002F00081E090E0DF91CF911F910F91FF90EF90FF
:100300000895F62E0B8D10E00F5F1F4F0F7311270E
:10031000E02E8C8D8E110CC00FB607FCFACFE88949
:10032000F989808185FFF5CFCE010E943801F1CF98
:10033000EB8DEC0FFD2FF11DE35AFF4FF0829FB7BD
:10034000F8940B8FEA89FB8980818062CFCFCF93AD
:10035000DF93EC01888D8823B9F0AA89BB89E889ED
:10036000F9898C9185FD03C0808186FD0DC00FB693
:1003700007FCF7CF8C9185FFF2CF808185FFEDCF11
:10038000CE010E943801E9CFDF91CF9108953FB7A8
:10039000F89480917D0190917E01A0917F01B091B0
:1003A000800126B5A89B05C02F3F19F00196A11D1D
:1003B000B11D3FBFBA2FA92F982F8827BC01CD01AF
:1003C000620F711D811D911D42E0660F771F881F0E
:1003D000991F4A95D1F7089580339CF08A3324F011
:1003E0008F3524F08B3724F481E0089581344CF06C
:1003F0008B35D4F393ED980F81E09230B0F380E029
:1004000008958B32B9F7F0CFFC018685811114C0B5
:10041000A185B285838594852FEF3FEFA817B90793
:1004200030F4CD010196928781872C9130E037FD21
:1004300020E0258781E08687858508951F93CF93E7
:10044000DF93EC01162F0E940402811306C01E8662
:1004500081E0DF91CF911F91089580E0FACFCF9393
:10046000DF93EC01CE010E9404028B303CF4893012
:100470004CF4882349F081E0888710C08D3011F05A
:100480008032C9F71E86EECF888581110AC081E0CF
:1004900090E0CF5ADF4F9983888380E0DF91CF913E
:1004A000089582E090E0F5CFFC018281938100976E
:1004B000C1F024813581468157812417350740F0EA
:1004C000138212820190F081E02D81E080870895EF
:1004D000A9014F5F5F4F55834483820F931FFC0137
:1004E000608308959F92AF92BF92CF92DF92EF9276
:1004F000FF920F931F93CF93DF9300D000D01F92F2
:10050000CDB7DEB78C010E940402D82EF801168602
:10051000F12CE12C60EFC62EC8010E940402F80104
:100520001686D81609F4BCC0811119C0F801EF5A1B
:10053000FF4F82E090E09183808380E00F900F90E6
:100540000F900F900F90DF91CF911F910F91FF901F
:10055000EF90DF90CF90BF90AF909F9008958C3533
:1005600009F09CC0C8010E9404028823F9F2E4E269
:10057000F1E0853709F086C0F801168654E0952E23
:10058000B12CA12CC8010E940402882379F2813485
:100590004CF48053803148F0F801EF5AFF4F83E06C
:1005A00090E0C9CF8F7D8753F5CF44E0AA0CBB1CE8
:1005B0004A95E1F7A82AF80116869A949110E2CF9D
:1005C000C501985D8115944020F4750123E0F22265
:1005D000A3CFC5019C5D81159440A8F4F3E0BF2230
:1005E000B701762F6627770F770F6A297B2990E06E
:1005F00080E00196603871058105910540F4C801DD
:100600000E94540289CFB50190E080E0F3CF1982B7
:10061000262F2F7320682A8326E096958795779555
:1006200067952A95D1F76032710580F4606C6B8311
:100630005E0124E0A20EB11CF50162915F01662308
:1006400009F46ACFC8010E945402F6CF262F2F73F7
:1006500020682B8386E0769567958A95E1F760316F
:10066000710538F4606E6C835E0185E0A80EB11CE4
:10067000E3CF60686C83CD825E01E6E0AE0EB11C14
:10068000DBCF32969081992309F486CF8913F9CF75
:100690008181882309F480CFF8011686682FAFCFB7
:1006A00060E0C8010E945402F80182819381892B85
:1006B00029F4EF5AFF4F84E090E03DCF81E03ECF38
:1006C000CF93DF93DC01EB01EC81FD818A819B817B
:1006D0000896E817F90740F481E08887F0E0E0E049
:1006E000CF01DF91CF9108953897FD83EC83309748
:1006F000B9F31296CD91DC911397209791F0CF0129
:100700008C1B9D0B23E0959587952A95E1F78D83AA
:100710001396FC93EE931297158214821782168219
:10072000DFCF1196FC93EE93F3CFFC0101900020F4
:10073000E9F73197AF01481B590BBC0185E891E0FF
:100740000C947A00CF92DF92EF92FF920F931F9357
:10075000CF93DF936C01FC01E080F180F70102810F
:100760001381C081D181C017D10778F4011511051B
:1007700041F0209731F0BE01C8010E94590D892B2C
:1007800069F089918111FDCFEECFF60184819581C9
:10079000800F911FF70193838283E801CE01DF91DF
:1007A000CF911F910F91FF90EF90DF90CF90089520
:1007B0004F925F926F927F92BF92CF92DF92EF92B1
:1007C000FF920F931F93CF93DF93EC018B01E42EE5
:1007D0000E942F02F82E811110C0F12C8F2DDF9175
:1007E000CF911F910F91FF90EF90DF90CF90BF902E
:1007F0007F906F905F904F900895CE010E94040209
:10080000873209F4FFC00CF5823209F4FBC0CE0137
:100810000E940402B82E6E01F1E1CF0ED11CE12C32
:1008200036018B2D0E94EC01882309F40DC12FE3C2
:10083000E21609F409C11E86E394F601B1926F0134
:10084000CE010E940402B82EECCF8B3509F455C0BE
:100850008B37E9F6F8018481807880628483118285
:10086000108213821282EE2009F452C01E86CE013D
:100870000E942F02882309F4B0CF6DE7CE010E94B9
:100880001E028111ABCFEA94E881F98182819381C4
:100890009B838A838481958122813381821B930B80
:1008A0009F838E831D821C82CE010E9404028732A8
:1008B00009F46EC0823209F46BC0CE010E940402BA
:1008C000D82E0E94EC01882309F45DC01E866D2D90
:1008D000CE010E945402CE010E940402D82E0E9432
:1008E000EC018111F3CF60E0CE010E9454028A81B5
:1008F0009B81892B09F052C027C0F8018481807840
:10090000806484831182108213821282E11007C0F6
:10091000CF5ADF4F85E090E0998388835ECF1E86B3
:10092000CE010E942F02882309F457CF6DE5CE0136
:100930000E941E02811152CFEA946F857889C80106
:100940000E946003009729F4CF5ADF4F84E090E0C3
:10095000E3CF4E2DBC01CE010E94D803882309F4B9
:100960003CCFCE010E942F02882309F436CF6DE5DB
:10097000CE010E941E02811131CF6CE2CE010E9495
:100980001E028111DACFCF5ADF4F83E090E0C4CF4F
:10099000CE010E947202882309F41FCFCE010E946B
:1009A0002F02882309F419CF6AE3CE010E941E02A8
:1009B000882349F36A807B80F801C080D180C1140C
:1009C000D10409F4BDC1F601668177816616770608
:1009D00009F4B4C16114710449F06115710531F075
:1009E000C3010E94590D892B09F4A8C1F601858124
:1009F000882309F4A5C1F8E08F02C0011124C80EB4
:100A0000D91EDDCFE881F981828193819B838A831E
:100A10008481958122813381821B930B9F838E83F6
:100A20001D821C82CE010E947202F82E882309F4D6
:100A3000D4CECE010E94A203F80124812078256043
:100A4000248391838083CACEFE01EE0DF11D118AAD
:100A50008989843781F4F801848180788660848371
:100A600081E08083F4E0EF1609F4B8CECF5ADF4F6F
:100A700082E090E051CF863641F4F801848180789D
:100A8000866084831082F5E0EECF8E3621F424E078
:100A9000E212ECCFA3CE8B32D9F1F3018D32D1F536
:100AA000FE017296BF2C808190ED980F9A3018F05D
:100AB0008E3209F068CF6F0160E070E0CB01F60183
:100AC0002191A0ED4A2E420E39E0341528F16A3901
:100AD00049E97407840749E1940740F5AAE0B0E0CA
:100AE0009B01AC010E94F50A512C712C612CA301D1
:100AF0009201209530954095509526173707480765
:100B00005907A0F0640D751D861D971D6F01D7CF85
:100B1000FE017296B12CC7CF211108C0BB2071F124
:100B200061307105810550E89507A0F0E12CEAE0FD
:100B30004E2E512C612C712C61157105F0E88F0738
:100B4000910530F1A30192010E94460BCA01B9013F
:100B5000E394F2CFF801248120782A6024839B015A
:100B6000AC0188279927DC01821B930BA40BB50BE2
:100B700080839183A283B383FB2C30CEF801248140
:100B8000207828602483608371838283938326CEB8
:100B9000D601F60121916F0130ED320F3A3010F499
:100BA000E394F6CF2E32F1F4FD013196DF01319658
:100BB0002C9150EDD52ED20E29E02D1598F06C3CDD
:100BC0003CEC73073CE08307910580F7AAE0B0E0B6
:100BD0009B01AC010E94F50A6D0D711D811D911DD7
:100BE000EA94E4CF2C912F7D253409F08CC0119626
:100BF0002C9111972D32D9F512967F2CFD0130E002
:100C000020E0CE2C0E2C000CDD084AE0542EDF0133
:100C1000619040ED460D4A3008F043C0529EA0015D
:100C2000539E500D1124262D660C330B2053310991
:100C3000240F351FA9014C0D5D1D473251053CF3B2
:100C4000F80184817720D1F040E050E060E070E866
:100C5000B11003C040E050E0BA0180788C60F80128
:100C600084834083518362837383F72CB7CD2B3207
:100C700019F01196712CC2CF1296FCCF40E050E0D3
:100C800060E87FEFB11004C040E050E060E87FE72B
:100C900080788C60F80184834083518362837383FE
:100CA0009DCD772019F03195219531094C91411155
:100CB0006ACEE901CE0DD11DE7FCDA950E94FA0952
:100CC0001C161D061CF5E12CC0FF0CC024E0E29EA2
:100CD000F0011124E859FF4F259135914591549128
:100CE0000E94370AD595C795E394209769F7B1100C
:100CF0009058F801248120782C60248360837183CC
:100D0000828393836BCD30E020E0D0CFD195C19525
:100D1000D109E12C209759F3C0FF0CC044E0E49EB8
:100D2000F0011124E058FF4F2591359145915491E0
:100D30000E94370AD595C795E394ECCFB60113C04E
:100D4000CE010E94A2036C016F857889C8010E94C0
:100D50006003FC01892B09F4F7CD848180688483CA
:100D6000D782C682BF014E2DCE010E94D8038823B0
:100D700009F433CDCE010E942F02882309F42DCD32
:100D80006DE7CE010E941E02811128CD6CE2CE01DA
:100D90000E941E02882309F4F6CDCE010E942F0284
:100DA000811172CD1ACD0F931F93CF93DF93EC0176
:100DB00088819981009759F02A813B81261737074E
:100DC00030F081E0DF91CF911F910F9108958B0159
:100DD0006F5F7F4F0E94930C009759F0998388832F
:100DE0001B830A832C813D81232B59F7FC01108240
:100DF000E8CF80E0E7CF0F931F93CF93DF93EC0111
:100E00008B010E94D30628813981811112C02115DE
:100E1000310519F0C9010E940A0C198218821D823D
:100E20001C821B821A82CE01DF91CF911F910F91FC
:100E300008951D830C8364E371E0C9010E94620D73
:100E4000F2CF8F929F92AF92BF92CF92DF92EF92AA
:100E5000FF920F931F93CF93DF93CDB7DEB7C157A8
:100E6000D1400FB6F894DEBF0FBECDBF1A821982F3
:100E70001C821B821E821D8270E060E08E010F5F6B
:100E80001F4FC8010E94FB060E94CA0097FD26C0A2
:100E90008A30910519F1C15FDE4F8883CF50D14070
:100EA000C05FDE4F1882C051D140ED80FE802FEF31
:100EB000E21AF20AB701C8010E94D306882321F37F
:100EC00029813A818D819E81BE01615F7E4F820FB3
:100ED000931F0E94620DFE82ED82D6CF8091220286
:100EE00090912302009709F4BFC069817A8161154E
:100EF000710509F4B7C040912402509125022D815B
:100F00003E814217530708F4ADC00E94620D8D81E7
:100F10009E8190932702809326021E821D828981E2
:100F20009A81009711F00E940A0CCE010F969A83C5
:100F300089839C838B838FE091E08C0F9D1F9E8320
:100F40008D8398878F8319861E8620912202309187
:100F500023028091260290912702820F931FC65987
:100F6000DE4F19830883CA56D14048E0FE01E65996
:100F7000FE4FDE01AE59BE4F01900D924A95E1F74A
:100F800048E0FE01EE59FE4FDE01A15FBE4F019029
:100F90000D924A95E1F7C95EDE4F1882C751D140E4
:100FA000C85EDE4F39832883C851D140C65EDE4F0C
:100FB00099838883CA51D140C35EDE4F1882CD51D8
:100FC000D140C25EDE4F19830883CE51D140C05A52
:100FD000DE4F19821882C056D1404AE0BE01665FDA
:100FE0007F4FCE01815F9E4F0E94D803C05ADE4FD3
:100FF00008811981C056D1400115110569F4C45EFC
:10100000DE4F8881CC51D140882309F463C08E859E
:1010100083FF60C003E010E085E391E00E94950348
:10102000000F111FF801EA5FFE4F80819181009748
:1010300009F04DC08DE391E00E949503CF58DE4F3B
:101040000FB6F894DEBF0FBECDBFDF91CF911F91D9
:101050000F91FF90EF90DF90CF90BF90AF909F9057
:101060008F9008950E940A0C89819A81909323029F
:10107000809322028B819C8190932502809324028D
:101080008D819E8190932702809326021A82198275
:101090001C821B8242CF91E0C91AD108E108F108F5
:1010A00028EE820E23E0921EA11CB11CC114D104B3
:1010B000E104F10419F20E94C701681979098A094B
:1010C0009B09683E73408105910528F7F4CF0E9483
:1010D0009503B0CF409126025091270260912202E1
:1010E0007091230285E891E00E947A008DE391E0FF
:1010F0000E94950370E060E082E292E00E94FB06AD
:101100000E94C7014B015C0184E6C82ED12CE12C62
:10111000F12CD1CF1F920F920FB60F9211242F9363
:101120003F934F935F936F937F938F939F93AF936F
:10113000BF93EF93FF9385E891E00E943801FF9100
:10114000EF91BF91AF919F918F917F916F915F913F
:101150004F913F912F910F900FBE0F901F901895B8
:101160001F920F920FB60F9211242F938F939F937C
:10117000EF93FF93E0919501F09196018081E091CA
:101180009B01F0919C0182FD1BC0908180919E018A
:101190008F5F8F7320919F01821741F0E0919E0134
:1011A000F0E0EB57FE4F958F80939E01FF91EF91FA
:1011B0009F918F912F910F900FBE0F901F901895B8
:1011C0008081F4CF1F920F920FB60F9211242F93AC
:1011D0003F938F939F93AF93BF93809181019091A1
:1011E0008201A0918301B091840130917C0123E0C0
:1011F000230F2D3758F50196A11DB11D20937C01B9
:101200008093810190938201A0938301B093840124
:1012100080917D0190917E01A0917F01B09180012C
:101220000196A11DB11D80937D0190937E01A09335
:101230007F01B0938001BF91AF919F918F913F91BA
:101240002F910F900FBE0F901F90189526E8230F37
:101250000296A11DB11DD2CFE5E8F1E01382128202
:1012600088EE93E0A0E0B0E084839583A683B78303
:1012700086E191E09183808385EC90E09587848777
:1012800084EC90E09787868780EC90E0918B808B50
:1012900081EC90E0938B828B82EC90E0958B848B39
:1012A00086EC90E0978B868B118E128E138E148EA7
:1012B000E2E2F2E01182108213821282158214821D
:1012C00070E060E0CF010C94FB06789484B58260F6
:1012D00084BD84B5816084BD85B5826085BD85B5DA
:1012E000816085BD80916E00816080936E00109258
:1012F00081008091810082608093810080918100D3
:101300008160809381008091800081608093800063
:101310008091B10084608093B1008091B0008160C1
:101320008093B00080917A00846080937A008091ED
:101330007A00826080937A0080917A008160809345
:101340007A0080917A00806880937A001092C100C0
:10135000E0919501F091960182E08083E091910106
:10136000F09192011082E0919301F09194018FEC41
:10137000808310929D01E0919901F0919A0186E09D
:101380008083E0919701F091980180818061808352
:10139000E0919701F0919801808188608083E091CD
:1013A0009701F0919801808180688083E091970196
:1013B000F091980180818F7D8083C0E0D0E085E846
:1013C00091E00E9418011816190614F40E942107D2
:1013D0002097A9F30E942401882389F30E9400002A
:1013E000EECF8091220290912302009711F00C948D
:1013F0000A0C0895E89409C097FB3EF490958095F7
:10140000709561957F4F8F4F9F4F9923A9F0F92FCA
:1014100096E9BB279395F695879577956795B79548
:10142000F111F8CFFAF4BB0F11F460FF1BC06F5F2E
:101430007F4F8F4F9F4F16C0882311F096E911C040
:10144000772321F09EE8872F762F05C0662371F061
:1014500096E8862F70E060E02AF09A95660F771F75
:10146000881FDAF7880F9695879597F908950E9457
:101470004A0A0C94BB0A0E94AD0A38F00E94B40AD2
:1014800020F0952311F00C94A40A0C94AA0A1124BC
:101490000C94EF0A0E94CC0A70F3959FC1F3950F4C
:1014A00050E0551F629FF001729FBB27F00DB11DE8
:1014B000639FAA27F00DB11DAA1F649F6627B00D78
:1014C000A11D661F829F2227B00DA11D621F739F61
:1014D000B00DA11D621F839FA00D611D221F749F6F
:1014E0003327A00D611D231F849F600D211D822FB6
:1014F000762F6A2F11249F5750409AF0F1F08823DD
:101500004AF0EE0FFF1FBB1F661F771F881F915009
:101510005040A9F79E3F510580F00C94A40A0C940A
:10152000EF0A5F3FE4F3983ED4F38695779567958D
:10153000B795F795E7959F5FC1F7FE2B880F911D33
:101540009695879597F9089597F99F6780E870E0D9
:1015500060E008959FEF80EC089500240A94161629
:10156000170618060906089500240A941216130691
:10157000140605060895092E0394000C11F488231F
:1015800052F0BB0F40F4BF2B11F460FF04C06F5F3B
:101590007F4F8F4F9F4F089557FD9058440F551F11
:1015A00059F05F3F71F04795880F97FB991F61F0E5
:1015B0009F3F79F087950895121613061406551F5C
:1015C000F2CF4695F1DF08C0161617061806991FC8
:1015D000F1CF86957105610508940895E894BB27BD
:1015E00066277727CB0197F908950E94370BA59FAF
:1015F000900DB49F900DA49F800D911D112408950E
:101600002F923F924F925F926F927F928F929F9212
:10161000AF92BF92CF92DF92EF92FF920F931F9300
:10162000CF93DF93CDB7DEB7CA1BDB0B0FB6F894B1
:10163000DEBF0FBECDBF09942A88398848885F84F1
:101640006E847D848C849B84AA84B984C884DF8062
:10165000EE80FD800C811B81AA81B981CE0FD11D46
:101660000FB6F894DEBF0FBECDBFED010895A29F67
:10167000B001B39FC001A39F700D811D1124911D66
:10168000B29F700D811D1124911D0895A1E21A2EA3
:10169000AA1BBB1BFD010DC0AA1FBB1FEE1FFF1F16
:1016A000A217B307E407F50720F0A21BB30BE40B66
:1016B000F50B661F771F881F991F1A9469F76095AD
:1016C0007095809590959B01AC01BD01CF01089567
:1016D000EE0FFF1F0590F491E02D09940F931F93D7
:1016E000CF93DF938230910510F482E090E0E09197
:1016F0002A02F0912B0230E020E0B0E0A0E0309729
:1017000099F42115310509F44AC0281B390B2430FE
:101710003105D8F58A819B816115710589F1FB013D
:1017200093838283FE0111C0408151810281138124
:1017300048175907E0F04817590799F4109761F0D6
:1017400012960C93129713961C933296CF01DF9149
:10175000CF911F910F91089500932A0210932B02AD
:10176000F4CF2115310551F04217530738F0A90184
:10177000DB019A01BD01DF01F801C1CFEF01F9CF13
:1017800090932B0280932A02CDCFFE01E20FF31F2C
:10179000819391932250310939832883D7CF2091A7
:1017A000280230912902232B41F42091020130912B
:1017B00003013093290220932802209100013091E7
:1017C00001012115310541F42DB73EB740910401C7
:1017D00050910501241B350BE0912802F09129025C
:1017E000E217F307A0F42E1B3F0B2817390778F0F8
:1017F000AC014E5F5F4F2417350748F04E0F5F1F57
:101800005093290240932802819391939FCFF0E057
:10181000E0E09CCFCF93DF930097E9F0FC01329793
:1018200013821282A0912A02B0912B02ED0130E0C6
:1018300020E01097A1F420813181820F931F209125
:101840002802309129022817390709F061C0F09366
:101850002902E0932802DF91CF910895EA01CE1783
:10186000DF07E8F54A815B819E0141155105B1F71B
:10187000E901FB83EA8349915991C40FD51FEC1705
:10188000FD0761F4808191810296840F951FE90123
:1018900099838883828193819B838A83F0E0E0E04F
:1018A00012968D919C9113970097B9F52D913C91CB
:1018B0001197CD010296820F931F2091280230913B
:1018C00029022817390739F6309751F510922B0263
:1018D00010922A02B0932902A0932802BCCFD3838E
:1018E000C28340815181840F951FC817D90761F4C5
:1018F0004E5F5F4F88819981480F591F5183408304
:101900008A819B81938382832115310509F0B0CFB1
:10191000F0932B02E0932A029ECFFD01DC01C0CFA1
:1019200013821282D7CFB0E0A0E0E9E9FCE00C948A
:10193000020B8C01009751F4CB010E946E0B8C01BD
:10194000C801CDB7DEB7E0E10C941E0BFC01E60F39
:10195000F71F9C0122503109E217F30708F49DC0DC
:10196000D901CD91DC911197C617D70798F0C530F2
:10197000D10530F3CE0104978617970708F3C61BED
:10198000D70B2297C193D1936D937C93CF010E9483
:101990000A0CD6CF5B01AC1ABD0A4C018C0E9D1E01
:1019A000A0912A02B0912B02512C412CF12CE12C58
:1019B000109731F580912802909129028815990598
:1019C00009F05CC04616570608F058C08091000127
:1019D00090910101009741F48DB79EB740910401A9
:1019E00050910501841B950BE817F90708F055C0C5
:1019F000F0932902E0932802F90171836083A0CF5C
:101A00008D919C91119712966C90129713967C90E1
:101A10001397A815B90559F56C0142E0C40ED11C05
:101A2000CA14DB0420F1AC014A195B09DA011296F1
:101A3000159780F06282738251834083D9016D9340
:101A40007C93E114F10471F0D7011396FC93EE93AB
:101A5000129776CF22968C0F9D1FF9019183808378
:101A6000F301EFCFF0932B02E0932A0269CF4816DF
:101A7000590608F42C017D01D3019ACFCB010E94B5
:101A80006E0B7C01009749F0AE01B8010E94500D29
:101A9000C8010E940A0C870153CF10E000E050CF2C
:101AA000FB01DC0102C001900D9241505040D8F77B
:101AB0000895FB01DC018D91019080190110D9F38B
:101AC000990B0895FB01DC0101900D920020E1F7D4
:101AD000089510E0CDE4D0E004C0FE010E94680B40
:101AE0002196CE34D107C9F7F894FFCF00002C021D
:101AF0008000400143014E015E016B017401000052
:101B000000005A017A00A700A7011801B6000A01D7
:101B10002F2F22225C5C6208660C6E0A720D74091B
:101B2000004572726F723A20000D0A004F6B00453B
:101B30006D707479496E70757400496E636F6D7065
:101B40006C657465496E70757400496E76616C6978
:101B500064496E707574004E6F4D656D6F727900DB
:081B6000546F6F4465657000CD
:107E0000112484B714BE81FFF0D085E080938100F7
:107E100082E08093C00088E18093C10086E0809377
:107E2000C20080E18093C4008EE0C9D0259A86E02C
:107E300020E33CEF91E0309385002093840096BBD3
:107E4000B09BFECF1D9AA8958150A9F7CC24DD24C4
:107E500088248394B5E0AB2EA1E19A2EF3E0BF2EE7
:107E6000A2D0813461F49FD0082FAFD0023811F036
:107E7000013811F484E001C083E08DD089C08234E0
:107E800011F484E103C0853419F485E0A6D080C0E4
:107E9000853579F488D0E82EFF2485D0082F10E0AE
:107EA000102F00270E291F29000F111F8ED06801E7
:107EB0006FC0863521F484E090D080E0DECF843638
:107EC00009F040C070D06FD0082F6DD080E0C81688
:107ED00080E7D80618F4F601B7BEE895C0E0D1E017
:107EE00062D089930C17E1F7F0E0CF16F0E7DF06D8
:107EF00018F0F601B7BEE89568D007B600FCFDCFD4
:107F0000A601A0E0B1E02C9130E011968C91119780
:107F100090E0982F8827822B932B1296FA010C0160
:107F200087BEE89511244E5F5F4FF1E0A038BF0790
:107F300051F7F601A7BEE89507B600FCFDCF97BE46
:107F4000E89526C08437B1F42ED02DD0F82E2BD052
:107F50003CD0F601EF2C8F010F5F1F4F84911BD097
:107F6000EA94F801C1F70894C11CD11CFA94CF0C13
:107F7000D11C0EC0853739F428D08EE10CD085E9AC
:107F80000AD08FE07ACF813511F488E018D01DD067
:107F900080E101D065CF982F8091C00085FFFCCF94
:107FA0009093C60008958091C00087FFFCCF809118
:107FB000C00084FD01C0A8958091C6000895E0E648
:107FC000F0E098E1908380830895EDDF803219F02E
:107FD00088E0F5DFFFCF84E1DECF1F93182FE3DFCA
:107FE0001150E9F7F2DF1F91089580E0E8DFEE27F6
:047FF000FF270994CA
:027FFE00040479
:00000001FF
