:100000000C9471000C9499000C9499000C94990034
:100010000C9499000C9499000C9499000C949900FC
:100020000C9499000C9499000C9499000C949900EC
:100030000C9499000C9499000C9499000C949900DC
:100040000C941A0F0C9499000C94E80E0C94C20EA8
:100050000C9499000C9499000C9499000C949900BC
:100060000C94640F0C949900000020410000C842D9
:1000700000401C4620BCBE4CCA1B0E5AAEC59D7427
:10008000CDCCCC3D0AD7233C17B7D13877CC2B3217
:100090009595E6241FB14F0A0000000025002800B6
:1000A0002B000404040404040404020202020202F9
:1000B000030303030303010204081020408001022C
:1000C00004081020010204081020000000080002AB
:1000D000010000030407000000000000000083107E
:1000E000BF1111241FBECFEFD8E0DEBFCDBF11E09E
:1000F000A0E0B1E0ECE4FDE202C005900D92A83D65
:10010000B107D9F723E0A8EDB1E001C01D92A735F2
:10011000B207E1F710E0C0E7D0E004C02197FE018C
:100120000E949814CF36D107C9F70E94D0100C94C2
:1001300099160C9400000895089508950895AF92BB
:10014000BF92CF92DF92EF92FF920F931F93CF93C4
:10015000DF936C017B018B01040F151FEB015E0126
:10016000AE18BF08C017D10759F06991D601ED91BB
:10017000FC910190F081E02DC6010995892B79F75A
:10018000C501DF91CF911F910F91FF90EF90DF900C
:10019000CF90BF90AF900895FC01538D448D252FD3
:1001A00030E0842F90E0821B930B541710F0CF9611
:1001B000089501970895FC01918D828D981761F043
:1001C000A28DAE0FBF2FB11D5D968C91928D9F5F5A
:1001D0009F73928F90E008958FEF9FEF08952FB750
:1001E000F8948091470290914802A0914902B09101
:1001F0004A022FBF8093A5029093A602A093A70264
:10020000B093A8028DE992E00E94DB0097FF26C020
:100210002FB7F8948091470290914802A09149022B
:10022000B0914A022FBF4091A5025091A602609161
:10023000A7027091A802841B950BA60BB70B4091E7
:10024000A1025091A2026091A3027091A4028417AE
:100250009507A607B707B0F28FEF9FEF0895FC014F
:10026000918D828D981731F0828DE80FF11D858D6B
:1002700090E008958FEF9FEF0895FC01918D228DFE
:10028000892F90E0805C9F4F821B91098F73992783
:1002900008958DE992E00E943D0121E0892B09F447
:1002A00020E0822F089580E090E0892B29F00E94C1
:1002B000490181110C9400000895FC01A48DA80F40
:1002C000B92FB11DA35ABF4F2C91848D90E0019698
:1002D0008F739927848FA689B7892C93A089B189B8
:1002E0008C91837080648C93938D848D981306C059
:1002F0000288F389E02D80818F7D80830895EF92BD
:10030000FF920F931F93CF93DF93EC0181E0888FCF
:100310009B8D8C8D98131AC0E889F989808185FF9F
:1003200015C09FB7F894EE89FF896083E889F98941
:1003300080818370806480839FBF81E090E0DF9143
:10034000CF911F910F91FF90EF900895F62E0B8D96
:1003500010E00F5F1F4F0F731127E02E8C8D8E1151
:100360000CC00FB607FCFACFE889F989808185FFB8
:10037000F5CFCE010E945D01F1CFEB8DEC0FFD2F8B
:10038000F11DE35AFF4FF0829FB7F8940B8FEA8973
:10039000FB8980818062CFCFCF93DF93EC01888D82
:1003A0008823B9F0AA89BB89E889F9898C9185FDF0
:1003B00003C0808186FD0DC00FB607FCF7CF8C917E
:1003C00085FFF2CF808185FFEDCFCE010E945D01D8
:1003D000E9CFDF91CF91089590E0FC01E653FF4F04
:1003E0002491FC01EA54FF4F3491FC01EE55FF4F7C
:1003F000E491EE23C9F0222339F0233001F1A8F46F
:10040000213019F1223029F1F0E0EE0FFF1FE856FC
:10041000FF4FA591B4918FB7F894EC91611126C06C
:1004200030953E233C938FBF08952730A9F02830A4
:10043000C9F0243049F7809180008F7D03C08091FE
:1004400080008F7780938000DFCF84B58F7784BD65
:10045000DBCF84B58F7DFBCF8091B0008F77809309
:10046000B000D2CF8091B0008F7DF9CF3E2BDACF94
:100470003FB7F89480913F0290914002A0914102D1
:10048000B091420226B5A89B05C02F3F19F00196F6
:10049000A11DB11D3FBFBA2FA92F982F8827BC01DE
:1004A000CD01620F711D811D911D42E0660F771F06
:1004B000881F991F4A95D1F708958F929F92AF9206
:1004C000BF92CF92DF92EF92FF924B015C010E94AC
:1004D00038026B017C010E9438026C197D098E097B
:1004E0009F09683E734081059105A8F321E0821AB7
:1004F0009108A108B10888EEC80E83E0D81EE11C5F
:10050000F11C81149104A104B10429F7FF90EF902C
:10051000DF90CF90BF90AF909F908F900895DC01B7
:10052000ED91FC910190F081E02D099420911B0246
:10053000260F3327331F21323105ECF4209171024D
:10054000FC0190E080E0243069F082E00895A09101
:100550001B022191AC0145505E4FA40FB52FB11D78
:100560002C930196861798F380911B02680F609375
:100570001B0280E0089581E008951092710281E0ED
:100580008093700210926B0261E082E10E94EC01A4
:1005900061E083E10E94EC01E9EBF0E080818E7F75
:1005A000808380818D7F808388E48093B80085E498
:1005B0008093BC000895CF93DF9391E09093FA016C
:1005C0008823B9F0C091B800D091BA008091BC00E6
:1005D0008A7B8093BC0060E082E10E94EC0160E0D5
:1005E00083E10E94EC010E94BD02D093BA00C09347
:1005F000B800DF91CF9108950895E091780280913D
:100600007702E81730F4F0E0E758FD4F808190E082
:1006100008958FEF9FEF089590917802809177026F
:100620002FEF3FEF981748F4E92FF0E0E758FD4F20
:10063000208130E09F5F90937802C90108958091F6
:10064000770290917802891B990B0895CF92DF92DF
:10065000EF92FF920F931F93CF93DF937C01CB0117
:100660008A0120919C02222389F0EB016B01C40EC8
:10067000D51ECC15DD0569F06991D701ED91FC918E
:100680000190F081E02DC7010995F3CF642F0E94FE
:100690009602C801DF91CF911F910F91FF90EF90CB
:1006A000DF90CF900895CF93DF931F92CDB7DEB741
:1006B000698320919C022223F9F020919902203233
:1006C00058F021E030E0FC013383228390E080E0A9
:1006D0000F90DF91CF91089580919A02E82FF0E07A
:1006E000E652FE4F998190838F5F80939A028093A8
:1006F000990281E090E0ECCF61E0CE0101960E948A
:100700009602F7CFCF92DF92EF92FF920F931F9353
:10071000CF93DF93D091990281E0D13208F09CC051
:10072000C0919B020E9438026B017C018091710292
:1007300081116CC082E08093710281E0809370022D
:100740008FEF80936F0210926E02D0936D02AAED2C
:10075000B1E0EBE4F2E080E0D8138DC010926C02BF
:1007600080916C02CC0FC82BC0936C0280916B02FD
:10077000813009F084C010926B020E9438026B0134
:100780007C0180916C028093BB00809173029091F8
:100790007402A0917502B0917602892B8A2B8B2B63
:1007A000A1F00E943802009173021091740220910E
:1007B0007502309176026C197D098E099F09061722
:1007C00017072807390708F442C08091BC0083FD51
:1007D000D8CF85EC8093BC000E9438026B017C016D
:1007E00080917102823009F44CC080916F028F3F7A
:1007F00009F469C080916F02803209F466C080916B
:100800006F02803309F463C084E026C080917302D4
:1008100090917402A0917502B0917602892B8A2B77
:100820008B2B09F483CF0E94380200917302109140
:10083000740220917502309176026C197D098E093F
:100840009F09061717072807390708F06FCF80910F
:1008500072020E94DB0285E010929A0210929902C5
:1008600010929C02DF91CF911F910F91FF90EF901A
:10087000DF90CF9008959D9191938F5F6DCF85EE1E
:10088000A9CF8091730290917402A0917502B091EA
:100890007602892B8A2B8B2B09F4A2CF0E94380277
:1008A00000917302109174022091750230917602CA
:1008B0006C197D098E099F09061717072807390744
:1008C00008F08ECFC4CF80E0C7CF82E0C5CF83E0F1
:1008D000C3CF1F93CF93DF93162FCCE4D3E0A9812E
:1008E000BA81988121E020939C0290939B02109200
:1008F0009A0210929902ED91FC9111970190F0816A
:10090000E02D682FCD01099589819A81DC01ED9157
:10091000FC910190F081E02D612F099589819A81E8
:10092000DF91CF911F910C94820390E080E00895B5
:1009300080339CF08A3324F08F3524F08B3724F4F5
:1009400081E0089581344CF08B35D4F393ED980F0A
:1009500081E09230B0F380E008958B32B9F7F0CFA8
:10096000FC018685811114C0A185B285838594859B
:100970002FEF3FEFA817B90730F4CD01019692870A
:1009800081872C9130E037FD20E0258781E0868744
:10099000858508951F93CF93DF93EC01162F0E9456
:1009A000B004811306C01E8681E0DF91CF911F91B4
:1009B000089580E0FACFCF93DF93EC01CE010E943F
:1009C000B0048B303CF489304CF4882349F081E04A
:1009D000888710C08D3011F08032C9F71E86EECFA7
:1009E000888581110AC081E090E0CF5ADF4F99835A
:1009F000888380E0DF91CF91089582E090E0F5CF89
:100A0000FC0124813581A9014F5F5F4F8681978169
:100A10004817590748F48281938155834483FC0128
:100A2000E20FF31F608308950190F081E02D81E0D3
:100A3000808708959F92AF92BF92CF92DF92EF92FC
:100A4000FF920F931F93CF93DF9300D000D01F929C
:100A5000CDB7DEB78C010E94B004D82ED8011E9607
:100A60001C92F12CE12C60EFC62EC8010E94B0044C
:100A7000F8011686D81609F4BDC0811119C0F80115
:100A8000EF5AFF4F82E090E09183808380E00F90E7
:100A90000F900F900F900F90DF91CF911F910F91BA
:100AA000FF90EF90DF90CF90BF90AF909F90089510
:100AB0008C3509F09DC0C8010E94B0048823F9F26A
:100AC000E6E3F1E0853709F087C0D8011E961C9255
:100AD00054E0952EB12CA12CC8010E94B0048823AB
:100AE00071F281344CF48053803148F0F801EF5AB0
:100AF000FF4F83E090E0C8CF8F7D8753F5CF44E070
:100B0000AA0CBB1C4A95E1F7A82AF80116869A940C
:100B10009110E2CFC501985D8115944020F47501D4
:100B200023E0F222A2CFC5019C5D81159440A8F478
:100B3000B3E0BB22B701762F6627770F770F6A29BC
:100B40007B2990E080E00196603871058105910570
:100B500040F4C8010E94000588CFB50190E080E014
:100B6000F3CF1982262F2F7320682A8326E09695CB
:100B70008795779567952A95D1F76032710580F44E
:100B8000606C6B835E01E4E0AE0EB11CD5016E912A
:100B90005D01662309F469CFC8010E940005F6CF04
:100BA000262F2F7320682B8386E0769567958A958C
:100BB000E1F76031710538F4606E6C835E01F5E039
:100BC000AF0EB11CE3CF60686C83CD825E0126E07E
:100BD000A20EB11CDBCF32969081992309F486CF07
:100BE0008913F9CF8181882309F480CFF801168613
:100BF000682FAFCF0190F081E02D8085882331F000
:100C0000F801EF5AFF4F84E090E03ECF81E03FCF04
:100C10004F925F926F927F928F929F92AF92BF920C
:100C2000CF92DF92EF92FF920F931F93CF93DF93B8
:100C3000EC018B0188818B32C9F18D32C1F521968F
:100C4000FF24F394888190ED980F9A3018F08E323B
:100C500009F04DC160E070E0CB01FE012191A0EDF3
:100C60008A2E820E39E0381520F16A3949E9740775
:100C7000840749E1940738F5AAE0B0E09B01AC0194
:100C80000E940B13912CB12CA12C2401350140940E
:100C9000509460947094461657066806790698F04A
:100CA000680D791D8A1D9B1DEF01D7CF2196F12C70
:100CB000C9CF211108C0FF20F1F161307105810514
:100CC00050E89507A0F0E12CEAE08E2E912CA12CA3
:100CD000B12C61157105F0E88F079105C0F1A501F0
:100CE00094010E944D13CA01B901E394F2CFF801B7
:100CF000248120782A6024839B01AC0188279927CE
:100D0000DC01821B930BA40BB50B80839183A28320
:100D1000B3838F2DDF91CF911F910F91FF90EF90B3
:100D2000DF90CF90BF90AF909F908F907F906F900B
:100D30005F904F900895F8012481207828602483E3
:100D40006083718382839383FF24F394E2CFFE0157
:100D5000299130ED320F3A3010F4E394F8CF2E326F
:100D6000F1F4EF012196FE012196208150EDD52E60
:100D7000D20E29E02D1598F06C3C3CEC73073CE05A
:100D80008307910580F7AAE0B0E09B01AC010E94C7
:100D90000B136D0D711D811D911DEA94E4CF20810F
:100DA0002F7DD0E0C0E0253409F05DC021812D32D7
:100DB000D9F53296CC24C394DF01D0E0C0E02E2DCB
:100DC0000E2C000C330B4AE0B42EFD01DD9040EDFB
:100DD0004D0D4A3008F042C0BC9EA001BD9E500D92
:100DE0001124CD2DDD0CDD0BE097C40FD51FAE0116
:100DF000420F531F4732510544F3F8018481CC2040
:100E0000D1F040E050E060E070E8F11003C040E055
:100E100050E0BA0180788C60F8018483408351836C
:100E200062837383FC2C75CF2B3219F03196C12C61
:100E3000C3CF3296FCCF40E050E060E87FEFF11086
:100E400004C040E050E060E87FE780788C60F80103
:100E50008483408351836283738376CFCC2019F0DF
:100E6000D195C195D1092081211141C0CE0DD11D4F
:100E7000E7FCDA950E94CD111C161D0604F5E12C45
:100E8000C0FF0CC024E0E29EF0011124E859FF4F9E
:100E900025913591459154910E942E12D595C79573
:100EA000E394209769F7F1109058F8012481207895
:100EB0002C602483608371838283938345CFD19593
:100EC000C195D109E12C209771F3C0FF0CC044E01B
:100ED000E49EF0011124E058FF4F25913591459192
:100EE00054910E942E12D595C795E394ECCFF12C26
:100EF00010CFCF92DF92EF92FF92CF93DF9300D08B
:100F000000D01F92CDB7DEB7FC0184818F77863089
:100F1000B9F028F4843088F590E080E013C08A307E
:100F2000E9F08C30B9F18830B9F780819181A281E4
:100F3000B381811520E89207A105B10568F702C0C9
:100F4000808190E00F900F900F900F900F90DF91A5
:100F5000CF91FF90EF90DF90CF90089580819181A5
:100F6000A281B381AC01BD0150586F4F7F4F411535
:100F700051056140710580F6E5CF808191811D8228
:100F8000BE016F5F7F4F0E940806CE0101960E944E
:100F90007907D8CFC080D180E280F38020E030E0B4
:100FA00040E057ECC701B6010E94931487FDB4CF0F
:100FB00020E03EEF4FEF56E4C701B6010E94C81192
:100FC00018160CF4A9CFC701B6010E945D14CB011D
:100FD000B9CFCF93DF93DC01EB01EC81FD818A81F6
:100FE0009B810896E817F90740F481E08887F0E0D4
:100FF000E0E0CF01DF91CF9108953897FD83EC8336
:101000003097B9F31296CD91DC911397209791F018
:10101000CF018C1B9D0B23E0959587952A95E1F7D1
:101020008D831396FC93EE93129715821482178288
:101030001682DFCF1196FC93EE93F3CFEF92FF92DF
:101040000F931F93CF93DF937C01DC0112962D91B8
:101050003C911397ED91FC91AB01420F531FEF01AF
:10106000C60FD71FC217D307A0F4888181110BC008
:10107000E901CF014C175D0751F00991DC011D9189
:10108000CD010117B9F381918111FDCFE8CF3097E0
:1010900051F4620F731FCB010196F7019383828392
:1010A000DB011C92F901CF01DF91CF911F910F91CC
:1010B000FF90EF900895CF92DF92EF92FF920F93FF
:1010C0001F93CF93A0914D03B0914E0390914C0389
:1010D00021E020939C0290939B0210929A0210921E
:1010E0009902ED91FC9111970190F081E02D682F0C
:1010F000CD01099580914D0390914E030E9482038A
:10110000C0914C030E9438026B017C0180917102F6
:10111000811164C081E080937102809370029FEF1F
:1011200090936F0210926E0210926D0280936C0287
:1011300080916C02CC0FC82BC0936C0280916B0223
:10114000813009F088C010926B020E9438026B0156
:101150007C0180916C028093BB008091730290911E
:101160007402A0917502B0917602892B8A2B8B2B89
:10117000A1F00E9438020091730210917402209134
:101180007502309176026C197D098E099F09061748
:1011900017072807390708F442C08091BC0083FD77
:1011A000D8CF85EC8093BC000E9438026B017C0193
:1011B00080917102813009F450C080916E028111DA
:1011C0006EC080916E02EBE4F2E0A9E7B2E090E03D
:1011D000981751F121912D939F5FFACF809173025F
:1011E00090917402A0917502B0917602892B8A2B9E
:1011F0008B2B09F48BCF0E9438020091730210915F
:10120000740220917502309176026C197D098E0965
:101210009F09061717072807390708F077CF80912D
:1012200072020E94DB0280E01092780280937702C3
:1012300080914D0390914E03DC01ED91FC9102846D
:10124000F385E02D0995CF911F910F91FF90EF90BD
:10125000DF90CF90089585EEA5CF80917302909195
:101260007402A0917502B0917602892B8A2B8B2B88
:1012700009F49ECF0E94380200917302109174020B
:1012800020917502309176026C197D098E099F09B3
:10129000061717072807390708F08ACFC0CF81E063
:1012A00092CF8F929F92AF92BF92CF92DF92EF92A6
:1012B000FF92CF936B017C0120E030E040E85FE3D8
:1012C0000E94C81187FD7AC020E030EC4AE555E461
:1012D000C701B6010E94931418163CF4C12C30ECDF
:1012E000D32E3AE5E32E35E4F32E60914F0370914F
:1012F000500380915103909152030E94CD114B01F4
:101300005C0120E030E040E855E4C701B6010E94EE
:101310002E129B01AC01C501B4010E94EB1320E029
:1013200030E040E05FE30E947F1320E030E040E8DF
:101330005FE30E947E136B017C0120E030E040E41B
:1013400050E40E94C81187FD40C020E030E04FE724
:1013500053E4C701B6010E949314181634F4C12C4B
:10136000D12C9FE7E92E93E4F92E80E00E945B08E0
:10137000C82F682F6F76606180E00E946904C70102
:10138000B6010E9464148EEF0E9469046C2F80E005
:101390000E94690465E070E080E090E00E945D02D8
:1013A0006C2F606A80E0CF91FF90EF90DF90CF903C
:1013B000BF90AF909F908F900C946904C12CD12C5A
:1013C00020E8E22E2FE3F22E90CFC12CD12C80E426
:1013D000E82EFE2CCACF8F929F92AF92BF92CF92EF
:1013E000DF92EF92FF920F931F93CF93DF938C01C5
:1013F0009B01770F440B550B21583F4F4F4F5F4FC9
:10140000A0E2B3E00E940B132EEF30E040E050E08A
:101410000E94EC12245B3B4F4F4F5F4FB90190E0AD
:1014200080E00E94CD116B017C018EEF0E945B0871
:10143000682F70E06F5F7F4F90E080E00E94CD11D9
:1014400020E034E244E759E40E942E124B015C0193
:10145000CCE4D3E06B817C818D819E810E94CD1193
:101460009B01AC01C501B4010E94EB139B01AC01CF
:10147000C701B6010E94EB130E9464147B018981AD
:101480009A81288131E030939C0220939B02109234
:101490009A0210929902B801660F771F660F771FA4
:1014A0006A5F7F4FDC01ED91FC910190F081E02DAE
:1014B000099570E060E089819A810E948F0270E056
:1014C00060E089819A810E948F02B70189819A81A7
:1014D0000E948F026F2D70E089819A810E948F0295
:1014E00089819A81DF91CF911F910F91FF90EF90A9
:1014F000DF90CF90BF90AF909F908F900C9482031D
:10150000FC0101900020E9F73197AF01481B590B0E
:10151000BC018DE992E00C949F008F929F92AF9254
:10152000BF920F931F93CF93DF93CDB7DEB7A197F1
:101530000FB6F894DEBF0FBECDBF19A2423008F43B
:101540004AE08E010F5D1F4F842E912CB12CA12CEF
:10155000A50194010E944D13E62FB901CA01EA309A
:10156000F4F4E05DD801EE938D01232B242B252B81
:1015700079F790E080E0109719F0CD010E94800A81
:10158000A1960FB6F894DEBF0FBECDBFDF91CF910D
:101590001F910F91BF90AF909F908F900895E95C3D
:1015A000E1CFCF92DF92EF92FF92CF93DF936B0167
:1015B0007C016DE28DE992E00E947F01EC016627DB
:1015C0007727CB016C197D098E099F094AE00E949B
:1015D0008D0A8C0F9D1FDF91CF91FF90EF90DF90D0
:1015E000CF900895CF93DF93D0E0C0E0009719F03B
:1015F0000E94800AEC0187E491E00E94800A8C0F2F
:101600009D1FDF91CF9108950F931F93CF93DF9389
:10161000EC0188819981009759F02A813B81261736
:10162000370730F081E0DF91CF911F910F9108953E
:101630008B016F5F7F4F0E94C315009759F099830C
:1016400088831B830A832C813D81232B59F7FC015E
:101650001082E8CF80E0E7CF0F931F93CF93DF9303
:10166000EC018B010E94040B28813981811112C089
:101670002115310519F0C9010E943A151982188205
:101680001D821C821B821A82CE01DF91CF911F9195
:101690000F9108951D830C8366E471E0C9010E94D7
:1016A0009216F2CF85ED8093BC00809173029091E9
:1016B0007402A0917502B09176020796A11DB11D2A
:1016C00023E0B695A795979587952A95D1F7209110
:1016D000BC0024FD03C01092710208954091730272
:1016E000509174026091750270917602452B462BE1
:1016F000472B69F30097A105B10541F02AE22A952D
:10170000F1F700C00197A109B109E1CF8091720200
:101710000C94DB020F931F93CF93DF936115710538
:10172000B9F08B01FC01C081D181209799F06E81C5
:101730007F81C8010E948916892B61F08D818823E1
:1017400039F0F8E08F02C0011124C80FD91FEDCF86
:10175000D0E0C0E0CE01DF91CF911F910F910895AD
:101760009F92AF92BF92CF92DF92EF92FF920F9330
:101770001F93CF93DF93EC018B01E42E0E94DB04D7
:10178000D82E81110EC0F12C8F2DDF91CF911F919A
:101790000F91FF90EF90DF90CF90BF90AF909F9010
:1017A0000895CE010E94B004873209F42CC114F5CB
:1017B000823209F428C1CE010E94B004E82E5E01F5
:1017C000F1E1AF0EB11CF12C9A2CCB2C8E2D0E9486
:1017D0009804882309F443C18FE3F81609F43FC144
:1017E0001E86F394F501E1925F01CE010E94B004E0
:1017F000E82EECCF8B3509F44AC08B37E1F6F801BF
:1018000084818078806284831182108213821282A4
:10181000EE2009F447C01E86CE010E94DB04882317
:1018200009F4B1CF6DE7CE010E94CA04F82E8111F0
:101830004FC0CC24C394EA94E881F98182819381DA
:101840009B838A838481958122813381821B930BC0
:101850009F838E831D821C82892B09F4C086CE0152
:101860000E94B004873209F460C0823209F45DC07E
:10187000CE010E94B004D82E0E9498048111AEC0FF
:10188000CF5ADF4F83E090E0998388837DCFF801C2
:101890008481807880648483118210821382128212
:1018A000E11007C0CF5ADF4F85E090E0998388832D
:1018B0006ACF1E86CE010E94DB04882309F463CF21
:1018C0006DE5CE010E94CA04F82EEA94882311F037
:1018D000FD2C5ACF6F857889C8010E94E9070097CF
:1018E00029F4CF5ADF4F84E090E0CECF4E2DBC01DB
:1018F000CE010E94B00B882309F445CFCE010E948F
:10190000DB04882309F43FCF6DE5CE010E94CA04B1
:101910008111DECF6CE2CE010E94CA048111DACFC0
:10192000CF5ADF4F83E090E0C1CFCE010E941A056D
:10193000882309F429CFCE010E94DB04882309F40F
:1019400023CF6AE3CE010E94CA04882309F498CF0A
:10195000EA81FB818C819D81E80FF91F1082AC80A8
:10196000BD806A817B81C8010E948A0BBC01892BE2
:10197000A9F4B501888199810E941E085C016F85D8
:101980007889C8010E94E907FC01892B09F4A9CFD5
:10199000848180688483B782A682BF014E2DCE01E8
:1019A0000E94B00B882309F4EFCECE010E94DB0425
:1019B000882309F4E9CE6DE7CE010E94CA048111A3
:1019C00020C06CE2CE010E94CA04882309F458CFDB
:1019D000CE010E94DB0481112FCFD6CE1E866D2D45
:1019E000CE010E940005CE010E94B004D82E0E94B4
:1019F00098048111F3CFE881F9818085811171CF3D
:101A00009ACFF82EC1CEE881F981828193819B83A0
:101A10008A838481958122813381821B930B9F83EA
:101A20008E831D821C82892B11F481E08087CE0178
:101A30000E941A05F82E882309F4A5CECC80DD80FB
:101A4000B601888199810E941E08F80124812078BE
:101A50002560248391838083D382C28295CEFE0148
:101A6000EF0DF11D118A8989843781F4F801848191
:101A700080788660848381E08083F4E0FF1609F437
:101A800027CFCF5ADF4F82E090E010CF863641F467
:101A9000F80184818078866084831082F5E0EECF3F
:101AA0008E3621F484E0F812ECCF12CFB801892DE4
:101AB0009C2D0E940806882309F432CF09CFEF92AB
:101AC000FF920F931F93CF93DF93CDB7DEB7C1572C
:101AD000D1400FB6F894DEBF0FBECDBF8DE992E0C6
:101AE0000E943D01181619060CF027C11A821982AE
:101AF0001C821B821E821D8270E060E08E010F5FDF
:101B00001F4FC8010E942C0B0E94EF0097FD26C0BA
:101B10008A30910519F1C15FDE4F8883CF50D140E3
:101B2000C05FDE4F1882C051D140ED80FE808FEF44
:101B3000E81AF80AB701C8010E94040B882321F3B0
:101B400029813A818D819E81BE01615F7E4F820F26
:101B5000931F0E949216FE82ED82D6CF809146039B
:101B600090914703009709F4B4C069817A816115A7
:101B7000710509F4ACC040914803509149032D818F
:101B80003E814217530708F4A2C00E9492168D812D
:101B90009E8190934B0380934A031E821D8289810C
:101BA0009A81009711F00E943A15CE010F969A8300
:101BB00089839C838B838FE091E08C0F9D1F9E8394
:101BC0008D8398878F8319861E86209146033091D6
:101BD000470380914A0390914B03820F931FC6598C
:101BE000DE4F19830883CA56D14048E0FE01E6590A
:101BF000FE4FDE01AE59BE4F01900D924A95E1F7BE
:101C000048E0FE01EE59FE4FDE01A15FBE4F01909C
:101C10000D924A95E1F7C95EDE4F1882C751D14057
:101C2000C85EDE4F39832883C851D140C65EDE4F7F
:101C300099838883CA51D140C35EDE4F1882CD514B
:101C4000D140C25EDE4F19830883CE51D140C05AC5
:101C5000DE4F19821882C056D1404AE0BE01665F4D
:101C60007F4FCE01815F9E4F0E94B00BC05ADE4F66
:101C700008811981C056D1400115110569F4C45E6F
:101C8000DE4F9881CC51D1408E85992309F447C00D
:101C900083FF45C003E010E08AE491E00E94800ADF
:101CA000000F111FF801EA5FFE4F808191810E94B1
:101CB000F20ACF58DE4F0FB6F894DEBF0FBECDBF8D
:101CC000DF91CF911F910F91FF90EF9008950E94A7
:101CD0003A1589819A8190934703809346038B81BB
:101CE0009C8190934903809348038D819E819093BA
:101CF0004B0380934A031A8219821C821B824DCFA8
:101D000062E571E0CE010A960E948A0B009749F0C5
:101D10000E94790708C04AE00E948D0A1AC085FD1A
:101D2000EFCF90E080E09093D9018093D80170E0EC
:101D300060E086E493E00E942C0B6091D8017091E2
:101D4000D901072E000C880B990B97FFE4CF0E9456
:101D5000D10A87E491E00E94800A64E170E090E09B
:101D600080E00E94EB096091D8017091D90181E077
:101D700090E00E94EB0964E670E080E090E00E9451
:101D80005D0297CF1F920F920FB60F9211242F93DF
:101D90003F934F935F936F937F938F939F93AF93F3
:101DA000BF93EF93FF938DE992E00E945D01FF9155
:101DB000EF91BF91AF919F918F917F916F915F91C3
:101DC0004F913F912F910F900FBE0F901F9018953C
:101DD0001F920F920FB60F9211242F938F939F9300
:101DE000EF93FF93E091AD02F091AE028081E0911C
:101DF000B302F091B40282FD1BC090818091B602C3
:101E00008F5F8F732091B702821741F0E091B60285
:101E1000F0E0E356FD4F958F8093B602FF91EF916E
:101E20009F918F912F910F900FBE0F901F9018953B
:101E30008081F4CF1F920F920FB60F9211242F932F
:101E40003F938F939F93AF93BF938091470290915D
:101E50004802A0914902B0914A0230913E0223E02B
:101E6000230F2D3758F50196A11DB11D20933E0279
:101E70008093470290934802A0934902B0934A028C
:101E800080913F0290914002A0914102B0914202A4
:101E90000196A11DB11D80933F0290934002A09333
:101EA0004102B0934202BF91AF919F918F913F91B8
:101EB0002F910F900FBE0F901F90189526E8230FBB
:101EC0000296A11DB11DD2CF1F920F920FB60F9295
:101ED00011242F933F934F935F936F937F938F932F
:101EE0009F93AF93BF93EF93FF938091B900887F47
:101EF000803609F44AC0F0F5883209F4A7C018F515
:101F0000803109F49BC0B8F4882309F4F9C0883003
:101F100009F494C0FF91EF91BF91AF919F918F9180
:101F20007F916F915F914F913F912F910F900FBED5
:101F30000F901F901895883109F488C0803251F7AE
:101F400080936F0214C0803409F49DC040F4803344
:101F5000B9F38833F9F680936F0285ECB0C0803511
:101F600009F485C0883509F496C0883499F60E9432
:101F7000520BD0CF883909F48CC038F5883729F056
:101F800050F4883611F0803729F683E0809371028F
:101F900010923D0257C0883809F47BC0803919F08F
:101FA000803809F0B7CF80913D02803208F071C0CF
:101FB000E0913D0281E08E0F80933D028091BB0055
:101FC000F0E0E35EFD4F80833DC0803B39F0E0F4FC
:101FD000803A09F479C0883A09F09CCF84E0809374
:101FE000710210921C0210921B02E0914502F091C6
:101FF0004602099580911B0281110FC081E08093F8
:102000001B021092FB0109C0803C09F4A6CF883C5A
:1020100009F4A3CF883B09F07DCFE0911C0281E059
:102020008E0F80931C02F0E0E550FE4F808180937C
:10203000BB0090911C0280911B0229C080916C0210
:102040008093BB0085EC8093BC0064CF90916E02BE
:1020500080916D02981758F5E0916E0281E08E0F25
:1020600080936E02F0E0E55BFD4F8081E9CFE09167
:102070006E0281E08E0F80936E028091BB00F0E0D3
:10208000E55BFD4F808390916E0280916D02981701
:10209000C8F285E8D8CFE0916E0281E08E0F809380
:1020A0006E028091BB00F0E0E55BFD4F8083809184
:1020B000700281115CCF81E080936B0284EA80938F
:1020C000BC001092710226CF85EC8093BC00109268
:1020D000710280913D02803230F4E0913D02F0E0E7
:1020E000E35EFD4F108260913D0270E0E09143029B
:1020F000F09144028DE192E0099510923D020ACFE1
:1021000010926F0234CFEDE9F2E01382128288EE72
:1021100093E0A0E0B0E084839583A683B78326E1B3
:1021200031E03183208325EC30E03587248724ECAF
:1021300030E03787268720EC30E0318B208B21EC94
:1021400030E0338B228B22EC30E0358B248B26EC75
:1021500030E0378B268B118E128E138E148EEAE3AD
:10216000F3E01382128284839583A683B78388E287
:1021700091E091838083ACE4B3E080E48C93129689
:10218000FC93EE931197E6E4F3E011821082138240
:1021900012821582148270E060E0CF010C942C0B47
:1021A000789484B5826084BD84B5816084BD85B532
:1021B000826085BD85B5816085BD80916E0081603E
:1021C00080936E00109281008091810082608093E4
:1021D00081008091810081608093810080918000E6
:1021E0008160809380008091B10084608093B10011
:1021F0008091B00081608093B00080917A0084600B
:1022000080937A0080917A00826080937A00809136
:102210007A00816080937A0080917A008068809350
:102220007A001092C100E091AD02F091AE0282E01E
:102230008083E091A902F091AA021082E091AB02A2
:10224000F091AC028FEC80831092B502E091B10264
:10225000F091B20286E08083E091AF02F091B0028B
:10226000808180618083E091AF02F091B002808133
:1022700088608083E091AF02F091B0028081806835
:102280008083E091AF02F091B00280818F7D8083E6
:102290008DE591E00E94F20A109278021092770286
:1022A00010929A02109299020E94BD028BE990E06E
:1022B00090934602809345028CE990E0909344020B
:1022C0008093430260E880E00E9469046AE070E065
:1022D00080E090E00E945D0260E070E08AE794E4B4
:1022E0000E94510980EC9CEFABE9B1E080934F0371
:1022F00090935003A0935103B093520360E070E0B9
:1023000088E492E40E94510970E060E090E080E08F
:102310000E94EB0970E060E081E090E00E94EB0930
:1023200086E0C82ED12CE12CF12C83E791E00E94AD
:10233000800A4AE0C701B6010E948D0A80E891E058
:102340000E94F20A68EE73E080E090E00E945D0275
:1023500081E0C81AD108E108F10839F78CE891E06A
:102360000E94F20AC0E0D0E00E945F0D2097E1F3E6
:102370000E9449018823C1F30E940000F5CF80919B
:10238000460390914703009711F00C943A15089575
:102390000E940A1208F481E00895E89409C097FBAE
:1023A0003EF490958095709561957F4F8F4F9F4F2C
:1023B0009923A9F0F92F96E9BB279395F695879570
:1023C00077956795B795F111F8CFFAF4BB0F11F433
:1023D00060FF1BC06F5F7F4F8F4F9F4F16C08823DA
:1023E00011F096E911C0772321F09EE8872F762F10
:1023F00005C0662371F096E8862F70E060E02AF051
:102400009A95660F771F881FDAF7880F969587953C
:1024100097F90895990F0008550FAA0BE0E8FEEF11
:1024200016161706E807F907C0F012161306E40798
:10243000F50798F0621B730B840B950B39F40A2691
:1024400061F0232B242B252B21F408950A2609F46F
:10245000A140A6958FEF811D811D08950E94411214
:102460000C94B2120E94A41238F00E94AB1220F019
:10247000952311F00C949B120C94A11211240C942E
:10248000E6120E94C31270F3959FC1F3950F50E0BE
:10249000551F629FF001729FBB27F00DB11D639F16
:1024A000AA27F00DB11DAA1F649F6627B00DA11DBC
:1024B000661F829F2227B00DA11D621F739FB00D62
:1024C000A11D621F839FA00D611D221F749F3327D2
:1024D000A00D611D231F849F600D211D822F762F6B
:1024E0006A2F11249F5750409AF0F1F088234AF048
:1024F000EE0FFF1FBB1F661F771F881F91505040B4
:10250000A9F79E3F510580F00C949B120C94E612A3
:102510005F3FE4F3983ED4F3869577956795B7953A
:10252000F795E7959F5FC1F7FE2B880F911D969554
:10253000879597F9089597F99F6780E870E060E0C4
:1025400008959FEF80EC089500240A94161617064C
:1025500018060906089500240A9412161306140694
:1025600005060895092E0394000C11F4882352F0F7
:10257000BB0F40F4BF2B11F460FF04C06F5F7F4FAF
:102580008F4F9F4F089557FD9058440F551F59F096
:102590005F3F71F04795880F97FB991F61F09F3F50
:1025A00079F087950895121613061406551FF2CF79
:1025B0004695F1DF08C0161617061806991FF1CFC9
:1025C00086957105610508940895E894BB276627F0
:1025D0007727CB0197F90895052E97FB1EF40094F9
:1025E0000E94031357FD07D00E944D1307FC03D030
:1025F0004EF40C94031350954095309521953F4F20
:102600004F4F5F4F089590958095709561957F4FDE
:102610008F4F9F4F08950E946F13A59F900DB49FF9
:10262000900DA49F800D911D112408952F923F922B
:102630004F925F926F927F928F929F92AF92BF92D2
:10264000CF92DF92EF92FF920F931F93CF93DF937E
:10265000CDB7DEB7CA1BDB0B0FB6F894DEBF0FBEDB
:10266000CDBF09942A88398848885F846E847D8428
:102670008C849B84AA84B984C884DF80EE80FD802A
:102680000C811B81AA81B981CE0FD11D0FB6F894A0
:10269000DEBF0FBECDBFED010895A1E21A2EAA1B29
:1026A000BB1BFD010DC0AA1FBB1FEE1FFF1FA21702
:1026B000B307E407F50720F0A21BB30BE40BF50BFF
:1026C000661F771F881F991F1A9469F76095709588
:1026D000809590959B01AC01BD01CF010895A29F0B
:1026E000B001B39FC001A39F700D811D1124911DE6
:1026F000B29F700D811D1124911D08955058BB2764
:10270000AA270E9496130C94B2120E94A41238F0C9
:102710000E94AB1220F039F49F3F19F426F40C9478
:10272000A1120EF4E095E7FB0C949B12E92F0E9496
:10273000C31258F3BA17620773078407950720F08E
:1027400079F4A6F50C94E5120EF4E0950B2EBA2F51
:10275000A02D0B01B90190010C01CA01A0011124A7
:10276000FF27591B99F0593F50F4503E68F11A1653
:10277000F040A22F232F342F4427585FF3CF4695E4
:1027800037952795A795F0405395C9F77EF41F1606
:10279000BA0B620B730B840BBAF09150A1F0FF0FD0
:1027A000BB1F661F771F881FC2F70EC0BA0F621FBC
:1027B000731F841F48F4879577956795B795F795AC
:1027C0009E3F08F0B0CF9395880F08F09927EE0F41
:1027D0009795879508950E94FF130C94B2120E945A
:1027E000AB1258F00E94A41240F029F45F3F29F088
:1027F0000C949B1251110C94E6120C94A1120E949D
:10280000C31268F39923B1F3552391F3951B550B2C
:10281000BB27AA2762177307840738F09F5F5F4FB3
:10282000220F331F441FAA1FA9F335D00E2E3AF0F2
:10283000E0E832D091505040E695001CCAF72BD00A
:10284000FE2F29D0660F771F881FBB1F261737075B
:102850004807AB07B0E809F0BB0B802DBF01FF278D
:1028600093585F4F3AF09E3F510578F00C949B12BD
:102870000C94E6125F3FE4F3983ED4F38695779587
:102880006795B795F7959F5FC9F7880F911D969546
:10289000879597F90895E1E0660F771F881FBB1FA2
:1028A000621773078407BA0720F0621B730B840B4F
:1028B000BA0BEE1F88F7E09508950E94641468949F
:1028C000B1110C94E61208950E94CB1288F09F5724
:1028D00098F0B92F9927B751B0F0E1F0660F771F44
:1028E000881F991F1AF0BA95C9F714C0B13091F03A
:1028F0000E94E512B1E008950C94E512672F782F3D
:102900008827B85F39F0B93FCCF3869577956795FE
:10291000B395D9F73EF490958095709561957F4F6A
:102920008F4F9F4F08950E940A1208F48FEF089569
:10293000EE0FFF1F0590F491E02D09940F931F9364
:10294000CF93DF938230910510F482E090E0E09124
:102950005503F091560330E020E0B0E0A0E030975E
:1029600099F42115310509F44AC0281B390B24308C
:102970003105D8F58A819B816115710589F1FB01CB
:1029800093838283FE0111C04081518102811381B2
:1029900048175907E0F04817590799F4109761F064
:1029A00012960C93129713961C933296CF01DF91D7
:1029B000CF911F910F9108950093550310935603E3
:1029C000F4CF2115310551F04217530738F0A90112
:1029D000DB019A01BD01DF01F801C1CFEF01F9CFA1
:1029E0009093560380935503CDCFFE01E20FF31F62
:1029F000819391932250310939832883D7CF209135
:102A0000530330915403232B41F420910201309160
:102A1000030130935403209353032091000130911C
:102A200001012115310541F42DB73EB74091040154
:102A300050910501241B350BE0915303F091540391
:102A4000E217F307A0F42E1B3F0B2817390778F085
:102A5000AC014E5F5F4F2417350748F04E0F5F1FE4
:102A60005093540340935303819391939FCFF0E08D
:102A7000E0E09CCFCF93DF930097E9F0FC01329721
:102A800013821282A0915503B0915603ED0130E0FC
:102A900020E01097A1F420813181820F931F2091B3
:102AA0005303309154032817390709F061C0F0939C
:102AB0005403E0935303DF91CF910895EA01CE17B9
:102AC000DF07E8F54A815B819E0141155105B1F7A9
:102AD000E901FB83EA8349915991C40FD51FEC1793
:102AE000FD0761F4808191810296840F951FE901B1
:102AF00099838883828193819B838A83F0E0E0E0DD
:102B000012968D919C9113970097B9F52D913C9158
:102B10001197CD010296820F931F2091530330919C
:102B200054032817390739F6309751F51092560398
:102B300010925503B0935403A0935303BCCFD38397
:102B4000C28340815181840F951FC817D90761F452
:102B50004E5F5F4F88819981480F591F5183408391
:102B60008A819B81938382832115310509F0B0CF3F
:102B7000F0935603E09355039ECFFD01DC01C0CFD7
:102B800013821282D7CFB0E0A0E0E9ECF5E10C941B
:102B900018138C01009751F4CB010E949E148C01F4
:102BA000C801CDB7DEB7E0E10C943413FC01E60FA9
:102BB000F71F9C0122503109E217F30708F49DC06A
:102BC000D901CD91DC911197C617D70798F0C53080
:102BD000D10530F3CE0104978617970708F3C61B7B
:102BE000D70B2297C193D1936D937C93CF010E9411
:102BF0003A15D6CF5B01AC1ABD0A4C018C0E9D1E56
:102C0000A0915503B0915603512C412CF12CE12C8D
:102C1000109731F5809153039091540388159905CD
:102C200009F05CC04616570608F058C080910001B4
:102C300090910101009741F48DB79EB74091040136
:102C400050910501841B950BE817F90708F055C052
:102C5000F0935403E0935303F90171836083A0CF91
:102C60008D919C91119712966C90129713967C906F
:102C70001397A815B90559F56C0142E0C40ED11C93
:102C8000CA14DB0420F1AC014A195B09DA0112967F
:102C9000159780F06282738251834083D9016D93CE
:102CA0007C93E114F10471F0D7011396FC93EE9339
:102CB000129776CF22968C0F9D1FF9019183808306
:102CC000F301EFCFF0935603E093550369CF481615
:102CD000590608F42C017D01D3019ACFCB010E9443
:102CE0009E147C01009749F0AE01B8010E94801645
:102CF000C8010E943A15870153CF10E000E050CF81
:102D0000FB01DC0102C001900D9241505040D8F708
:102D10000895FB01DC018D91019080190110D9F318
:102D2000990B0895FB01DC0101900D920020E1F761
:102D3000089510E0C0E7D0E004C0FE010E9498149E
:0C2D40002196C137D107C9F7F894FFCFE6
:102D4C000000570380009B019E01A901B901C60137
:102D5C00CF01000000007F019F00CC00CC013D01A1
:102D6C00DB002F0100000000530326039504FC0236
:102D7C001F030C03FD022F2F22225C5C6208660CE1
:102D8C006E0A720D7409000D0A004572726F723A68
:102D9C002000795F76656C6F636974790038206305
:102DAC0068616E6E656C20536572766F2074657306
:102DBC007421005374617274696E6720696E20000F
:102DCC00207365636F6E6428732921004D6F746FD7
:102DDC0072205374617274656421004F6B00456DF1
:102DEC00707479496E70757400496E636F6D706C98
:102DFC00657465496E70757400496E76616C6964B2
:102E0C00496E707574004E6F4D656D6F727900541C
:082E1C006F6F44656570000052
:00000001FF
