:100000000C9471000C9499000C9499000C94990034
:100010000C9499000C9499000C9499000C949900FC
:100020000C9499000C9499000C9499000C949900EC
:100030000C9499000C9499000C9499000C949900DC
:100040000C94E10E0C9499000C94AF0E0C94890E54
:100050000C9499000C9499000C9499000C949900BC
:100060000C942B0F0C949900000020410000C84212
:1000700000401C4620BCBE4CCA1B0E5AAEC59D7427
:10008000CDCCCC3D0AD7233C17B7D13877CC2B3217
:100090009595E6241FB14F0A0000000025002800B6
:1000A0002B000404040404040404020202020202F9
:1000B000030303030303010204081020408001022C
:1000C00004081020010204081020000000080002AB
:1000D00001000003040700000000000000004A10B7
:1000E000691111241FBECFEFD8E0DEBFCDBF11E0F4
:1000F000A0E0B1E0E0EAFCE202C005900D92AE3B68
:10010000B107D9F723E0AEEBB1E001C01D92AB33EC
:10011000B207E1F710E0C0E7D0E004C02197FE018C
:100120000E944214CF36D107C9F70E9497100C9451
:1001300043160C9400000895089508950895AF9211
:10014000BF92CF92DF92EF92FF920F931F93CF93C4
:10015000DF936C017B018B01040F151FEB015E0126
:10016000AE18BF08C017D10759F06991D601ED91BB
:10017000FC910190F081E02DC6010995892B79F75A
:10018000C501DF91CF911F910F91FF90EF90DF900C
:10019000CF90BF90AF900895FC01538D448D252FD3
:1001A00030E0842F90E0821B930B541710F0CF9611
:1001B000089501970895FC01918D828D981761F043
:1001C000A28DAE0FBF2FB11D5D968C91928D9F5F5A
:1001D0009F73928F90E008958FEF9FEF08952FB750
:1001E000F89480912B0290912C02A0912D02B09155
:1001F0002E022FBF8093890290938A02A0938B02D4
:10020000B0938C0281E892E00E94DB0097FF26C049
:100210002FB7F89480912B0290912C02A0912D027F
:10022000B0912E022FBF4091890250918A026091B5
:100230008B0270918C02841B950BA60BB70B40911F
:10024000850250918602609187027091880284171E
:100250009507A607B707B0F28FEF9FEF0895FC014F
:10026000918D828D981731F0828DE80FF11D858D6B
:1002700090E008958FEF9FEF0895FC01918D228DFE
:10028000892F90E0805C9F4F821B91098F73992783
:10029000089581E892E00E943D0121E0892B09F454
:1002A00020E0822F089580E090E0892B29F00E94C1
:1002B000490181110C9400000895FC01A48DA80F40
:1002C000B92FB11DA35ABF4F2C91848D90E0019698
:1002D0008F739927848FA689B7892C93A089B189B8
:1002E0008C91837080648C93938D848D981306C059
:1002F0000288F389E02D80818F7D80830895EF92BD
:10030000FF920F931F93CF93DF93EC0181E0888FCF
:100310009B8D8C8D98131AC0E889F989808185FF9F
:1003200015C09FB7F894EE89FF896083E889F98941
:1003300080818370806480839FBF81E090E0DF9143
:10034000CF911F910F91FF90EF900895F62E0B8D96
:1003500010E00F5F1F4F0F731127E02E8C8D8E1151
:100360000CC00FB607FCFACFE889F989808185FFB8
:10037000F5CFCE010E945D01F1CFEB8DEC0FFD2F8B
:10038000F11DE35AFF4FF0829FB7F8940B8FEA8973
:10039000FB8980818062CFCFCF93DF93EC01888D82
:1003A0008823B9F0AA89BB89E889F9898C9185FDF0
:1003B00003C0808186FD0DC00FB607FCF7CF8C917E
:1003C00085FFF2CF808185FFEDCFCE010E945D01D8
:1003D000E9CFDF91CF91089590E0FC01E653FF4F04
:1003E0002491FC01EA54FF4F3491FC01EE55FF4F7C
:1003F000E491EE23C9F0222339F0233001F1A8F46F
:10040000213019F1223029F1F0E0EE0FFF1FE856FC
:10041000FF4FA591B4918FB7F894EC91611126C06C
:1004200030953E233C938FBF08952730A9F02830A4
:10043000C9F0243049F7809180008F7D03C08091FE
:1004400080008F7780938000DFCF84B58F7784BD65
:10045000DBCF84B58F7DFBCF8091B0008F77809309
:10046000B000D2CF8091B0008F7DF9CF3E2BDACF94
:100470003FB7F8948091230290912402A091250225
:10048000B091260226B5A89B05C02F3F19F0019612
:10049000A11DB11D3FBFBA2FA92F982F8827BC01DE
:1004A000CD01620F711D811D911D42E0660F771F06
:1004B000881F991F4A95D1F708958F929F92AF9206
:1004C000BF92CF92DF92EF92FF924B015C010E94AC
:1004D00038026B017C010E9438026C197D098E097B
:1004E0009F09683E734081059105A8F321E0821AB7
:1004F0009108A108B10888EEC80E83E0D81EE11C5F
:10050000F11C81149104A104B10429F7FF90EF902C
:10051000DF90CF90BF90AF909F908F900895DC01B7
:10052000ED91FC910190F081E02D09942091FF0163
:10053000260F3327331F21323105ECF42091550269
:10054000FC0190E080E0243069F082E00895A09101
:10055000FF012191AC0141525E4FA40FB52FB11D97
:100560002C930196861798F38091FF01680F609392
:10057000FF0180E0089581E008951092550281E026
:100580008093540210924F0261E082E10E94EC01DC
:1005900061E083E10E94EC01E9EBF0E080818E7F75
:1005A000808380818D7F808388E48093B80085E498
:1005B0008093BC000895CF93DF9391E09093DE0188
:1005C0008823B9F0C091B800D091BA008091BC00E6
:1005D0008A7B8093BC0060E082E10E94EC0160E0D5
:1005E00083E10E94EC010E94BD02D093BA00C09347
:1005F000B800DF91CF9108950895E0915C02809159
:100600005B02E81730F4F0E0E35AFD4F808190E0A0
:1006100008958FEF9FEF089590915C0280915B02A7
:100620002FEF3FEF981748F4E92FF0E0E35AFD4F22
:10063000208130E09F5F90935C02C9010895809112
:100640005B0290915C02891B990B0895CF92DF9217
:10065000EF92FF920F931F93CF93DF937C01CB0117
:100660008A0120918002222389F0EB016B01C40EE4
:10067000D51ECC15DD0569F06991D701ED91FC918E
:100680000190F081E02DC7010995F3CF642F0E94FE
:100690009602C801DF91CF911F910F91FF90EF90CB
:1006A000DF90CF900895CF93DF931F92CDB7DEB741
:1006B0006983209180022223F9F020917D0220326B
:1006C00058F021E030E0FC013383228390E080E0A9
:1006D0000F90DF91CF91089580917E02E82FF0E096
:1006E000E254FE4F998190838F5F80937E028093C6
:1006F0007D0281E090E0ECCF61E0CE0101960E94A6
:100700009602F7CFCF92DF92EF92FF920F931F9353
:10071000CF93DF93D0917D0281E0D13208F09CC06D
:10072000C0917F020E9438026B017C0180915502CA
:1007300081116CC082E08093550281E08093540265
:100740008FEF8093530210925202D0935102AEEB7E
:10075000B1E0EFE2F2E080E0D8138DC010925002D9
:1007600080915002CC0FC82BC093500280914F0251
:10077000813009F084C010924F020E9438026B0150
:100780007C01809150028093BB0080915702909130
:100790005802A0915902B0915A02892B8A2B8B2BB7
:1007A000A1F00E9438020091570210915802209146
:1007B000590230915A026C197D098E099F0906175A
:1007C00017072807390708F442C08091BC0083FD51
:1007D000D8CF85EC8093BC000E9438026B017C016D
:1007E00080915502823009F44CC0809153028F3FB2
:1007F00009F469C080915302803209F466C0809187
:100800005302803309F463C084E026C0809157020C
:1008100090915802A0915902B0915A02892B8A2BCB
:100820008B2B09F483CF0E9438020091570210915C
:1008300058022091590230915A026C197D098E0993
:100840009F09061717072807390708F06FCF80910F
:1008500056020E94DB0285E010927E0210927D0219
:1008600010928002DF91CF911F910F91FF90EF9036
:10087000DF90CF9008959D9191938F5F6DCF85EE1E
:10088000A9CF8091570290915802A0915902B0913E
:100890005A02892B8A2B8B2B09F4A2CF0E94380293
:1008A00000915702109158022091590230915A023A
:1008B0006C197D098E099F09061717072807390744
:1008C00008F08ECFC4CF80E0C7CF82E0C5CF83E0F1
:1008D000C3CF1F93CF93DF93162FC0E3D3E0A9813B
:1008E000BA81988121E02093800290937F02109238
:1008F0007E0210927D02ED91FC9111970190F081A2
:10090000E02D682FCD01099589819A81DC01ED9157
:10091000FC910190F081E02D612F099589819A81E8
:10092000DF91CF911F910C94820390E080E00895B5
:1009300080339CF08A3324F08F3524F08B3724F4F5
:1009400081E0089581344CF08B35D4F393ED980F0A
:1009500081E09230B0F380E008958B32B9F7F0CFA8
:10096000FC018685811114C0A185B285838594859B
:100970002FEF3FEFA817B90730F4CD01019692870A
:1009800081872C9130E037FD20E0258781E0868744
:10099000858508951F93CF93DF93EC01162F0E9456
:1009A000B004811306C01E8681E0DF91CF911F91B4
:1009B000089580E0FACFCF93DF93EC01CE010E943F
:1009C000B0048B303CF489304CF4882349F081E04A
:1009D000888710C08D3011F08032C9F71E86EECFA7
:1009E000888581110AC081E090E0CF5ADF4F99835A
:1009F000888380E0DF91CF91089582E090E0F5CF89
:100A0000FC0124813581A9014F5F5F4F8681978169
:100A10004817590748F48281938155834483FC0128
:100A2000E20FF31F608308950190F081E02D81E0D3
:100A3000808708959F92AF92BF92CF92DF92EF92FC
:100A4000FF920F931F93CF93DF9300D000D01F929C
:100A5000CDB7DEB78C010E94B004D82ED8011E9607
:100A60001C92F12CE12C60EFC62EC8010E94B0044C
:100A7000F8011686D81609F4BDC0811119C0F80115
:100A8000EF5AFF4F82E090E09183808380E00F90E7
:100A90000F900F900F900F90DF91CF911F910F91BA
:100AA000FF90EF90DF90CF90BF90AF909F90089510
:100AB0008C3509F09DC0C8010E94B0048823F9F26A
:100AC000E6E3F1E0853709F087C0D8011E961C9255
:100AD00054E0952EB12CA12CC8010E94B0048823AB
:100AE00071F281344CF48053803148F0F801EF5AB0
:100AF000FF4F83E090E0C8CF8F7D8753F5CF44E070
:100B0000AA0CBB1C4A95E1F7A82AF80116869A940C
:100B10009110E2CFC501985D8115944020F47501D4
:100B200023E0F222A2CFC5019C5D81159440A8F478
:100B3000B3E0BB22B701762F6627770F770F6A29BC
:100B40007B2990E080E00196603871058105910570
:100B500040F4C8010E94000588CFB50190E080E014
:100B6000F3CF1982262F2F7320682A8326E09695CB
:100B70008795779567952A95D1F76032710580F44E
:100B8000606C6B835E01E4E0AE0EB11CD5016E912A
:100B90005D01662309F469CFC8010E940005F6CF04
:100BA000262F2F7320682B8386E0769567958A958C
:100BB000E1F76031710538F4606E6C835E01F5E039
:100BC000AF0EB11CE3CF60686C83CD825E0126E07E
:100BD000A20EB11CDBCF32969081992309F486CF07
:100BE0008913F9CF8181882309F480CFF801168613
:100BF000682FAFCF0190F081E02D8085882331F000
:100C0000F801EF5AFF4F84E090E03ECF81E03FCF04
:100C10004F925F926F927F928F929F92AF92BF920C
:100C2000CF92DF92EF92FF920F931F93CF93DF93B8
:100C3000EC018B0188818B32C9F18D32C1F521968F
:100C4000FF24F394888190ED980F9A3018F08E323B
:100C500009F04DC160E070E0CB01FE012191A0EDF3
:100C60008A2E820E39E0381520F16A3949E9740775
:100C7000840749E1940738F5AAE0B0E09B01AC0194
:100C80000E94B512912CB12CA12C24013501409465
:100C9000509460947094461657066806790698F04A
:100CA000680D791D8A1D9B1DEF01D7CF2196F12C70
:100CB000C9CF211108C0FF20F1F161307105810514
:100CC00050E89507A0F0E12CEAE08E2E912CA12CA3
:100CD000B12C61157105F0E88F079105C0F1A501F0
:100CE00094010E94F712CA01B901E394F2CFF8010E
:100CF000248120782A6024839B01AC0188279927CE
:100D0000DC01821B930BA40BB50B80839183A28320
:100D1000B3838F2DDF91CF911F910F91FF90EF90B3
:100D2000DF90CF90BF90AF909F908F907F906F900B
:100D30005F904F900895F8012481207828602483E3
:100D40006083718382839383FF24F394E2CFFE0157
:100D5000299130ED320F3A3010F4E394F8CF2E326F
:100D6000F1F4EF012196FE012196208150EDD52E60
:100D7000D20E29E02D1598F06C3C3CEC73073CE05A
:100D80008307910580F7AAE0B0E09B01AC010E94C7
:100D9000B5126D0D711D811D911DEA94E4CF208166
:100DA0002F7DD0E0C0E0253409F05DC021812D32D7
:100DB000D9F53296CC24C394DF01D0E0C0E02E2DCB
:100DC0000E2C000C330B4AE0B42EFD01DD9040EDFB
:100DD0004D0D4A3008F042C0BC9EA001BD9E500D92
:100DE0001124CD2DDD0CDD0BE097C40FD51FAE0116
:100DF000420F531F4732510544F3F8018481CC2040
:100E0000D1F040E050E060E070E8F11003C040E055
:100E100050E0BA0180788C60F8018483408351836C
:100E200062837383FC2C75CF2B3219F03196C12C61
:100E3000C3CF3296FCCF40E050E060E87FEFF11086
:100E400004C040E050E060E87FE780788C60F80103
:100E50008483408351836283738376CFCC2019F0DF
:100E6000D195C195D1092081211141C0CE0DD11D4F
:100E7000E7FCDA950E9477111C161D0604F5E12C9B
:100E8000C0FF0CC024E0E29EF0011124E859FF4F9E
:100E900025913591459154910E94D811D595C795CA
:100EA000E394209769F7F1109058F8012481207895
:100EB0002C602483608371838283938345CFD19593
:100EC000C195D109E12C209771F3C0FF0CC044E01B
:100ED000E49EF0011124E058FF4F25913591459192
:100EE00054910E94D811D595C795E394ECCFF12C7D
:100EF00010CFCF92DF92EF92FF92CF93DF9300D08B
:100F000000D01F92CDB7DEB7FC0184818F77863089
:100F1000A9F020F4843080F580E011C08A30D9F047
:100F20008C30B9F18830C1F780819181A281B38181
:100F300080389105A105B10578F701C080810F9037
:100F40000F900F900F900F90DF91CF91FF90EF9047
:100F5000DF90CF90089580819181A281B381AC010F
:100F6000BD0140585F4F6F4F7F4F4F3F51056105A7
:100F7000710509F088F6E3CF808191811D82BE0161
:100F80006F5F7F4F0E940806CE0101960E9479078D
:100F9000D6CFC080D180E280F38020E030E040E016
:100FA00053ECC701B6010E943D1487FDB5CF20E088
:100FB00030E04EEF52E4C701B6010E9472111816DC
:100FC0000CF4AACFC701B6010E940714862FB7CF31
:100FD000CF93DF93DC01EB01EC81FD818A819B8162
:100FE0000896E817F90740F481E08887F0E0E0E030
:100FF000CF01DF91CF9108953897FD83EC8330972F
:10100000B9F31296CD91DC911397209791F0CF010F
:101010008C1B9D0B23E0959587952A95E1F78D8391
:101020001396FC93EE931297158214821782168200
:10103000DFCF1196FC93EE93F3CFEF92FF920F93D5
:101040001F93CF93DF937C01DC0112962D913C918D
:101050001397ED91FC91AB01420F531FEF01C60FA7
:10106000D71FC217D307A0F4888181110BC0E901F3
:10107000CF014C175D0751F00991DC011D91CD01A5
:101080000117B9F381918111FDCFE8CF309751F469
:10109000620F731FCB010196F70193838283DB01FB
:1010A0001C92F901CF01DF91CF911F910F91FF9019
:1010B000EF900895CF92DF92EF92FF920F931F93DC
:1010C000CF93A0913103B09132039091300321E08E
:1010D0002093800290937F0210927E0210927D02F4
:1010E000ED91FC9111970190F081E02D682FCD01D9
:1010F000099580913103909132030E948203C0913F
:1011000030030E9438026B017C01809155028111ED
:1011100064C081E080935502809354029FEF9093C6
:101120005302109252021092510280935002809109
:101130005002CC0FC82BC093500280914F028130D7
:1011400009F088C010924F020E9438026B017C01A6
:10115000809150028093BB00809157029091580279
:10116000A0915902B0915A02892B8A2B8B2BA1F0A6
:101170000E943802009157021091580220915902A2
:1011800030915A026C197D098E099F0906171707BD
:101190002807390708F442C08091BC0083FDD8CFEE
:1011A00085EC8093BC000E9438026B017C01809129
:1011B0005502813009F450C08091520281116EC0F5
:1011C00080915202EFE2F2E0ADE5B2E090E09817D4
:1011D00051F121912D939F5FFACF80915702909109
:1011E0005802A0915902B0915A02892B8A2B8B2B5D
:1011F00009F48BCF0E9438020091570210915802D7
:101200002091590230915A026C197D098E099F096B
:10121000061717072807390708F077CF809156027D
:101220000E94DB0280E010925C0280935B0280915E
:10123000310390913203DC01ED91FC910284F3853E
:10124000E02D0995CF911F910F91FF90EF90DF90C6
:10125000CF90089585EEA5CF8091570290915802C6
:10126000A0915902B0915A02892B8A2B8B2B09F439
:101270009ECF0E943802009157021091580220918F
:10128000590230915A026C197D098E099F0906177F
:1012900017072807390708F08ACFC0CF81E092CF1F
:1012A0008F929F92AF92BF92CF92DF92EF92FF9276
:1012B000CF936B017C0120E030E040E85FE30E94C7
:1012C000721187FD7AC020E030EC4AE555E4C70191
:1012D000B6010E943D1418163CF4C12C30ECD32EFC
:1012E0003AE5E32E35E4F32E609133037091340335
:1012F00080913503909136030E9477114B015C0178
:1013000020E030E040E855E4C701B6010E94D81162
:101310009B01AC01C501B4010E94951320E030E0AF
:1013200040E05FE30E94291320E030E040E85FE303
:101330000E9428136B017C0120E030E040E450E47F
:101340000E94721187FD40C020E030E04FE753E477
:10135000C701B6010E943D14181634F4C12CD12CDB
:101360009FE7E92E93E4F92E80E00E945A08C82FE7
:10137000682F6F76606180E00E946904C701B60142
:101380000E940E148EEF0E9469046C2F80E00E9470
:10139000690465E070E080E090E00E945D026C2FDF
:1013A000606A80E0CF91FF90EF90DF90CF90BF9088
:1013B000AF909F908F900C946904C12CD12C20E8A1
:1013C000E22E2FE3F22E90CFC12CD12C80E4E82E18
:1013D000FE2CCACFFC0101900020E9F73197AF0144
:1013E000481B590BBC0181E892E00C949F00CF93FD
:1013F000DF93D0E0C0E0009719F00E94EA09EC0109
:1014000087E491E00E94EA098C0F9D1FDF91CF9144
:1014100008954F925F926F927F92AF92BF92CF9258
:10142000DF92EF92FF920F931F93CF93DF93CDB78D
:10143000DEB7A1970FB6F894DEBF0FBECDBF8C010B
:10144000262F660F330B440B550B21583F4F4F4F40
:101450005F4FA0E2B3E00E94B5122EEF30E040E013
:1014600050E00E94961269017A018CE4C80E84E073
:10147000D81EE11CF11CA701960119A25E01A1E290
:10148000AA0EB11C6AE0462E512C612C712CCA01A7
:10149000B901A30192010E94F712605DF501629308
:1014A0005F01211531054105510589F7309719F084
:1014B000CF010E94EA0987E491E00E94EA09B6019F
:1014C00090E080E00E9477116B017C018EEF0E941A
:1014D0005A08682F70E06F5F7F4F90E080E00E94B5
:1014E000771120E034E244E759E40E94D8112B013F
:1014F0003C016091330370913403809135039091E6
:1015000036030E9477119B01AC01C301B2010E9416
:1015100095139B01AC01C701B6010E9495130E946F
:101520000E147B018091310390913203209130039E
:1015300031E03093800220937F0210927E0210925D
:101540007D02B801660F771F660F771F6A5F7F4FB6
:10155000DC01ED91FC910190F081E02D099570E0A6
:1015600060E080913103909132030E948F0270E01D
:1015700060E080913103909132030E948F02B701A5
:1015800080913103909132030E948F026F2D70E0A1
:1015900080913103909132030E948F028091310338
:1015A000909132030E948203A1960FB6F894DEBF99
:1015B0000FBECDBFDF91CF911F910F91FF90EF90A4
:1015C000DF90CF90BF90AF907F906F905F904F90E3
:1015D00008950F931F93CF93DF93EC018881998136
:1015E000009759F02A813B812617370730F081E0B8
:1015F000DF91CF911F910F9108958B016F5F7F4F06
:101600000E946D15009759F0998388831B830A8384
:101610002C813D81232B59F7FC011082E8CF80E01B
:10162000E7CF0F931F93CF93DF93EC018B010E94C1
:10163000E90A28813981811112C02115310519F07B
:10164000C9010E94E414198218821D821C821B8227
:101650001A82CE01DF91CF911F910F9108951D83C2
:101660000C8366E471E0C9010E943C16F2CF85ED5F
:101670008093BC008091570290915802A09159022A
:10168000B0915A020796A11DB11D23E0B695A7950A
:10169000979587952A95D1F72091BC0024FD03C02A
:1016A000109255020895409157025091580260914E
:1016B000590270915A02452B462B472B69F300972C
:1016C000A105B10541F02AE22A95F1F700C0019782
:1016D000A109B109E1CF809156020C94DB020F936E
:1016E0001F93CF93DF9361157105B9F08B01FC0156
:1016F000C081D181209799F06E817F81C8010E94BD
:101700003316892B61F08D81882339F0F8E08F0240
:10171000C0011124C80FD91FEDCFD0E0C0E0CE0129
:10172000DF91CF911F910F9108959F92AF92BF9239
:10173000CF92DF92EF92FF920F931F93CF93DF939D
:10174000EC018B01E42E0E94DB04D82E81110EC027
:10175000F12C8F2DDF91CF911F910F91FF90EF9082
:10176000DF90CF90BF90AF909F900895CE010E94E0
:10177000B004873209F42CC114F5823209F428C16F
:10178000CE010E94B004E82E5E01F1E1AF0EB11C63
:10179000F12C9A2CCB2C8E2D0E949804882309F4CE
:1017A00043C18FE3F81609F43FC11E86F394F50197
:1017B000E1925F01CE010E94B004E82EECCF8B35A0
:1017C00009F44AC08B37E1F6F801848180788062A1
:1017D00084831182108213821282EE2009F447C0A2
:1017E0001E86CE010E94DB04882309F4B1CF6DE789
:1017F000CE010E94CA04F82E81114FC0CC24C3949C
:10180000EA94E881F981828193819B838A83848130
:10181000958122813381821B930B9F838E831D824E
:101820001C82892B09F4C086CE010E94B004873245
:1018300009F460C0823209F45DC0CE010E94B00498
:10184000D82E0E9498048111AEC0CF5ADF4F83E09A
:1018500090E0998388837DCFF801848180788064CB
:1018600084831182108213821282E11007C0CF5A42
:10187000DF4F85E090E0998388836ACF1E86CE0192
:101880000E94DB04882309F463CF6DE5CE010E943A
:10189000CA04F82EEA94882311F0FD2C5ACF6F85E4
:1018A0007889C8010E94E807009729F4CF5ADF4FD2
:1018B00084E090E0CECF4E2DBC01CE010E94950B6E
:1018C000882309F445CFCE010E94DB04882309F464
:1018D0003FCF6DE5CE010E94CA048111DECF6CE2DC
:1018E000CE010E94CA048111DACFCF5ADF4F83E0C4
:1018F00090E0C1CFCE010E941A05882309F429CFB8
:10190000CE010E94DB04882309F423CF6AE3CE01D1
:101910000E94CA04882309F498CFEA81FB818C8154
:101920009D81E80FF91F1082AC80BD806A817B81A8
:10193000C8010E946F0BBC01892BA9F4B5018881F5
:1019400099810E941D085C016F857889C8010E94F9
:10195000E807FC01892B09F4A9CF8481806884837E
:10196000B782A682BF014E2DCE010E94950B88231F
:1019700009F4EFCECE010E94DB04882309F4E9CEFE
:101980006DE7CE010E94CA04811120C06CE2CE0135
:101990000E94CA04882309F458CFCE010E94DB04B8
:1019A00081112FCFD6CE1E866D2DCE010E9400054F
:1019B000CE010E94B004D82E0E9498048111F3CF6A
:1019C000E881F9818085811171CF9ACFF82EC1CE3F
:1019D000E881F981828193819B838A8384819581C7
:1019E00022813381821B930B9F838E831D821C82F5
:1019F000892B11F481E08087CE010E941A05F82E10
:101A0000882309F4A5CECC80DD80B6018881998138
:101A10000E941D08F8012481207825602483918389
:101A20008083D382C28295CEFE01EF0DF11D118A13
:101A30008989843781F4F801848180788660848381
:101A400081E08083F4E0FF1609F427CFCF5ADF4FFF
:101A500082E090E010CF863641F4F80184818078EE
:101A6000866084831082F5E0EECF8E3621F484E028
:101A7000F812ECCF12CFB801892D9C2D0E940806D8
:101A8000882309F432CF09CFEF92FF920F931F936F
:101A9000CF93DF93CDB7DEB7C157D1400FB6F894DF
:101AA000DEBF0FBECDBF1A8219821C821B821E822E
:101AB0001D8270E060E08E010F5F1F4FC8010E9421
:101AC000110B0E94EF0097FD26C08A30910519F195
:101AD000C15FDE4F8883CF50D140C05FDE4F188298
:101AE000C051D140ED80FE808FEFE81AF80AB701AF
:101AF000C8010E94E90A882321F329813A818D8156
:101B00009E81BE01615F7E4F820F931F0E943C1633
:101B1000FE82ED82D6CF80912A0390912B0300970D
:101B200009F4B3C069817A816115710509F4ABC00C
:101B300040912C0350912D032D813E814217530774
:101B400008F4A1C00E943C168D819E8190932F03C2
:101B500080932E031E821D8289819A81009711F045
:101B60000E94E414CE010F969A8389839C838B8311
:101B70008FE091E08C0F9D1F9E838D8398878F83CC
:101B800019861E8620912A0330912B0380912E0303
:101B900090912F03820F931FC659DE4F198308833C
:101BA000CA56D14048E0FE01E659FE4FDE01AE596B
:101BB000BE4F01900D924A95E1F748E0FE01EE59C3
:101BC000FE4FDE01A15FBE4F01900D924A95E1F7F5
:101BD000C95EDE4F1882C751D140C85EDE4F3983DF
:101BE0002883C851D140C65EDE4F99838883CA518D
:101BF000D140C35EDE4F1882CD51D140C25EDE4F70
:101C000019830883CE51D140C05ADE4F1982188201
:101C1000C056D1404AE0BE01665F7F4FCE01815F72
:101C20009E4F0E94950BC05ADE4F08811981C05605
:101C3000D1400115110561F4C45EDE4F9881CC518D
:101C4000D1408E859923C1F183FF36C003E010E0B7
:101C50008AE491E00E94EA09000F111FF801EA5F8F
:101C6000FE4F808191810E94F709CF58DE4F0FB659
:101C7000F894DEBF0FBECDBFDF91CF911F910F91C2
:101C8000FF90EF9008950E94E41489819A819093C7
:101C90002B0380932A038B819C8190932D03809347
:101CA0002C038D819E8190932F0380932E031A82A3
:101CB00019821C821B824ECF85FF0AC062E571E04B
:101CC000CE010A960E946F0B009711F00E947907CF
:101CD0006CEE90E080E00E94090A6CEE81E090E0FA
:101CE0000E94090A64E182E090E00E94090A64E12E
:101CF00083E090E00E94090A70E060E08AE293E0ED
:101D00000E94110B68EE73E080E090E00E945D029B
:101D1000ACCF1F920F920FB60F9211242F933F93C7
:101D20004F935F936F937F938F939F93AF93BF93E3
:101D3000EF93FF9381E892E00E945D01FF91EF91A4
:101D4000BF91AF919F918F917F916F915F914F91D3
:101D50003F912F910F900FBE0F901F9018951F92DB
:101D60000F920FB60F9211242F938F939F93EF939F
:101D7000FF93E0919102F09192028081E0919702AD
:101D8000F091980282FD1BC0908180919A028F5F32
:101D90008F7320919B02821741F0E0919A02F0E04C
:101DA000EF57FD4F958F80939A02FF91EF919F918E
:101DB0008F912F910F900FBE0F901F9018958081DB
:101DC000F4CF1F920F920FB60F9211242F933F93CF
:101DD0008F939F93AF93BF9380912B0290912C028E
:101DE000A0912D02B0912E023091220223E0230F08
:101DF0002D3758F50196A11DB11D20932202809325
:101E00002B0290932C02A0932D02B0932E0280916E
:101E1000230290912402A0912502B09126020196FE
:101E2000A11DB11D8093230290932402A09325024B
:101E3000B0932602BF91AF919F918F913F912F91C7
:101E40000F900FBE0F901F90189526E8230F029653
:101E5000A11DB11DD2CF1F920F920FB60F92112468
:101E60002F933F934F935F936F937F938F939F93A2
:101E7000AF93BF93EF93FF938091B900887F803633
:101E800009F44AC0F0F5883209F4A7C018F580318A
:101E900009F49BC0B8F4882309F4F9C0883009F428
:101EA00094C0FF91EF91BF91AF919F918F917F91DE
:101EB0006F915F914F913F912F910F900FBE0F90B7
:101EC0001F901895883109F488C0803251F78093AB
:101ED000530214C0803409F49DC040F48033B9F338
:101EE0008833F9F68093530285ECB0C0803509F44D
:101EF00085C0883509F496C0883499F60E94370B5E
:101F0000D0CF883909F48CC038F5883729F050F4DF
:101F1000883611F0803729F683E0809355021092BD
:101F2000210257C0883809F47BC0803919F0803805
:101F300009F0B7CF80912102803208F071C0E091A2
:101F4000210281E08E0F809321028091BB00F0E09E
:101F5000EF5FFD4F80833DC0803B39F0E0F4803A75
:101F600009F479C0883A09F09CCF84E08093550247
:101F7000109200021092FF01E0912902F0912A02D2
:101F800009958091FF0181110FC081E08093FF01CD
:101F90001092DF0109C0803C09F4A6CF883C09F407
:101FA000A3CF883B09F07DCFE091000281E08E0F46
:101FB00080930002F0E0E152FE4F80818093BB00ED
:101FC000909100028091FF0129C08091500280937E
:101FD000BB0085EC8093BC0064CF9091520280914D
:101FE0005102981758F5E091520281E08E0F8093CC
:101FF0005202F0E0E15DFD4F8081E9CFE0915202B5
:1020000081E08E0F809352028091BB00F0E0E15D91
:10201000FD4F808390915202809151029817C8F22F
:1020200085E8D8CFE091520281E08E0F8093520272
:102030008091BB00F0E0E15DFD4F80838091540210
:1020400081115CCF81E080934F0284EA8093BC00D1
:102050001092550226CF85EC8093BC001092550259
:1020600080912102803230F4E0912102F0E0EF5FB4
:10207000FD4F10826091210270E0E0912702F09103
:10208000280281E092E00995109221020ACF109275
:10209000530234CFE1E8F2E01382128288EE93E03B
:1020A000A0E0B0E084839583A683B78326E131E086
:1020B0003183208325EC30E03587248724EC30E021
:1020C0003787268720EC30E0318B208B21EC30E005
:1020D000338B228B22EC30E0358B248B26EC30E0E6
:1020E000378B268B118E128E138E148EEEE1F3E059
:1020F0001382128284839583A683B78388E291E05A
:1021000091838083A0E3B3E080E48C931296FC93E8
:10211000EE931197EAE2F3E01182108213821282A9
:102120001582148270E060E0CF010C94110B78945A
:1021300084B5826084BD84B5816084BD85B58260CC
:1021400085BD85B5816085BD80916E00816080937D
:102150006E001092810080918100826080938100E6
:1021600080918100816080938100809180008160F6
:10217000809380008091B10084608093B100809151
:10218000B00081608093B00080917A008460809379
:102190007A0080917A00826080937A0080917A0040
:1021A000816080937A0080917A00806880937A00C1
:1021B0001092C100E0919102F091920282E080833E
:1021C000E0918D02F0918E021082E0918F02F091E9
:1021D00090028FEC808310929902E0919502F09129
:1021E000960286E08083E0919302F09194028081D0
:1021F00080618083E0919302F091940280818860F5
:102200008083E0919302F0919402808180688083C2
:10221000E0919302F091940280818F7D80838DE51F
:1022200091E00E94F70910925C0210925B021092FA
:102230007E0210927D020E94BD028BE990E0909395
:102240002A02809329028CE990E0909328028093DF
:10225000270260E880E00E9469046AE070E080E0A4
:1022600090E00E945D0260E070E08AE794E40E94E2
:10227000500980EC9CEFABE9B1E08093330390937D
:102280003403A0933503B093360360E070E088E434
:1022900092E40E94500968E57BE180E090E00E94B2
:1022A0005D0283E791E00E94F709C0E0D0E081E899
:1022B00092E00E943D011816190614F40E94440D84
:1022C0002097A9F30E944901882389F30E94000006
:1022D000EECF80912A0390912B03009711F00C947C
:1022E000E41408950E94B41108F481E00895E8947C
:1022F00009C097FB3EF490958095709561957F4F4E
:102300008F4F9F4F9923A9F0F92F96E9BB279395FB
:10231000F695879577956795B795F111F8CFFAF40B
:10232000BB0F11F460FF1BC06F5F7F4F8F4F9F4F3C
:1023300016C0882311F096E911C0772321F09EE89A
:10234000872F762F05C0662371F096E8862F70E000
:1023500060E02AF09A95660F771F881FDAF7880FDA
:102360009695879597F90895990F0008550FAA0B30
:10237000E0E8FEEF16161706E807F907C0F0121698
:102380001306E407F50798F0621B730B840B950B9B
:1023900039F40A2661F0232B242B252B21F40895F0
:1023A0000A2609F4A140A6958FEF811D811D08958D
:1023B0000E94EB110C945C120E944E1238F00E94A5
:1023C000551220F0952311F00C9445120C944B12E9
:1023D00011240C9490120E946D1270F3959FC1F31A
:1023E000950F50E0551F629FF001729FBB27F00DC3
:1023F000B11D639FAA27F00DB11DAA1F649F662718
:10240000B00DA11D661F829F2227B00DA11D621F66
:10241000739FB00DA11D621F839FA00D611D221F20
:10242000749F3327A00D611D231F849F600D211D04
:10243000822F762F6A2F11249F5750409AF0F1F087
:1024400088234AF0EE0FFF1FBB1F661F771F881FF0
:1024500091505040A9F79E3F510580F00C944512D1
:102460000C9490125F3FE4F3983ED4F386957795F1
:102470006795B795F795E7959F5FC1F7FE2B880F96
:10248000911D9695879597F9089597F99F6780E82C
:1024900070E060E008959FEF80EC089500240A94B6
:1024A0001616170618060906089500240A9412162F
:1024B0001306140605060895092E0394000C11F462
:1024C000882352F0BB0F40F4BF2B11F460FF04C00F
:1024D0006F5F7F4F8F4F9F4F089557FD9058440F68
:1024E000551F59F05F3F71F04795880F97FB991F73
:1024F00061F09F3F79F08795089512161306140630
:10250000551FF2CF4695F1DF08C0161617061806BC
:10251000991FF1CF86957105610508940895E89497
:10252000BB2766277727CB0197F90895052E97FBE0
:102530001EF400940E94AD1257FD07D00E94F712BE
:1025400007FC03D04EF40C94AD1250954095309595
:1025500021953F4F4F4F5F4F08959095809570950F
:1025600061957F4F8F4F9F4F08950E941913A59F2C
:10257000900DB49F900DA49F800D911D112408957E
:102580002F923F924F925F926F927F928F929F9283
:10259000AF92BF92CF92DF92EF92FF920F931F9371
:1025A000CF93DF93CDB7DEB7CA1BDB0B0FB6F89422
:1025B000DEBF0FBECDBF09942A88398848885F8462
:1025C0006E847D848C849B84AA84B984C884DF80D3
:1025D000EE80FD800C811B81AA81B981CE0FD11DB7
:1025E0000FB6F894DEBF0FBECDBFED010895A1E296
:1025F0001A2EAA1BBB1BFD010DC0AA1FBB1FEE1F7D
:10260000FF1FA217B307E407F50720F0A21BB30BC7
:10261000E40BF50B661F771F881F991F1A9469F743
:1026200060957095809590959B01AC01BD01CF019F
:102630000895A29FB001B39FC001A39F700D811D9B
:102640001124911DB29F700D811D1124911D0895BB
:102650005058BB27AA270E9440130C945C120E947A
:102660004E1238F00E94551220F039F49F3F19F4B1
:1026700026F40C944B120EF4E095E7FB0C944512F3
:10268000E92F0E946D1258F3BA1762077307840787
:10269000950720F079F4A6F50C948F120EF4E095CE
:1026A0000B2EBA2FA02D0B01B90190010C01CA010C
:1026B000A0011124FF27591B99F0593F50F4503EB7
:1026C00068F11A16F040A22F232F342F4427585FA9
:1026D000F3CF469537952795A795F0405395C9F7C1
:1026E0007EF41F16BA0B620B730B840BBAF0915079
:1026F000A1F0FF0FBB1F661F771F881FC2F70EC018
:10270000BA0F621F731F841F48F4879577956795EA
:10271000B795F7959E3F08F0B0CF9395880F08F0D6
:102720009927EE0F9795879508950E94A9130C9409
:102730005C120E94551258F00E944E1240F029F48B
:102740005F3F29F00C94451251110C9490120C9497
:102750004B120E946D1268F39923B1F3552391F344
:10276000951B550BBB27AA2762177307840738F000
:102770009F5F5F4F220F331F441FAA1FA9F335D05D
:102780000E2E3AF0E0E832D091505040E695001C11
:10279000CAF72BD0FE2F29D0660F771F881FBB1FCB
:1027A000261737074807AB07B0E809F0BB0B802DA9
:1027B000BF01FF2793585F4F3AF09E3F510578F0D5
:1027C0000C9445120C9490125F3FE4F3983ED4F3BE
:1027D000869577956795B795F7959F5FC9F7880FA9
:1027E000911D9695879597F90895E1E0660F771FFB
:1027F000881FBB1F621773078407BA0720F0621B8C
:10280000730B840BBA0BEE1F88F7E09508950E94B6
:102810000E146894B1110C94901208950E947512D0
:1028200088F09F5798F0B92F9927B751B0F0E1F091
:10283000660F771F881F991F1AF0BA95C9F714C041
:10284000B13091F00E948F12B1E008950C948F1274
:10285000672F782F8827B85F39F0B93FCCF386957A
:1028600077956795B395D9F73EF4909580957095D7
:1028700061957F4F8F4F9F4F08950E94B41108F4C8
:102880008FEF0895EE0FFF1F0590F491E02D09944E
:102890000F931F93CF93DF938230910510F482E062
:1028A00090E0E0913903F0913A0330E020E0B0E0AD
:1028B000A0E0309799F42115310509F44AC0281B8E
:1028C000390B24303105D8F58A819B81611571055A
:1028D00089F1FB0193838283FE0111C04081518104
:1028E0000281138148175907E0F04817590799F4F6
:1028F000109761F012960C93129713961C933296D0
:10290000CF01DF91CF911F910F910895009339036B
:1029100010933A03F4CF2115310551F042175307B4
:1029200038F0A901DB019A01BD01DF01F801C1CF37
:10293000EF01F9CF90933A0380933903CDCFFE0195
:10294000E20FF31F81939193225031093983288339
:10295000D7CF2091370330913803232B41F42091B6
:102960000201309103013093380320933703209103
:102970000001309101012115310541F42DB73EB719
:102980004091040150910501241B350BE091370360
:10299000F0913803E217F307A0F42E1B3F0B281722
:1029A000390778F0AC014E5F5F4F2417350748F0C8
:1029B0004E0F5F1F509338034093370381939193D9
:1029C0009FCFF0E0E0E09CCFCF93DF930097E9F05A
:1029D000FC01329713821282A0913903B0913A031D
:1029E000ED0130E020E01097A1F420813181820FC9
:1029F000931F20913703309138032817390709F0C6
:102A000061C0F0933803E0933703DF91CF910895CD
:102A1000EA01CE17DF07E8F54A815B819E01411587
:102A20005105B1F7E901FB83EA8349915991C40F3C
:102A3000D51FEC17FD0761F4808191810296840F08
:102A4000951FE90199838883828193819B838A837F
:102A5000F0E0E0E012968D919C9113970097B9F504
:102A60002D913C911197CD010296820F931F2091D9
:102A70003703309138032817390739F6309751F565
:102A800010923A0310923903B0933803A09337039E
:102A9000BCCFD383C28340815181840F951FC81757
:102AA000D90761F44E5F5F4F88819981480F591FA4
:102AB000518340838A819B819383828321153105D1
:102AC00009F0B0CFF0933A03E09339039ECFFD01B4
:102AD000DC01C0CF13821282D7CFB0E0A0E0E3E7E1
:102AE000F5E10C94C2128C01009751F4CB010E94C5
:102AF00048148C01C801CDB7DEB7E0E10C94DE12BA
:102B0000FC01E60FF71F9C0122503109E217F30781
:102B100008F49DC0D901CD91DC911197C617D70754
:102B200098F0C530D10530F3CE010497861797078A
:102B300008F3C61BD70B2297C193D1936D937C9357
:102B4000CF010E94E414D6CF5B01AC1ABD0A4C0140
:102B50008C0E9D1EA0913903B0913A03512C412C4B
:102B6000F12CE12C109731F58091370390913803C7
:102B70008815990509F05CC04616570608F058C03C
:102B80008091000190910101009741F48DB79EB7AB
:102B90004091040150910501841B950BE817F9073A
:102BA00008F055C0F0933803E0933703F9017183BF
:102BB0006083A0CF8D919C91119712966C90129783
:102BC00013967C901397A815B90559F56C0142E04E
:102BD000C40ED11CCA14DB0420F1AC014A195B09F4
:102BE000DA011296159780F06282738251834083D6
:102BF000D9016D937C93E114F10471F0D701139620
:102C0000FC93EE93129776CF22968C0F9D1FF901BD
:102C100091838083F301EFCFF0933A03E09339037C
:102C200069CF4816590608F42C017D01D3019ACFCB
:102C3000CB010E9448147C01009749F0AE01B80115
:102C40000E942A16C8010E94E414870153CF10E0A5
:102C500000E050CFFB01DC0102C001900D92415019
:102C60005040D8F70895FB01DC018D910190801947
:102C70000110D9F3990B0895FB01DC0101900D922D
:102C80000020E1F7089510E0C0E7D0E004C0FE01A5
:102C90000E9442142196C137D107C9F7F894FFCF9B
:102CA00000003B038000820185019001A001AD017D
:102CB000B601000000007F019F00CC00CC013D0167
:102CC000DB002F0100000000530326039504FC02E3
:102CD0001F030C03FD022F2F22225C5C6208660C8E
:102CE0006E0A720D7409000D0A004572726F723A15
:102CF0002000795F76656C6F6369747900382063B2
:102D000068616E6E656C20536572766F20746573B2
:102D10007421004D6F746F72205374617274656416
:102D200021004F6B00456D707479496E70757400A9
:102D3000496E636F6D706C657465496E7075740073
:102D4000496E76616C6964496E707574004E6F4DA2
:0E2D5000656D6F727900546F6F446565700099
:00000001FF
