:020000040000FA
:100000000C9459000C9481000C9481000C94810094
:100010000C9481000C9481000C9481000C9481005C
:100020000C9481000C9481000C9481000C9481004C
:100030000C9481000C9481000C9481000C9481003C
:100040000C947E050C9481000C944C050C942605B0
:100050000C9481000C9481000C9481000C9481001C
:100060000C9481000C948100CDCCCC3D0AD7233C6C
:1000700017B7D13877CC2B329595E6241FB14F0AAC
:100080000000803FCDCCCC3D6F12833A95BFD63374
:100090007D1D9026B3CE010C000020410000C84217
:1000A00000401C4620BCBE4CCA1B0E5AAEC59D74F7
:1000B0002F0711241FBECFEFD8E0DEBFCDBF11E068
:1000C000A0E0B1E0E0EDF2E102C005900D92A234B3
:1000D000B107D9F722E0A2E4B1E001C01D92A0303F
:1000E000B207E1F710E0C9E5D0E004C02197FE01B6
:1000F0000E945709C835D107C9F70E94C8050C945A
:1001000066090C940000AF92BF92CF92DF92EF92FB
:10011000FF920F931F93CF93DF936C017B018B01B1
:10012000040F151FEB015E01AE18BF08C017D10701
:1001300059F06991D601ED91FC910190F081E02D8B
:10014000C6010995892B79F7C501DF91CF911F91E0
:100150000F91FF90EF90DF90CF90BF90AF900895F8
:10016000FC01538D448D252F30E0842F90E0821BBD
:10017000930B541710F0CF96089501970895FC0142
:10018000918D828D981761F0A28DAE0FBF2FB11D9A
:100190005D968C91928D9F5F9F73928F90E00895F2
:1001A0008FEF9FEF0895FC01918D828D981731F0AC
:1001B000828DE80FF11D858D90E008958FEF9FEF00
:1001C0000895FC01918D228D892F90E0805C9F4FD6
:1001D000821B91098F73992708958BE491E00E9407
:1001E000E10021E0892B09F420E0822F089580E0CE
:1001F00090E0892B29F00E94ED0081110C94000001
:100200000895FC01A48DA80FB92FB11DA35ABF4FAB
:100210002C91848D90E001968F739927848FA68905
:10022000B7892C93A089B1898C91837080648C9359
:10023000938D848D981306C00288F389E02D808108
:100240008F7D80830895EF92FF920F931F93CF933A
:10025000DF93EC0181E0888F9B8D8C8D98131AC001
:10026000E889F989808185FF15C09FB7F894EE89E8
:10027000FF896083E889F989808183708064808345
:100280009FBF81E090E0DF91CF911F910F91FF9090
:10029000EF900895F62E0B8D10E00F5F1F4F0F7338
:1002A0001127E02E8C8D8E110CC00FB607FCFACFF3
:1002B000E889F989808185FFF5CFCE010E9401018F
:1002C000F1CFEB8DEC0FFD2FF11DE35AFF4FF082C4
:1002D0009FB7F8940B8FEA89FB8980818062CFCF2A
:1002E000CF93DF93EC01888D8823B9F0AA89BB896D
:1002F000E889F9898C9185FD03C0808186FD0DC058
:100300000FB607FCF7CF8C9185FFF2CF808185FF78
:10031000EDCFCE010E940101E9CFDF91CF91089589
:100320003FB7F8948091470190914801A09149010D
:10033000B0914A0126B5A89B05C02F3F19F0019640
:10034000A11DB11D3FBFBA2FA92F982F8827BC012F
:10035000CD01620F711D811D911D42E0660F771F57
:10036000881F991F4A95D1F70895FC01A281B38196
:100370008081918130E020E0A817B90738F4CD01E1
:100380000196938382836C9321E030E08481958190
:10039000820F931F958384830895CF93DF93FC018D
:1003A00082819381EB01460F571FA281B381208187
:1003B0003181A217B30758F4C417D50741F029912A
:1003C000BD016F5F7F4F738362832C93EECFA81BB9
:1003D000B90B84819581A80FB91FB583A483DF91E0
:1003E000CF9108958F929F92AF92BF92CF92DF925A
:1003F000EF92FF920F931F93CF93DF93CDB7DEB7AA
:1004000066970FB6F894DEBF0FBECDBF6C018E01AC
:10041000095E1F4F78018AE0882E912CA12CB12C07
:10042000CB01BA01A50194010E943509942F852FB3
:10043000605DF80162938F01A901692F782F411542
:1004400051056105710561F7A7014E1B5F0BBF01E7
:10045000C6010E94CD0166960FB6F894DEBF0FBEAE
:10046000CDBFDF91CF911F910F91FF90EF90DF9063
:10047000CF90BF90AF909F908F900895EF92FF9292
:100480000F931F93CF93DF93EC017B0162E20E94F5
:10049000B5018701F80161918F01662391F0E2E1D6
:1004A000F1E0F280FF2049F0329681816813F9CFA4
:1004B0006CE5CE010E94B5016F2DCE010E94B50101
:1004C000E9CF62E2CE01DF91CF911F910F91FF90B2
:1004D000EF900C94B501FC012581222339F0F8E05E
:1004E0002F0290011124820F931F089590E080E065
:1004F0000895FB0101900020E9F73197AF01461BF9
:10050000570B0C94CD012F923F924F925F926F92B6
:100510007F928F929F92AF92BF92CF92DF92EF9293
:10052000FF920F931F93CF93DF93CDB7DEB76C97F6
:100530000FB6F894DEBF0FBECDBF8C011B01DC01EE
:1005400014968C9114978F77863009F474C278F4DE
:100550008230B0F0843008F04CC212964D915C911C
:1005600013976D917C91C1010E94CD0126C28C3000
:1005700069F160F4883009F459C28A3009F43FC245
:1005800063E271E0C1010E947902E5C1803209F4A1
:10059000ECC18034A9F76BE5C1010E94B501F801F7
:1005A000008111810115110509F4DAC1B101C801F9
:1005B0000E948302C8010E946B028C01892B09F4FE
:1005C000CFC16CE2C1010E94B501ECCFF801C0803F
:1005D000D180E280F380A7019601C701B6010E9495
:1005E000C9078111CDCF20E030E0A901C701B601D4
:1005F0000E94C907882379F0A7019601C701B601B7
:100600000E945D079B01AC01C701B6010E94C907AA
:10061000882309F4B5CF20E030E0A901C701B60175
:100620000E94C90787FF08C06DE2C1010E94B501A1
:10063000F7FAF094F7F8F09420E836E948E15BE443
:10064000C701B6010E94AF0887FD81C074E1A72EE3
:10065000B12C00E210E0188E1F8AF501E856FF4F1A
:100660002591359145915491C701B6010E94AF087B
:1006700087FD13C0F501E859FF4F2591359145914C
:100680005491C701B6010E94B4086B017C012F8907
:10069000388D200F311F388F2F8B1595079534E03B
:1006A000A31AB1088CEFA8168FEFB806B1F655243F
:1006B0005A9420E030E0A901C701B6010E94AF08BA
:1006C00018160CF04BC02CEA35EC47E257E3C70193
:1006D000B6010E94C90718160CF440C0A52DB4E05D
:1006E000AB02C0011124912C812CFC01E058FF4F7A
:1006F0003F019C0128563F4F59013FEF531671F1BE
:10070000F301E80DF91D6591759185919491A7010B
:1007100096010E94AF0818169CF4F501E80DF91D2A
:100720002591359145915491C701B6010E94B408B5
:100730006B017C018F89988D801B910B988F8F8B1B
:10074000159507955A9494E0891A9108D6CF00E23E
:1007500010E055E0552E188E1F8AABCFC701B601A9
:100760000E94CE074B015C012B013C0106E080E4B6
:1007700092E4AFE0B0E0898F9A8FAB8FBC8F102FDF
:1007800001509AE04916510461047104C8F0698D62
:100790007A8D8B8D9C8D2AE030E040E050E00E9405
:1007A0003509298F3A8F4B8F5C8FC301B2012AE044
:1007B00030E040E050E00E94350929013A01DFCFE6
:1007C000C501B4010E94FD079B01AC01C701B60140
:1007D0000E945C076B017C01698D7A8D8B8D9C8DED
:1007E0000E94FD079B01AC01C701B6010E94B4083D
:1007F0002B013C010E94CE076B017C010E94FD078A
:100800009B01AC01C301B2010E945C079B01AC01DA
:100810000E945D070E94CE07C60ED71EE81EF91E75
:10082000898D9A8DAB8DBC8DC816D906EA06FB065C
:10083000D8F09FEF891A990AA90AB90AAF89B88D29
:10084000AB2B39F1BAE08B169104A104B10408F185
:10085000EF89F88D3196F88FEF8BC12CD12C760172
:10086000812C912C540183942AE0422E512C612C2E
:10087000712CC701B601A30192010E943509672BB3
:10088000682B692B51F4111644F469017A01115057
:10089000F0CFC12CD12C7601E7CFB501A401C10165
:1008A0000E94F201112371F14E01F1E18F0E911CB2
:1008B000012F54019AE0492E512C612C712C0150CA
:1008C00068F0C701B601A30192010E943509605D7D
:1008D000D4016E934D0169017A01F1CF812F90E02F
:1008E000BC0160957095F501E81BF90B31978EE21C
:1008F000808344275527461B570B6A0D7B1DC1017A
:100900000E94CD01EF89F88DEF2B29F165E6C10139
:100910000E94B5010F89188D17FF07C06DE2C10154
:100920000E94B501119501951109FE0177969F016D
:100930008AE0E82EF12CC801B7010E942109805DF0
:1009400082938B01672BB9F7A9014E1B5F0BBF0187
:10095000C1010E94CD01D10114968D919C9130C0AE
:100960006DE5C1010E94B501F6CF6BE7C1010E94A0
:10097000B501F8010081118101151105D1F0D801EF
:1009800016966D917C91C1010E943E026AE3C101FD
:100990000E94B501B101C8010E948302C8010E94F2
:1009A0006B028C01892B29F06CE2C1010E94B50118
:1009B000E3CF6DE7C1010E94B501F101848195810A
:1009C0006C960FB6F894DEBF0FBECDBFDF91CF910E
:1009D0001F910F91FF90EF90DF90CF90BF90AF905D
:1009E0009F908F907F906F905F904F903F902F904F
:1009F00008956D917C91C1010E943E02DECFCD90A1
:100A0000DD90ED90FC90B701A601F7FE0BC06DE202
:100A1000C1010E94B50144275527BA014C195D094F
:100A20006E097F09C1010E94F201C7CF4D915D910E
:100A30006D917C91F7CF8C9168E271E0811102C0D9
:100A40006DE271E0C1010E947902B7CF1F920F924F
:100A50000FB60F9211242F933F934F935F936F9391
:100A60007F938F939F93AF93BF93EF93FF938BE409
:100A700091E00E940101FF91EF91BF91AF919F9191
:100A80008F917F916F915F914F913F912F910F9037
:100A90000FBE0F901F9018951F920F920FB60F92D6
:100AA00011242F938F939F93EF93FF93E0915B011A
:100AB000F0915C018081E0916101F091620182FD21
:100AC0001BC09081809164018F5F8F7320916501BD
:100AD000821741F0E0916401F0E0E55BFE4F958FF5
:100AE00080936401FF91EF919F918F912F910F90CF
:100AF0000FBE0F901F9018958081F4CF1F920F9218
:100B00000FB60F9211242F933F938F939F93AF9320
:100B1000BF938091430190914401A0914501B09110
:100B200046013091420123E0230F2D3758F50196FD
:100B3000A11DB11D20934201809343019093440174
:100B4000A0934501B09346018091470190914801DF
:100B5000A0914901B0914A010196A11DB11D809358
:100B6000470190934801A0934901B0934A01BF9176
:100B7000AF919F918F913F912F910F900FBE0F904A
:100B80001F90189526E8230F0296A11DB11DD2CF04
:100B9000CF93DF93CDB7DEB7C455D1090FB6F89424
:100BA000DEBF0FBECDBF789484B5826084BD84B5AE
:100BB000816084BD85B5826085BD85B5816085BD58
:100BC00080916E00816080936E0010928100809110
:100BD0008100826080938100809181008160809398
:100BE0008100809180008160809380008091B100BD
:100BF00084608093B1008091B00081608093B000E8
:100C000080917A00846080937A0080917A0082607B
:100C100080937A0080917A00816080937A0080913D
:100C20007A00806880937A001092C100E0915B01A5
:100C3000F0915C0182E08083E0915701F0915801CE
:100C40001082E0915901F0915A018FEC808310924B
:100C50006301E0915F01F091600186E08083E091A3
:100C60005D01F0915E01808180618083E0915D0192
:100C7000F0915E01808188608083E0915D01F09158
:100C80005E01808180688083E0915D01F0915E016A
:100C900080818F7D80837E012FE0E20EF11C8E012A
:100CA000015B1F4F33E3232E31E0332E48EEC42E79
:100CB00041E0D42EFA82E982FC82EB821E830D830E
:100CC00018870F8319861E8681E480937C008091AB
:100CD0007A00806480937A0080917A0086FDFCCF50
:100CE0008090780080917900982E8E85982F9F773C
:100CF00039F4807880628E871B861A861D861C8652
:100D00008E8585FF50C0AA84BB84A114B10409F468
:100D100040C0F50166817781F1E063337F07B9F167
:100D20006115710531F083E391E00E945D09892B23
:100D300071F1C5010E946B025C01E7CF3897FE8319
:100D4000ED83309781F1AC85BD851097E9F0CF0137
:100D50008A1B9B0B23E0959587952A95E1F71596BD
:100D60008C93FD87EC8715821482378226828481DA
:100D700080788A608483092C000CAA08BB088082D2
:100D80009182A282B3820FC0FB87EA87EACFF50186
:100D9000EECFED81FE818B819C810896E817F907E3
:100DA00068F621E0298780E092E0F8019183808352
:100DB000D382C28215821482B801CE010A960E94A3
:100DC00083028831910520F488519E4FFC011082E6
:100DD000F60101900020E9F7AF01495E514068EE4D
:100DE00071E08BE491E00E94830042E050E06FE309
:100DF00071E08BE491E00E9483000E9490012B013E
:100E00003C0184EF882E99249394A12CB12C0E944C
:100E100090016419750986099709683E7340810538
:100E20009105A8F3F1E08F1A9108A108B10828EE06
:100E3000420E23E0521E611C711C81149104A10416
:100E4000B10429F780E090E0892B09F433CF0E94A8
:100E5000ED00882309F42ECF0E9400002BCFEBE495
:100E6000F1E01382128288EE93E0A0E0B0E0848388
:100E70009583A683B78384E091E09183808385EC9A
:100E800090E09587848784EC90E09787868780EC54
:100E900090E0918B808B81EC90E0938B828B82EC45
:100EA00090E0958B848B86EC90E0978B868B118EEF
:100EB000128E138E148E08955058BB27AA270E94B5
:100EC00074070C9475080E94670838F00E946E0839
:100ED00020F039F49F3F19F426F40C9464080EF4C2
:100EE000E095E7FB0C945E08E92F0E94860858F312
:100EF000BA17620773078407950720F079F4A6F5FF
:100F00000C94A8080EF4E0950B2EBA2FA02D0B011F
:100F1000B90190010C01CA01A0011124FF27591B3E
:100F200099F0593F50F4503E68F11A16F040A22F44
:100F3000232F342F4427585FF3CF469537952795B5
:100F4000A795F0405395C9F77EF41F16BA0B620BB4
:100F5000730B840BBAF09150A1F0FF0FBB1F661FFB
:100F6000771F881FC2F70EC0BA0F621F731F841F3E
:100F700048F4879577956795B795F7959E3F08F064
:100F8000B0CF9395880F08F09927EE0F9795879526
:100F900008950E943A0808F481E008950E948E089E
:100FA00088F09F5798F0B92F9927B751B0F0E1F02A
:100FB000660F771F881F991F1AF0BA95C9F714C0DA
:100FC000B13091F00E94A808B1E008950C94A808EF
:100FD000672F782F8827B85F39F0B93FCCF3869513
:100FE00077956795B395D9F73EF490958095709570
:100FF00061957F4F8F4F9F4F0895E89409C097FBED
:101000003EF490958095709561957F4F8F4F9F4FDF
:101010009923A9F0F92F96E9BB279395F695879523
:1010200077956795B795F111F8CFFAF4BB0F11F4E6
:1010300060FF1BC06F5F7F4F8F4F9F4F16C088238D
:1010400011F096E911C0772321F09EE8872F762FC3
:1010500005C0662371F096E8862F70E060E02AF004
:101060009A95660F771F881FDAF7880F96958795F0
:1010700097F90895990F0008550FAA0BE0E8FEEFC5
:1010800016161706E807F907C0F012161306E4074C
:10109000F50798F0621B730B840B950B39F40A2645
:1010A00061F0232B242B252B21F408950A2609F423
:1010B000A140A6958FEF811D811D089597F99F6727
:1010C00080E870E060E008959FEF80EC08950024D0
:1010D0000A941616170618060906089500240A949D
:1010E00012161306140605060895092E0394000C23
:1010F00011F4882352F0BB0F40F4BF2B11F460FFB2
:1011000004C06F5F7F4F8F4F9F4F089557FD9058DA
:10111000440F551F59F05F3F71F04795880F97FBBB
:10112000991F61F09F3F79F0879508951216130675
:101130001406551FF2CF4695F1DF08C016161706A4
:101140001806991FF1CF86957105610508940895D9
:10115000E894BB2766277727CB0197F908950E946B
:101160003A0808F48FEF08950E94C7080C94750898
:101170000E94670838F00E946E0820F0952311F055
:101180000C945E080C94640811240C94A9080E9425
:10119000860870F3959FC1F3950F50E0551F629F2D
:1011A000F001729FBB27F00DB11D639FAA27F00DC0
:1011B000B11DAA1F649F6627B00DA11D661F829FE7
:1011C0002227B00DA11D621F739FB00DA11D621FCC
:1011D000839FA00D611D221F749F3327A00D611DE9
:1011E000231F849F600D211D822F762F6A2F1124CB
:1011F0009F5750409AF0F1F088234AF0EE0FFF1FFE
:10120000BB1F661F771F881F91505040A9F79E3F54
:10121000510580F00C945E080C94A9085F3FE4F33C
:10122000983ED4F3869577956795B795F795E795AA
:101230009F5FC1F7FE2B880F911D9695879597F9B3
:101240000895AA1BBB1B51E107C0AA1FBB1FA6170D
:10125000B70710F0A61BB70B881F991F5A95A9F75F
:1012600080959095BC01CD010895A1E21A2EAA1B8C
:10127000BB1BFD010DC0AA1FBB1FEE1FFF1FA21746
:10128000B307E407F50720F0A21BB30BE40BF50B43
:10129000661F771F881F991F1A9469F760957095CC
:1012A000809590959B01AC01BD01CF010895EE0F93
:1012B000FF1F0590F491E02D0994FB01DC018D9155
:1012C000019080190110D9F3990B0895F894FFCF7C
:1012D0000000000023018300B0007001E100BF00A6
:1012E000D3002F2F22225C5C6208660C6E0A720DFE
:1012F0007409006E756C6C00747275650066616CC3
:1013000073650073656E736F725F64617461000D65
:021310000A00D1
:107E0000112484B714BE81FFF0D085E080938100F7
:107E100082E08093C00088E18093C10086E0809377
:107E2000C20080E18093C4008EE0C9D0259A86E02C
:107E300020E33CEF91E0309385002093840096BBD3
:107E4000B09BFECF1D9AA8958150A9F7CC24DD24C4
:107E500088248394B5E0AB2EA1E19A2EF3E0BF2EE7
:107E6000A2D0813461F49FD0082FAFD0023811F036
:107E7000013811F484E001C083E08DD089C08234E0
:107E800011F484E103C0853419F485E0A6D080C0E4
:107E9000853579F488D0E82EFF2485D0082F10E0AE
:107EA000102F00270E291F29000F111F8ED06801E7
:107EB0006FC0863521F484E090D080E0DECF843638
:107EC00009F040C070D06FD0082F6DD080E0C81688
:107ED00080E7D80618F4F601B7BEE895C0E0D1E017
:107EE00062D089930C17E1F7F0E0CF16F0E7DF06D8
:107EF00018F0F601B7BEE89568D007B600FCFDCFD4
:107F0000A601A0E0B1E02C9130E011968C91119780
:107F100090E0982F8827822B932B1296FA010C0160
:107F200087BEE89511244E5F5F4FF1E0A038BF0790
:107F300051F7F601A7BEE89507B600FCFDCF97BE46
:107F4000E89526C08437B1F42ED02DD0F82E2BD052
:107F50003CD0F601EF2C8F010F5F1F4F84911BD097
:107F6000EA94F801C1F70894C11CD11CFA94CF0C13
:107F7000D11C0EC0853739F428D08EE10CD085E9AC
:107F80000AD08FE07ACF813511F488E018D01DD067
:107F900080E101D065CF982F8091C00085FFFCCF94
:107FA0009093C60008958091C00087FFFCCF809118
:107FB000C00084FD01C0A8958091C6000895E0E648
:107FC000F0E098E1908380830895EDDF803219F02E
:107FD00088E0F5DFFFCF84E1DECF1F93182FE3DFCA
:107FE0001150E9F7F2DF1F91089580E0E8DFEE27F6
:047FF000FF270994CA
:027FFE00040479
:00000001FF
