:100000000C9458000C9480000C9480000C94800098
:100010000C9480000C9480000C9480000C94800060
:100020000C9480000C9480000C9480000C94800050
:100030000C9480000C9480000C9480000C94800040
:100040000C9490060C9480000C945E060C94380678
:100050000C9480000C9480000C9480000C94800020
:100060000C94DA060C9480000000000025002800A3
:100070002B00040404040404040402020202020229
:10008000030303030303010204081020408001025C
:1000900004081020010204081020000000080002DB
:1000A0000100000304070000000000000000F90741
:1000B00011241FBECFEFD8E0DEBFCDBF11E0A0E01E
:1000C000B1E0E4EDF6E102C005900D92AE33B10768
:1000D000D9F722E0AEE3B1E001C01D92A13BB20727
:1000E000E1F710E0C8E5D0E004C02197FE010E94CE
:1000F000620BC735D107C9F70E943A080C94680B08
:100100000C94000008950895AF92BF92CF92DF92B1
:10011000EF92FF920F931F93CF93DF936C017B01BC
:100120008B01040F151FEB015E01AE18BF08C0174D
:10013000D10759F06991D601ED91FC910190F081C0
:10014000E02DC6010995892B79F7C501DF91CF9183
:100150001F910F91FF90EF90DF90CF90BF90AF90E5
:100160000895FC01538D448D252F30E0842F90E0BD
:10017000821B930B541710F0CF96089501970895A2
:10018000FC01918D828D981761F0A28DAE0FBF2F6B
:10019000B11D5D968C91928D9F5F9F73928F90E0C1
:1001A00008958FEF9FEF0895FC01918D828D981730
:1001B00031F0828DE80FF11D858D90E008958FEF6D
:1001C0009FEF0895FC01918D228D892F90E0805C36
:1001D0009F4F821B91098F739927089581E092E0C8
:1001E0000E94E20021E0892B09F420E0822F08958B
:1001F00080E090E0892B29F00E94EE0081110C94A0
:1002000000000895FC01A48DA80FB92FB11DA35AB9
:10021000BF4F2C91848D90E001968F739927848F26
:10022000A689B7892C93A089B1898C918370806449
:100230008C93938D848D981306C00288F389E02DEA
:1002400080818F7D80830895EF92FF920F931F939B
:10025000CF93DF93EC0181E0888F9B8D8C8D981379
:100260001AC0E889F989808185FF15C09FB7F89485
:10027000EE89FF896083E889F989808183708064D1
:1002800080839FBF81E090E0DF91CF911F910F911C
:10029000FF90EF900895F62E0B8D10E00F5F1F4F2B
:1002A0000F731127E02E8C8D8E110CC00FB607FC3A
:1002B000FACFE889F989808185FFF5CFCE010E94C8
:1002C0000201F1CFEB8DEC0FFD2FF11DE35AFF4F33
:1002D000F0829FB7F8940B8FEA89FB898081806256
:1002E000CFCFCF93DF93EC01888D8823B9F0AA8913
:1002F000BB89E889F9898C9185FD03C0808186FDE1
:100300000DC00FB607FCF7CF8C9185FFF2CF80812F
:1003100085FFEDCFCE010E940201E9CFDF91CF91A1
:10032000089590E0FC01E656FF4F2491FC01EA5746
:10033000FF4F3491FC01EE58FF4FE491EE23C9F0DA
:10034000222339F0233001F1A8F4213019F12230B1
:1003500029F1F0E0EE0FFF1FE859FF4FA591B4918E
:100360008FB7F894EC91611126C030953E233C93F1
:100370008FBF08952730A9F02830C9F0243049F7FD
:10038000809180008F7D03C0809180008F77809363
:100390008000DFCF84B58F7784BDDBCF84B58F7DC0
:1003A000FBCF8091B0008F778093B000D2CF809147
:1003B000B0008F7DF9CF3E2BDACF3FB7F894809114
:1003C000A7019091A801A091A901B091AA0126B519
:1003D000A89B05C02F3F19F00196A11DB11D3FBF7D
:1003E000BA2FA92F982F8827BC01CD01620F711D4C
:1003F000811D911D42E0660F771F881F991F4A9546
:10040000D1F708958F929F92AF92BF92CF92DF92D1
:10041000EF92FF924B015C010E94DD016B017C01B8
:100420000E94DD016C197D098E099F09683E7340A9
:1004300081059105A8F321E0821A9108A108B1086D
:1004400088EEC80E83E0D81EE11CF11C81149104D3
:10045000A104B10429F7FF90EF90DF90CF90BF90F7
:10046000AF909F908F900895DC01ED91FC910190E9
:10047000F081E02D099420917F01260F3327331F4F
:1004800021323105ECF42091D501FC0190E080E0AF
:10049000243069F082E00895A0917F012191AC01A0
:1004A000415A5E4FA40FB52FB11D2C9301968617AC
:1004B00098F380917F01680F60937F0180E0089539
:1004C00081E008951092D50181E08093D4011092CB
:1004D000CF0161E082E10E94910161E083E10E942D
:1004E0009101E9EBF0E080818E7F808380818D7FB8
:1004F000808388E48093B80085E48093BC000895ED
:10050000CF93DF9391E090935E018823B9F0C0917F
:10051000B800D091BA008091BC008A7B8093BC0067
:1005200060E082E10E94910160E083E10E9491011C
:100530000E946202D093BA00C093B800DF91CF91BD
:1005400008950895E091DC018091DB01E81730F413
:10055000F0E0E352FE4F808190E008958FEF9FEF2F
:1005600008959091DC018091DB012FEF3FEF981708
:1005700048F4E92FF0E0E352FE4F208130E09F5F26
:100580009093DC01C90108958091DB019091DC0119
:10059000891B990B0895CF92DF92EF92FF920F93F0
:1005A0001F93CF93DF937C01CB018A01209100023E
:1005B000222389F0EB016B01C40ED51ECC15DD059D
:1005C00069F06991D701ED91FC910190F081E02DE6
:1005D000C7010995F3CF642F0E943B02C801DF9148
:1005E000CF911F910F91FF90EF90DF90CF900895E2
:1005F000CF93DF931F92CDB7DEB7698320910002BE
:100600002223F9F02091FD01203258F021E030E062
:10061000FC013383228390E080E00F90DF91CF9143
:1006200008958091FE01E82FF0E0E25CFE4F998191
:1006300090838F5F8093FE018093FD0181E090E0C5
:10064000ECCF61E0CE0101960E943B02F7CFCF9242
:10065000DF92EF92FF920F931F93CF93DF93D0918E
:10066000FD0181E0D13208F09CC0C091FF010E94E1
:10067000DD016B017C018091D50181116CC082E0AC
:100680008093D50181E08093D4018FEF8093D301D3
:100690001092D201D093D101AEE3B1E0EFEAF1E0E4
:1006A00080E0D8138DC01092D0018091D001CC0F82
:1006B000C82BC093D0018091CF01813009F084C054
:1006C0001092CF010E94DD016B017C018091D0016D
:1006D0008093BB008091D7019091D801A091D9015E
:1006E000B091DA01892B8A2B8B2BA1F00E94DD01BE
:1006F0000091D7011091D8012091D9013091DA01F0
:100700006C197D098E099F090617170728073907F5
:1007100008F442C08091BC0083FDD8CF85EC809363
:10072000BC000E94DD016B017C018091D50182300B
:1007300009F44CC08091D3018F3F09F469C08091C6
:10074000D301803209F466C08091D301803309F46B
:1007500063C084E026C08091D7019091D801A09118
:10076000D901B091DA01892B8A2B8B2B09F483CF25
:100770000E94DD010091D7011091D8012091D9018B
:100780003091DA016C197D098E099F090617170748
:100790002807390708F06FCF8091D6010E948002A8
:1007A00085E01092FE011092FD0110920002DF918F
:1007B000CF911F910F91FF90EF90DF90CF90089510
:1007C0009D9191938F5F6DCF85EEA9CF8091D701D9
:1007D0009091D801A091D901B091DA01892B8A2B8F
:1007E0008B2B09F4A2CF0E94DD010091D70110915B
:1007F000D8012091D9013091DA016C197D098E0957
:100800009F09061717072807390708F08ECFC4CFAE
:1008100080E0C7CF82E0C5CF83E0C3CF1F93CF93E3
:10082000DF93162FCAEAD2E0A981BA81988121E02C
:10083000209300029093FF011092FE011092FD019F
:10084000ED91FC9111970190F081E02D682FCD0181
:10085000099589819A81DC01ED91FC910190F081EB
:10086000E02D612F099589819A81DF91CF911F91A8
:100870000C9427030F931F93CF93DF938B01CAEA46
:10088000D2E0A981BA81988121E02093000290935F
:10089000FF011092FE011092FD0194E0899FB001CA
:1008A00011246A5F7F4FED91FC9111970190F081C7
:1008B000E02DCD01099570E060E089819A810E9468
:1008C000340270E060E089819A810E943402B801AC
:1008D00089819A810E943402612F70E089819A8116
:1008E0000E94340289819A81DF91CF911F910F91EB
:1008F0000C94270390E080E008958F929F92AF922E
:10090000BF92CF92DF92EF92FF920F931F93CF93FC
:100910006B017C0120E030E040E85FE30E94980931
:1009200087FDE1C020E030EC4AE555E4C701B6019F
:100930000E94F00A18163CF4C12C30ECD32E3AE594
:10094000E32E35E4F32E6091AD027091AE028091FA
:10095000AF029091B0020E943E0A4B015C0120E080
:1009600030E040E855E4C701B6010E94F50A9B015A
:10097000AC01C501B4010E949D0920E030E040E0D7
:100980005FE30E942C0920E030E040E85FE30E9432
:100990002B096B017C0120E030E040E450E40E9430
:1009A000980987FDA7C020E030E04FE753E4C70176
:1009B000B6010E94F00A181634F4C12CD12C9FE71E
:1009C000E92E93E4F92EC701B6010E940F0AF62E14
:1009D0008091AB029091AC022091AA0231E0309359
:1009E00000022093FF011092FE011092FD01DC0134
:1009F000ED91FC910190F081E02D60E009958091EE
:100A0000AB029091AC020E942703C091AA020E94FF
:100A1000DD014B015C018091D501811171C081E044
:100A20008093D5018093D4019FEF9093D3011092CE
:100A3000D2011092D1018093D0018091D001CC0FCE
:100A4000C82BC093D0018091CF01813009F0B2C092
:100A50001092CF010E94DD014B015C018091D00119
:100A60008093BB008091D7019091D801A091D901CA
:100A7000B091DA01892B8A2B8B2BA1F00E94DD012A
:100A80000091D7011091D8012091D9013091DA015C
:100A9000681979098A099B09061717072807390772
:100AA00008F44FC08091BC0083FDD8CF85EC8093C3
:100AB000BC000E94DD014B015C018091D5018130B9
:100AC00009F47AC08091D201811198C08091D2013D
:100AD000EFEAF1E0ADEDB1E090E09817B9F12191C6
:100AE0002D939F5FFACFC12CD12C20E8E22E2FE36B
:100AF000F22E29CFC12CD12C80E4E82EFE2C63CF1E
:100B00008091D7019091D801A091D901B091DA01DB
:100B1000892B8A2B8B2B09F47ECF0E94DD0100915B
:100B2000D7011091D8012091D9013091DA016819CB
:100B300079098A099B09061717072807390708F05A
:100B40006ACF8091D6010E94800280E01092DC0181
:100B50008093DB018091AB029091AC02DC01ED91BE
:100B6000FC910284F385E02D0995C82F682F6F76DC
:100B7000606180E00E940E046F2D8EEF0E940E04D3
:100B80006C2F80E00E940E0465E070E080E090E051
:100B90000E9402026C2F606A80E0CF911F910F913A
:100BA000FF90EF90DF90CF90BF90AF909F908F908D
:100BB0000C940E0485EE7BCF8091D7019091D801E3
:100BC000A091D901B091DA01892B8A2B8B2B09F4E2
:100BD00074CF0E94DD010091D7011091D8012091BE
:100BE000D9013091DA01681979098A099B09061738
:100BF00017072807390708F060CFA3CF81E068CF37
:100C000085ED8093BC008091D7019091D801A0918F
:100C1000D901B091DA010796A11DB11D23E0B69567
:100C2000A795979587952A95D1F72091BC0024FD2B
:100C300003C01092D50108954091D7015091D80179
:100C40006091D9017091DA01452B462B472B69F34E
:100C50000097A105B10541F02AE22A95F1F700C0FD
:100C60000197A109B109E1CF8091D6010C948002CE
:100C70001F920F920FB60F9211242F933F934F9311
:100C80005F936F937F938F939F93AF93BF93EF93F4
:100C9000FF9381E092E00E940201FF91EF91BF91EA
:100CA000AF919F918F917F916F915F914F913F9104
:100CB0002F910F900FBE0F901F9018951F920F92BB
:100CC0000FB60F9211242F938F939F93EF93FF935F
:100CD000E0911102F09112028081E0911702F091EF
:100CE000180282FD1BC0908180911A028F5F8F7362
:100CF00020911B02821741F0E0911A02F0E0EF5FB1
:100D0000FD4F958F80931A02FF91EF919F918F91E4
:100D10002F910F900FBE0F901F9018958081F4CFE8
:100D20001F920F920FB60F9211242F933F938F9320
:100D30009F93AF93BF938091A3019091A401A09141
:100D4000A501B091A6013091A20123E0230F2D3718
:100D500058F50196A11DB11D2093A2018093A30116
:100D60009093A401A093A501B093A6018091A7013F
:100D70009091A801A091A901B091AA010196A11D8D
:100D8000B11D8093A7019093A801A093A901B093EE
:100D9000AA01BF91AF919F918F913F912F910F9099
:100DA0000FBE0F901F90189526E8230F0296A11DE5
:100DB000B11DD2CF1F920F920FB60F9211242F9315
:100DC0003F934F935F936F937F938F939F93AF93D3
:100DD000BF93EF93FF938091B900887F803609F429
:100DE0004AC0F0F5883209F4A7C018F5803109F43B
:100DF0009BC0B8F4882309F4F9C0883009F494C082
:100E0000FF91EF91BF91AF919F918F917F916F91E2
:100E10005F914F913F912F910F900FBE0F901F90B8
:100E20001895883109F488C0803251F78093D30136
:100E300014C0803409F49DC040F48033B9F3883382
:100E4000F9F68093D30185ECB0C0803509F485C0F4
:100E5000883509F496C0883499F60E940006D0CFF0
:100E6000883909F48CC038F5883729F050F4883671
:100E700011F0803729F683E08093D5011092A1010B
:100E800057C0883809F47BC0803919F0803809F0E0
:100E9000B7CF8091A101803208F071C0E091A1012B
:100EA00081E08E0F8093A1018091BB00F0E0EF57AD
:100EB000FE4F80833DC0803B39F0E0F4803A09F476
:100EC00079C0883A09F09CCF84E08093D5011092D4
:100ED000800110927F01E091AD01F091AE01099582
:100EE00080917F0181110FC081E080937F0110927A
:100EF0005F0109C0803C09F4A6CF883C09F4A3CF68
:100F0000883B09F07DCFE091800181E08E0F8093D6
:100F10008001F0E0E15AFE4F80818093BB00909108
:100F2000800180917F0129C08091D0018093BB0016
:100F300085EC8093BC0064CF9091D2018091D10167
:100F4000981758F5E091D20181E08E0F8093D2017D
:100F5000F0E0E155FE4F8081E9CFE091D20181E0E0
:100F60008E0F8093D2018091BB00F0E0E155FE4FDF
:100F700080839091D2018091D1019817C8F285E8C1
:100F8000D8CFE091D20181E08E0F8093D201809181
:100F9000BB00F0E0E155FE4F80838091D4018111C8
:100FA0005CCF81E08093CF0184EA8093BC001092F3
:100FB000D50126CF85EC8093BC001092D50180919D
:100FC000A101803230F4E091A101F0E0EF57FE4F33
:100FD00010826091A10170E0E091AB01F091AC0151
:100FE00081E891E009951092A1010ACF1092D301F6
:100FF00034CFE1E0F2E01382128288EE93E0A0E0C9
:10100000B0E084839583A683B78324E031E0318305
:10101000208325EC30E03587248724EC30E03787C7
:10102000268720EC30E0318B208B21EC30E0338BB5
:10103000228B22EC30E0358B248B26EC30E0378B92
:10104000268B118E128E138E148EEEE9F2E013822F
:10105000128284839583A683B78386E191E091838E
:101060008083AAEAB2E080E48C931296FC93EE931C
:1010700011970895789484B5826084BD84B58160A9
:1010800084BD85B5826085BD85B5816085BD809153
:101090006E00816080936E001092810080918100CB
:1010A00082608093810080918100816080938100C3
:1010B000809180008160809380008091B100846085
:1010C0008093B1008091B00081608093B0008091E6
:1010D0007A00846080937A0080917A0082608093A5
:1010E0007A0080917A00816080937A0080917A0002
:1010F000806880937A001092C100E0911102F09113
:10110000120282E08083E0910D02F0910E021082C3
:10111000E0910F02F09110028FEC8083109219027F
:10112000E0911502F091160286E08083E0911302AF
:10113000F0911402808180618083E0911302F0912C
:101140001402808188608083E0911302F091140280
:10115000808180688083E0911302F0911402808185
:101160008F7D808345E150E064E271E081E092E0B0
:101170000E94840042E050E06AE371E081E092E086
:101180000E9484001092DC011092DB011092FE019B
:101190001092FD010E94620282E890E09093AE01FD
:1011A0008093AD0183E890E09093AC018093AB0114
:1011B00060E880E00E940E046AE070E080E090E069
:1011C0000E94020260E070E08AE794E40E947D04DD
:1011D00080EC9CEFABE9B1E08093AD029093AE025E
:1011E000A093AF02B093B00260E070E088E492E4B4
:1011F0000E947D046AE070E080E090E00E940202BC
:1012000000E010E0C6E9D0E0BE0180E00E943A04B0
:101210002196C83582E0D807B9F764EF71E080E025
:1012200090E00E940202BE0180E00E943A042197F1
:10123000C639D105C1F764EF71E080E090E00E940B
:10124000020201151105F1F20E94EE008823D1F28D
:101250000E940000D7CF5058BB27AA270E944309FD
:101260000C94B60A0E94A80A38F00E94AF0A20F037
:1012700039F49F3F19F426F40C94A50A0EF4E09576
:10128000E7FB0C949F0AE92F0E94C70A58F3BA178C
:10129000620773078407950720F079F4A6F50C948C
:1012A000E90A0EF4E0950B2EBA2FA02D0B01B9011F
:1012B00090010C01CA01A0011124FF27591B99F0CC
:1012C000593F50F4503E68F11A16F040A22F232FD8
:1012D000342F4427585FF3CF469537952795A79528
:1012E000F0405395C9F77EF41F16BA0B620B730BCF
:1012F000840BBAF09150A1F0FF0FBB1F661F771F40
:10130000881FC2F70EC0BA0F621F731F841F48F4F4
:10131000879577956795B795F7959E3F08F0B0CF7D
:101320009395880F08F09927EE0F97958795089564
:101330000E947B0A08F481E008950E94B1090C9490
:10134000B60A0E94AF0A58F00E94A80A40F029F499
:101350005F3F29F00C949F0A51110C94EA0A0C94F7
:10136000A50A0E94C70A68F39923B1F3552391F3A4
:10137000951B550BBB27AA2762177307840738F004
:101380009F5F5F4F220F331F441FAA1FA9F335D061
:101390000E2E3AF0E0E832D091505040E695001C15
:1013A000CAF72BD0FE2F29D0660F771F881FBB1FCF
:1013B000261737074807AB07B0E809F0BB0B802DAD
:1013C000BF01FF2793585F4F3AF09E3F510578F0D9
:1013D0000C949F0A0C94EA0A5F3FE4F3983ED4F31E
:1013E000869577956795B795F7959F5FC9F7880FAD
:1013F000911D9695879597F90895E1E0660F771FFF
:10140000881FBB1F621773078407BA0720F0621B8F
:10141000730B840BBA0BEE1F88F7E09508950E94BA
:10142000CF0A88F09F5798F0B92F9927B751B0F09D
:10143000E1F0660F771F881F991F1AF0BA95C9F758
:1014400014C0B13091F00E94E90AB1E008950C9403
:10145000E90A672F782F8827B85F39F0B93FCCF3B6
:10146000869577956795B395D9F73EF490958095D5
:10147000709561957F4F8F4F9F4F0895E89409C0F5
:1014800097FB3EF490958095709561957F4F8F4FB7
:101490009F4F9923A9F0F92F96E9BB279395F695CD
:1014A000879577956795B795F111F8CFFAF4BB0F4B
:1014B00011F460FF1BC06F5F7F4F8F4F9F4F16C0AF
:1014C000882311F096E911C0772321F09EE8872F39
:1014D000762F05C0662371F096E8862F70E060E0F5
:1014E0002AF09A95660F771F881FDAF7880F96956E
:1014F000879597F90895990F0008550FAA0BE0E812
:10150000FEEF16161706E807F907C0F012161306C5
:10151000E407F50798F0621B730B840B950B39F405
:101520000A2661F0232B242B252B21F408950A266B
:1015300009F4A140A6958FEF811D811D089597F9AB
:101540009F6780E870E060E008959FEF80EC089569
:1015500000240A9416161706180609060895002492
:101560000A9412161306140605060895092E03940C
:10157000000C11F4882352F0BB0F40F4BF2B11F480
:1015800060FF04C06F5F7F4F8F4F9F4F089557FDDF
:101590009058440F551F59F05F3F71F04795880FE1
:1015A00097FB991F61F09F3F79F087950895121678
:1015B00013061406551FF2CF4695F1DF08C0161624
:1015C00017061806991FF1CF8695710561050894D5
:1015D0000895E894BB2766277727CB0197F90895EC
:1015E0000E947B0A08F48FEF08950E94080B0C9468
:1015F000B60A0E94A80A38F00E94AF0A20F095238C
:1016000011F00C949F0A0C94A50A11240C94EA0A78
:101610000E94C70A70F3959FC1F3950F50E0551FC4
:10162000629FF001729FBB27F00DB11D639FAA2737
:10163000F00DB11DAA1F649F6627B00DA11D661F86
:10164000829F2227B00DA11D621F739FB00DA11DA7
:10165000621F839FA00D611D221F749F3327A00D61
:10166000611D231F849F600D211D822F762F6A2FFD
:1016700011249F5750409AF0F1F088234AF0EE0F62
:10168000FF1FBB1F661F771F881F91505040A9F78F
:101690009E3F510580F00C949F0A0C94EA0A5F3F2C
:1016A000E4F3983ED4F3869577956795B795F795CB
:1016B000E7959F5FC1F7FE2B880F911D9695879543
:1016C00097F90895EE0FFF1F0590F491E02D09940E
:0416D000F894FFCFBC
:1016D4000000000024018400B1007101E200C00098
:1016E400D40000000000F802CB027A04A102C40274
:1016F400B102A20238206368616E6E656C20536586
:0E17040072766F207465737421000D0A000068
:00000001FF
