:100000000C9476000C949E000C949E000C949E0020
:100010000C949E000C949E000C949E000C949E00E8
:100020000C949E000C949E000C949E000C949E00D8
:100030000C949E000C949E000C949E000C949E00C8
:100040000C9435120C949E000C94A5120C947F1203
:100050000C949E000C949E000C949E000C949E00A8
:100060000C94D7120C949E00000020410000C8425E
:1000700000401C4620BCBE4CCA1B0E5AAEC59D7427
:10008000CDCCCC3D0AD7233C17B7D13877CC2B3217
:100090009595E6241FB14F0A0000000800020100F8
:1000A0000003040700000000000000000000000042
:1000B000250028002B0000000000240027002A0053
:1000C00004040404040404040202020202020303FE
:1000D0000303030301020408102040800102040806
:1000E0001020010204081020F6134F1711241FBE20
:1000F000CFEFD8E0DEBFCDBF12E0A0E0B1E0ECE68C
:10010000F8E302C005900D92AC30B107D9F723E0B7
:10011000ACE0B2E001C01D92AE3AB207E1F710E0E8
:10012000C5E7D0E004C02197FE010E94281AC43719
:10013000D107C9F70E945B140C94291C0C94000091
:1001400090E0FC01EC52FF4F249180549F4FFC0142
:100150008491882399F090E0880F991FFC01EA545C
:10016000FF4FA591B491FC01E455FF4F8591949107
:100170008FB7F894EC91E22BEC938FBF089590E049
:10018000FC01E856FF4F2491FC01EC52FF4F3491E3
:10019000FC01E054FF4FE491EE23C9F0222339F033
:1001A000233001F1A8F4213019F1223029F1F0E0D7
:1001B000EE0FFF1FE455FF4FA591B4918FB7F89450
:1001C000EC91611126C030953E233C938FBF08957A
:1001D0002730A9F02830C9F0243049F780918000F9
:1001E0008F7D03C0809180008F7780938000DFCF68
:1001F00084B58F7784BDDBCF84B58F7DFBCF8091B5
:10020000B0008F778093B000D2CF8091B0008F7D07
:10021000F9CF3E2BDACF3FB7F89480917F029091CF
:100220008002A0918102B091820226B5A89B05C0F0
:100230002F3F19F00196A11DB11D3FBFBA2FA92F65
:10024000982F8827BC01CD01620F711D811D911D62
:1002500042E0660F771F881F991F4A95D1F70895CE
:100260008F929F92AF92BF92CF92DF92EF92FF92C6
:100270004B015C010E940B016B017C010E940B0190
:100280006C197D098E099F09683E734081059105AF
:10029000A8F321E0821A9108A108B10888EEC80EDF
:1002A00083E0D81EE11CF11C81149104A104B10467
:1002B00029F7FF90EF90DF90CF90BF90AF909F9085
:1002C0008F9008950895089508950895AF92BF926C
:1002D000CF92DF92EF92FF920F931F93CF93DF9312
:1002E0006C017B018B01040F151FEB015E01AE1841
:1002F000BF08C017D10759F06991D601ED91FC9163
:100300000190F081E02DC6010995892B79F7C5018F
:10031000DF91CF911F910F91FF90EF90DF90CF90E1
:10032000BF90AF900895FC01538D448D252F30E090
:10033000842F90E0821B930B541710F0CF960895F2
:1003400001970895FC01918D828D981761F0A28D1F
:10035000AE0FBF2FB11D5D968C91928D9F5F9F73E5
:10036000928F90E008958FEF9FEF08952FB7F89444
:100370008091830290918402A0918502B0918602BF
:100380002FBF8093E1029093E202A093E302B09327
:10039000E40289ED92E00E94A20197FF26C02FB7E8
:1003A000F8948091830290918402A0918502B0918B
:1003B00086022FBF4091E1025091E2026091E30278
:1003C0007091E402841B950BA60BB70B4091DD02E4
:1003D0005091DE026091DF027091E0028417950770
:1003E000A607B707B0F28FEF9FEF0895FC01918D3C
:1003F000828D981731F0828DE80FF11D858D90E088
:1004000008958FEF9FEF0895FC01918D228D892F24
:1004100090E0805C9F4F821B91098F73992708950C
:1004200089ED92E00E94040221E0892B09F420E08A
:10043000822F089580E090E0892B29F00E9410021D
:1004400081110C9400000895FC01A48DA80FB92F10
:10045000B11DA35ABF4F2C91848D90E001968F73EC
:100460009927848FA689B7892C93A089B1898C910B
:10047000837080648C93938D848D981306C002885A
:10048000F389E02D80818F7D80830895EF92FF9224
:100490000F931F93CF93DF93EC0181E0888F9B8DA7
:1004A0008C8D98131AC0E889F989808185FF15C061
:1004B0009FB7F894EE89FF896083E889F989808184
:1004C0008370806480839FBF81E090E0DF91CF9153
:1004D0001F910F91FF90EF900895F62E0B8D10E075
:1004E0000F5F1F4F0F731127E02E8C8D8E110CC0E4
:1004F0000FB607FCFACFE889F989808185FFF5CF2F
:10050000CE010E942402F1CFEB8DEC0FFD2FF11DE7
:10051000E35AFF4FF0829FB7F8940B8FEA89FB896B
:1005200080818062CFCFCF93DF93EC01888D8823C9
:10053000B9F0AA89BB89E889F9898C9185FD03C046
:10054000808186FD0DC00FB607FCF7CF8C9185FF2B
:10055000F2CF808185FFEDCFCE010E942402E9CF4A
:10056000DF91CF910895DC01ED91FC910190F08134
:10057000E02D099420915702260F3327331F213293
:100580003105ECF42091D302FC0190E080E02430AE
:1005900069F082E00895A09157022191AC01495C75
:1005A0005D4FA40FB52FB11D2C930196861798F3BC
:1005B00080915702680F6093570280E0089581E0B0
:1005C00008951092D30281E08093B2021092AD029E
:1005D00061E082E10E94BF0061E083E10E94BF0010
:1005E000E9EBF0E080818E7F808380818D7F808346
:1005F00088E48093B80085E48093BC000895CF938D
:10060000DF9391E0909336028823B9F0C091B8004F
:10061000D091BA008091BC008A7B8093BC0060E0DE
:1006200082E10E94BF0060E083E10E94BF000E945F
:10063000E102D093BA00C093B800DF91CF91089542
:10064000CF92DF92EF92FF920F931F93CF93DF939E
:10065000D82FC62F613208F098C00E940B016B01A1
:100660007C018091D30281116BC081E08093D30221
:100670008093B2029FEF9093B1021092B0029C0F50
:100680009093AF028093AE028091AE02DD0FD82B23
:10069000D093AE028091AD02813009F078C0109203
:1006A000AD020E940B016B017C018091AE02809330
:1006B000BB008091D5029091D602A091D702B09153
:1006C000D802892B8A2B8B2BA1F00E940B01009161
:1006D000D5021091D6022091D7023091D8026C1920
:1006E0007D098E099F09061717072807390708F49F
:1006F00048C08091BC0083FDD8CF85EC8093BC00BE
:100700000E940B016B017C018091D302813009F4BE
:1007100040C08091B0028C1710F4C091B002EDE897
:10072000F2E0A3EBB2E080E08C1355C08C2FDF9198
:10073000CF911F910F91FF90EF90DF90CF90089590
:100740008091D5029091D602A091D702B091D802A3
:10075000892B8A2B8B2B09F484CF0E940B010091EB
:10076000D5021091D6022091D7023091D8026C198F
:100770007D098E099F09061717072807390708F012
:1007800070CF8091D4020E94FF02C0E0CFCF85EEEF
:10079000B5CF8091D5029091D602A091D702B091A9
:1007A000D802892B8A2B8B2B09F4AECF0E940B0128
:1007B0000091D5021091D6022091D7023091D80233
:1007C0006C197D098E099F09061717072807390735
:1007D00008F09ACFD6CF91919D938F5FA5CF0895C2
:1007E000E091880280918702E81730F4F0E0ED5440
:1007F000FD4F808190E008958FEF9FEF08959091D5
:100800008802809187022FEF3FEF981748F4E92F75
:10081000F0E0ED54FD4F208130E09F5F909388021F
:10082000C90108958091870290918802891B990BD4
:100830000895CF92DF92EF92FF920F931F93CF9381
:10084000DF937C01CB018A0120918C02222389F065
:10085000EB016B01C40ED51ECC15DD0569F0699165
:10086000D701ED91FC910190F081E02DC701099530
:10087000F3CF642F0E94BA02C801DF91CF911F917C
:100880000F91FF90EF90DF90CF900895CF93DF937B
:100890001F92CDB7DEB7698320918C022223F9F035
:1008A00020918902203258F021E030E0FC013383AE
:1008B000228390E080E00F90DF91CF9108958091A6
:1008C0008A02E82FF0E0EA5EFD4F998190838F5F06
:1008D00080938A028093890281E090E0ECCF61E00E
:1008E000CE0101960E94BA02F7CFCF92DF92EF922B
:1008F000FF920F931F93CF93DF93D091890281E0F2
:10090000D13208F09CC0C0918B020E940B016B0198
:100910007C018091D30281116CC082E08093D3026C
:1009200081E08093B2028FEF8093B1021092B00207
:10093000D093AF02A6E1B2E0EDE8F2E080E0D81398
:100940008DC01092AE028091AE02CC0FC82BC09326
:10095000AE028091AD02813009F084C01092AD02E8
:100960000E940B016B017C018091AE028093BB0061
:100970008091D5029091D602A091D702B091D80271
:10098000892B8A2B8B2BA1F00E940B010091D502A1
:100990001091D6022091D7023091D8026C197D09AE
:1009A0008E099F09061717072807390708F442C060
:1009B0008091BC0083FDD8CF85EC8093BC000E9461
:1009C0000B016B017C018091D302823009F44CC091
:1009D0008091B1028F3F09F469C08091B1028032E9
:1009E00009F466C08091B102803309F463C084E0E9
:1009F00026C08091D5029091D602A091D702B091E5
:100A0000D802892B8A2B8B2B09F483CF0E940B01F0
:100A10000091D5021091D6022091D7023091D802D0
:100A20006C197D098E099F090617170728073907D2
:100A300008F06FCF8091D4020E94FF0285E01092EF
:100A40008A021092890210928C02DF91CF911F913D
:100A50000F91FF90EF90DF90CF9008959D9191932B
:100A60008F5F6DCF85EEA9CF8091D5029091D60290
:100A7000A091D702B091D802892B8A2B8B2B09F435
:100A8000A2CF0E940B010091D5021091D6022091B5
:100A9000D7023091D8026C197D098E099F0906177B
:100AA00017072807390708F08ECFC4CF80E0C7CFDB
:100AB00082E0C5CF83E0C3CF1F93CF93DF93162F80
:100AC000C3EAD3E0A981BA81988121E020938C0206
:100AD00090938B0210928A0210928902ED91FC9100
:100AE00011970190F081E02D682FCD010995898142
:100AF0009A81DC01ED91FC910190F081E02D612F54
:100B0000099589819A81DF91CF911F910C94750489
:100B1000CF93C42FFC018081806291E090938C027E
:100B200080938B0210928A021092890286E793E0EA
:100B30000E9446046C2F86E793E00E94460486E7F5
:100B400093E0CF910C94750490E080E00895803399
:100B50009CF08A3324F08F3524F08B3724F481E025
:100B6000089581344CF08B35D4F393ED980F81E0E8
:100B70009230B0F380E008958B32B9F7F0CFFC01EA
:100B80008685811114C0A185B285838594852FEF58
:100B90003FEFA817B90730F4CD01019692878187FE
:100BA0002C9130E037FD20E0258781E08687858520
:100BB00008951F93CF93DF93EC01162F0E94BF057A
:100BC000811306C01E8681E0DF91CF911F910895A9
:100BD00080E0FACFCF93DF93EC01CE010E94BF05F6
:100BE0008B303CF489304CF4882349F081E08887CD
:100BF00010C08D3011F08032C9F71E86EECF888587
:100C000081110AC081E090E0CF5ADF4F9983888339
:100C100080E0DF91CF91089582E090E0F5CFFC0174
:100C200024813581A9014F5F5F4F868197814817E5
:100C3000590748F48281938155834483FC01E20F74
:100C4000F31F608308950190F081E02D81E080879B
:100C500008959F92AF92BF92CF92DF92EF92FF9250
:100C60000F931F93CF93DF9300D000D01F92CDB787
:100C7000DEB78C010E94BF05D82ED8011E961C92AB
:100C8000F12CE12C60EFC62EC8010E94BF05F801CF
:100C90001686D81609F4BDC0811119C0F801EF5AA3
:100CA000FF4F82E090E09183808380E00F900F906F
:100CB0000F900F900F90DF91CF911F910F91FF90A8
:100CC000EF90DF90CF90BF90AF909F9008958C35BC
:100CD00009F09DC0C8010E94BF058823F9F2EAE42B
:100CE000F1E0853709F087C0D8011E961C9254E0C8
:100CF000952EB12CA12CC8010E94BF05882371F24A
:100D000081344CF48053803148F0F801EF5AFF4FA2
:100D100083E090E0C8CF8F7D8753F5CF44E0AA0CE5
:100D2000BB1C4A95E1F7A82AF80116869A949110FF
:100D3000E2CFC501985D8115944020F4750123E050
:100D4000F222A2CFC5019C5D81159440A8F4B3E0C6
:100D5000BB22B701762F6627770F770F6A297B2989
:100D600090E080E00196603871058105910540F4BE
:100D7000C8010E940F0688CFB50190E080E0F3CF54
:100D80001982262F2F7320682A8326E0969587954F
:100D9000779567952A95D1F76032710580F4606C7C
:100DA0006B835E01E4E0AE0EB11CD5016E915D0176
:100DB000662309F469CFC8010E940F06F6CF262FDB
:100DC0002F7320682B8386E0769567958A95E1F7E7
:100DD0006031710538F4606E6C835E01F5E0AF0E32
:100DE000B11CE3CF60686C83CD825E0126E0A20E69
:100DF000B11CDBCF32969081992309F486CF8913F9
:100E0000F9CF8181882309F480CFF8011686682FF5
:100E1000AFCF0190F081E02D8085882331F0F8017B
:100E2000EF5AFF4F84E090E03ECF81E03FCF4F92FA
:100E30005F926F927F928F929F92AF92BF92CF926A
:100E4000DF92EF92FF920F931F93CF93DF93EC010A
:100E50008B0188818B32C9F18D32C1F52196FF2437
:100E6000F394888190ED980F9A3018F08E3209F043
:100E70004DC160E070E0CB01FE012191A0ED8A2E12
:100E8000820E39E0381520F16A3949E97407840780
:100E900049E1940738F5AAE0B0E09B01AC010E945B
:100EA0009B18912CB12CA12C240135014094509415
:100EB00060947094461657066806790698F0680D97
:100EC000791D8A1D9B1DEF01D7CF2196F12CC9CF2B
:100ED000211108C0FF20F1F161307105810550E852
:100EE0009507A0F0E12CEAE08E2E912CA12CB12CDC
:100EF00061157105F0E88F079105C0F1A501940116
:100F00000E94DD18CA01B901E394F2CFF8012481EF
:100F100020782A6024839B01AC0188279927DC0173
:100F2000821B930BA40BB50B80839183A283B383A5
:100F30008F2DDF91CF911F910F91FF90EF90DF9058
:100F4000CF90BF90AF909F908F907F906F905F9069
:100F50004F900895F80124812078286024836083CD
:100F6000718382839383FF24F394E2CFFE0129915E
:100F700030ED320F3A3010F4E394F8CF2E32F1F422
:100F8000EF012196FE012196208150EDD52ED20E43
:100F900029E02D1598F06C3C3CEC73073CE083078E
:100FA000910580F7AAE0B0E09B01AC010E949B187C
:100FB0006D0D711D811D911DEA94E4CF20812F7D5F
:100FC000D0E0C0E0253409F05DC021812D32D9F593
:100FD0003296CC24C394DF01D0E0C0E02E2D0E2C3D
:100FE000000C330B4AE0B42EFD01DD9040ED4D0DB9
:100FF0004A3008F042C0BC9EA001BD9E500D112495
:10100000CD2DDD0CDD0BE097C40FD51FAE01420FD7
:10101000531F4732510544F3F8018481CC20D1F0AD
:1010200040E050E060E070E8F11003C040E050E0C4
:10103000BA0180788C60F801848340835183628395
:101040007383FC2C75CF2B3219F03196C12CC3CF92
:101050003296FCCF40E050E060E87FEFF11004C032
:1010600040E050E060E87FE780788C60F80184839E
:10107000408351836283738376CFCC2019F0D1955E
:10108000C195D1092081211141C0CE0DD11DE7FCB0
:10109000DA950E945D171C161D0604F5E12CC0FFB1
:1010A0000CC024E0E29EF0011124E859FF4F259185
:1010B0003591459154910E94BE17D595C795E394FB
:1010C000209769F7F1109058F801248120782C605E
:1010D0002483608371838283938345CFD195C195A7
:1010E000D109E12C209771F3C0FF0CC044E0E49ECD
:1010F000F0011124E058FF4F25913591459154910D
:101100000E94BE17D595C795E394ECCFF12C10CF74
:10111000CF92DF92EF92FF92CF93DF9300D000D077
:101120001F92CDB7DEB7FC0184818F778630A9F09E
:1011300020F4843080F580E011C08A30D9F08C3002
:10114000B9F18830C1F780819181A281B381803863
:101150009105A105B10578F701C080810F900F902E
:101160000F900F900F90DF91CF91FF90EF90DF9055
:10117000CF90089580819181A281B381AC01BD019E
:1011800040585F4F6F4F7F4F4F3F510561057105CD
:1011900009F088F6E3CF808191811D82BE016F5FE7
:1011A0007F4F0E941707CE0101960E948808D6CF74
:1011B000C080D180E280F38020E030E040E053EC5A
:1011C000C701B6010E94231A87FDB5CF20E030E0A9
:1011D0004EEF52E4C701B6010E94581718160CF4DE
:1011E000AACFC701B6010E94ED19862FB7CFCF92C3
:1011F000DF92EF92FF92CF93DF9300D000D01F9247
:10120000CDB7DEB7FC01892B39F084818F7786302A
:10121000B9F028F4843088F590E080E013C08A307B
:10122000E9F08C30B9F18830B9F780819181A281E1
:10123000B381811520E89207A105B10568F702C0C6
:10124000808190E00F900F900F900F900F90DF91A2
:10125000CF91FF90EF90DF90CF90089580819181A2
:10126000A281B381AC01BD0150586F4F7F4F411532
:1012700051056140710580F6E5CF808191811D8225
:10128000BE016F5F7F4F0E941707CE0101960E943B
:10129000F708D8CFC080D180E280F38020E030E032
:1012A00040E057ECC701B6010E94231A87FDB4CF76
:1012B00020E03EEF4FEF56E4C701B6010E945817F9
:1012C00018160CF4A9CFC701B6010E94ED19CB0185
:1012D000B9CFCF93DF93DC01EB01EC81FD818A81F3
:1012E0009B810896E817F90740F481E08887F0E0D1
:1012F000E0E0CF01DF91CF9108953897FD83EC8333
:101300003097B9F31296CD91DC911397209791F015
:10131000CF018C1B9D0B23E0959587952A95E1F7CE
:101320008D831396FC93EE93129715821482178285
:101330001682DFCF1196FC93EE93F3CFEF92FF92DC
:101340000F931F93CF93DF937C01DC0112962D91B5
:101350003C911397ED91FC91AB01420F531FEF01AC
:10136000C60FD71FC217D307A0F4888181110BC005
:10137000E901CF014C175D0751F00991DC011D9186
:10138000CD010117B9F381918111FDCFE8CF3097DD
:1013900051F4620F731FCB010196F701938382838F
:1013A000DB011C92F901CF01DF91CF911F910F91C9
:1013B000FF90EF900895CF93DF93EC0188818062D6
:1013C00091E090938C0280938B0210928A0210928B
:1013D000890286E793E00E94460486E793E00E9434
:1013E0007504888161E080620E9420031092880267
:1013F0008093870286E793E00E94FF03DF91CF91FD
:1014000008951F93CF93DF93EC01162F60E00E94A5
:10141000DB0941E050E001C0440F1A95EAF740951E
:10142000482360E0CE01DF91CF911F910C94880595
:10143000FC01218D2F3F29F0683048F44A960C9426
:10144000010A85898F3F19F4862F0C94A000089516
:10145000CF93DF93C3EAD3E0A981BA81988121E0D9
:1014600020938C0290938B0210928A021092890230
:10147000ED91FC9111970190F081E02D682FCD0145
:10148000099589819A810E94750461E088810E9492
:101490002003109288028093870289819A81DC015F
:1014A000ED91FC910284F385E02D0995DF91CF91B8
:1014B00008958F929F92AF92BF92CF92DF92EF9258
:1014C000FF92CF936B017C0120E030E040E85FE3C6
:1014D0000E94581787FD7AC020E030EC4AE555E4B9
:1014E000C701B6010E94231A18163CF4C12C30EC37
:1014F000D32E3AE5E32E35E4F32E6091A6037091E6
:10150000A7038091A8039091A9030E945D174B0146
:101510005C0120E030E040E855E4C701B6010E94DC
:10152000BE179B01AC01C501B4010E947B1920E0EC
:1015300030E040E05FE30E940F1920E030E040E837
:101540005FE30E940E196B017C0120E030E040E473
:1015500050E40E94581787FD40C020E030E04FE77C
:1015600053E4C701B6010E94231A181634F4C12CA3
:10157000D12C9FE7E92E93E4F92E80E00E94280AFF
:10158000C82F682F6F76606180E00E945C05C701FC
:10159000B6010E94F4198EEF0E945C056C2F80E06A
:1015A0000E945C0565E070E080E090E00E94300100
:1015B0006C2F606A80E0CF91FF90EF90DF90CF902A
:1015C000BF90AF909F908F900C945C05C12CD12C54
:1015D00020E8E22E2FE3F22E90CFC12CD12C80E414
:1015E000E82EFE2CCACF8F929F92AF92BF92CF92DD
:1015F000DF92EF92FF920F931F93CF93DF938C01B3
:101600009B01770F440B550B21583F4F4F4F5F4FB6
:10161000A0E2B3E00E949B182EEF30E040E050E0E3
:101620000E947C18245B3B4F4F4F5F4FB90190E005
:1016300080E00E945D176B017C018EEF0E94280AFA
:10164000682F70E06F5F7F4F90E080E00E945D1731
:1016500020E034E244E759E40E94BE174B015C01EC
:10166000C3EAD3E06B817C818D819E810E945D17EE
:101670009B01AC01C501B4010E947B199B01AC0127
:10168000C701B6010E947B190E94F4197B01898170
:101690009A81288131E030938C0220938B02109242
:1016A0008A0210928902B801660F771F660F771FB2
:1016B0006A5F7F4FDC01ED91FC910190F081E02D9C
:1016C000099570E060E089819A810E94B30270E020
:1016D00060E089819A810E94B302B70189819A8171
:1016E0000E94B3026F2D70E089819A810E94B3023B
:1016F00089819A81DF91CF911F910F91FF90EF9097
:10170000DF90CF90BF90AF909F908F900C94750416
:10171000CF93DF93D0E0C0E070E060E0CE010E94A4
:10172000F30A2196C630D105B9F7DF91CF9108951C
:10173000EF92FF920F931F93CF93DF93EC01162F3D
:10174000042F898D8F3FF1F0683008F053C06A96FE
:1017500069E0CE010E94DB0941E050E001C0440F86
:101760001A95EAF7013059F4482B69E0CE01DF9170
:10177000CF911F910F91FF90EF900C9488054095A9
:101780004823F3CF8D898F3F91F1288D81E090E040
:1017900001C0880F6A95EAF7413031F5822B888FB6
:1017A00060E08F890E94BF00088DFD88EE8818E0F8
:1017B000602F661F6627661F8E2D0E94BF00000FD8
:1017C00061E08F2D0E94BF0060E08F2D0E94BF005E
:1017D000115071F761E08F89DF91CF911F910F91C7
:1017E000FF90EF900C94BF0080958223D8CF642F98
:1017F000812FF2CFDF91CF911F910F91FF90EF904A
:101800000895CF93DF93EC0140E06E810E94980B26
:1018100041E06E81CE010E94980B40E06E81CE01C6
:101820000E94980B8BE891E00197F1F7DF91CF913F
:101830000895CF92DF92EF92FF920F931F93CF9371
:10184000DF938C01FC01818DE8012796C62ED12CF7
:10185000F12CE12C8F3F09F45FC07801FAE1EF0E23
:10186000F11C69E0C7010E94DB09FE0170E060E045
:10187000C1E0D0E091919E01092E01C0220F0A948F
:10188000EAF720958223A601062E02C055954795BA
:101890000A94E2F74170552701C0440F9A95EAF780
:1018A000842B6F5F7F4F6430710521F7F8019681BB
:1018B0009E0101C0220F9A95EAF7D22ED094D82229
:1018C0004D2D69E0C7010E948805F8018681AE01AF
:1018D00001C0440F8A95EAF7D42A4D2D69E0C7016B
:1018E0000E948805F801868101C0CC0F8A95EAF72D
:1018F000C0954C2F4D2169E0C7010E9488058BE8F7
:1019000091E00197F1F7DF91CF911F910F91FF9037
:10191000EF90DF90CF9008956991C8010E94180A56
:10192000A6010E2C02C0559547950A94E2F7417026
:10193000FE0131976081C8010E94980BFFEFEF1AFA
:10194000FF0A84E0E816F10439F7C801DF91CF916E
:101950001F910F91FF90EF90DF90CF900C94010CAE
:10196000CF92DF92EF92FF920F931F93CF93DF936B
:10197000EC01F62E6C810E94980B6D816F3F21F077
:1019800040E0CE010E94980B0F2D10E08F8584FF60
:101990002CC06E0187E0C80ED11CF12CE12CF601A1
:1019A00061916F01CE010E94180AA8010E2C02C09D
:1019B000559547950A94E2F74170F6013197608199
:1019C000CE010E94980BFFEFEF1AFF0A88E0E8169D
:1019D000F10429F7CE01DF91CF911F910F91FF9074
:1019E000EF90DF90CF900C94010CB80184E07595D6
:1019F00067958A95E1F7CE010E94190C6F2DCE01F3
:101A0000DF91CF911F910F91FF90EF90DF90CF90DA
:101A10000C94190C40E0682F88E893E00C94B00C0B
:101A200081E00E940A0D8BE39FE10197F1F7089591
:101A3000CF93DF93CDB7DEB728970FB6F894DEBF0C
:101A40000FBECDBF98E0E6E0F1E0DE011196019017
:101A50000D929A95E1F790919B03961708F46FEF1A
:101A600070E0660F771F21E030E02C0F3D1F620F02
:101A7000731FFB019081890F806828960FB6F89438
:101A8000DEBF0FBECDBFDF91CF910C940A0D41E0B8
:101A90000E94B00C81E090E00895FB0101900020CD
:101AA000E9F73197AF01461B570BDC01ED91FC9133
:101AB0000280F381E02D09948F929F92AF92BF92A2
:101AC000EF92FF920F931F93CF93DF93CDB7DEB7C3
:101AD000A1970FB6F894DEBF0FBECDBF7C01FA010F
:101AE000CB0119A2223008F42AE08E010F5D1F4FAE
:101AF000822E912CB12CA12CBF01A50194010E9432
:101B0000DD18F901CA016A300CF5605DD8016E93E9
:101B10008D01232B242B252B79F790E080E0109763
:101B200021F0BD01C7010E944D0DA1960FB6F8949A
:101B3000DEBF0FBECDBFDF91CF911F910F91FF9000
:101B4000EF90BF90AF909F908F900895695CDECF2B
:101B5000CF92DF92EF92FF920F931F93CF93DF9379
:101B6000EC016A017B01E881F9810190F081E02DAF
:101B70006DE209958C0144275527BA014C195D097E
:101B80006E097F092AE0CE010E945C0D800F911F33
:101B9000DF91CF911F910F91FF90EF90DF90CF9049
:101BA0000895AB01770F660B770B2AE00C945C0D60
:101BB0000F931F93CF93DF93EC0188819981009756
:101BC00059F02A813B812617370730F081E0DF91F9
:101BD000CF911F910F9108958B016F5F7F4F0E94EE
:101BE000531B009759F0998388831B830A832C81A8
:101BF0003D81232B59F7FC011082E8CF80E0E7CF2D
:101C00000F931F93CF93DF93EC018B010E94D80DAC
:101C100028813981811112C02115310519F0C901BE
:101C20000E94CA1A198218821D821C821B821A8283
:101C3000CE01DF91CF911F910F9108951D830C83E9
:101C40006AE571E0C9010E94221CF2CF85ED809304
:101C5000BC008091D5029091D602A091D702B0919C
:101C6000D8020796A11DB11D23E0B695A7959795BB
:101C700087952A95D1F72091BC0024FD03C01092CE
:101C8000D30208954091D5025091D6026091D702B7
:101C90007091D802452B462B472B69F30097A1057D
:101CA000B10541F02AE22A95F1F700C00197A10998
:101CB000B109E1CF8091D4020C94FF020F931F93DE
:101CC000CF93DF9361157105B9F08B01FC01C081E1
:101CD000D181209799F06E817F81C8010E94191CE3
:101CE000892B61F08D81882339F0F8E08F02C001E3
:101CF0001124C80FD91FEDCFD0E0C0E0CE01DF9195
:101D0000CF911F910F9108959F92AF92BF92CF9262
:101D1000DF92EF92FF920F931F93CF93DF93EC012B
:101D20008B01E42E0E94EA05D82E81110EC0F12C01
:101D30008F2DDF91CF911F910F91FF90EF90DF904A
:101D4000CF90BF90AF909F900895CE010E94BF05A5
:101D5000873209F42CC114F5823209F428C1CE016E
:101D60000E94BF05E82E5E01F1E1AF0EB11CF12C1F
:101D70009A2CCB2C8E2D0E94A705882309F443C1F1
:101D80008FE3F81609F43FC11E86F394F501E19242
:101D90005F01CE010E94BF05E82EECCF8B3509F420
:101DA0004AC08B37E1F6F8018481807880628483B1
:101DB0001182108213821282EE2009F447C01E861F
:101DC000CE010E94EA05882309F4B1CF6DE7CE0168
:101DD0000E94D905F82E81114FC0CC24C394EA94F7
:101DE000E881F981828193819B838A8384819581B3
:101DF00022813381821B930B9F838E831D821C82E1
:101E0000892B09F4C086CE010E94BF05873209F4F0
:101E100060C0823209F45DC0CE010E94BF05D82E99
:101E20000E94A7058111AEC0CF5ADF4F83E090E03A
:101E3000998388837DCFF80184818078806484834E
:101E40001182108213821282E11007C0CF5ADF4F35
:101E500085E090E0998388836ACF1E86CE010E9438
:101E6000EA05882309F463CF6DE5CE010E94D90508
:101E7000F82EEA94882311F0FD2C5ACF6F857889CB
:101E8000C8010E946909009729F4CF5ADF4F84E006
:101E900090E0CECF4E2DBC01CE010E94840E88234F
:101EA00009F445CFCE010E94EA05882309F43FCF0B
:101EB0006DE5CE010E94D9058111DECF6CE2CE0125
:101EC0000E94D9058111DACFCF5ADF4F83E090E02D
:101ED000C1CFCE010E942906882309F429CFCE0163
:101EE0000E94EA05882309F423CF6AE3CE010E9409
:101EF000D905882309F498CFEA81FB818C819D81E3
:101F0000E80FF91F1082AC80BD806A817B81C80117
:101F10000E945E0EBC01892BA9F4B50188819981CC
:101F20000E949E095C016F857889C8010E94690939
:101F3000FC01892B09F4A9CF848180688483B7824E
:101F4000A682BF014E2DCE010E94840E882309F483
:101F5000EFCECE010E94EA05882309F4E9CE6DE7B1
:101F6000CE010E94D905811120C06CE2CE010E94F1
:101F7000D905882309F458CFCE010E94EA058111C2
:101F80002FCFD6CE1E866D2DCE010E940F06CE011C
:101F90000E94BF05D82E0E94A7058111F3CFE881CA
:101FA000F9818085811171CF9ACFF82EC1CEE88159
:101FB000F981828193819B838A83848195812281A7
:101FC0003381821B930B9F838E831D821C82892BFE
:101FD00011F481E08087CE010E942906F82E882323
:101FE00009F4A5CECC80DD80B601888199810E945C
:101FF0009E09F801248120782560248391838083C1
:10200000D382C28295CEFE01EF0DF11D118A89891E
:10201000843781F4F801848180788660848381E04C
:102020008083F4E0FF1609F427CFCF5ADF4F82E018
:1020300090E010CF863641F4F80184818078866084
:1020400084831082F5E0EECF8E3621F484E0F8121E
:10205000ECCF12CFB801892D9C2D0E941707882341
:1020600009F432CF09CFFC01248125FD0C945E0ECA
:1020700090E080E00895CF92DF92EF92FF920F936D
:102080001F93CF93DF93CDB7DEB7C157D1400FB6C3
:10209000F894DEBF0FBECDBF89ED92E00E9404022E
:1020A0008E010F5F1F4F181619060CF029C11A82F6
:1020B00019821C821B821E821D8270E060E0C801B2
:1020C0000E94000E0E94B60197FD26C08A3091053D
:1020D00019F1C15FDE4F8883CF50D140C05FDE4F22
:1020E0001882C051D140ED80FE808FEFE81AF80AC7
:1020F000B701C8010E94D80D882321F329813A81B4
:102100008D819E81BE01615F7E4F820F931F0E9471
:10211000221CFE82ED82D6CF8091820390918303B0
:10212000009709F4C0C069817A816115710509F4CD
:10213000B8C040918403509185032D813E814217A0
:10214000530708F4AEC00E94221C8D819E8190939B
:102150008703809386031E821D8289819A8100975E
:1021600011F00E94CA1ACE010F969A8389839C832C
:102170008B83EFE0F1E0EC0FFD1FFE83ED83F8872A
:10218000EF8319861E86209182033091830380910C
:10219000860390918703820F931FC659DE4F1983E0
:1021A0000883CA56D14048E0E55AFF4FDE01AE59D8
:1021B000BE4F01900D924A95E1F748E0FE01EE59BD
:1021C000FE4FDE01A15FBE4F01900D924A95E1F7EF
:1021D000C95EDE4F1882C751D140C85EDE4F3983D9
:1021E0002883C851D140C65EDE4F99838883CA5187
:1021F000D140C35EDE4F1882CD51D140C25EDE4F6A
:1022000019830883CE51D140C05ADE4F19821882FB
:10221000C056D1404AE0BE01665F7F4FCE01815F6C
:102220009E4F0E94840EC05ADE4FE880F980C0564F
:10223000D140E114F10471F4C45EDE4F8881CC51C9
:10224000D140882309F4D6C08E8583FFD3C093E0A4
:10225000E92EF12C6BE571E089ED92E00E944D0DC5
:10226000F701EE0FFF1FE25FFE4F60817181611584
:10227000710509F078C065E671E089ED92E00E9491
:102280004D0DCF58DE4F0FB6F894DEBF0FBECDBF59
:10229000DF91CF911F910F91FF90EF90DF90CF9042
:1022A00008950E94CA1A89819A819093830380932A
:1022B00082038B819C8190938503809384038D811D
:1022C0009E8190938703809386031A8219821C82D1
:1022D0001B8241CF0E94880880930D0263E671E063
:1022E000CE010A960E9433100097D9F10E94880807
:1022F00080930C0270E060E082E893E00E94000EA0
:1023000020910E024091100230911402809112022D
:10231000982F930F4D834E83492F420F4195498348
:10232000422F430F481B4A83820F831B8B83921BD0
:102330009C8380E0F80120EC30E48630C9F4F12C75
:102340006801F6E0FF16F9F0C601801B910BF6015B
:1023500061916F01062E000C770B0E94F30AF39433
:10236000F0CF80E0C5CF89ED92E00E944D0D83CF84
:102370009081913424F030838F5F3196DECF903C92
:10238000DCF72083F9CF80910D028823E1F08130C2
:1023900019F161E08F3FC1F080910C02882311F1A7
:1023A000813031F18F3F41F460E08BE00E94BF004B
:1023B00061E08AE00E94BF006AE070E080E090E0A7
:1023C0000E9430015ECF60E083E00E94BF0060E0C9
:1023D00084E00E94BF00E0CF60E083E00E94BF0085
:1023E00061E0F6CF60E08BE00E94BF0060E0E1CFEB
:1023F00061E0F9CF68E671E0CE010A960E943310E1
:102400000E94F708909315028093140262E072E034
:10241000CE010A960E9433100E94F708909313028F
:10242000809312026AE671E0CE010A960E94331090
:102430000E94F70890931102809310026CE671E0FD
:10244000CE010A960E9433100E94F70890930F0263
:1024500080930E026EE671E0CE010A960E94331060
:10246000009709F037CF80E037CF1F920F920FB659
:102470000F9211242F933F938F939F93AF93BF930A
:102480008091830290918402A0918502B09186028E
:1024900030917E0223E0230F2D3758F50196A11DC0
:1024A000B11D20937E028093830290938402A093B7
:1024B0008502B093860280917F0290918002A09164
:1024C0008102B09182020196A11DB11D80937F020D
:1024D00090938002A0938102B0938202BF91AF914A
:1024E0009F918F913F912F910F900FBE0F901F9052
:1024F000189526E8230F0296A11DB11DD2CF1F9279
:102500000F920FB60F9211242F933F934F935F9327
:102510006F937F938F939F93AF93BF93EF93FF93AB
:1025200089ED92E00E942402FF91EF91BF91AF915B
:102530009F918F917F916F915F914F913F912F91DB
:102540000F900FBE0F901F9018951F920F920FB60D
:102550000F9211242F938F939F93EF93FF93E0910A
:10256000E902F091EA028081E091EF02F091F0023D
:1025700082FD1BC090818091F2028F5F8F7320914A
:10258000F302821741F0E091F202F0E0E752FD4FD2
:10259000958F8093F202FF91EF919F918F912F91F0
:1025A0000F900FBE0F901F9018958081F4CF1F924F
:1025B0000F920FB60F9211242F933F934F935F9377
:1025C0006F937F938F939F93AF93BF93EF93FF93FB
:1025D0008091B900887F803609F44AC0F0F58832CE
:1025E00009F4A7C018F5803109F49BC0B8F488231A
:1025F00009F4F9C0883009F494C0FF91EF91BF91BC
:10260000AF919F918F917F916F915F914F913F918A
:102610002F910F900FBE0F901F901895883109F4DD
:1026200088C0803251F78093B10214C0803409F41D
:102630009DC040F48033B9F38833F9F68093B1023A
:1026400085ECB0C0803509F485C0883509F496C0A2
:10265000883499F60E94260ED0CF883909F48CC0B0
:1026600038F5883729F050F4883611F0803729F68C
:1026700083E08093D3021092790257C0883809F41E
:102680007BC0803919F0803809F0B7CF809179028A
:10269000803208F071C0E091790281E08E0F809362
:1026A00079028091BB00F0E0E75AFD4F80833DC086
:1026B000803B39F0E0F4803A09F479C0883A09F0B7
:1026C0009CCF84E08093D30210925802109257025C
:1026D000E0917A02F0917B02099580915702811175
:1026E0000FC081E0809357021092370209C0803CEE
:1026F00009F4A6CF883C09F4A3CF883B09F07DCF2D
:10270000E091580281E08E0F80935802F0E0E95C7E
:10271000FD4F80818093BB009091580280915702B9
:1027200029C08091AE028093BB0085EC8093BC00F1
:1027300064CF9091B0028091AF02981758F5E09164
:10274000B00281E08E0F8093B002F0E0E357FD4FBE
:102750008081E9CFE091B00281E08E0F8093B002DA
:102760008091BB00F0E0E357FD4F80839091B00271
:102770008091AF029817C8F285E8D8CFE091B002F7
:1027800081E08E0F8093B0028091BB00F0E0E357B0
:10279000FD4F80838091B20281115CCF81E08093F4
:1027A000AD0284EA8093BC001092D30226CF85EC60
:1027B0008093BC001092D30280917902803230F471
:1027C000E0917902F0E0E75AFD4F108260917902C2
:1027D00070E0E0917C02F0917D0289E592E009953C
:1027E000109279020ACF1092B10234CFE9EDF2E0F3
:1027F0001382128288EE93E0A0E0B0E08483958398
:10280000A683B7832EE131E03183208325EC30E0CD
:102810003587248724EC30E03787268720EC30E0AA
:10282000318B208B21EC30E0338B228B22EC30E09B
:10283000358B248B26EC30E0378B268B118E128E55
:10284000138E148EE6E7F3E013821282848395835D
:10285000A683B78380E391E091838083A3EAB3E00A
:1028600080E48C931296FC93EE931197E8E8F3E0E2
:102870001382128282E491E091838083118E178605
:1028800081E084838FEF858382E0868383E0878382
:1028900084E0808785E0818786E08287E2E8F3E054
:1028A00011821082138212821582148270E060E01D
:1028B000CF010C94000E789484B5826084BD84B5F9
:1028C000816084BD85B5826085BD85B5816085BD2B
:1028D00080916E00816080936E00109281008091E3
:1028E000810082608093810080918100816080936B
:1028F0008100809180008160809380008091B10090
:1029000084608093B1008091B00081608093B000BA
:1029100080917A00846080937A0080917A0082604E
:1029200080937A0080917A00816080937A00809110
:102930007A00806880937A001092C10083E00E9440
:10294000A00084E00E94A0008BE00E94A0008AE02A
:102950000E94A00085E00E94A00086E00E94A000E6
:1029600085E00E94A000EDE9F0E0E491E33009F495
:102970003FC250F4E130E1F0E23009F433C261E0EB
:1029800085E00E94BF0019C0E73009F43DC2E8307D
:1029900009F443C2E43099F780918000806280930B
:1029A000800084EB90E090938B0080938A0005C0B8
:1029B00084B5806884BD84EB87BD86E00E94A0005A
:1029C00061E086E00E94BF00E091E902F091EA0236
:1029D00082E08083E091E502F091E6021082E091CE
:1029E000E702F091E80280E180831092F102E09129
:1029F000ED02F091EE0286E08083E091EB02F0912F
:102A0000EC02808180618083E091EB02F091EC0226
:102A1000808188608083E091EB02F091EC028081FC
:102A200080688083E091EB02F091EC0280818F7DE1
:102A30008083109288021092870210928A0210926C
:102A400089020E94E10202E611E010937B020093EA
:102A50007A02C3E6D1E0D0937D02C0937C0260E8A5
:102A600080E00E945C056AE070E080E090E00E94F7
:102A7000300160E070E08AE794E40E94590A80E443
:102A800098E7ADE7B1E08093A6039093A703A093E6
:102A9000A803B093A9038091A1038F3F09F4C6C195
:102AA00087708093A203109288021092870210927E
:102AB0008A02109289020E94E10210937B02009325
:102AC0007A02D0937D02C0937C028091A20380623F
:102AD00091E090938C0280938B0260E086E793E014
:102AE0000E9446046FEF86E793E00E94460460E090
:102AF00086E793E00E94460460E086E793E00E9448
:102B0000460460E086E793E00E94460460E086E7C2
:102B100093E00E94460460E086E793E00E9446044A
:102B200060E086E793E00E94460460E086E793E079
:102B30000E94460460E086E793E00E94460460E05D
:102B400086E793E00E94460486E793E00E947504BE
:102B500067E082EA93E00E94010A69E082EA93E07A
:102B60000E94DB09482F406869E082EA93E00E94F6
:102B70008805CFE8D3E003E913E0699188E893E0A2
:102B80000E94180A0C171D07C1F760918C0368306A
:102B900020F482EA93E00E94010A60918E0368307B
:102BA00020F482EA93E00E94010A809197038860F2
:102BB0008093970382E080939B0310929C038BE3A6
:102BC0009DE00197F1F740E060918C0388E893E085
:102BD0000E94980B40E060918E0388E893E00E9489
:102BE000980B60918D036F3F29F040E088E893E0F7
:102BF0000E94980B8091970384FD3BC163E088E8B5
:102C000093E00E94190CCBE4D6E4CE010197F1F7D2
:102C100063E088E893E00E94190C2197F1F763E0E4
:102C200088E893E00E94190C83E592E00197F1F7A0
:102C300062E088E893E00E94190C8091970380621B
:102C40000E940A0D84E0809398038CE00E940A0D94
:102C50000E94100D82E08093990386E00E940A0D85
:102C600080EC9CEFABE9B1E08093A6039093A703BF
:102C7000A093A803B093A90360E070E088E492E415
:102C80000E94590A0E94880B60E083E00E94BF0006
:102C900060E084E00E94BF0060E08BE00E94BF0023
:102CA00060E08AE00E94BF0060E771E088E893E09E
:102CB0000E944D0D61E080E00E94180D6FE771E009
:102CC00088E893E00E944D0D68EE73E080E090E0AC
:102CD0000E9430010E94100DC3E0D0E06DE871E069
:102CE00089ED92E00E944D0DBE0189ED92E00E94B7
:102CF000D10D6AE971E089ED92E00E944D0D65E623
:102D000071E089ED92E00E944D0D60E081E00E944B
:102D1000180D6DE871E088E893E00E944D0DBE014A
:102D200088E893E00E94D10D61E081E00E94180DD7
:102D300066EA71E088E893E00E944D0D68EE73E06A
:102D400080E090E00E943001219741F60E94100D32
:102D5000C12CD12C760160EB71E088E893E00E94F1
:102D60004D0D2AE0B701A60188E893E00E945C0DB2
:102D700064E170E0C6010E94F30A68EE73E080E04F
:102D800090E00E9430010E94100D70E060E0C601EA
:102D90000E94F30A8FEFC81AD80AE80AF80A86E0F8
:102DA000C816D104E104F104B1F66FEB71E088E8D4
:102DB00093E00E944D0D68EE73E080E090E00E9489
:102DC00030010E94100D0E94880BC0E0D0E00E94EC
:102DD0003B102097E1F30E9410028823C1F30E9468
:102DE0000000F5CF84B5806284BD84EB88BDE5CD5D
:102DF0008091800080688093800084EB90E09093C5
:102E0000890080938800D9CD8091B000806880933C
:102E1000B00084EB8093B300D0CD8091B00080628D
:102E20008093B00084EB8093B400C7CD80919D0364
:102E30008F3F81F080919E030E94A00080919D03AE
:102E40000E94A00080919F030E94A00080E88093D0
:102E5000A003ABCE80918C030E94A00080918D03D3
:102E60008F3F11F00E94A00080918E030E94A0006D
:102E70009CCE80620E940A0D8BE496E40197F1F7E4
:102E80008091970380620E940A0D83E592E001978A
:102E9000F1F78091970380620E940A0DCECE809157
:102EA000820390918303009711F00C94CA1A08953D
:102EB0000E949A1708F481E00895E89409C097FBEE
:102EC0003EF490958095709561957F4F8F4F9F4F01
:102ED0009923A9F0F92F96E9BB279395F695879545
:102EE00077956795B795F111F8CFFAF4BB0F11F408
:102EF00060FF1BC06F5F7F4F8F4F9F4F16C08823AF
:102F000011F096E911C0772321F09EE8872F762FE4
:102F100005C0662371F096E8862F70E060E02AF025
:102F20009A95660F771F881FDAF7880F9695879511
:102F300097F90895990F0008550FAA0BE0E8FEEFE6
:102F400016161706E807F907C0F012161306E4076D
:102F5000F50798F0621B730B840B950B39F40A2666
:102F600061F0232B242B252B21F408950A2609F444
:102F7000A140A6958FEF811D811D08950E94D11754
:102F80000C9442180E94341838F00E943B1820F02C
:102F9000952311F00C942B180C94311811240C94D7
:102FA00076180E94531870F3959FC1F3950F50E067
:102FB000551F629FF001729FBB27F00DB11D639FEB
:102FC000AA27F00DB11DAA1F649F6627B00DA11D91
:102FD000661F829F2227B00DA11D621F739FB00D37
:102FE000A11D621F839FA00D611D221F749F3327A7
:102FF000A00D611D231F849F600D211D822F762F40
:103000006A2F11249F5750409AF0F1F088234AF01C
:10301000EE0FFF1FBB1F661F771F881F9150504088
:10302000A9F79E3F510580F00C942B180C9476184C
:103030005F3FE4F3983ED4F3869577956795B7950F
:10304000F795E7959F5FC1F7FE2B880F911D969529
:10305000879597F9089597F99F6780E870E060E099
:1030600008959FEF80EC089500240A941616170621
:1030700018060906089500240A9412161306140669
:1030800005060895092E0394000C11F4882352F0CC
:10309000BB0F40F4BF2B11F460FF04C06F5F7F4F84
:1030A0008F4F9F4F089557FD9058440F551F59F06B
:1030B0005F3F71F04795880F97FB991F61F09F3F25
:1030C00079F087950895121613061406551FF2CF4E
:1030D0004695F1DF08C0161617061806991FF1CF9E
:1030E00086957105610508940895E894BB276627C5
:1030F0007727CB0197F90895052E97FB1EF40094CE
:103100000E94931857FD07D00E94DD1807FC03D0DA
:103110004EF40C94931850954095309521953F4F5F
:103120004F4F5F4F089590958095709561957F4FB3
:103130008F4F9F4F08950E94FF18A59F900DB49F39
:10314000900DA49F800D911D112408952F923F9200
:103150004F925F926F927F928F929F92AF92BF92A7
:10316000CF92DF92EF92FF920F931F93CF93DF9353
:10317000CDB7DEB7CA1BDB0B0FB6F894DEBF0FBEB0
:10318000CDBF09942A88398848885F846E847D84FD
:103190008C849B84AA84B984C884DF80EE80FD80FF
:1031A0000C811B81AA81B981CE0FD11D0FB6F89475
:1031B000DEBF0FBECDBFED010895A1E21A2EAA1BFE
:1031C000BB1BFD010DC0AA1FBB1FEE1FFF1FA217D7
:1031D000B307E407F50720F0A21BB30BE40BF50BD4
:1031E000661F771F881F991F1A9469F7609570955D
:1031F000809590959B01AC01BD01CF010895A29FE0
:10320000B001B39FC001A39F700D811D1124911DBA
:10321000B29F700D811D1124911D08955058BB2738
:10322000AA270E9426190C9442180E94341838F0DC
:103230000E943B1820F039F49F3F19F426F40C94B7
:1032400031180EF4E095E7FB0C942B18E92F0E943F
:10325000531858F3BA17620773078407950720F0CD
:1032600079F4A6F50C9475180EF4E0950B2EBA2F90
:10327000A02D0B01B90190010C01CA01A00111247C
:10328000FF27591B99F0593F50F4503E68F11A1628
:10329000F040A22F232F342F4427585FF3CF4695B9
:1032A00037952795A795F0405395C9F77EF41F16DB
:1032B000BA0B620B730B840BBAF09150A1F0FF0FA5
:1032C000BB1F661F771F881FC2F70EC0BA0F621F91
:1032D000731F841F48F4879577956795B795F79581
:1032E0009E3F08F0B0CF9395880F08F09927EE0F16
:1032F0009795879508950E948F190C9442180E9403
:103300003B1858F00E94341840F029F45F3F29F030
:103310000C942B1851110C9476180C9431180E94AF
:10332000531868F39923B1F3552391F3951B550B6B
:10333000BB27AA2762177307840738F09F5F5F4F88
:10334000220F331F441FAA1FA9F335D00E2E3AF0C7
:10335000E0E832D091505040E695001CCAF72BD0DF
:10336000FE2F29D0660F771F881FBB1F2617370730
:103370004807AB07B0E809F0BB0B802DBF01FF2762
:1033800093585F4F3AF09E3F510578F00C942B18FC
:103390000C9476185F3FE4F3983ED4F386957795C6
:1033A0006795B795F7959F5FC9F7880F911D96951B
:1033B000879597F90895E1E0660F771F881FBB1F77
:1033C000621773078407BA0720F0621B730B840B24
:1033D000BA0BEE1F88F7E09508950E94F4196894DF
:1033E000B1110C94761808950E945B1888F09F57CD
:1033F00098F0B92F9927B751B0F0E1F0660F771F19
:10340000881F991F1AF0BA95C9F714C0B13091F00E
:103410000E947518B1E008950C947518672F782FE5
:103420008827B85F39F0B93FCCF3869577956795D3
:10343000B395D9F73EF490958095709561957F4F3F
:103440008F4F9F4F08950E949A1708F48FEF0895A9
:10345000EE0FFF1F0590F491E02D09940F931F9339
:10346000CF93DF938230910510F482E090E0E091F9
:10347000AC03F091AD0330E020E0B0E0A0E0309785
:1034800099F42115310509F44AC0281B390B243061
:103490003105D8F58A819B816115710589F1FB01A0
:1034A00093838283FE0111C0408151810281138187
:1034B00048175907E0F04817590799F4109761F039
:1034C00012960C93129713961C933296CF01DF91AC
:1034D000CF911F910F9108950093AC031093AD030A
:1034E000F4CF2115310551F04217530738F0A901E7
:1034F000DB019A01BD01DF01F801C1CFEF01F9CF76
:103500009093AD038093AC03CDCFFE01E20FF31F88
:10351000819391932250310939832883D7CF209109
:10352000AA033091AB03232B41F420910201309187
:1035300003013093AB032093AA0320910001309143
:1035400001012115310541F42DB73EB74091040129
:1035500050910501241B350BE091AA03F091AB03B8
:10356000E217F307A0F42E1B3F0B2817390778F05A
:10357000AC014E5F5F4F2417350748F04E0F5F1FB9
:103580005093AB034093AA03819391939FCFF0E0B4
:10359000E0E09CCFCF93DF930097E9F0FC013297F6
:1035A00013821282A091AC03B091AD03ED0130E023
:1035B00020E01097A1F420813181820F931F209188
:1035C000AA033091AB032817390709F061C0F093C3
:1035D000AB03E093AA03DF91CF910895EA01CE17E0
:1035E000DF07E8F54A815B819E0141155105B1F77E
:1035F000E901FB83EA8349915991C40FD51FEC1768
:10360000FD0761F4808191810296840F951FE90185
:1036100099838883828193819B838A83F0E0E0E0B1
:1036200012968D919C9113970097B9F52D913C912D
:103630001197CD010296820F931F2091AA0330911A
:10364000AB032817390739F6309751F51092AD03BF
:103650001092AC03B093AB03A093AA03BCCFD38367
:10366000C28340815181840F951FC817D90761F427
:103670004E5F5F4F88819981480F591F5183408366
:103680008A819B81938382832115310509F0B0CF14
:10369000F093AD03E093AC039ECFFD01DC01C0CFFE
:1036A00013821282D7CFB0E0A0E0E9E5FBE10C94F1
:1036B000A8188C01009751F4CB010E942E1A8C019E
:1036C000C801CDB7DEB7E0E10C94C418FC01E60FE9
:1036D000F71F9C0122503109E217F30708F49DC03F
:1036E000D901CD91DC911197C617D70798F0C53055
:1036F000D10530F3CE0104978617970708F3C61B50
:10370000D70B2297C193D1936D937C93CF010E94E5
:10371000CA1AD6CF5B01AC1ABD0A4C018C0E9D1E95
:10372000A091AC03B091AD03512C412CF12CE12CB4
:10373000109731F58091AA039091AB0388159905F4
:1037400009F05CC04616570608F058C08091000189
:1037500090910101009741F48DB79EB7409104010B
:1037600050910501841B950BE817F90708F055C027
:10377000F093AB03E093AA03F90171836083A0CFB8
:103780008D919C91119712966C90129713967C9044
:103790001397A815B90559F56C0142E0C40ED11C68
:1037A000CA14DB0420F1AC014A195B09DA01129654
:1037B000159780F06282738251834083D9016D93A3
:1037C0007C93E114F10471F0D7011396FC93EE930E
:1037D000129776CF22968C0F9D1FF90191838083DB
:1037E000F301EFCFF093AD03E093AC0369CF48163C
:1037F000590608F42C017D01D3019ACFCB010E9418
:103800002E1A7C01009749F0AE01B8010E94101CED
:10381000C8010E94CA1A870153CF10E000E050CFC0
:10382000FB01DC0102C001900D9241505040D8F7DD
:103830000895FB01DC018D91019080190110D9F3ED
:10384000990B0895FB01DC0101900D920020E1F736
:10385000089510E0C5E7D0E004C0FE010E94281AD8
:0C3860002196C637D107C9F7F894FFCFB6
:10386C000000AE0380000000400014005400D001A2
:10387C00D301DE01EE01FB01040200000000460250
:10388C006601930193020402A201F60100000000FC
:10389C0046041904A405EF031204FF03F00300000F
:1038AC000000470D6601A40564012F2F22225C5CE9
:1038BC006208660C6E0A720D7409004572726F72A2
:1038CC003A200072000D0A0078007A007700670039
:1038DC00532E542E452E562E452020524F56005610
:1038EC00657273696F6E20302E312E310053746106
:1038FC007274696E6720696E2000207365636F6E49
:10390C006428732921007365636F6E642873290022
:10391C0054657374696E67204D6F746F7220005319
:10392C0074617274696E67206D6F746F72732100AD
:10393C004F6B00456D707479496E70757400496EEB
:10394C00636F6D706C657465496E70757400496E4B
:10395C0076616C6964496E707574004E6F4D656D5F
:0C396C006F727900546F6F446565700045
:00000001FF
